:0400000067EF0DF0A9
:1000080000C018F001C017F00CC016F00DC015F0B4
:10001800F2A45DD1FC0ED76EF10ED66E33C000F09F
:1000280034C001F029EC08F0CD0E046ECC0E056E3C
:100038004C0E066E7B0E076E38EC0CF000C035F0E7
:1000480001C036F002C037F003C038F0336A346AB2
:1000580035C000F036C001F037C002F038C003F0F8
:10006800000E046E000E056E700E066E840E076E8E
:100078006CEC05F0000E046E000E056E000E066EA8
:10008800850E076E38EC0CF000C052F001C053F03A
:1000980002C054F003C055F02BC000F02CC001F092
:1000A80029EC08F052C004F053C005F054C006F023
:1000B80055C007F0F6EC0CF000C02FF001C030F08E
:1000C80002C031F003C032F027C000F028C001F0B0
:1000D80029C002F02AC003F02FC004F030C005F098
:1000E80031C006F032C007F0FFEC05F000C027F081
:1000F80001C028F002C029F003C02AF00A0E006EE1
:10010800D70E016E230E026E780E036E2FC004F018
:1001180030C005F031C006F032C007F06CEC05F0D5
:1001280000C052F001C053F002C054F003C055F0B3
:1001380019C000F01AC001F029EC08F052C004F010
:1001480053C005F054C006F055C007F0FFEC05F0A9
:1001580000C052F001C053F002C054F003C055F083
:100168000A0E006ED70E016E230E026E780E036E15
:1001780027C004F028C005F029C006F02AC007F0FF
:100188006CEC05F052C004F053C005F054C006F002
:1001980055C007F0FFEC05F0CEEC0BF000C01BF0EB
:1001A80001C01CF0800E1C18006E800E005C02E17D
:1001B800000E1B5C03E21B6A1C6A0DD0800E006EE9
:1001C800800E1C18005C02E11B50FF0804E2FF0EC1
:1001D8001B6E000E1C6E1BC056F058EC0BF0010E87
:1001E8006B6EF1D835C000F036C001F037C002F0B0
:1001F80038C003F0000E046E000E056E700E066E19
:10020800840E076E6CEC05F0000E046E000E056E91
:10021800000E066E850E076E38EC0CF000C056F026
:1002280001C057F002C058F003C059F0390E5A6E99
:10023800000E5B6E4AEC08F0010E566E010E576E0A
:10024800390E586E000E596E8FEC0BF01BC056F02D
:100258001CC057F0390E586E000E596EFAEC0CF0AF
:10026800010E566E0A0E576E390E586E000E596EF4
:100278008FEC0BF02BC056F02CC057F0390E586E8F
:10028800000E596EFAEC0CF0020E566E0B0E576EFD
:10029800390E586E000E596E8FEC0BF02FC056F0C9
:1002A80030C057F031C058F032C059F0390E5A6E8C
:1002B800000E5B6E4AEC08F0020E566E010E576E89
:1002C800390E586E000E596E8FEC0BF0F294F2A2B4
:1002D8000BD0010E3324006E000E3420016E00C0D6
:1002E80033F001C034F0F292F0A00BD0C3EC0AF066
:1002F800150EB36E9F0EB26EA192A082B180F096D9
:10030800F090A1A205D0A192A092B190F086F090B1
:1003180018C000F017C001F016C00CF015C00DF0A1
:020328001100C2
:0E032A00026A016A006A086A036A000E120085
:06033800000000001200AD
:10033E000F0E0C6E470E0D6E0D2EFED70C2EFCD72B
:06034E0000000000120097
:100354000B840BAEB5EF01F0010E036E026A016A65
:0A036400006A0A360232FF0E120092
:08036E000AAE029E000E12000F
:0A037600210E0D6E0D2EFED71200B1
:100380000B820BAECAEF01F00368026801680068D7
:080390000A360232FF0E1200D2
:10039800086A096A100E0C6E0134083609360450D2
:1003A800085E0550D8A0053C095ED8B007D00450B7
:1003B80008260550D8B0053C0926D89000360136E5
:0603C8000C2EEAD7120022
:1003CE006BBE02D0839E01D0838E6BBC02D0839C09
:1003DE0001D0838C6BBA02D0839A01D0838A6BB81A
:1003EE0002D0839801D083884DB002D0848401D08E
:1003FE00849484829ADF84926BB602D0839E01D05D
:10040E00838E6BB402D0839C01D0838C6BB202D0EE
:10041E00839A01D0838A6BB002D0839801D08388EF
:10042E004DB002D0848401D0849484827EDF849285
:0C043E004DA002D07DDF01D097DF12003E
:10044A000CB067EF02F00CA20DEF03F00E6A000E7B
:10045A0002647EEF02F0F00E0214D8A449EF02F013
:10046A00023A01380F0B02260138F00B016E0038F0
:10047A000F0B01260038F00B006E08380F0B002610
:10048A000838F00B086E0E84D89002BE62EF02F0B4
:10049A0008360036013602360E2A02BE62EF02F034
:1004AA0008360036013602360E2A02BE62EF02F024
:1004BA0008360036013602360E2A0E50036403EF60
:1004CA0003F0035E0BBC08AE08EF03F0D880800E81
:1004DA0008640030000E002201220222D8A008EF90
:1004EA0003F0023201320032034A0DEF03F008EF43
:1004FA0003F001C002F000C001F008C000F0086A71
:10050A00000E0E860264B5EF02F0F00E0214D8A4B3
:10051A009DEF02F0023A01380F0B02260138F00B68
:10052A00016E00380F0B01260038F00B006E0E84A6
:10053A00D89002BE62EF02F00036013602360E2A69
:10054A0002BE62EF02F00036013602360E2A02BE01
:10055A0062EF02F00036013602360E2A62EF02F02E
:10056A0001C002F000C001F0006A000E0E960E886B
:10057A000264E2EF02F0F00E0214D8A4CDEF02F00A
:10058A00023A01380F0B02260138F00B016E0E8475
:10059A00D89002BE62EF02F0013602360E2A02BE7F
:1005AA0062EF02F0013602360E2A02BE62EF02F054
:1005BA00013602360E2A62EF02F001C002F0016A29
:1005CA00000E0E86026412EF03F0F00E0214D8A495
:1005DA00F1EF02F0023A0E84D89002BE62EF02F006
:1005EA0002360E2A02BE62EF02F002360E2A02BE5E
:1005FA0062EF02F002360E2A62EF02F0010E0C6E72
:10060A00A4DE15EF03F0020E0C6EACDE15EF03F05C
:10061A00040E0C6EB0DE15EF03F0080E0C6E80DED1
:02062A001200BC
:10062C000C6A0E6A0250D8A42FEF03F001C002F03E
:10063C0000C001F0006A0E860250D8A42FEF03F020
:10064C0001C002F0016A0E960E880250D8B441EF38
:10065C0003F00E50035ED8A4D8A046EF03F0D89058
:10066C0002BE4BEF03F0003601360236032E36EF96
:10067C0003F046EF03F0010E0C6E51DE4EEF03F06B
:10068C00020E0C6E61DE4EEF03F0040E0C6E69DE92
:02069C0012004A
:10069E00686A050E685C0AE268506624E16E000E18
:1006AE006720E26E200EE66E682AF3D76850662445
:1006BE00E16E000E6720E26EE66A680668506624F8
:1006CE00696E000E67206A6E0A0E046E000E056ECD
:1006DE0064C000F065C001F058DE08C000F009C02B
:1006EE0001F0300E002669C0E1FF6AC0E2FF00C0D3
:1006FE00E6FF0A0E046E000E056E64C000F065C0C3
:10070E0001F043DE00C064F001C065F0000E011878
:10071E0002E1000E001801E102D06806CFD71200E8
:10072E000B800BAEA3EF03F0026A0AAEFF0E026E51
:0C073E00016E006E0A360232FF0E12003F
:10074A000B6A0A6A096A00500402F4CF09F0F3CF6F
:10075A0008F001500502F4CF0BF0F3CF0AF0005075
:10076A000502F3500926F4500A22E86A0B220150C6
:10077A000402F3500926F4500A22E86A0B2208C040
:10078A0000F009C001F00AC002F00BC003F0120029
:10079A000A6A0350D8A40A800750D8A40A820A50C9
:1007AA00D8B430EF04F0030AD8B4E9EF03F00AB082
:1007BA00E4EF03F006AE2EEF04F02CEF04F002AEE5
:1007CA002CEF04F02EEF04F00250800B0A6E029E0A
:1007DA000650800B069E0A18D8B4FAEF03F00A50A6
:1007EA00D8B42CEF04F02EEF04F00750035CD8B411
:1007FA0004EF04F0D8A020EF04F026EF04F006502E
:10080A00025CD8B40EEF04F0D8A020EF04F026EF73
:10081A0004F00550015CD8B418EF04F0D8A020EF1A
:10082A0004F026EF04F00450005CD8B430EF04F072
:10083A00D8B026EF04F00A52D8B42EEF04F02CEF09
:10084A0004F00A52D8B42CEF04F02EEF04F0D8804A
:0E085A001200D8901200D880D884120012002C
:0C0868004D9064C06BF0AFDD4D801200BD
:10087400FF0E686EFF0E696E95D066C0E1FF67C01B
:10088400E2FF050EE66EFBD066C0E1FF67C0E2FF43
:10089400060EE66E686A696AF2D066C0E1FF67C058
:1008A400E2FFE66AECD066C0E1FF67C0E2FF010E3A
:1008B400E66EE5D066C0E1FF67C0E2FF060EE66EB5
:1008C400010E686E000E696EDAD066C0E1FF67C083
:1008D400E2FF060EE66E020E686E000E696ECFD061
:1008E40066C0E1FF67C0E2FF060EE66E030E686EA7
:1008F400000E696EC4D066C0E1FF67C0E2FF020E5D
:10090400E66EBDD066C0E1FF67C0E2FF060EE66E8C
:10091400040E686E000E696EB2D066C0E1FF67C057
:10092400E2FF060EE66E050E686E000E696EA7D035
:1009340066C0E1FF67C0E2FF060EE66E060E686E53
:10094400000E696E9CD066C0E1FF67C0E2FF030E33
:10095400E66E95D066C0E1FF67C0E2FF060EE66E64
:10096400070E686E000E696E8AD066C0E1FF67C02C
:10097400E2FF060EE66E080E686E000E696E7FD00A
:1009840066C0E1FF67C0E2FF060EE66E090E686E00
:10099400000E696E74D066C0E1FF67C0E2FF040E0A
:1009A400E66E6DD0000E651802E1E70E6418D8B447
:1009B40064D7000E651802E1D70E6418D8B464D762
:1009C400000E651802E1B70E6418D8B466D7000E9D
:1009D400651802E1770E6418D8B465D7000E65185F
:1009E40002E1EB0E6418D8B465D7000E651802E175
:1009F400DB0E6418D8B469D7000E651802E1BB0E8B
:100A04006418D8B46DD7000E651802E17B0E641823
:100A1400D8B471D7000E651802E1ED0E6418D8B48D
:100A240071D7000E651802E1DD0E6418D8B475D7CD
:100A3400000E651802E1BD0E6418D8B479D7000E13
:100A4400651802E17D0E6418D8B47DD7000E6518D0
:100A540002E1EE0E6418D8B47DD7000E651802E1E9
:100A6400DE0E641882E0000E651802E1BE0E641802
:100A740087E0000E651802E17E0E64188CE068C001
:080A840000F069C001F012004E
:100A8C0064C004F065C005F004C002F005C003F0BA
:100A9C00044A052A66C000F067C001F0664A672A5E
:100AAC0000C0E9FF01C0EAFF02C0E1FF03C0E2FFA2
:100ABC00EECFE6FF02C0E9FF03C0EAFFEE5201E011
:0C0ACC00E3D764C000F065C001F0120028
:100AD800086A096A000E07620364F1EF05F0025024
:100AE80006180A6E075003267E0ED8A082EF05F07E
:100AF800035ED8B0F6EF05F086EF05F0035ED8A0E8
:100B0800FBEF05F0028E068E02C00EF001C00BF05E
:100B180000C00DF000500402F4CF0CF001500502A3
:100B2800F4CF00F0F3CF08F00402F3500C26F45091
:100B38000822000E00220D500502F3500C26F45036
:100B48000822000E002202500402F3500826F45036
:100B5800002202500502016A000E0122F35000260D
:100B6800F45001220D500602F3500826F4500022DA
:100B7800026A000E012202220B500602F3500026E0
:100B8800F4500122000E02220E500602F3500126F4
:100B9800F450022202BED9EF05F0083600360136BD
:100BA80002360306D8B4FBEF05F0ECEF05F0D88069
:100BB800800E08640030000E002201220222D8A014
:100BC800ECEF05F0023201320032034AF6EF05F08D
:100BD8000AAE029E000EFEEF05F0010E95EC01F044
:100BE800FEEF05F0020EC0EC01F0FEEF05F0040E7A
:060BF800AAEC01F012005E
:100BFE00025006180E6E086A096A0B6A03500764E3
:100C0E00F2EF06F006500A6E068E028E03500B6E41
:100C1E000750036E000E0B6442EF06F00B50075E9A
:100C2E00D8B4E3EF06F0070E0764B1EF06F0075EE7
:100C3E0000C008F001C000F002C001F0026A074EC9
:100C4E00E3EF06F0076486EF06F0075E00C008F0DB
:100C5E0001C000F0016A074EE3EF06F0076464EF8F
:100C6E0006F0075E00C008F0006A074EE3EF06F0DC
:100C7E0007644BEF06F00AC002F005C001F004C095
:100C8E0000F0086A0FEF08F0030E076456EF06F047
:100C9E00075E08380F0B086E074EE3EF06F0D8908C
:100CAE000832074EE3EF06F0D8900832074EE3EF16
:100CBE0006F0D8900832E3EF06F0030E076475EFE6
:100CCE0006F0075E08380F0B086E0038F00B08268A
:100CDE0000380F0B006E074EE3EF06F0D89000328F
:100CEE000832074EE3EF06F0D89000320832074E76
:100CFE00E3EF06F0D89000320832E3EF06F0030E71
:100D0E0007649DEF06F0075E08380F0B086E00387B
:100D1E00F00B082600380F0B006E0138F00B002682
:100D2E0001380F0B016E074EE3EF06F0D89001323B
:100D3E0000320832074EE3EF06F0D890013200324F
:100D4E000832074EE3EF06F0D89001320032083237
:100D5E00E3EF06F0030E0764CEEF06F0075E0838E9
:100D6E000F0B086E0038F00B082600380F0B006EC4
:100D7E000138F00B002601380F0B016E0238F00B14
:100D8E00012602380F0B026E074EE3EF06F0D890E5
:100D9E000232013200320832074EE3EF06F0D890ED
:100DAE000232013200320832074EE3EF06F0D890DD
:100DBE000232013200320832096A000E0EAED7EF4F
:100DCE0007F0081E001E011E021E082A0022012224
:100DDE000222D7EF07F00750D8A4F8EF06F00FEF76
:100DEE0008F0096A02C00AF0028E068E0750035CF4
:100DFE00076ED8B4CAEF07F0070E076498EF07F036
:100E0E00075E0450096E0550046E0650056E066AA4
:100E1E00074ECAEF07F0070E07646DEF07F0075E87
:100E2E000450096E0550046E056A074ECAEF07F0AE
:100E3E00070E07644BEF07F0075E0450096E046A55
:100E4E00074ECAEF07F0070E076432EF07F00AC02D
:100E5E0002F00FEF08F0030E07643DEF07F0075E98
:100E6E0009380F0B096E074ECAEF07F0D8900932FA
:100E7E00074ECAEF07F0D8900932074ECAEF07F0B7
:100E8E00D8900932CAEF07F0030E07645CEF07F043
:100E9E00075E09380F0B096E0438F00B092604386B
:100EAE000F0B046E074ECAEF07F0D89004320932CA
:100EBE00074ECAEF07F0D89004320932074ECAEF38
:100ECE0007F0D89004320932CAEF07F0030E076418
:100EDE0084EF07F0075E09380F0B096E0438F00B2C
:100EEE00092604380F0B046E0538F00B042605385E
:100EFE000F0B056E074ECAEF07F0D890053204327D
:100F0E000932074ECAEF07F0D89005320432093283
:100F1E00074ECAEF07F0D890053204320932CAEFF5
:100F2E0007F0030E0764B5EF07F0075E09380F0BE5
:100F3E00096E0438F00B092604380F0B046E0538C1
:100F4E00F00B042605380F0B056E0638F00B052640
:100F5E0006380F0B066E074ECAEF07F0D890063212
:100F6E00053204320932074ECAEF07F0D890063226
:100F7E00053204320932074ECAEF07F0D890063216
:100F8E00053204320932086A000E0EAED7EF07F0B2
:100F9E00091E041E051E061E092A0422052206220B
:100FAE000950082604500022055001220650022244
:100FBE000EBEEEEF07F0D8A0FDEF07F002320132C1
:100FCE0000320832033EFDEF07F009EF08F0D8B00B
:100FDE0003EF08F0000E081E001E011E021E082A56
:100FEE000022012202220A7E03EF08F0010E0C6E8F
:100FFE0025EC02F011EF08F0020E0C6E25EC02F05B
:10100E0011EF08F0040E0C6EC0EC01F011EF08F0B9
:06101E00000E0C6E120032
:081024000B6A0B86FF0E12009F
:10102C00086A080E0C6E003408360450085ED8B0FE
:0E103C0002D00826D89000360C2EF5D71200F0
:08104A00BE6ABD98BD9A1200B8
:1010520000C008F00150006E016A026A036A0B6A5E
:101062000C6A016A026A036A960E036E0A6A00AE8D
:1010720041EF08F0081E001E082AD8B4002A0A8E82
:1010820000C001F008C000F0086A026A16EC03F022
:0210920012004A
:10109400626A636A56C05EF057C05FF058C060F081
:1010A40059C061F06150FF0A08E16050FF0A05E190
:1010B4005F50FF0A02E15E50FF0A0CE15AC064F07F
:1010C4005BC065F0230E666E000E676EDDDC030EFA
:1010D400006EE7D1010E5C6E60AE0ED0800E60181B
:1010E400006E00C060F05C2A5AC0E1FF5BC0E2FF02
:1010F4002D0EE66E5A4A5B2A000E006E611808E156
:101104000050601805E100505F1802E15E50000ACB
:101114000BE15AC064F05BC065F0210E666E000EF0
:10112400676EB2DC006ABDD16150FF0A08E160500D
:10113400000A05E15F50000A02E15E50000A0CE17A
:101144005AC064F05BC065F01D0E666E000E676EDB
:101154009BDC5CC000F0A5D1000E046E000E056E91
:10116400000E066E7F0E076E5EC000F05FC001F0D9
:1011740060C002F061C003F0CDEC03F0010ED8B002
:10118400000E006E00521BE05EC000F05FC001F074
:1011940060C002F061C003F0000E046E000E056E24
:1011A400200E066E820E076E95DC00C05EF001C054
:1011B4005FF002C060F003C061F06306CDD7000E9B
:1011C400046E000E056E200E066E820E076E5EC063
:1011D40000F05FC001F060C002F061C003F0CDEC2C
:1011E40003F0000ED8B0010E006E00521BE05EC08A
:1011F40000F05FC001F060C002F061C003F0CD0EEA
:10120400046ECC0E056E4C0E066E7B0E076E62DC11
:1012140000C05EF001C05FF002C060F003C061F086
:10122400632ACDD7FF0E5E14086EFF0E5F14096E9D
:101234007F0E60140A6E000E61140B6E08C004F079
:1012440009C005F00AC006F00BC007F0043604908C
:10125400053606360736000E5E14006E000E5F1467
:10126400016E000E6014026EFF0E6114036E00C066
:101274005EF001C05FF002C060F003C061F0045092
:101284005E10006E05505F10016E06506010026E15
:1012940007506110036E00C05EF001C05FF002C031
:1012A40060F003C061F07F0E615C006E00C05DF011
:1012B400010E616E00C004F05EC000F05FC001F07A
:1012C40060C002F061C003F0045007E000360090F3
:1012D400013602360336FF0FF8D700C05EF001C0B6
:1012E4005FF002C060F003C061F05AC0E1FF5BC070
:1012F400E2FF6150300FE66E5A4A5B2A800E631893
:10130400006E800E010A005C08E3800E060A006E7F
:10131400800E6318005C01E30AD05AC0E1FF5BC091
:10132400E2FF2E0EE66E5A4A5B2A010E626E060E2C
:101334005D6E5D50000A54E0616A5EC000F05FC0FB
:1013440001F060C002F061C003F000360090013685
:1013540002360336003600900136023603365E50FC
:1013640000265F500122605002226150032200C017
:101374005EF001C05FF002C060F003C061F05EC0C7
:1013840000F05FC001F060C002F061C003F00036FD
:10139400009001360236033600C05EF001C05FF0F3
:1013A40002C060F003C061F05AC0E1FF5BC0E2FF1D
:1013B4006150300FE66E5A4A5B2A6250000A0EE111
:1013C40063066350000A0AE15AC0E1FF5BC0E2FF12
:1013D4002E0EE66E5A4A5B2A010E626E5D06A9D78E
:1013E400FF0E5A24E96EFF0E5B20EA6EEE50300ABF
:1013F40005E1010E5A5E000E5B5AF2D7FF0E5A2425
:10140400E96EFF0E5B20EA6EEE502E0A04E1010E37
:101414005A5E000E5B5A6350000A3DE05AC0E1FF79
:101424005BC0E2FF650EE66E5A4A5B2A800E6318C3
:10143400006E800E000A005C0BE25AC0E1FF5BC044
:10144400E2FF2D0EE66E5A4A5B2A63500008636E73
:1014540063C05DF0635009080EE20A0E046E5DC0BD
:1014640000F0E2DD5AC0E1FF5BC0E2FF0050300F44
:10147400E66E5A4A5B2A0A0E046E5DC000F0D4DDA3
:1014840008C000F05AC0E1FF5BC0E2FF0050300F1B
:10149400E66E5A4A5B2A5AC0E1FF5BC0E2FFE66A85
:0414A400006A1200C8
:1014A8000900F5CFE6FF0006FBE10106F9E11200AD
:1014B800969296949598959A959C959E84928494E4
:1014C800839E839C839A83989FEC01F09FEC01F0A4
:1014D8009FEC01F0838A838884829CEC01F08492DB
:1014E8009FEC01F084829CEC01F084929FEC01F067
:1014F80084829CEC01F084929FEC01F083988482B2
:101508009CEC01F084929FEC01F084829CEC01F049
:101518008492839A838E84829CEC01F084929FEC5F
:1015280001F0839E838884829CEC01F084928398E6
:1015380084829CEC01F084929FEC01F084829CEC04
:1015480001F08492838884829CEC01F084929FEC61
:1015580001F0839884829CEC01F08492838E838CC2
:10156800838A838884829CEC01F084929FEC01F04A
:041578004D80120090
:0A157C009494CA840C0EBD121200F4
:101586005A6A566A0F0E5A6E5A500F0A48E156C0EA
:1015960001F0010E006E015004E000360090FF0FCE
:1015A600FBD7001C026E02C000F000360090003629
:1015B6000090003600900036009000C081FF026A5D
:1015C60080B8022A02C000F000360090000E80B4F7
:1015D600010E5A6E00505A12036A80BA032A03C0DB
:1015E60000F0000E016E00360090013600360090C5
:1015F600013600505A12036A81B6032A030E026EA0
:1016060003C000F0000E016E025005E000360090A7
:101616000136FF0FFAD700505A12562AB5D7040ED4
:10162600006E81CF64F0000E656E005004E06432F7
:10163600649EFF0FFBD7816A5AC000F00036009007
:10164600003600900036009000360090005064107E
:10165600646E000E656E570E666E000E676E3AEC8F
:1016660004F000C058F001C059F05750060A13E1C3
:101676002DC000F02EC001F00A0E046E000E056E9D
:10168600A5EC03F000C02DF001C02EF058502D2619
:1016960059502E2209D05750010A06E12DC02BF0D1
:0A16A6002EC02CF02D6A2E6A1200EF
:1016B000CB50010F006E016A000E012256C004F0EB
:1016C000000E056EA5EC03F0060E026E00C004F0DD
:1016D00001C005F0025005E005320432059EFF0FFF
:1016E000FAD7040E016E04C000F0015004E0003689
:1016F0000090FF0FFBD7300E0014036E04C000F003
:1017000005C001F001320032019E01320032019E1B
:0E17100000C0BEFF0F0EBD160350BD1212002A
:10171E000FD0800E566E19D0C00E566E16D0940E87
:10172E00566E13D0D40E566E10D0800E566E0DD04F
:10173E005650010AEEE05650020AEEE05650030AE9
:10174E00EEE05650040AEEE0F0D75704006E565005
:10175E00002600C056F000C06BF0E7EC01F04D9093
:10176E005A6A5A505824E96E000E5920EA6EEE520B
:10177E000CE05A505824E96E000E5920EA6EEECF56
:0E178E0064F034EC04F05A2AECD74D801200BF
:10179C000B6A0350D8B414EF0CF002500A6E028E90
:1017AC008E0E035E03AE18EF0CF0036C080E035C98
:1017BC00D8A0F3EF0BF0036E013602C001F0026A01
:1017CC00080E035CD8A0F3EF0BF0036E0136016A30
:1017DC000350D8A4D890FDEF0BF00350D8B4FDEF14
:1017EC000BF0D89002320132032EF7EF0BF00BBC4A
:1017FC0001A00AEF0CF0D8A00AEF0CF0012AD8B423
:10180C00022A02BE27EF0CF00AAE2DEF0CF0021EDE
:10181C00011E012AD8B4022A2DEF0CF0026A016ACB
:10182C002DEF0CF00B800BAE31EF0CF0026A0AAE10
:10183C0031EF0CF0FF0E026E016E0A36023231EF00
:10184C000CF0010E0C6E97EC03F033EF0CF0000E65
:10185C000C6E33EF0CF0FF0E0C6E0150006E02504C
:04186C00016E1200F7
:101870000450000A12E10550000A0FE10650000A68
:101880000CE10750000A09E1FF0E006EFF0E016E29
:101890007F0E026EFF0E036EA8D0086A096A075019
:1018A000D8B4E3EF0CF00350D8B4E8EF0CF00250DA
:1018B00006180A6E028E068E0E6A02C008F001C07B
:1018C0000CF000C00DF004500D5E0550D8A0053C92
:1018D0000C5E0650D8A0063C085E086A0C6A0D6AC9
:1018E000D8A07AEF0CF0D8900232013200320832E0
:1018F000010E0E6E0750035ED8A087EF0CF07E0E2F
:101900000E240326D8B0EDEF0CF08DEF0CF07E0E18
:101910000E240326D8A0F2EF0CF0180E0B6E0D3635
:101920000C3608360036013602360E360450005E9C
:101930000550D8A0053C015E0650D8A0063C025ECA
:1019400006340E120EA0A8EF0CF00D80B3EF0CF0D1
:10195000045000260550D8B0053C01260650D8B0EA
:10196000062802260D900B2E8FEF0CF0D9EF0CF00D
:10197000D8900036013602360E360450005E05500F
:10198000D8A0053C015E0650D8A0063C025E063495
:101990000E10010B0D26D8B00C2AD8B4082AD8A4F2
:1019A000D9EF0CF008320C320D32032AD8B4EDEF27
:1019B0000CF00AAE089E0850026E0C50016E0D50DD
:1019C000006EF5EF0CF0010E12EC08F0F5EF0CF0E4
:1019D000020E95EC01F0F5EF0CF0040EC0EC01F0F6
:0C19E000F5EF0CF0080EAAEC01F012006C
:0819EC00067EFFEC05F012007D
:1019F4005C6A5D6A56C05EF057C05FF0800E57188F
:101A0400006E800E005C02E1000E565C0BE2010EDB
:101A14005C6E000E5D6E565000085E6E57C05FF03F
:101A2400000E5F565EC064F05FC065F058C066F09B
:101A340059C067F04FEC03F0060E5A6E000E5B6E51
:101A4400000E006E5B50005C02E15A50000819E27F
:101A54005A505824E16E5B505920E26E010E5A5CD4
:101A6400006E000E5B58016E00505824E96E015060
:101A74005920EA6EEECFE6FF010E5A5E000E5B5A65
:101A8400DFD758C0E1FF59C0E2FF200EE66E5C507C
:101A94005D101AE05A6A5B6A5A505824E96E5B502A
:101AA4005920EA6EEE50200A03E15A4A5B2AF4D721
:101AB400010E5A5E000E5B5A5A505824E16E5B5078
:0A1AC4005920E26E2D0EE66E1200AE
:101ACE00ACEC0DF0040EC16EF0DC9280CA80CA92AE
:101ADE00630ECB6E25EC08F04ADDF28EF28CF288A6
:101AEE00F292F28C9380D59CD59AD596D584D582D8
:101AFE00D580FC0ED76EF10ED66EF294F28AD58E8C
:101B0E00B18EB18CB19AB188B192F086F090938279
:101B1E009398939A939C939E8198819A819C819E8F
:0A1B2E0092849288928A9386FFD772
:101B580010EE19F0200E006E010E016E380EF66EB2
:0E1B68001B0EF76E000EF86E54EC0AF0120021
:021B380080002B
:021B3A000000A9
:041B3C00494E4600C8
:021B4000300073
:041B42004E614E00A2
:041B4600000000009B
:021B4A00000099
:021B4C00000097
:041B4E000000000093
:021B5200000091
:041B5400000000008D
:020000040030CA
:0D000100220F0EFF0181FF0FC00FE00F4026
:00000001FF
