:0400000056EF03F0C4
:10000800F2A405D0838015C0CCFFF29207D0F2A2EB
:0E00180005D08390D76A16C0D6FFF29411006F
:100026000B820BAE1DEF00F00368026801680068E2
:080036000A360232FF0E12002F
:0E003E00026A016A006A086A036A000E120074
:10004C000B840BAE31EF00F0010E036E026A016AF5
:0A005C00006A0A360232FF0E12009D
:080066000AAE029E000E12001A
:10006E000B800BAE43EF00F0026A0AAEFF0E026E7B
:0C007E00016E006E0A360232FF0E120006
:10008A000CB087EF00F00CA22DEF01F00E6A000E03
:10009A0002649EEF00F0F00E0214D8A469EF00F09B
:1000AA00023A01380F0B02260138F00B016E0038B4
:1000BA000F0B01260038F00B006E08380F0B0026D4
:1000CA000838F00B086E0E84D89002BE82EF00F05A
:1000DA0008360036013602360E2A02BE82EF00F0DA
:1000EA0008360036013602360E2A02BE82EF00F0CA
:1000FA0008360036013602360E2A0E50036423EF04
:10010A0001F0035E0BBC08AE28EF01F0D880800E28
:10011A0008640030000E002201220222D8A028EF33
:10012A0001F0023201320032034A2DEF01F028EFCA
:10013A0001F001C002F000C001F008C000F0086A36
:10014A00000E0E860264D5EF00F0F00E0214D8A459
:10015A00BDEF00F0023A01380F0B02260138F00B0E
:10016A00016E00380F0B01260038F00B006E0E846A
:10017A00D89002BE82EF00F00036013602360E2A0F
:10018A0002BE82EF00F00036013602360E2A02BEA7
:10019A0082EF00F00036013602360E2A82EF00F0B6
:1001AA0001C002F000C001F0006A000E0E960E882F
:1001BA00026402EF01F0F00E0214D8A4EDEF00F091
:1001CA00023A01380F0B02260138F00B016E0E8439
:1001DA00D89002BE82EF00F0013602360E2A02BE25
:1001EA0082EF00F0013602360E2A02BE82EF00F0DC
:1001FA00013602360E2A82EF00F001C002F0016ACF
:10020A00000E0E86026432EF01F0F00E0214D8A43A
:10021A0011EF01F0023A0E84D89002BE82EF00F08C
:10022A0002360E2A02BE82EF00F002360E2A02BE03
:10023A0082EF00F002360E2A82EF00F0010E0C6EF9
:10024A0000DF35EF01F0020E0C6E08DF35EF01F02A
:10025A00040E0C6EE3DE35EF01F0080E0C6EEADEDA
:02026A00120080
:08026C000B6A0B86FF0E120065
:10027400086A096A000E07620364BFEF01F00250C6
:1002840006180A6E075003267E0ED8A050EF01F020
:10029400035ED8B0C3EF01F054EF01F0035ED8A0C1
:1002A400C7EF01F0028E068E02C00EF001C00BF003
:1002B40000C00DF000500402F4CF0CF00150050210
:1002C400F4CF00F0F3CF08F00402F3500C26F450FE
:1002D4000822000E00220D500502F3500C26F450A3
:1002E4000822000E002202500402F3500826F450A3
:1002F400002202500502016A000E0122F35000267A
:10030400F45001220D500602F3500826F450002246
:10031400026A000E012202220B500602F35000264C
:10032400F4500122000E02220E500602F350012660
:10033400F450022202BEA7EF01F00836003601365F
:1003440002360306D8B4C7EF01F0BAEF01F0D88043
:10035400800E08640030000E002201220222D8A080
:10036400BAEF01F0023201320032034AC3EF01F066
:100374000AAE029E000EC9EF01F0010E5EDEC9EF67
:1003840001F0020E4EDEC9EF01F0040E5DDE120034
:100394000450000A12E10550000A0FE10650000A59
:1003A4000CE10750000A09E1FF0E006EFF0E016E1A
:1003B4007F0E026EFF0E036EA4D0086A096A07500E
:1003C400D8B475EF02F00350D8B479EF02F00250BC
:1003D40006180A6E028E068E0E6A02C008F001C06C
:1003E4000CF000C00DF004500D5E0550D8A0053C83
:1003F4000C5E0650D8A0063C085E086A0C6A0D6ABA
:10040400D8A00CEF02F0D890023201320032083248
:10041400010E0E6E0750035ED8A019EF02F07E0E97
:100424000E240326D8B07DEF02F01FEF02F07E0EFB
:100434000E240326D8A081EF02F0180E0B6E0D36A1
:100444000C3608360036013602360E360450005E8D
:100454000550D8A0053C015E0650D8A0063C025EBB
:1004640006340E120EA03AEF02F00D8045EF02F0B2
:10047400045000260550D8B0053C01260650D8B0DB
:10048400062802260D900B2E21EF02F06BEF02F0EE
:10049400D8900036013602360E360450005E055000
:1004A400D8A0053C015E0650D8A0063C025E063486
:1004B4000E10010B0D26D8B00C2AD8B4082AD8A4E3
:1004C4006BEF02F008320C320D32032AD8B47DEF00
:1004D40002F00AAE089E0850026E0C50016E0D50D8
:1004E400006E83EF02F0010EBFDE83EF02F0020E16
:1004F400A4DD83EF02F0040E94DD83EF02F0080E16
:04050400A3DD120061
:1005080000C008F00B6A0C6A9E0E036E0A6A026A43
:0C051800016A006A020E0C6EB4DD1200D5
:100524000B6A0C6A0A6A0350D8B4C7EF02F00A9E39
:10053400028E860E035E03BEA5EF02F0D8B4A5EFCB
:1005440002F0CAEF02F0036C080E035CD8A0B3EF0C
:1005540002F0036E0236026A0350D8A4D890BCEFAE
:1005640002F00350D8B4BCEF02F0D8900232032E4C
:10057400B7EF02F00BBC02A0C7EF02F0D8A0C7EFA0
:1005840002F0022AD8B4D1EF02F0016AD6EF02F0E9
:100594000B800BAEDAEF02F0016ADAEF02F0010E23
:1005A4000C6E63DDDCEF02F0000E0C6EDCEF02F08B
:0A05B400FF0E0C6E0250006E1200E4
:1005BE000900F5CFE6FF0006FBE10106F9E11200A6
:1005CE001BC000F09ADF00C004F001C005F002C0AD
:1005DE0006F003C007F0000E006E240E016E740EBE
:1005EE00026E940E036ECFDE00C004F001C005F063
:1005FE0002C006F003C007F0000E006E000E016E82
:10060E00000E026E7F0E036EBEDE00C01CF001C037
:10061E001DF002C01EF003C01FF017C000F018C07E
:10062E0001F019C002F01AC003F0000E046E240E81
:10063E00056E740E066E920E076E15DE1CC004F06B
:10064E001DC005F01EC006F01FC007F09CDE63DF64
:08065E000050FF08006E1200BD
:100666001BD0D59CD59AD596D584D582D580D76A08
:1006760018C0D6FFF284F294F28AF29CF28ED58EDE
:1006860011D0CA82CA8018C0CCFFF282F292F282DE
:10069600F29CF28ECA8406D01750000AE2E0175088
:0606A600010AEFE0120062
:1006AC00156A166A95908390CD0E176ECC0E186E47
:1006BC004C0E196E800E1A6E000E1B6E82DF00C07F
:1006CC0016F0000E176E000E186E000E196E800ECE
:1006DC001A6E100E1B6E75DF00C015F0176A16C06F
:1006EC0018F0BBDF010E176E15C018F0B6DFFFD780
:020000040030CA
:0D000100220F0EFF0181FF0FC00FE00F4026
:00000001FF
