:04000000FEEF09F016
:1000080000C016F001C015F0F0A009D01750181064
:1000180002E06AEC08F0D0EC09F0F096F0909EA2AD
:1000280009D09E929D92CA94F086F090F288F2923E
:10003800F088F092F2A422D0FB0ED76E1D0ED66E79
:1000480082701750181019E123C000F024C001F085
:1000580025C002F026C003F00A0E046ED70E056E06
:10006800230E066E780E076E15DA00C023F001C065
:1000780024F002C025F003C026F0F294A1A259D0C2
:10008800FC0EB36E170EB26E000E1A1802E1030EC4
:10009800191803E1006A016A04D019C000F01AC0F7
:1000A80001F000C019F001C01AF0000E1C1802E19E
:1000B800640E1B1805E1010E276E000E286E0ED087
:1000C8001BC000F01CC001F00A0E046E000E056E85
:1000D800D6EC09F000C027F001C028F027C01BF0BB
:1000E80028C01CF08090809282943CEC09F000C0FB
:1000F80083FF000E1A1802E1000E1918D8B4808088
:10010800000E1A1802E1010E1918D8B48082000EE8
:100118001A1802E1020E1918D8B48284010E1924A3
:10012800006E000E1A20016E00C019F001C01AF00E
:10013800A1929EA00BD08282010E176E000E186E3F
:10014800A192A092B1909E909D90CD90F2A213D0D2
:1001580082921F6A206A216A226A236A246A256AAF
:10016800266A1D6A1E6A010E176E000E186ED0EC04
:1001780009F0F298F292F0A247D0D0EC09F0176A91
:10018800186A0A0E046ED70E056E230E066E7C0ED4
:10019800076E1FC000F020C001F021C002F022C08D
:1001A80003F0A5EC07F038EC07F00050FF08036EE9
:1001B80001C004F0FF0E045604C000F0016A00C03C
:1001C800CFFF0A0E046ED70E056E230E066E7C0E48
:1001D800076E1FC000F020C001F021C002F022C04D
:1001E80003F0A5EC07F038EC07F00050FF08CE6EDE
:1001F8009E909D80CD80FC0EB36E170EB26EA192BC
:10020800A082B180F098F09216C000F015C001F0FD
:020218001100D3
:10021A000B820BAE17EF01F00368026801680068F1
:08022A000A360232FF0E120039
:0E023200026A016A006A086A036A000E12007E
:080240000AAE029E000E12003E
:100248000B840BAE2FEF01F0010E036E026A016AF8
:0A025800006A0A360232FF0E12009F
:100262000CB073EF01F00CA219EF02F00E6A000E4F
:1002720002648AEF01F0F00E0214D8A455EF01F0E7
:10028200023A01380F0B02260138F00B016E0038DA
:100292000F0B01260038F00B006E08380F0B0026FA
:1002A2000838F00B086E0E84D89002BE6EEF01F093
:1002B20008360036013602360E2A02BE6EEF01F013
:1002C20008360036013602360E2A02BE6EEF01F003
:1002D20008360036013602360E2A0E5003640FEF3E
:1002E20002F0035E0BBC08AE14EF02F0D880800E61
:1002F20008640030000E002201220222D8A014EF6E
:1003020002F0023201320032034A19EF02F014EF16
:1003120002F001C002F000C001F008C000F0086A5B
:10032200000E0E860264C1EF01F0F00E0214D8A492
:10033200A9EF01F0023A01380F0B02260138F00B47
:10034200016E00380F0B01260038F00B006E0E8490
:10035200D89002BE6EEF01F00036013602360E2A48
:1003620002BE6EEF01F00036013602360E2A02BEE0
:100372006EEF01F00036013602360E2A6EEF01F002
:1003820001C002F000C001F0006A000E0E960E8855
:100392000264EEEF01F0F00E0214D8A4D9EF01F0DE
:1003A200023A01380F0B02260138F00B016E0E845F
:1003B200D89002BE6EEF01F0013602360E2A02BE5E
:1003C2006EEF01F0013602360E2A02BE6EEF01F028
:1003D200013602360E2A6EEF01F001C002F0016A08
:1003E200000E0E8602641EEF02F0F00E0214D8A474
:1003F200FDEF01F0023A0E84D89002BE6EEF01F0DA
:1004020002360E2A02BE6EEF01F002360E2A02BE3C
:100412006EEF01F002360E2A6EEF01F0010E0C6E45
:1004220012DF21EF02F0020E0C6E09DF21EF02F063
:10043200040E0C6EF1DE21EF02F0080E0C6EF8DEF7
:020442001200A6
:100444000134083609360450085E0550D8A0053C2E
:10045400095E003601360F0E0C6E0134083609367B
:10046400045000A006D0085E0550D8A0053C095EE3
:1004740005D008260550D8B0053C092600360136BB
:100484000C2EEBD700B006D0045008260550D8B087
:08049400053C092600001200DE
:10049C00025006180E6E086A096A0B6A035007644C
:1004AC0041EF03F006500A6E068E028E03500B6E5F
:1004BC000750036E000E0B6491EF02F00B50075EB9
:1004CC00D8B432EF03F0070E076400EF03F0075EB9
:1004DC0000C008F001C000F002C001F0026A074E33
:1004EC0032EF03F00764D5EF02F0075E00C008F0AE
:1004FC0001C000F0016A074E32EF03F00764B3EF5E
:10050C0002F0075E00C008F0006A074E32EF03F0FD
:10051C0007649AEF02F00AC002F005C001F004C0B3
:10052C0000F0086A5BEF04F0030E0764A5EF02F01D
:10053C00075E08380F0B086E074E32EF03F0D890A9
:10054C000832074E32EF03F0D8900832074E32EFE4
:10055C0003F0D890083232EF03F0030E0764C4EFB7
:10056C0002F0075E08380F0B086E0038F00B0826F7
:10057C0000380F0B006E074E32EF03F0D8900032AC
:10058C000832074E32EF03F0D89000320832074E93
:10059C0032EF03F0D8900032083232EF03F0030E42
:1005AC000764ECEF02F0075E08380F0B086E00389A
:1005BC00F00B082600380F0B006E0138F00B0026EC
:1005CC0001380F0B016E074E32EF03F0D890013259
:1005DC0000320832074E32EF03F0D890013200326D
:1005EC000832074E32EF03F0D89001320032083255
:1005FC0032EF03F0030E07641DEF03F0075E0838BB
:10060C000F0B086E0038F00B082600380F0B006E2D
:10061C000138F00B002601380F0B016E0238F00B7D
:10062C00012602380F0B026E074E32EF03F0D89002
:10063C000232013200320832074E32EF03F0D8900A
:10064C000232013200320832074E32EF03F0D890FA
:10065C000232013200320832096A000E0EAE26EF69
:10066C0004F0081E001E011E021E082A0022012290
:10067C00022226EF04F00750D8A447EF03F05BEFFB
:10068C0004F0096A02C00AF0028E068E0750035C61
:10069C00076ED8B419EF04F0070E0764E7EF03F008
:1006AC00075E0450096E0550046E0650056E066A0E
:1006BC00074E19EF04F0070E0764BCEF03F0075E5A
:1006CC000450096E0550046E056A074E19EF04F0CC
:1006DC00070E07649AEF03F0075E0450096E046A74
:1006EC00074E19EF04F0070E076481EF03F00AC000
:1006FC0002F05BEF04F0030E07648CEF03F0075E6F
:10070C0009380F0B096E074E19EF04F0D890093217
:10071C00074E19EF04F0D8900932074E19EF04F088
:10072C00D890093219EF04F0030E0764ABEF03F015
:10073C00075E09380F0B096E0438F00B09260438D4
:10074C000F0B046E074E19EF04F0D89004320932E7
:10075C00074E19EF04F0D89004320932074E19EF06
:10076C0004F0D8900432093219EF04F0030E076438
:10077C00D3EF03F0075E09380F0B096E0438F00B4A
:10078C00092604380F0B046E0538F00B04260538C7
:10079C000F0B056E074E19EF04F0D890053204329A
:1007AC000932074E19EF04F0D890053204320932A1
:1007BC00074E19EF04F0D89005320432093219EFC4
:1007CC0004F0030E076404EF04F0075E09380F0B06
:1007DC00096E0438F00B092604380F0B046E05382B
:1007EC00F00B042605380F0B056E0638F00B0526AA
:1007FC0006380F0B066E074E19EF04F0D890063230
:10080C00053204320932074E19EF04F0D890063243
:10081C00053204320932074E19EF04F0D890063233
:10082C00053204320932086A000E0EAE26EF04F0CF
:10083C00091E041E051E061E092A04220522062274
:10084C0009500826045000220550012206500222AD
:10085C000EBE3DEF04F0D8A04CEF04F00232013292
:10086C0000320832033E4CEF04F056EF04F0D8B0DF
:10087C0051EF04F0000E081E001E011E021E082A75
:10088C000022012202220A7E51EF04F0010E0C6EAE
:10089C00E2DC5DEF04F0020E0C6EDDDC5DEF04F0CB
:1008AC00040E0C6EB4DC5DEF04F0000E0C6E120046
:1008BC000C6A0E6A0250D8A477EF04F001C002F063
:1008CC0000C001F0006A0E860250D8A477EF04F045
:1008DC0001C002F0016A0E960E880250D8B489EF5E
:1008EC0004F00E50035ED8A4D8A08EEF04F0D8907C
:1008FC0002BE93EF04F0003601360236032E7EEF73
:10090C0004F08EEF04F0010E0C6E8DDC96EF04F00B
:10091C00020E0C6E93DC96EF04F0040E0C6E8ADC67
:02092C001200B7
:10092E000B800BAEA3EF04F0026A0AAEFF0E026E4E
:0C093E00016E006E0A360232FF0E12003D
:08094A000B6A0B86FF0E120080
:10095200FF0E326EFF0E336E95D030C0E1FF31C014
:10096200E2FF050EE66EFBD030C0E1FF31C0E2FFD0
:10097200060EE66E326A336AF2D030C0E1FF31C051
:10098200E2FFE66AECD030C0E1FF31C0E2FF010EC7
:10099200E66EE5D030C0E1FF31C0E2FF060EE66E42
:1009A200010E326E000E336EDAD030C0E1FF31C07C
:1009B200E2FF060EE66E020E326E000E336ECFD0EE
:1009C20030C0E1FF31C0E2FF060EE66E030E326E6A
:1009D200000E336EC4D030C0E1FF31C0E2FF020E20
:1009E200E66EBDD030C0E1FF31C0E2FF060EE66E1A
:1009F200040E326E000E336EB2D030C0E1FF31C051
:100A0200E2FF060EE66E050E326E000E336EA7D0C2
:100A120030C0E1FF31C0E2FF060EE66E060E326E16
:100A2200000E336E9CD030C0E1FF31C0E2FF030EF6
:100A3200E66E95D030C0E1FF31C0E2FF060EE66EF1
:100A4200070E326E000E336E8AD030C0E1FF31C025
:100A5200E2FF060EE66E080E326E000E336E7FD097
:100A620030C0E1FF31C0E2FF060EE66E090E326EC3
:100A7200000E336E74D030C0E1FF31C0E2FF040ECD
:100A8200E66E6DD0000E2F1802E1E70E2E18D8B4D4
:100A920064D7000E2F1802E1D70E2E18D8B464D7EF
:100AA200000E2F1802E1B70E2E18D8B466D7000E2A
:100AB2002F1802E1770E2E18D8B465D7000E2F1822
:100AC20002E1EB0E2E18D8B465D7000E2F1802E102
:100AD200DB0E2E18D8B469D7000E2F1802E1BB0E18
:100AE2002E18D8B46DD7000E2F1802E17B0E2E18E7
:100AF200D8B471D7000E2F1802E1ED0E2E18D8B41B
:100B020071D7000E2F1802E1DD0E2E18D8B475D75A
:100B1200000E2F1802E1BD0E2E18D8B479D7000EA0
:100B22002F1802E17D0E2E18D8B47DD7000E2F1893
:100B320002E1EE0E2E18D8B47DD7000E2F1802E176
:100B4200DE0E2E1882E0000E2F1802E1BE0E2E18C5
:100B520087E0000E2F1802E17E0E2E188CE032C0C4
:080B620000F033C001F01200A5
:100B6A000450000A08E10550000A05E1FF0E006E74
:100B7A007F0E016E57D00D6A096A086A015000108B
:100B8A00D8B4000C015005180A6E0ABE0D1E0B6A75
:100B9A0005AE05D0041E051E042AD8B4052A01AEE6
:100BAA0005D0001E011E002AD8B4012A01500510E2
:100BBA000A6E0ABE10D041DC0BB020D00DAE000C7C
:100BCA00001E011E002AD8B4012A081E091E082A7E
:100BDA00D8B4092A000C05AE0DD001BE07D00150C9
:100BEA00096E0050086E016A006AE8D7016A006A55
:100BFA00002A000C011E001E0B2ADDD7082AD8B4D1
:100C0A00092A0450085CD8A4D9D70550095CD8A48D
:100C1A00D5D7096A086A002AD8B4012A01AECED704
:060C2A000000FF0C1200A7
:100C300000C008F00150006E016A026A036A0B6A84
:100C40000C6A016A026A036A960E036E0A6A00AEB3
:100C500030EF06F0081E001E082AD8B4002A0A8EBB
:100C600000C001F008C000F0086A026A27DE120026
:100C7000086A096A000E07620364BDEF06F00250BD
:100C800006180A6E075003267E0ED8A04EEF06F017
:100C9000035ED8B0C2EF06F052EF06F0035ED8A0B4
:100CA000C7EF06F0028E068E02C00EF001C00BF0F8
:100CB00000C00DF000500402F4CF0CF0015005020A
:100CC000F4CF00F0F3CF08F00402F3500C26F450F8
:100CD0000822000E00220D500502F3500C26F4509D
:100CE0000822000E002202500402F3500826F4509D
:100CF000002202500502016A000E0122F350002674
:100D0000F45001220D500602F3500826F450002240
:100D1000026A000E012202220B500602F350002646
:100D2000F4500122000E02220E500602F35001265A
:100D3000F450022202BEA5EF06F008360036013656
:100D400002360306D8B4C7EF06F0B8EF06F0D88035
:100D5000800E08640030000E002201220222D8A07A
:100D6000B8EF06F0023201320032034AC2EF06F059
:100D70000AAE029E000ECAEF06F0010E19EC01F059
:100D8000CAEF06F0020E0DEC01F0CAEF06F0040EF9
:060D900024EC01F012004A
:100D96000B6A0350D8B411EF07F002500A6E028EA8
:100DA6008E0E035E03AE15EF07F0036C080E035CB0
:100DB600D8A0F0EF06F0036E013602C001F0026A19
:100DC600080E035CD8A0F0EF06F0036E0136016A48
:100DD6000350D8A4D890FAEF06F00350D8B4FAEF2F
:100DE60006F0D89002320132032EF4EF06F00BBC67
:100DF60001A007EF07F0D8A007EF07F0012AD8B443
:100E0600022A02BE24EF07F00AAE29EF07F0021EFF
:100E1600011E012AD8B4022A29EF07F0026A016AE4
:100E260029EF07F00B800BAE2DEF07F0026A0AAE32
:100E36002DEF07F0FF0E026E016E0A3602322DEF1D
:100E460007F0010E0C6E70DD2FEF07F0000E0C6E32
:100E56002FEF07F0FF0E0C6E0150006E0250016E70
:020E6600120078
:080E6800067E4EEC02F01200C0
:100E70000B6A0C6A0A6A0350D8B482EF07F0028E3C
:100E80008E0E035E03BE4AEF07F0D8B44AEF07F0B8
:100E900086EF07F0036C080E035CD8A061EF07F043
:100EA000036E013602C001F0026A080E035CD8A08E
:100EB00061EF07F00136016A0350D8A4D8906BEFB8
:100EC00007F00350D8B46BEF07F0D890023201322C
:100ED000032E65EF07F00BBC01A078EF07F0D8A058
:100EE00078EF07F0012AD8B4022A02BE95EF07F086
:100EF0000AAE9AEF07F0021E011E012AD8B4022A98
:100F00009AEF07F0026A016A9AEF07F00B800BAEC6
:100F10009EEF07F0026A0AAE9EEF07F0FF0E026E28
:100F2000016E0A3602329EEF07F0010E0C6EFFDCF6
:100F3000A0EF07F0000E0C6EA0EF07F0FF0E0C6E96
:0A0F40000150006E0250016E120015
:100F4A000450000A12E10550000A0FE10650000A97
:100F5A000CE10750000A09E1FF0E006EFF0E016E58
:100F6A007F0E026EFF0E036EA7D0086A096A075049
:100F7A00D8B450EF08F00350D8B454EF08F0025038
:100F8A0006180A6E028E068E0E6A02C008F001C0AA
:100F9A000CF000C00DF004500D5E0550D8A0053CC1
:100FAA000C5E0650D8A0063C085E086A0C6A0D6AF8
:100FBA00D8A0E7EF07F0D8900232013200320832A7
:100FCA00010E0E6E0750035ED8A0F4EF07F07E0EF6
:100FDA000E240326D8B059EF08F0FAEF07F07E0E78
:100FEA000E240326D8A05EEF08F0180E0B6E0D36FD
:100FFA000C3608360036013602360E360450005ECC
:10100A000550D8A0053C015E0650D8A0063C025EF9
:10101A0006340E120EA015EF08F00D8020EF08F02E
:10102A00045000260550D8B0053C01260650D8B019
:10103A00062802260D900B2EFCEF07F046EF08F06B
:10104A00D8900036013602360E360450005E05503E
:10105A00D8A0053C015E0650D8A0063C025E0634C4
:10106A000E10010B0D26D8B00C2AD8B4082AD8A421
:10107A0046EF08F008320C320D32032AD8B459EF81
:10108A0008F00AAE089E0850026E0C50016E0D5010
:10109A00006E61EF08F0010E53DC61EF08F0020EFA
:1010AA0019EC01F061EF08F0040E0DEC01F061EFAC
:0A10BA0008F0080E24EC01F012000B
:1010C4000900F5CFE6FF0006FBE10106F9E1120095
:1010D4002D6A296A0F0E2D6E2D500F0A48E129C082
:1010E40001F0010E006E015004E000360090FF0F85
:1010F400FBD7001C026E02C000F0003600900036E0
:101104000090003600900036009000C081FF026A13
:1011140080B8022A02C000F000360090000E80B4AD
:10112400010E2D6E00502D12036A80BA032A03C0EB
:1011340000F0000E016E003600900136003600907B
:10114400013600502D12036A81B6032A030E026E83
:1011540003C000F0000E016E025005E0003600905E
:101164000136FF0FFAD700502D12292AB5D7040EE5
:10117400006E81CF2EF0000E2F6E005004E02E3250
:101184002E9EFF0FFBD7816A2DC000F00036009021
:1011940000360090003600900036009000502E106B
:1011A4002E6E000E2F6E2A0E306E000E316EA9ECDC
:1011B40004F000C02BF001C02CF01D4A1E2A800E42
:1011C4001E18006E800E005C02E1030E1D5C31E20D
:1011D4001FC000F020C001F021C002F022C003F0C3
:1011E400000E046E000E056E200E066E820E076E53
:1011F4003DDD00C01FF001C020F002C021F003C09B
:1012040022F02BC000F02CC001F010DD1FC004F050
:1012140020C005F021C006F022C007F04EEC02F019
:1012240000C01FF001C020F002C021F003C022F072
:1012340020D02BC000F02CC001F0F8DCCD0E046EE1
:10124400CC0E056E4C0E066E7B0E076E0FDD1FC0B6
:1012540004F020C005F021C006F022C007F04EECD7
:1012640002F000C01FF001C020F002C021F003C052
:0412740022F0120052
:1012780023C004F024C005F025C006F026C007F0FE
:101288001FC000F020C001F021C002F022C003F00E
:10129800E7DD7DDD1BC004F01CC005F062DC0A0E32
:1012A800046E000E056E5DDC08C000F009C001F098
:1012B80000C029F001C02AF032D03F0E006E000EA7
:1012C800016E69D0060E006E000E016E64D05B0ED2
:1012D800006E000E016E5FD04F0E006E000E016EA4
:1012E8005AD0660E006E000E016E55D06D0E006E5F
:1012F800000E016E50D07D0E006E000E016E4BD0B8
:10130800070E006E000E016E46D07F0E006E000EB6
:10131800016E41D06F0E006E000E016E3CD0000EC3
:101328002A1802E1000E2918C8E0000E2A1802E166
:10133800010E2918C7E0000E2A1802E1020E29182A
:10134800C6E0000E2A1802E1030E2918C5E0000EB7
:101358002A1802E1040E2918C4E0000E2A1802E136
:10136800050E2918C3E0000E2A1802E1060E2918F6
:10137800C2E0000E2A1802E1070E2918C1E0000E8B
:101388002A1802E1080E2918C0E0000E2A1802E106
:08139800090E2918BFE0120044
:0C13A0007F0ECC6E9E929D82CA841200CB
:1013AC000B6A0A6A096A00500402F4CF09F0F3CF01
:1013BC0008F001500502F4CF0BF0F3CF0AF0005007
:1013CC000502F3500926F4500A22E86A0B22015058
:1013DC000402F3500926F4500A22E86A0B2208C0D2
:1013EC0000F009C001F00AC002F00BC003F01200BB
:1013FC0055EC0AF0060EC16ED59CD59AD596D594AF
:10140C00D582D580FB0ED76E1D0ED66EF294F28A65
:10141C00D58E94908290CD8ECD96CD82CD84CD8A72
:10142C00CD88CA82CA80B18EB18CB19AB188B19282
:10143C00F28EF086F09093829398939A939C939E5D
:10144C008198819A819C819E92849288928A9386BB
:10145C0094928292F288F2929380F088F092938424
:10146C0095909592959495969598959A959C959E10
:10147C0083908392839483968398839A839C839E90
:0E148C00929092929494809080928294FFD7D6
:1014AA0010EE17F0100E006E010E016E9A0EF66E17
:0E14BA00140EF76E000EF86E62EC08F01200D1
:02149A0001004F
:02149C0000004E
:02149E006400E8
:0214A00000004A
:0414A2000000000046
:0414A6000000000042
:020000040030CA
:0D000100220F0EFF0181FF0FC00FE00F4026
:00000001FF
