:0400000000EF0AF013
:1000080000C016F001C015F0F0A009D01B501C105C
:1000180002E0DDEC07F0FAEC09F0F096F0909EA211
:1000280009D09E929D92CA94F086F090F288F2923E
:10003800F088F092F2A423D0FB0ED76E1D0ED66E78
:1000480082701B501C101AE11DC000F01EC001F088
:100058001FC002F020C003F00A0E046ED70E056E12
:10006800230E066E780E076E28EC05F000C01DF012
:1000780001C01EF002C01FF003C020F0F294A1A23C
:1000880063D0150EB36E9F0EB26EFF0E181802E104
:10009800FE0E171805E1030E006E000E016E04D067
:1000A80017C000F018C001F000C017F001C018F028
:1000B8002650030A02E1E80E251805E1010E276E15
:1000C800000E286E0ED025C000F026C001F00A0EE2
:1000D800046E000E056EADEC07F000C027F001C0FD
:1000E80028F027C025F028C026F0809280948294BA
:1000F8008296AFEC08F000C083FF000E181802E1EA
:10010800000E1718D8B48082000E181802E1010EEC
:100118001718D8B48084000E181802E1020E1718B8
:10012800D8B48284000E181802E1030E1718D8B448
:100138008286010E175C006E000E1858016E00C012
:1001480017F001C018F0A1929EA00BD08282010E78
:100158001B6E000E1C6EA192A092B1909E909D9075
:10016800CD90F2A213D08292216A226A236A246A6D
:100178001D6A1E6A1F6A206A196A1A6A010E1B6EB6
:10018800000E1C6EFAEC09F0F298F292F0A247D039
:10019800FAEC09F01B6A1C6A0A0E046ED70E056E8B
:1001A800230E066E7C0E076E21C000F022C001F0FF
:1001B80023C002F024C003F03DEC09F03FEC07F047
:1001C8000050FF08036E01C004F0FF0E045604C07F
:1001D80000F0016A00C0CFFF0A0E046ED70E056E4C
:1001E800230E066E7C0E076E21C000F022C001F0BF
:1001F80023C002F024C003F03DEC09F03FEC07F007
:100208000050FF08CE6E9E909D80CD80150EB36E77
:100218009F0EB26EA192A082B180F098F09216C0A3
:0802280000F015C001F0110007
:080230000AAE029E000E12004E
:100238000B820BAE26EF01F00368026801680068C4
:080248000A360232FF0E12001B
:100250000B840BAE33EF01F0010E036E026A016AEC
:0A026000006A0A360232FF0E120097
:0E026A00026A016A006A086A036A000E120046
:100278000C6A0E6A0250D8A455EF01F001C002F0D2
:1002880000C001F0006A0E860250D8A455EF01F0B4
:1002980001C002F0016A0E960E880250D8B467EFCA
:1002A80001F00E50035ED8A4D8A06CEF01F0D890EE
:1002B80002BE71EF01F0003601360236032E5CEF04
:1002C80001F06CEF01F0010E0C6ECBDF74EF01F062
:1002D800020E0C6EB9DF74EF01F0040E0C6EA4DF91
:0202E800120002
:1002EA000CB0B7EF01F00CA25DEF02F00E6A000E3F
:1002FA000264CEEF01F0F00E0214D8A499EF01F0D7
:10030A00023A01380F0B02260138F00B016E003851
:10031A000F0B01260038F00B006E08380F0B002671
:10032A000838F00B086E0E84D89002BEB2EF01F0C6
:10033A0008360036013602360E2A02BEB2EF01F046
:10034A0008360036013602360E2A02BEB2EF01F036
:10035A0008360036013602360E2A0E50036453EF71
:10036A0002F0035E0BBC08AE58EF02F0D880800E94
:10037A0008640030000E002201220222D8A058EFA1
:10038A0002F0023201320032034A5DEF02F058EF06
:10039A0002F001C002F000C001F008C000F0086AD3
:1003AA00000E0E86026405EF02F0F00E0214D8A4C5
:1003BA00EDEF01F0023A01380F0B02260138F00B7B
:1003CA00016E00380F0B01260038F00B006E0E8408
:1003DA00D89002BEB2EF01F00036013602360E2A7C
:1003EA0002BEB2EF01F00036013602360E2A02BE14
:1003FA00B2EF01F00036013602360E2AB2EF01F0F2
:10040A0001C002F000C001F0006A000E0E960E88CC
:10041A00026432EF02F0F00E0214D8A41DEF02F0CB
:10042A00023A01380F0B02260138F00B016E0E84D6
:10043A00D89002BEB2EF01F0013602360E2A02BE91
:10044A00B2EF01F0013602360E2A02BEB2EF01F017
:10045A00013602360E2AB2EF01F001C002F0016A3B
:10046A00000E0E86026462EF02F0F00E0214D8A4A7
:10047A0041EF02F0023A0E84D89002BEB2EF01F0C8
:10048A0002360E2A02BEB2EF01F002360E2A02BE70
:10049A00B2EF01F002360E2AB2EF01F0010E0C6E35
:1004AA00D2DE65EF02F0020E0C6EBDDE65EF02F0E1
:1004BA00040E0C6EBCDE65EF02F0080E0C6ED0DE88
:0204CA0012001E
:1004CC000134083609360450085E0550D8A0053CA6
:1004DC00095E003601360F0E0C6E013408360936F3
:1004EC00045000A006D0085E0550D8A0053C095E5B
:1004FC0005D008260550D8B0053C09260036013633
:10050C000C2EEBD700B006D0045008260550D8B0FE
:08051C00053C09260000120055
:100524000B800BAE9EEF02F0026A0AAEFF0E026E63
:0C053400016E006E0A360232FF0E12004B
:10054000086A096A000E0762036425EF03F002508F
:1005500006180A6E075003267E0ED8A0B6EF02F0EA
:10056000035ED8B029EF03F0BAEF02F0035ED8A023
:100570002DEF03F0028E068E02C00EF001C00BF0CC
:1005800000C00DF000500402F4CF0CF00150050241
:10059000F4CF00F0F3CF08F00402F3500C26F4502F
:1005A0000822000E00220D500502F3500C26F450D4
:1005B0000822000E002202500402F3500826F450D4
:1005C000002202500502016A000E0122F3500026AB
:1005D000F45001220D500602F3500826F450002278
:1005E000026A000E012202220B500602F35000267E
:1005F000F4500122000E02220E500602F350012692
:10060000F450022202BE0DEF03F008360036013628
:1006100002360306D8B42DEF03F020EF03F0D880A4
:10062000800E08640030000E002201220222D8A0B1
:1006300020EF03F0023201320032034A29EF03F0C7
:100640000AAE029E000E2FEF03F0010E0EDE2FEF1A
:1006500003F0020EF1DD2FEF03F0040EF9DD1200BE
:10066000FF0E326EFF0E336E95D030C0E1FF31C009
:10067000E2FF050EE66EFBD030C0E1FF31C0E2FFC5
:10068000060EE66E326A336AF2D030C0E1FF31C046
:10069000E2FFE66AECD030C0E1FF31C0E2FF010EBC
:1006A000E66EE5D030C0E1FF31C0E2FF060EE66E37
:1006B000010E326E000E336EDAD030C0E1FF31C071
:1006C000E2FF060EE66E020E326E000E336ECFD0E3
:1006D00030C0E1FF31C0E2FF060EE66E030E326E5F
:1006E000000E336EC4D030C0E1FF31C0E2FF020E15
:1006F000E66EBDD030C0E1FF31C0E2FF060EE66E0F
:10070000040E326E000E336EB2D030C0E1FF31C045
:10071000E2FF060EE66E050E326E000E336EA7D0B7
:1007200030C0E1FF31C0E2FF060EE66E060E326E0B
:10073000000E336E9CD030C0E1FF31C0E2FF030EEB
:10074000E66E95D030C0E1FF31C0E2FF060EE66EE6
:10075000070E326E000E336E8AD030C0E1FF31C01A
:10076000E2FF060EE66E080E326E000E336E7FD08C
:1007700030C0E1FF31C0E2FF060EE66E090E326EB8
:10078000000E336E74D030C0E1FF31C0E2FF040EC2
:10079000E66E6DD0000E2F1802E1E70E2E18D8B4C9
:1007A00064D7000E2F1802E1D70E2E18D8B464D7E4
:1007B000000E2F1802E1B70E2E18D8B466D7000E1F
:1007C0002F1802E1770E2E18D8B465D7000E2F1817
:1007D00002E1EB0E2E18D8B465D7000E2F1802E1F7
:1007E000DB0E2E18D8B469D7000E2F1802E1BB0E0D
:1007F0002E18D8B46DD7000E2F1802E17B0E2E18DC
:10080000D8B471D7000E2F1802E1ED0E2E18D8B40F
:1008100071D7000E2F1802E1DD0E2E18D8B475D74F
:10082000000E2F1802E1BD0E2E18D8B479D7000E95
:100830002F1802E17D0E2E18D8B47DD7000E2F1888
:1008400002E1EE0E2E18D8B47DD7000E2F1802E16B
:10085000DE0E2E1882E0000E2F1802E1BE0E2E18BA
:1008600087E0000E2F1802E17E0E2E188CE032C0B9
:0808700000F033C001F012009A
:100878000B6A0350D8B482EF04F002500A6E028E5D
:100888008E0E035E03AE86EF04F0036C080E035C65
:10089800D8A061EF04F0036E013602C001F0026ACD
:1008A800080E035CD8A061EF04F0036E0136016AFC
:1008B8000350D8A4D8906BEF04F00350D8B46BEF72
:1008C80004F0D89002320132032E65EF04F00BBC1D
:1008D80001A078EF04F0D8A078EF04F0012AD8B48A
:1008E800022A02BE95EF04F00AAE9AEF04F0021E47
:1008F800011E012AD8B4022A9AEF04F0026A016A9A
:100908009AEF04F00B800BAE9EEF04F0026A0AAE79
:100918009EEF04F0FF0E026E016E0A3602329EEF61
:1009280004F0010E0C6EFADDA0EF04F0000E0C6E60
:10093800A0EF04F0FF0E0C6E0150006E0250016E25
:0209480012009B
:10094A000450000A08E10550000A05E1FF0E006E96
:10095A007F0E016E57D00D6A096A086A01500010AD
:10096A00D8B4000C015005180A6E0ABE0D1E0B6A97
:10097A0005AE05D0041E051E042AD8B4052A01AE08
:10098A0005D0001E011E002AD8B4012A0150051004
:10099A000A6E0ABE10D095DD0BB020D00DAE000C49
:1009AA00001E011E002AD8B4012A081E091E082AA0
:1009BA00D8B4092A000C05AE0DD001BE07D00150EB
:1009CA00096E0050086E016A006AE8D7016A006A77
:1009DA00002A000C011E001E0B2ADDD7082AD8B4F3
:1009EA00092A0450085CD8A4D9D70550095CD8A4B0
:1009FA00D5D7096A086A002AD8B4012A01AECED727
:060A0A000000FF0C1200C9
:100A100000C008F00150006E016A026A036A0B6AA6
:100A20000C6A016A026A036A960E036E0A6A00AED5
:100A300020EF05F0081E001E082AD8B4002A0A8EEE
:100A400000C001F008C000F0086A026A15DC12005C
:100A5000025006180E6E086A096A0B6A0350076492
:100A60001BEF06F006500A6E068E028E03500B6EC8
:100A70000750036E000E0B646BEF05F00B50075E22
:100A8000D8B40CEF06F0070E0764DAEF05F0075E46
:100A900000C008F001C000F002C001F0026A074E79
:100AA0000CEF06F00764AFEF05F0075E00C008F03A
:100AB00001C000F0016A074E0CEF06F007648DEFED
:100AC00005F0075E00C008F0006A074E0CEF06F064
:100AD000076474EF05F00AC002F005C001F004C01D
:100AE00000F0086A38EF07F0030E07647FEF05F0A7
:100AF000075E08380F0B086E074E0CEF06F0D89013
:100B00000832074E0CEF06F0D8900832074E0CEF73
:100B100006F0D89008320CEF06F0030E07649EEF43
:100B200005F0075E08380F0B086E0038F00B08263A
:100B300000380F0B006E074E0CEF06F0D890003215
:100B40000832074E0CEF06F0D89000320832074EFC
:100B50000CEF06F0D890003208320CEF06F0030ECE
:100B60000764C6EF05F0075E08380F0B086E003803
:100B7000F00B082600380F0B006E0138F00B002632
:100B800001380F0B016E074E0CEF06F0D8900132C2
:100B900000320832074E0CEF06F0D89001320032D6
:100BA0000832074E0CEF06F0D890013200320832BE
:100BB0000CEF06F0030E0764F7EF05F0075E083848
:100BC0000F0B086E0038F00B082600380F0B006E74
:100BD0000138F00B002601380F0B016E0238F00BC4
:100BE000012602380F0B026E074E0CEF06F0D8906C
:100BF0000232013200320832074E0CEF06F0D89074
:100C00000232013200320832074E0CEF06F0D89063
:100C10000232013200320832096A000E0EAE00EFD5
:100C200007F0081E001E011E021E082A00220122D3
:100C3000022200EF07F00750D8A421EF06F038EFAA
:100C400007F0096A02C00AF0028E068E0750035CA4
:100C5000076ED8B4F3EF06F0070E0764C1EF06F095
:100C6000075E0450096E0550046E0650056E066A54
:100C7000074EF3EF06F0070E076496EF06F0075EE7
:100C80000450096E0550046E056A074EF3EF06F036
:100C9000070E076474EF06F0075E0450096E046ADD
:100CA000074EF3EF06F0070E07645BEF06F00AC08D
:100CB00002F038EF07F0030E076466EF06F0075EF8
:100CC00009380F0B096E074EF3EF06F0D890093282
:100CD000074EF3EF06F0D8900932074EF3EF06F017
:100CE000D8900932F3EF06F0030E076485EF06F0A3
:100CF000075E09380F0B096E0438F00B092604381B
:100D00000F0B046E074EF3EF06F0D8900432093251
:100D1000074EF3EF06F0D89004320932074EF3EF96
:100D200006F0D89004320932F3EF06F0030E0764A0
:100D3000ADEF06F0075E09380F0B096E0438F00BB3
:100D4000092604380F0B046E0538F00B042605380D
:100D50000F0B056E074EF3EF06F0D8900532043204
:100D60000932074EF3EF06F0D8900532043209320B
:100D7000074EF3EF06F0D890053204320932F3EF54
:100D800006F0030E0764DEEF06F0075E09380F0B6E
:100D9000096E0438F00B092604380F0B046E053871
:100DA000F00B042605380F0B056E0638F00B0526F0
:100DB00006380F0B066E074EF3EF06F0D89006329A
:100DC000053204320932074EF3EF06F0D8900632AE
:100DD000053204320932074EF3EF06F0D89006329E
:100DE000053204320932086A000E0EAE00EF07F039
:100DF000091E041E051E061E092A042205220622BB
:100E000009500826045000220550012206500222F3
:100E10000EBE17EF07F0D8A026EF07F0023201321E
:100E200000320832033E26EF07F032EF07F0D8B069
:100E30002CEF07F0000E081E001E011E021E082ADD
:100E40000022012202220A7E2CEF07F0010E0C6E16
:100E500075EC01F03AEF07F0020E0C6E75EC01F044
:100E60003AEF07F0040E0C6E1CEC01F03AEF07F0BD
:060E7000000E0C6E1200E2
:080E76000B6A0B86FF0E12004F
:100E7E000B6A0C6A0A6A0350D8B489EF07F0028E27
:100E8E008E0E035E03BE51EF07F0D8B451EF07F09C
:100E9E008DEF07F0036C080E035CD8A068EF07F027
:100EAE00036E013602C001F0026A080E035CD8A080
:100EBE0068EF07F00136016A0350D8A4D89072EF9C
:100ECE0007F00350D8B472EF07F0D8900232013217
:100EDE00032E6CEF07F00BBC01A07FEF07F0D8A03C
:100EEE007FEF07F0012AD8B4022A02BE9CEF07F06A
:100EFE000AAEA2EF07F0021E011E012AD8B4022A82
:100F0E00A2EF07F0026A016AA2EF07F00B800BAEA8
:100F1E00A6EF07F0026A0AAEA6EF07F0FF0E026E0A
:100F2E00016E0A360232A6EF07F0010E0C6E92EC3D
:100F3E0002F0A8EF07F0000E0C6EA8EF07F0FF0E00
:0C0F4E000C6E0150006E0250016E12008B
:100F5A000B6A0A6A096A00500402F4CF09F0F3CF57
:100F6A0008F001500502F4CF0BF0F3CF0AF000505D
:100F7A000502F3500926F4500A22E86A0B220150AE
:100F8A000402F3500926F4500A22E86A0B2208C028
:100F9A0000F009C001F00AC002F00BC003F0120011
:100FAA000900F5CFE6FF0006FBE10106F9E11200B0
:100FBA002D6A296A0F0E2D6E2D500F0A48E129C09D
:100FCA0001F0010E006E015004E000360090FF0FA0
:100FDA00FBD7001C026E02C000F0003600900036FB
:100FEA000090003600900036009000C081FF026A2F
:100FFA0080B8022A02C000F000360090000E80B4C9
:10100A00010E2D6E00502D12036A80BA032A03C006
:10101A0000F0000E016E0036009001360036009096
:10102A00013600502D12036A81B6032A030E026E9E
:10103A0003C000F0000E016E025005E00036009079
:10104A000136FF0FFAD700502D12292AB5D7040E00
:10105A00006E81CF2EF0000E2F6E005004E02E326B
:10106A002E9EFF0FFBD7816A2DC000F0003600903C
:10107A0000360090003600900036009000502E1086
:10108A002E6E000E2F6E2A0E306E000E316E30EC70
:10109A0003F000C02BF001C02CF0194A1A2A800E66
:1010AA001A18006E800E005C02E1030E195C31E230
:1010BA0021C000F022C001F023C002F024C003F0D6
:1010CA00000E046E000E056E200E066E820E076E6E
:1010DA00A0EC02F000C021F001C022F002C023F00F
:1010EA0003C024F02BC000F02CC001F08CDC21C01E
:1010FA0004F022C005F023C006F024C007F0A3DCE8
:10110A0000C021F001C022F002C023F003C024F085
:10111A0020D02BC000F02CC001F075DCCD0E046E7F
:10112A00CC0E056E4C0E066E7B0E076EA0EC02F01E
:10113A0021C004F022C005F023C006F024C007F045
:10114A0082DC00C021F001C022F002C023F003C0FB
:04115A0024F012006B
:10115E0021C000F022C001F023C002F024C003F031
:10116E003CEC04F025C004F026C005F0A5EC04F01C
:10117E000A0E046E000E056EA5EC04F008C000F019
:10118E0009C001F000C029F001C02AF032D03F0E94
:10119E00006E000E016E69D0060E006E000E016E1E
:1011AE0064D05B0E006E000E016E5FD04F0E006EAF
:1011BE00000E016E5AD0660E006E000E016E55D0F6
:1011CE006D0E006E000E016E50D07D0E006E000E84
:1011DE00016E4BD0070E006E000E016E46D07F0ED4
:1011EE00006E000E016E41D06F0E006E000E016E8D
:1011FE003CD0000E2A1802E1000E2918C8E0000E9D
:10120E002A1802E1010E2918C7E0000E2A1802E181
:10121E00020E2918C6E0000E2A1802E1030E291844
:10122E00C5E0000E2A1802E1040E2918C4E0000ED3
:10123E002A1802E1050E2918C3E0000E2A1802E151
:10124E00060E2918C2E0000E2A1802E1070E291810
:10125E00C1E0000E2A1802E1080E2918C0E0000EA7
:0C126E002A1802E1090E2918BFE0120046
:10127A000450000A12E10550000A0FE10650000A64
:10128A000CE10750000A09E1FF0E006EFF0E016E25
:10129A007F0E026EFF0E036EA7D0086A096A075016
:1012AA00D8B4E8EF09F00350D8B4ECEF09F00250D3
:1012BA0006180A6E028E068E0E6A02C008F001C077
:1012CA000CF000C00DF004500D5E0550D8A0053C8E
:1012DA000C5E0650D8A0063C085E086A0C6A0D6AC5
:1012EA00D8A07FEF09F0D8900232013200320832DA
:1012FA00010E0E6E0750035ED8A08CEF09F07E0E29
:10130A000E240326D8B0F1EF09F092EF09F07E0E11
:10131A000E240326D8A0F6EF09F0180E0B6E0D3630
:10132A000C3608360036013602360E360450005E98
:10133A000550D8A0053C015E0650D8A0063C025EC6
:10134A0006340E120EA0ADEF09F00D80B8EF09F0C9
:10135A00045000260550D8B0053C01260650D8B0E6
:10136A00062802260D900B2E94EF09F0DEEF09F005
:10137A00D8900036013602360E360450005E05500B
:10138A00D8A0053C015E0650D8A0063C025E063491
:10139A000E10010B0D26D8B00C2AD8B4082AD8A4EE
:1013AA00DEEF09F008320C320D32032AD8B4F1EF1D
:1013BA0009F00AAE089E0850026E0C50016E0D50DC
:1013CA00006EF9EF09F0010E51DDF9EF09F0020E96
:1013DA0035EC01F0F9EF09F0040E1CEC01F0F9EF1D
:0A13EA0009F0080E28EC01F01200D3
:0C13F4007F0ECC6E9E929D82CA84120077
:1014000059EC0AF0060EC16ED59CD59AD596D594A6
:10141000D582D580FB0ED76E1D0ED66EF294F28A61
:10142000D58E94908290CD8ECD96CD82CD84CD8A6E
:10143000CD88CA82CA80B18EB18CB19AB188B1927E
:10144000F28EF086F09093829398939A939C939E59
:101450008198819A819C819E92849288928A9386B7
:1014600094928292F288F2929380F088F092938420
:1014700095909592959495969598959A959C959E0C
:1014800083908392839483968398839A839C839E8C
:10149000929292949494949680928094829482965C
:0214A000FFD774
:1014B20010EE17F0100E006E010E016EA20EF66E07
:0E14C200140EF76E000EF86ED5EC07F0120057
:0214A200030045
:0214A400000046
:0214A600010043
:0414A8000000000040
:0414AC00000000003C
:0214B000E8034F
:020000040030CA
:0D000100220F0EFF0181FF0FC00FE00F4026
:00000001FF
