:0400000068EF0EF0A7
:1000080000C018F001C017F00CC016F00DC015F0B4
:10001800F0A009D03350341002E086EC0CF016EC56
:100028000CF0F096F0909EA209D09E929D92CA94F0
:10003800F086F090F288F292F088F092F2A45AD00A
:10004800FC0ED76EF10ED66E82703350341051E12B
:10005800CD0E046ECC0E056E4C0E066E7B0E076E32
:1000680035C000F036C001F037C002F038C003F0E8
:1000780076EC0DF000C035F001C036F002C037F064
:1000880003C038F035C05CF036C05DF037C05EF0B4
:1000980038C05FF0400E606E000E616E05EC0AF02D
:1000A800010E5C6E010E5D6E400E5E6E000E5F6EA0
:1000B800C6EC09F0CFCF4FF04E6A506A516A000E75
:1000C800506E516ECE504E26000E4F22000E506ECE
:1000D800516E400E526E000E536EE8EC0DF0020E9B
:1000E8005C6E010E5D6E400E5E6E000E5F6EC6ECBD
:1000F80009F0F2949EA014D0010E6E6EA7D8010EDE
:100108005C6E010E5D6E290E5E6E000E5F6EC6ECB3
:1001180009F0010E336E000E346E9E909D90CD90C6
:10012800F2A215D0010E6E6E91D8010E5C6E010E12
:100138005D6E1E0E5E6E000E5F6EC6EC09F0010E5F
:10014800336E000E346E16EC0CF0F298F292F0A2B8
:100158004DD0010E6E6E7AD8010E5C6E010E5D6E8A
:10016800190E5E6E000E5F6EC6EC09F016EC0CF010
:10017800336A346ACD0E046ECC0E056E4C0E066ED4
:100188007F0E076E35C000F036C001F037C002F0B0
:1001980038C003F04EEC05F07AEC0DF00050FF0883
:1001A800036E01C004F0FF0E045604C000F0016A9B
:1001B80000C0CFFFCD0E046ECC0E056E4C0E066E41
:1001C8007F0E076E35C000F036C001F037C002F070
:1001D80038C003F04EEC05F07AEC0DF00050FF0843
:1001E800CE6E9E909D80CD80F098F09218C000F061
:0E01F80017C001F016C00CF015C00DF011007C
:100206000F0E0C6E470E0D6E0D2EFED70C2EFCD764
:06021600000000001200D0
:06021C00000000001200CA
:0A022200210E0D6E0D2EFED7120006
:0E022C00026A016A006A086A036A000E120084
:10023A000B840BAE28EF01F0010E036E026A016A0D
:0A024A00006A0A360232FF0E1200AD
:100254006EBE02D0839E01D0838E6EBC02D0839C7E
:1002640001D0838C6EBA02D0839A01D0838A6EB88F
:1002740002D0839801D083883FB002D0848401D017
:1002840084948482C9DF84926EB602D0839E01D0A6
:10029400838E6EB402D0839C01D0838C6EB202D064
:1002A400839A01D0838A6EB002D0839801D0838868
:1002B4003FB002D0848401D084948482ADDF8492E0
:0C02C4003FA002D09EDF01D0AADF120094
:0802D0000AAE029E000E1200AE
:1002D8000B820BAE76EF01F00368026801680068D4
:0802E8000A360232FF0E12007B
:1002F0006AC004F06BC005F004C002F005C003F052
:10030000044A052A6CC000F06DC001F06C4A6D2AE9
:1003100000C0E9FF01C0EAFF02C0E1FF03C0E2FF45
:10032000EECFE6FF02C0E9FF03C0EAFFEE5201E0B4
:0C033000E3D76AC000F06BC001F01200BF
:10033C000A6A0350D8A40A800750D8A40A820A502B
:10034C00D8B401EF02F0030AD8B4BAEF01F00AB046
:10035C00B5EF01F006AEFFEF01F0FDEF01F002AEDC
:10036C00FDEF01F0FFEF01F00250800B0A6E029ED0
:10037C000650800B069E0A18D8B4CBEF01F00A5039
:10038C00D8B4FDEF01F0FFEF01F00750035CD8B4D7
:10039C00D5EF01F0D8A0F1EF01F0F7EF01F0065026
:1003AC00025CD8B4DFEF01F0D8A0F1EF01F0F7EF69
:1003BC0001F00550015CD8B4E9EF01F0D8A0F1EFE1
:1003CC0001F0F7EF01F00450005CD8B401EF02F03B
:1003DC00D8B0F7EF01F00A52D8B4FFEF01F0FDEFFF
:1003EC0001F00A52D8B4FDEF01F0FFEF01F0D88014
:0E03FC001200D8901200D880D884120012008F
:10040A00086A096A000E076203648AEF02F0025062
:10041A0006180A6E075003267E0ED8A01BEF02F0BC
:10042A00035ED8B08EEF02F01FEF02F0035ED8A091
:10043A0092EF02F0028E068E02C00EF001C00BF09F
:10044A0000C00DF000500402F4CF0CF00150050278
:10045A00F4CF00F0F3CF08F00402F3500C26F45066
:10046A000822000E00220D500502F3500C26F4500B
:10047A000822000E002202500402F3500826F4500B
:10048A00002202500502016A000E0122F3500026E2
:10049A00F45001220D500602F3500826F4500022AF
:1004AA00026A000E012202220B500602F3500026B5
:1004BA00F4500122000E02220E500602F3500126C9
:1004CA00F450022202BE72EF02F0083600360136FC
:1004DA0002360306D8B492EF02F085EF02F0D88014
:1004EA00800E08640030000E002201220222D8A0E9
:1004FA0085EF02F0023201320032034A8EEF02F037
:10050A000AAE029E000E94EF02F0010E8ADE94EF0C
:10051A0002F0020EDCDE94EF02F0040E89DE120015
:10052A000CB0D7EF02F00CA27DEF03F00E6A000EBA
:10053A000264EEEF02F0F00E0214D8A4B9EF02F052
:10054A00023A01380F0B02260138F00B016E00380F
:10055A000F0B01260038F00B006E08380F0B00262F
:10056A000838F00B086E0E84D89002BED2EF02F063
:10057A0008360036013602360E2A02BED2EF02F0E3
:10058A0008360036013602360E2A02BED2EF02F0D3
:10059A0008360036013602360E2A0E50036473EF0F
:1005AA0003F0035E0BBC08AE78EF03F0D880800E30
:1005BA0008640030000E002201220222D8A078EF3F
:1005CA0003F0023201320032034A7DEF03F078EF82
:1005DA0003F001C002F000C001F008C000F0086A90
:1005EA00000E0E86026425EF03F0F00E0214D8A462
:1005FA000DEF03F0023A01380F0B02260138F00B17
:10060A00016E00380F0B01260038F00B006E0E84C5
:10061A00D89002BED2EF02F00036013602360E2A18
:10062A0002BED2EF02F00036013602360E2A02BEB0
:10063A00D2EF02F00036013602360E2AD2EF02F06D
:10064A0001C002F000C001F0006A000E0E960E888A
:10065A00026452EF03F0F00E0214D8A43DEF03F047
:10066A00023A01380F0B02260138F00B016E0E8494
:10067A00D89002BED2EF02F0013602360E2A02BE2E
:10068A00D2EF02F0013602360E2A02BED2EF02F093
:10069A00013602360E2AD2EF02F001C002F0016AD8
:1006AA00000E0E86026482EF03F0F00E0214D8A444
:1006BA0061EF03F0023A0E84D89002BED2EF02F044
:1006CA0002360E2A02BED2EF02F002360E2A02BE0D
:1006DA00D2EF02F002360E2AD2EF02F0010E0C6EB1
:1006EA00A7DD85EF03F0020E0C6EEDDD85EF03F05A
:1006FA00040E0C6EECDD85EF03F0080E0C6E91DD36
:02070A001200DB
:10070C000C6A0E6A0250D8A49FEF03F001C002F0ED
:10071C0000C001F0006A0E860250D8A49FEF03F0CF
:10072C0001C002F0016A0E960E880250D8B4B1EFE7
:10073C0003F00E50035ED8A4D8A0B6EF03F0D89007
:10074C0002BEBBEF03F0003601360236032EA6EFD5
:10075C0003F0B6EF03F0010E0C6E62DDBEEF03F09A
:10076C00020E0C6E64DDBEEF03F0040E0C6EAADDFF
:02077C00120069
:08077E000B6A0B86FF0E12004E
:0C0786003F906AC06EF063DD3F801200FF
:100792000B6A0A6A096A086A0E6A03340836045048
:1007A200085E0550D8A0053C095E0650D8A0063C5C
:1007B2000A5E0750D8A0073C0B5EE86AD8A0010E7B
:1007C2000E5E0336070E0C6E0334083609360A36FF
:1007D2000B360E36045003A012D0085E0550D8A086
:1007E200053C095E0650D8A0063C0A5E0750D8A018
:1007F200073C0B5EE86AD8A0010E0E5E11D00826F7
:100802000550D8B0053C09260650D8B0063C0A2649
:100812000750D8B0073C0B26E86AD8B0010E0E2666
:1008220003360C2ED1D70234083609360A360B3677
:100832000E36045003A012D0085E0550D8A0053C25
:10084200095E0650D8A0063C0A5E0750D8A0073CB5
:100852000B5EE86AD8A0010E0E5E11D00826055084
:10086200D8B0053C09260650D8B0063C0A260750E7
:10087200D8B0073C0B26E86AD8B0010E0E26023625
:10088200070E0C6E0234083609360A360B360E365F
:10089200045002A012D0085E0550D8A0053C095EA3
:1008A2000650D8A0063C0A5E0750D8A0073C0B5E53
:1008B200E86AD8A0010E0E5E11D008260550D8B005
:1008C200053C09260650D8B0063C0A260750D8B087
:1008D200073C0B26E86AD8B0010E0E2602360C2E13
:1008E200D1D70134083609360A360B360E36045093
:1008F20002A012D0085E0550D8A0053C095E065041
:10090200D8A0063C0A5E0750D8A0073C0B5EE86AF6
:10091200D8A0010E0E5E11D008260550D8B0053CB5
:1009220009260650D8B0063C0A260750D8B0073C24
:100932000B26E86AD8B0010E0E260136070E0C6EA1
:100942000134083609360A360B360E36045001A039
:1009520012D0085E0550D8A0053C095E0650D8A00A
:10096200063C0A5E0750D8A0073C0B5EE86AD8A096
:10097200010E0E5E11D008260550D8B0053C09269E
:100982000650D8B0063C0A260750D8B0073C0B26C2
:10099200E86AD8B0010E0E2601360C2ED1D70034EB
:1009A200083609360A360B360E36045001A012D02C
:1009B200085E0550D8A0053C095E0650D8A0063C4A
:1009C2000A5E0750D8A0073C0B5EE86AD8A0010E69
:1009D2000E5E11D008260550D8B0053C09260650F7
:1009E200D8B0063C0A260750D8B0073C0B26E86A66
:1009F200D8B0010E0E260036070E0C6E00340836F3
:100A020009360A360B360E36045000A012D0085EA4
:100A12000550D8A0053C095E0650D8A0063C0A5EE7
:100A22000750D8A0073C0B5EE86AD8A0010E0E5E04
:100A320011D008260550D8B0053C09260650D8B07A
:100A4200063C0A260750D8B0073C0B26E86AD8B005
:100A5200010E0E2600360C2ED1D700B00ED0045057
:100A620008260550D8B0053C09260650D8B0063CE9
:0C0A72000A260750D8B0073C0B261200E3
:100A7E00086A080E0C6E003408360450085ED8B0B2
:0E0A8E0002D00826D89000360C2EF5D71200A4
:100A9C000450000A12E10550000A0FE10650000A4A
:100AAC000CE10750000A09E1FF0E006EFF0E016E0B
:100ABC007F0E026EFF0E036EA7D0086A096A0750FC
:100ACC00D8B4F9EF05F00350D8B4FDEF05F002509F
:100ADC0006180A6E028E068E0E6A02C008F001C05D
:100AEC000CF000C00DF004500D5E0550D8A0053C74
:100AFC000C5E0650D8A0063C085E086A0C6A0D6AAB
:100B0C00D8A090EF05F0D8900232013200320832B2
:100B1C00010E0E6E0750035ED8A09DEF05F07E0E01
:100B2C000E240326D8B002EF06F0A3EF05F07E0EDC
:100B3C000E240326D8A007EF06F0180E0B6E0D3608
:100B4C000C3608360036013602360E360450005E7E
:100B5C000550D8A0053C015E0650D8A0063C025EAC
:100B6C0006340E120EA0BEEF05F00D80C9EF05F095
:100B7C00045000260550D8B0053C01260650D8B0CC
:100B8C00062802260D900B2EA5EF05F0EFEF05F0D1
:100B9C00D8900036013602360E360450005E0550F1
:100BAC00D8A0053C015E0650D8A0063C025E063477
:100BBC000E10010B0D26D8B00C2AD8B4082AD8A4D4
:100BCC00EFEF05F008320C320D32032AD8B402EFE5
:100BDC0006F00AAE089E0850026E0C50016E0D50C5
:100BEC00006E0AEF06F0010EC4DD0AEF06F0020EED
:100BFC0016EC01F00AEF06F0040E6CEC01F00AEFB3
:0A0C0C0006F0080E1DEC01F01200C6
:100C1600626A636A000E635C02E10A0E625C0BE2C2
:100C260062506024E16E63506120E26E200EE66E33
:100C3600624A632AEFD762506024E16E63506120F6
:100C4600E26EE66A010E625E000E635A625060242E
:100C5600646E63506120656E0A0E046E000E056EAA
:100C6600066E076E5CC000F05DC001F05EC002F06B
:100C76005FC003F08BDD08C000F009C001F00AC0B8
:100C860002F00BC003F0300E002664C0E1FF65C021
:100C9600E2FF00C0E6FF0A0E046E000E056E066E49
:100CA600076E5CC000F05DC001F05EC002F05FC080
:100CB60003F06CDD00C05CF001C05DF002C05EF0C8
:100CC60003C05FF0000E046E031808E1045002181A
:100CD60005E10450011802E10050000A01E105D0C7
:0C0CE600010E625E000E635AB1D71200CE
:100CF20000C008F00150006E016A026A036A0B6AC2
:100D02000C6A016A026A036A960E036E0A6A00AEF0
:100D120091EF06F0081E001E082AD8B4002A0A8E97
:100D220000C001F008C000F0086A026AEEDC12009E
:100D3200FF0E606EFF0E616E95D05EC0E1FF5FC078
:100D4200E2FF050EE66EFBD05EC0E1FF5FC0E2FF90
:100D5200060EE66E606A616AF2D05EC0E1FF5FC0B5
:100D6200E2FFE66AECD05EC0E1FF5FC0E2FF010E87
:100D7200E66EE5D05EC0E1FF5FC0E2FF060EE66E02
:100D8200010E606E000E616EDAD05EC0E1FF5FC0E0
:100D9200E2FF060EE66E020E606E000E616ECFD0AE
:100DA2005EC0E1FF5FC0E2FF060EE66E030E606EFC
:100DB200000E616EC4D05EC0E1FF5FC0E2FF020EB2
:100DC200E66EBDD05EC0E1FF5FC0E2FF060EE66EDA
:100DD200040E606E000E616EB2D05EC0E1FF5FC0B5
:100DE200E2FF060EE66E050E606E000E616EA7D083
:100DF2005EC0E1FF5FC0E2FF060EE66E060E606EA9
:100E0200000E616E9CD05EC0E1FF5FC0E2FF030E88
:100E1200E66E95D05EC0E1FF5FC0E2FF060EE66EB1
:100E2200070E606E000E616E8AD05EC0E1FF5FC089
:100E3200E2FF060EE66E080E606E000E616E7FD057
:100E42005EC0E1FF5FC0E2FF060EE66E090E606E55
:100E5200000E616E74D05EC0E1FF5FC0E2FF040E5F
:100E6200E66E6DD0000E5D1802E1E70E5C18D8B494
:100E720064D7000E5D1802E1D70E5C18D8B464D7AF
:100E8200000E5D1802E1B70E5C18D8B466D7000EEA
:100E92005D1802E1770E5C18D8B465D7000E5D18B4
:100EA20002E1EB0E5C18D8B465D7000E5D1802E1C2
:100EB200DB0E5C18D8B469D7000E5D1802E1BB0ED8
:100EC2005C18D8B46DD7000E5D1802E17B0E5C1879
:100ED200D8B471D7000E5D1802E1ED0E5C18D8B4DB
:100EE20071D7000E5D1802E1DD0E5C18D8B475D71B
:100EF200000E5D1802E1BD0E5C18D8B479D7000E61
:100F02005D1802E17D0E5C18D8B47DD7000E5D1825
:100F120002E1EE0E5C18D8B47DD7000E5D1802E136
:100F2200DE0E5C1882E0000E5D1802E1BE0E5C1857
:100F320087E0000E5D1802E17E0E5C188CE060C056
:080F420000F061C001F0120093
:100F4A00025006180E6E086A096A0B6A0350076493
:100F5A0098EF08F006500A6E068E028E03500B6E4A
:100F6A000750036E000E0B64E8EF07F00B50075EA4
:100F7A00D8B489EF08F0070E076457EF08F0075E48
:100F8A0000C008F001C000F002C001F0026A074E7A
:100F9A0089EF08F007642CEF08F0075E00C008F03C
:100FAA0001C000F0016A074E89EF08F007640AEFF2
:100FBA0008F0075E00C008F0006A074E89EF08F0E3
:100FCA000764F1EF07F00AC002F005C001F004C09F
:100FDA0000F0086AB5EF09F0030E0764FCEF07F0AA
:100FEA00075E08380F0B086E074E89EF08F0D89095
:100FFA000832074E89EF08F0D8900832074E89EF79
:10100A0008F0D890083289EF08F0030E07641BEF46
:10101A0008F0075E08380F0B086E0038F00B082638
:10102A0000380F0B006E074E89EF08F0D890003297
:10103A000832074E89EF08F0D89000320832074E7E
:10104A0089EF08F0D8900032083289EF08F0030ED1
:10105A00076443EF08F0075E08380F0B086E003884
:10106A00F00B082600380F0B006E0138F00B002633
:10107A0001380F0B016E074E89EF08F0D890013244
:10108A0000320832074E89EF08F0D8900132003258
:10109A000832074E89EF08F0D89001320032083240
:1010AA0089EF08F0030E076474EF08F0075E08384A
:1010BA000F0B086E0038F00B082600380F0B006E75
:1010CA000138F00B002601380F0B016E0238F00BC5
:1010DA00012602380F0B026E074E89EF08F0D890EE
:1010EA000232013200320832074E89EF08F0D890F6
:1010FA000232013200320832074E89EF08F0D890E6
:10110A000232013200320832096A000E0EAE7DEF59
:10111A0009F0081E001E011E021E082A00220122D2
:10112A0002227DEF09F00750D8A49EEF08F0B5EF30
:10113A0009F0096A02C00AF0028E068E0750035CA3
:10114A00076ED8B470EF09F0070E07643EEF09F096
:10115A00075E0450096E0550046E0650056E066A55
:10116A00074E70EF09F0070E076413EF09F0075EE8
:10117A000450096E0550046E056A074E70EF09F0B7
:10118A00070E0764F1EF08F0075E0450096E046A5F
:10119A00074E70EF09F0070E0764D8EF08F00AC08F
:1011AA0002F0B5EF09F0030E0764E3EF08F0075EFB
:1011BA0009380F0B096E074E70EF09F0D890093203
:1011CA00074E70EF09F0D8900932074E70EF09F018
:1011DA00D890093270EF09F0030E076402EF09F0A4
:1011EA00075E09380F0B096E0438F00B092604381C
:1011FA000F0B046E074E70EF09F0D89004320932D3
:10120A00074E70EF09F0D89004320932074E70EF9A
:10121A0009F0D8900432093270EF09F0030E07641E
:10122A002AEF09F0075E09380F0B096E0438F00B34
:10123A00092604380F0B046E0538F00B042605380E
:10124A000F0B056E074E70EF09F0D8900532043285
:10125A000932074E70EF09F0D8900532043209328C
:10126A00074E70EF09F0D89005320432093270EF58
:10127A0009F0030E07645BEF09F0075E09380F0BEC
:10128A00096E0438F00B092604380F0B046E053872
:10129A00F00B042605380F0B056E0638F00B0526F1
:1012AA0006380F0B066E074E70EF09F0D89006321B
:1012BA00053204320932074E70EF09F0D89006322F
:1012CA00053204320932074E70EF09F0D89006321F
:1012DA00053204320932086A000E0EAE7DEF09F0BB
:1012EA00091E041E051E061E092A042205220622BC
:1012FA0009500826045000220550012206500222F5
:10130A000EBE94EF09F0D8A0A3EF09F00232013221
:10131A0000320832033EA3EF09F0AFEF09F0D8B06C
:10132A00A9EF09F0000E081E001E011E021E082A5F
:10133A000022012202220A7EA9EF09F0010E0C6E98
:10134A0095EC02F0B7EF09F0020E0C6E95EC02F084
:10135A00B7EF09F0040E0C6E6CEC01F0B7EF09F070
:06136A00000E0C6E1200E3
:101370000B800BAEC4EF09F0026A0AAEFF0E026EDC
:0C138000016E006E0A360232FF0E1200F1
:10138C000FD0800E5C6E19D0C00E5C6E16D0940E11
:10139C005C6E13D0D40E5C6E10D0800E5C6E0DD0D3
:1013AC005C50010AEEE05C50020AEEE05C50030A6D
:1013BC00EEE05C50040AEEE0F0D75D04006E5C5089
:1013CC00002600C05CF000C06EF02AEC01F03F90EB
:1013DC00606A60505E24E96E000E5F20EA6EEE5289
:1013EC000CE060505E24E96E000E5F20EA6EEECFDA
:0E13FC006AF0C3EC03F0602AECD73F801200C9
:10140A00686A696A5CC064F05DC065F05EC066F0D7
:10141A005FC067F06750FF0A08E16650FF0A05E1FE
:10142A006550FF0A02E16450FF0A0DE160C06AF0EC
:10143A0061C06BF0230E6C6E000E6D6E78EC01F0DD
:10144A00030E006EEDD1010E626E66AE0ED0800EF6
:10145A006618006E00C066F0622A60C0E1FF61C0D3
:10146A00E2FF2D0EE66E604A612A000E006E6718D2
:10147A0008E10050661805E10050651802E1645061
:10148A00000A0CE160C06AF061C06BF0390E6C6E44
:10149A00000E6D6E78EC01F0006AC2D16750FF0A47
:1014AA0008E16650000A05E16550000A02E164504D
:1014BA00000A0DE160C06AF061C06BF03B0E6C6E11
:1014CA00000E6D6E78EC01F062C000F0A9D1000E3A
:1014DA00046E000E056E000E066E7F0E076E64C067
:1014EA0000F065C001F066C002F067C003F09EEC30
:1014FA0001F0010ED8B0000E006E00521CE064C06C
:10150A0000F065C001F066C002F067C003F0000E8B
:10151A00046E000E056E200E066E820E076E05EC36
:10152A0002F000C064F001C065F002C066F003C0BA
:10153A0067F06906CCD7000E046E000E056E200E09
:10154A00066E820E076E64C000F065C001F066C0C8
:10155A0002F067C003F09EEC01F0000ED8B0010E55
:10156A00006E00521CE064C000F065C001F066C065
:10157A0002F067C003F0CD0E046ECC0E056E4C0E61
:10158A00066E7B0E076E05EC02F000C064F001C027
:10159A0065F002C066F003C067F0692ACCD7FF0E77
:1015AA006414086EFF0E6514096E7F0E66140A6EC7
:1015BA00000E67140B6E08C004F009C005F00AC0DB
:1015CA0006F00BC007F004360490053606360736D7
:1015DA00000E6414006E000E6514016E000E66148F
:1015EA00026EFF0E6714036E00C064F001C065F05E
:1015FA0002C066F003C067F004506410006E055024
:10160A006510016E06506610026E07506710036E71
:10161A0000C064F001C065F002C066F003C067F064
:10162A007F0E675C006E00C063F0010E676E00C03B
:10163A0004F064C000F065C001F066C002F067C043
:10164A0003F0045007E000360090013602360336F4
:10165A00FF0FF8D700C064F001C065F002C066F061
:10166A0003C067F060C0E1FF61C0E2FF6750300F5E
:10167A00E66E604A612A800E6918006E800E010AC1
:10168A00005C08E3800E060A006E800E6918005C92
:10169A0001E30AD060C0E1FF61C0E2FF2E0EE66EF0
:1016AA00604A612A010E686E060E636E6350000A74
:1016BA0054E0676A64C000F065C001F066C002F0D9
:1016CA0067C003F000360090013602360336003652
:1016DA000090013602360336645000266550012216
:1016EA00665002226750032200C064F001C065F010
:1016FA0002C066F003C067F064C000F065C001F084
:10170A0066C002F067C003F0003600900136023668
:10171A00033600C064F001C065F002C066F003C081
:10172A0067F060C0E1FF61C0E2FF6750300FE66E0C
:10173A00604A612A6850000A0EE169066950000A87
:10174A000AE160C0E1FF61C0E2FF2E0EE66E604A68
:10175A00612A010E686E6306A9D7FF0E6024E96E3E
:10176A00FF0E6120EA6EEE50300A05E1010E605E5E
:10177A00000E615AF2D7FF0E6024E96EFF0E612057
:10178A00EA6EEE502E0A04E1010E605E000E615A06
:10179A006950000A3FE060C0E1FF61C0E2FF650EE8
:1017AA00E66E604A612A800E6918006E800E000A91
:1017BA00005C0BE260C0E1FF61C0E2FF2D0EE66E45
:1017CA00604A612A69500008696E69C063F069500D
:1017DA0009080FE20A0E046E63C000F03FEC05F040
:1017EA0060C0E1FF61C0E2FF0050300FE66E604A60
:1017FA00612A0A0E046E63C000F03FEC05F008C0CF
:10180A0000F060C0E1FF61C0E2FF0050300FE66EF9
:10181A00604A612A60C0E1FF61C0E2FFE66A006ACD
:02182A001200AA
:0C182C007F0ECC6E9E929D82CA8412003A
:10183800969296949598959A959C959E8492849460
:10184800839E839C839A839803EC01F003EC01F058
:1018580003EC01F0838A838884820EEC01F0849281
:1018680003EC01F084820EEC01F0849203EC01F0A9
:1018780084820EEC01F0849203EC01F08398848258
:101888000EEC01F0849203EC01F084820EEC01F07E
:101898008492839A838E84820EEC01F0849203EC06
:1018A80001F0839E838884820EEC01F084928398F1
:1018B80084820EEC01F0849203EC01F084820EEC39
:1018C80001F08492838884820EEC01F0849203EC08
:1018D80001F0839884820EEC01F08492838E838CCD
:1018E800838A838884820EEC01F0849203EC01F0F1
:0418F8003F8012001B
:1018FC000900F5CFE6FF0006FBE10106F9E1120055
:10190C00526A4E6A0F0E526E52500F0A48E14EC088
:10191C0001F0010E006E015004E000360090FF0F44
:10192C00FBD7001C026E02C000F00036009000369F
:10193C000090003600900036009000C081FF026AD3
:10194C0080B8022A02C000F000360090000E80B46D
:10195C00010E526E00505212036A80BA032A03C061
:10196C0000F0000E016E003600900136003600903B
:10197C00013600505212036A81B6032A030E026E1E
:10198C0003C000F0000E016E025005E0003600901E
:10199C000136FF0FFAD7005052124E2AB5D7040E5B
:1019AC00006E81CF5CF0000E5D6E005004E05C3286
:1019BC005C9EFF0FFBD7816A52C000F0003600908E
:1019CC0000360090003600900036009000505C10FD
:1019DC005C6E000E5D6E4F0E5E6E000E5F6E99ECCF
:1019EC0006F000C050F001C051F0274A282A800EA2
:1019FC002818006E800E005C02E1030E275C33E2B7
:101A0C0035C000F036C001F037C002F038C003F02A
:101A1C00000E046E000E056E200E066E820E076E12
:101A2C0005EC02F000C035F001C036F002C037F012
:101A3C0003C038F050C000F051C001F079EC06F052
:101A4C0035C004F036C005F037C006F038C007F0DA
:101A5C00A5EC07F000C035F001C036F002C037F03D
:101A6C0003C038F022D050C000F051C001F079EC26
:101A7C0006F0000E046E000E056E200E066E820E31
:101A8C00076E4EEC05F035C004F036C005F037C0DB
:101A9C0006F038C007F0A5EC07F000C035F001C027
:101AAC0036F002C037F003C038F0010E6E6E2AEC2F
:101ABC0001F035C05CF036C05DF037C05EF038C068
:101ACC005FF0400E606E000E616E99DC010E5C6E74
:101ADC00010E5D6E400E5E6E000E5F6E51DC1200EC
:081AEC00067EA5EC07F01200D4
:101AF4000B6A0C6A0A6A0350D8B4C4EF0DF0028E64
:101B04008E0E035E03BE8CEF0DF0D8B48CEF0DF097
:101B1400C8EF0DF0036C080E035CD8A0A3EF0DF022
:101B2400036E013602C001F0026A080E035CD8A0FD
:101B3400A3EF0DF00136016A0350D8A4D890ADEF9D
:101B44000DF00350D8B4ADEF0DF0D890023201324D
:101B5400032EA7EF0DF00BBC01A0BAEF0DF0D8A037
:101B6400BAEF0DF0012AD8B4022A02BED7EF0DF065
:101B74000AAEDDEF0DF0021E011E012AD8B4022ABE
:101B8400DDEF0DF0026A016ADDEF0DF00B800BAEA4
:101B9400E1EF0DF0026A0AAEE1EF0DF0FF0E026E06
:101BA400016E0A360232E1EF0DF0010E0C6EB8EC54
:101BB40009F0E3EF0DF0000E0C6EE3EF0DF0FF0EF5
:0C1BC4000C6E0150006E0250016E120009
:101BD000566A576A4EC058F04FC059F050C05AF07C
:101BE00051C05BF0800E5118006E800E005C08E161
:101BF000000E505C05E1000E4F5C02E1000E4E5CF1
:101C000010E2010E566E000E576E586A596A5A6AF3
:101C10005B6A4E50585E4F50595A50505A5A515064
:101C20005B5A58C05CF059C05DF05AC05EF05BC0B2
:101C30005FF052C060F053C061F00BEC06F00B0E89
:101C4000546E000E556E000E006E5550005C02E1A1
:101C50005450000819E254505224E16E555053205C
:101C6000E26E010E545C006E000E5558016E00507D
:101C70005224E96E01505320EA6EEECFE6FF010ECA
:101C8000545E000E555ADFD752C0E1FF53C0E2FF49
:101C9000200EE66E565057101AE0546A556A54509A
:101CA0005224E96E55505320EA6EEE50200A03E1AB
:101CB000544A552AF4D7010E545E000E555A54501A
:101CC0005224E16E55505320E26E2D0EE66E120046
:101CD000B0EC0EF0040EC16EAFDDD59CD59AD59652
:101CE000D584D582D580FC0ED76EF10ED66EF294D7
:101CF000F28AD58E94908290CD8ECD96CD82CD8471
:101D0000CD8ACD88CA82CA80F28EF086F090938206
:101D10009398939A939C939E8198819A819C819E9B
:101D200092849288928A938694928292F288F29216
:0A1D30009380F088F0929384FFD7AF
:101D600010EE19F0260E006E010E016E3A0EF66EA0
:0E1D70001D0EF76E000EF86E7EEC0CF01200E9
:051D3A00446973700014
:051D3F0050726F670007
:041D44004E614E009E
:021D4800000099
:0A1D4A0054696D6527732075700061
:021D540001008C
:041D56000000000089
:021D5A00300057
:041D5C00494E4600A6
:020000040030CA
:0D000100220F0EFF0181FF0FC00FE00F4026
:00000001FF
