:04000000A2EF0BF070
:1000080000C018F001C017F00CC016F00DC015F0B4
:10001800F0A009D02850291002E017EC09F0DEEC16
:100028000AF0F096F0909EA209D09E929D92CA94F2
:10003800F086F090F288F292F088F092F2A406D05E
:10004800FC0ED76E170ED66E8270F2949EA014D056
:10005800010E656E93D8010E536E010E546E2F0E6D
:10006800556E000E566EBAEC05F0010E286E000EA5
:10007800296E9E909D90CD90F2A215D0010E656ECE
:100088007DD8010E536E010E546E2A0E556E000E69
:10009800566EBAEC05F0010E286E000E296EDEECE5
:1000A8000AF0F298F292F0A24DD0010E656E66D871
:1000B800010E536E010E546E230E556E000E566ED1
:1000C800BAEC05F0DEEC0AF0286A296A6F0E046EB5
:1000D800120E056E030E066E790E076E1BC000F039
:1000E8001CC001F01DC002F01EC003F0E4EC0AF0D1
:1000F80070EC0AF00050FF08036E01C004F0FF0E18
:10010800045604C000F0016A00C0CFFF6F0E046EF1
:10011800120E056E030E066E790E076E1BC000F0F8
:100128001CC001F01DC002F01EC003F0E4EC0AF090
:1001380070EC0AF00050FF08CE6E9E909D80CD8036
:10014800F098F09218C000F017C001F016C00CF03B
:0601580015C00DF01100BE
:10015E000F0E0C6E470E0D6E0D2EFED70C2EFCD70D
:06016E0000000000120079
:0601740000000000120073
:0A017A00210E0D6E0D2EFED71200AF
:1001840065BE02D0839E01D0838E65BC02D0839C61
:1001940001D0838C65BA02D0839A01D0838A65B872
:1001A40002D0839801D083884DB002D0848401D0DA
:1001B40084948482DDDF849265B602D0839E01D06C
:1001C400838E65B402D0839C01D0838C65B202D047
:1001D400839A01D0838A65B002D0839801D0838842
:1001E4004DB002D0848401D084948482C1DF84928F
:0C01F4004DA002D0B2DF01D0BEDF12002F
:0E020000026A016A006A086A036A000E1200B0
:10020E000B820BAE11EF01F0036802680168006803
:08021E000A360232FF0E120045
:080226000AAE029E000E120058
:10022E000B840BAE22EF01F0010E036E026A016A1F
:0A023E00006A0A360232FF0E1200B9
:100248000A6A0350D8A40A800750D8A40A820A5020
:10025800D8B487EF01F0030AD8B440EF01F00AB030
:100268003BEF01F006AE85EF01F083EF01F002AE3F
:1002780083EF01F085EF01F00250800B0A6E029EB9
:100288000650800B069E0A18D8B451EF01F00A50A8
:10029800D8B483EF01F085EF01F00750035CD8B4C0
:1002A8005BEF01F0D8A077EF01F07DEF01F0065089
:1002B800025CD8B465EF01F0D8A077EF01F07DEFCC
:1002C80001F00550015CD8B46FEF01F0D8A077EFCA
:1002D80001F07DEF01F00450005CD8B487EF01F025
:1002E800D8B07DEF01F00A52D8B485EF01F083EF62
:1002F80001F00A52D8B483EF01F085EF01F0D880FD
:0E0308001200D8901200D880D8841200120083
:1003160061C004F062C005F004C002F005C003F03D
:10032600044A052A63C000F064C001F0634A642AE7
:1003360000C0E9FF01C0EAFF02C0E1FF03C0E2FF1F
:10034600EECFE6FF02C0E9FF03C0EAFFEE5201E08E
:0C035600E3D761C000F062C001F01200AB
:100362000CB0F3EF01F00CA299EF02F00E6A000E4E
:1003720002640AEF02F0F00E0214D8A4D5EF01F0E5
:10038200023A01380F0B02260138F00B016E0038D9
:100392000F0B01260038F00B006E08380F0B0026F9
:1003A2000838F00B086E0E84D89002BEEEEF01F012
:1003B20008360036013602360E2A02BEEEEF01F092
:1003C20008360036013602360E2A02BEEEEF01F082
:1003D20008360036013602360E2A0E5003648FEFBD
:1003E20002F0035E0BBC08AE94EF02F0D880800EE0
:1003F20008640030000E002201220222D8A094EFED
:1004020002F0023201320032034A99EF02F094EF15
:1004120002F001C002F000C001F008C000F0086A5A
:10042200000E0E86026441EF02F0F00E0214D8A410
:1004320029EF02F0023A01380F0B02260138F00BC5
:10044200016E00380F0B01260038F00B006E0E848F
:10045200D89002BEEEEF01F00036013602360E2AC7
:1004620002BEEEEF01F00036013602360E2A02BE5F
:10047200EEEF01F00036013602360E2AEEEF01F001
:1004820001C002F000C001F0006A000E0E960E8854
:1004920002646EEF02F0F00E0214D8A459EF02F0DB
:1004A200023A01380F0B02260138F00B016E0E845E
:1004B200D89002BEEEEF01F0013602360E2A02BEDD
:1004C200EEEF01F0013602360E2A02BEEEEF01F027
:1004D200013602360E2AEEEF01F001C002F0016A87
:1004E200000E0E8602649EEF02F0F00E0214D8A4F3
:1004F2007DEF02F0023A0E84D89002BEEEEF01F0D8
:1005020002360E2A02BEEEEF01F002360E2A02BEBB
:10051200EEEF01F002360E2AEEEF01F0010E0C6E44
:1005220085DEA1EF02F0020E0C6E7CDEA1EF02F07E
:10053200040E0C6E6BDEA1EF02F0080E0C6E5FDE95
:020542001200A5
:100544000C6A0E6A0250D8A4BBEF02F001C002F09C
:1005540000C001F0006A0E860250D8A4BBEF02F07E
:1005640001C002F0016A0E960E880250D8B4CDEF95
:1005740002F00E50035ED8A4D8A0D2EF02F0D890B7
:1005840002BED7EF02F0003601360236032EC2EF68
:1005940002F0D2EF02F0010E0C6E30DEDAEF02F060
:1005A400020E0C6E42DEDAEF02F0040E0C6E39DE3F
:0205B400120033
:1005B600086A096A000E0762036460EF03F00250DE
:1005C60006180A6E075003267E0ED8A0F1EF02F039
:1005D600035ED8B064EF03F0F5EF02F0035ED8A037
:1005E60068EF03F0028E068E02C00EF001C00BF01B
:1005F60000C00DF000500402F4CF0CF001500502CB
:10060600F4CF00F0F3CF08F00402F3500C26F450B8
:100616000822000E00220D500502F3500C26F4505D
:100626000822000E002202500402F3500826F4505D
:10063600002202500502016A000E0122F350002634
:10064600F45001220D500602F3500826F450002201
:10065600026A000E012202220B500602F350002607
:10066600F4500122000E02220E500602F35001261B
:10067600F450022202BE48EF03F008360036013677
:1006860002360306D8B468EF03F05BEF03F0D880B8
:10069600800E08640030000E002201220222D8A03B
:1006A6005BEF03F0023201320032034A64EF03F0DB
:1006B6000AAE029E000E6AEF03F0010E9EDD6AEF9F
:1006C60003F0020EA1DD6AEF03F0040EADDD1200A9
:0C06D6004D9061C065F053DD4D801200B6
:1006E200086A080E0C6E003408360450085ED8B052
:0E06F20002D00826D89000360C2EF5D7120044
:100700005F6A606A53C05BF054C05CF055C05DF036
:1007100056C05EF05E50FF0A08E15D50FF0A05E139
:100720005C50FF0A02E15B50FF0A0CE157C061F028
:1007300058C062F01F0E636E000E646EECDD030E97
:10074000006EE5D1010E596E5DAE0ED0800E5D18C3
:10075000006E00C05DF0592A57C0E1FF58C0E2FFAB
:100760002D0EE66E574A582A000E006E5E1808E1FC
:1007700000505D1805E100505C1802E15B50000A72
:100780000BE157C061F058C062F0390E636E000E85
:10079000646EC1DD006ABBD15E50FF0A08E15D50A6
:1007A000000A05E15C50000A02E15B50000A0CE11E
:1007B00057C061F058C062F03B0E636E000E646E6D
:1007C000AADD59C000F0A3D1000E046E000E056E24
:1007D000000E066E7F0E076E5BC000F05CC001F07D
:1007E0005DC002F05EC003F02FDD010ED8B0000E38
:1007F000006E00521BE05BC000F05CC001F05DC009
:1008000002F05EC003F0000E046E000E056E200EB6
:10081000066E820E076ECFDE00C05BF001C05CF09A
:1008200002C05DF003C05EF06006CED7000E046E1D
:10083000000E056E200E066E820E076E5BC000F085
:100840005CC001F05DC002F05EC003F0FDDC000E94
:10085000D8B0010E006E00521BE05BC000F05CC01F
:1008600001F05DC002F05EC003F0CD0E046ECC0E50
:10087000056E4C0E066E7B0E076E9DDE00C05BF0B3
:1008800001C05CF002C05DF003C05EF0602ACED70C
:10089000FF0E5B14086EFF0E5C14096E7F0E5D1474
:1008A0000A6E000E5E140B6E08C004F009C005F05D
:1008B0000AC006F00BC007F0043604900536063671
:1008C0000736000E5B14006E000E5C14016E000E05
:1008D0005D14026EFF0E5E14036E00C05BF001C07B
:1008E0005CF002C05DF003C05EF004505B10006E6F
:1008F00005505C10016E06505D10026E07505E10D0
:10090000036E00C05BF001C05CF002C05DF003C08C
:100910005EF07F0E5E5C006E00C05AF0010E5E6EEF
:1009200000C004F05BC000F05CC001F05DC002F0EC
:100930005EC003F0045007E0003600900136023636
:100940000336FF0FF8D700C05BF001C05CF002C0B7
:100950005DF003C05EF057C0E1FF58C0E2FF5E509B
:10096000300FE66E574A582A800E6018006E800ECF
:10097000010A005C08E3800E060A006E800E601813
:10098000005C01E30AD057C0E1FF58C0E2FF2E0E21
:10099000E66E574A582A010E5F6E060E5A6E5A507E
:1009A000000A54E05E6A5BC000F05CC001F05DC00C
:1009B00002F05EC003F000360090013602360336C6
:1009C000003600900136023603365B5000265C503C
:1009D00001225D5002225E50032200C05BF001C084
:1009E0005CF002C05DF003C05EF05BC000F05CC074
:1009F00001F05DC002F05EC003F0003600900136E9
:100A00000236033600C05BF001C05CF002C05DF04E
:100A100003C05EF057C0E1FF58C0E2FF5E50300FE8
:100A2000E66E574A582A5F50000A0EE16006605091
:100A3000000A0AE157C0E1FF58C0E2FF2E0EE66E41
:100A4000574A582A010E5F6E5A06A9D7FF0E57243F
:100A5000E96EFF0E5820EA6EEE50300A05E1010EF5
:100A6000575E000E585AF2D7FF0E5724E96EFF0E5C
:100A70005820EA6EEE502E0A04E1010E575E000E79
:100A8000585A6050000A3DE057C0E1FF58C0E2FFED
:100A9000650EE66E574A582A800E6018006E800E6A
:100AA000000A005C0BE257C0E1FF58C0E2FF2D0EC8
:100AB000E66E574A582A60500008606E60C05AF0CF
:100AC000605009080EE20A0E046E5AC000F009DEFA
:100AD00057C0E1FF58C0E2FF0050300FE66E574AA2
:100AE000582A0A0E046E5AC000F0FBDD08C000F060
:100AF00057C0E1FF58C0E2FF0050300FE66E574A82
:100B0000582A57C0E1FF58C0E2FFE66A006A1200A7
:100B10000B800BAE94EF05F0026A0AAEFF0E026E78
:0C0B2000016E006E0A360232FF0E120059
:080B2C000B6A0B86FF0E12009C
:100B340000C008F00150006E016A026A036A0B6A81
:100B44000C6A016A026A036A960E036E0A6A00AEB0
:100B5400B2EF05F0081E001E082AD8B4002A0A8E37
:100B640000C001F008C000F0086A026AE9DC120063
:100B74000FD0800E536E19D0C00E536E16D0940E43
:100B8400536E13D0D40E536E10D0800E536E0DD00E
:100B94005350010AEEE05350020AEEE05350030AA8
:100BA400EEE05350040AEEE0F0D75404006E5350C4
:100BB400002600C053F000C065F0C2EC00F04D9078
:100BC400576A57505524E96E000E5620EA6EEE52CD
:100BD4000BE057505524E96E000E5620EA6EEECF16
:0C0BE40061F077DD572AEDD74D8012003C
:100BF000025006180E6E086A096A0B6A03500764F1
:100C0000EBEF06F006500A6E068E028E03500B6E56
:100C10000750036E000E0B643BEF06F00B50075EAF
:100C2000D8B4DCEF06F0070E0764AAEF06F0075E03
:100C300000C008F001C000F002C001F0026A074ED7
:100C4000DCEF06F007647FEF06F0075E00C008F0F7
:100C500001C000F0016A074EDCEF06F007645DEFAB
:100C600006F0075E00C008F0006A074EDCEF06F0F1
:100C7000076444EF06F00AC002F005C001F004C0AA
:100C800000F0086A08EF08F0030E07644FEF06F063
:100C9000075E08380F0B086E074EDCEF06F0D890A1
:100CA0000832074EDCEF06F0D8900832074EDCEF32
:100CB00006F0D8900832DCEF06F0030E07646EEF02
:100CC00006F0075E08380F0B086E0038F00B082698
:100CD00000380F0B006E074EDCEF06F0D8900032A4
:100CE0000832074EDCEF06F0D89000320832074E8B
:100CF000DCEF06F0D89000320832DCEF06F0030E8D
:100D0000076496EF06F0075E08380F0B086E003890
:100D1000F00B082600380F0B006E0138F00B002690
:100D200001380F0B016E074EDCEF06F0D890013250
:100D300000320832074EDCEF06F0D8900132003264
:100D40000832074EDCEF06F0D8900132003208324C
:100D5000DCEF06F0030E0764C7EF06F0075E083805
:100D60000F0B086E0038F00B082600380F0B006ED2
:100D70000138F00B002601380F0B016E0238F00B22
:100D8000012602380F0B026E074EDCEF06F0D890FA
:100D90000232013200320832074EDCEF06F0D89002
:100DA0000232013200320832074EDCEF06F0D890F2
:100DB0000232013200320832096A000E0EAED0EF64
:100DC00007F0081E001E011E021E082A0022012232
:100DD0000222D0EF07F00750D8A4F1EF06F008EF99
:100DE00008F0096A02C00AF0028E068E0750035C02
:100DF000076ED8B4C3EF07F0070E076491EF07F052
:100E0000075E0450096E0550046E0650056E066AB2
:100E1000074EC3EF07F0070E076466EF07F0075EA3
:100E20000450096E0550046E056A074EC3EF07F0C3
:100E3000070E076444EF07F0075E0450096E046A6A
:100E4000074EC3EF07F0070E07642BEF07F00AC049
:100E500002F008EF08F0030E076436EF07F0075EB4
:100E600009380F0B096E074EC3EF07F0D89009320F
:100E7000074EC3EF07F0D8900932074EC3EF07F0D3
:100E8000D8900932C3EF07F0030E076455EF07F05F
:100E9000075E09380F0B096E0438F00B0926043879
:100EA0000F0B046E074EC3EF07F0D89004320932DF
:100EB000074EC3EF07F0D89004320932074EC3EF54
:100EC00007F0D89004320932C3EF07F0030E07642D
:100ED0007DEF07F0075E09380F0B096E0438F00B41
:100EE000092604380F0B046E0538F00B042605386C
:100EF0000F0B056E074EC3EF07F0D8900532043292
:100F00000932074EC3EF07F0D89005320432093298
:100F1000074EC3EF07F0D890053204320932C3EF11
:100F200007F0030E0764AEEF07F0075E09380F0BFA
:100F3000096E0438F00B092604380F0B046E0538CF
:100F4000F00B042605380F0B056E0638F00B05264E
:100F500006380F0B066E074EC3EF07F0D890063227
:100F6000053204320932074EC3EF07F0D89006323B
:100F7000053204320932074EC3EF07F0D89006322B
:100F8000053204320932086A000E0EAED0EF07F0C7
:100F9000091E041E051E061E092A04220522062219
:100FA0000950082604500022055001220650022252
:100FB0000EBEE7EF07F0D8A0F6EF07F002320132DD
:100FC00000320832033EF6EF07F002EF08F0D8B027
:100FD000FCEF07F0000E081E001E011E021E082A6C
:100FE0000022012202220A7EFCEF07F0010E0C6EA5
:100FF000B1EC01F00AEF08F0020E0C6EB1EC01F05A
:101000000AEF08F0040E0C6E07EC01F00AEF08F08E
:06101000000E0C6E120040
:10101600FF0E576EFF0E586E95D055C0E1FF56C0B5
:10102600E2FF050EE66EFBD055C0E1FF56C0E2FFBB
:10103600060EE66E576A586AF2D055C0E1FF56C0F2
:10104600E2FFE66AECD055C0E1FF56C0E2FF010EB2
:10105600E66EE5D055C0E1FF56C0E2FF060EE66E2D
:10106600010E576E000E586EDAD055C0E1FF56C01D
:10107600E2FF060EE66E020E576E000E586ECFD0D9
:1010860055C0E1FF56C0E2FF060EE66E030E576E30
:10109600000E586EC4D055C0E1FF56C0E2FF020EE6
:1010A600E66EBDD055C0E1FF56C0E2FF060EE66E05
:1010B600040E576E000E586EB2D055C0E1FF56C0F2
:1010C600E2FF060EE66E050E576E000E586EA7D0AE
:1010D60055C0E1FF56C0E2FF060EE66E060E576EDD
:1010E600000E586E9CD055C0E1FF56C0E2FF030EBD
:1010F600E66E95D055C0E1FF56C0E2FF060EE66EDD
:10110600070E576E000E586E8AD055C0E1FF56C0C6
:10111600E2FF060EE66E080E576E000E586E7FD082
:1011260055C0E1FF56C0E2FF060EE66E090E576E89
:10113600000E586E74D055C0E1FF56C0E2FF040E93
:10114600E66E6DD0000E541802E1E70E5318D8B4BF
:1011560064D7000E541802E1D70E5318D8B464D7DA
:10116600000E541802E1B70E5318D8B466D7000E15
:10117600541802E1770E5318D8B465D7000E5418E8
:1011860002E1EB0E5318D8B465D7000E541802E1ED
:10119600DB0E5318D8B469D7000E541802E1BB0E03
:1011A6005318D8B46DD7000E541802E17B0E5318AD
:1011B600D8B471D7000E541802E1ED0E5318D8B406
:1011C60071D7000E541802E1DD0E5318D8B475D746
:1011D600000E541802E1BD0E5318D8B479D7000E8C
:1011E600541802E17D0E5318D8B47DD7000E54185A
:1011F60002E1EE0E5318D8B47DD7000E541802E162
:10120600DE0E531882E0000E541802E1BE0E53188B
:1012160087E0000E541802E17E0E53188CE057C08A
:0812260000F058C001F01200B5
:10122E00526A4E6A0F0E526E52500F0A48E14EC06D
:10123E0001F0010E006E015004E000360090FF0F29
:10124E00FBD7001C026E02C000F000360090003684
:10125E000090003600900036009000C081FF026AB8
:10126E0080B8022A02C000F000360090000E80B452
:10127E00010E526E00505212036A80BA032A03C046
:10128E0000F0000E016E0036009001360036009020
:10129E00013600505212036A81B6032A030E026E03
:1012AE0003C000F0000E016E025005E00036009003
:1012BE000136FF0FFAD7005052124E2AB5D7040E40
:1012CE00006E81CF53F0000E546E005004E0533286
:1012DE00539EFF0FFBD7816A52C000F0003600907C
:1012EE0000360090003600900036009000505310EB
:1012FE00536E000E546E4F0E556E000E566E84DEFB
:10130E0000C050F001C051F0194A1A2A800E1A1866
:10131E00006E800E005C02E1030E195C32E21BC00F
:10132E0000F01CC001F01DC002F01EC003F0000E44
:10133E00046E000E056E200E066E820E076EDBEC3E
:10134E0002F000C01BF001C01CF002C01DF003C073
:10135E001EF050C000F051C001F09AEC05F01BC019
:10136E0004F01CC005F01DC006F01EC007F039DCED
:10137E0000C01BF001C01CF002C01DF003C01EF027
:10138E0021D050C000F051C001F09AEC05F0CD0E06
:10139E00046ECC0E056E4C0E066E7B0E076EDBECED
:1013AE0002F01BC004F01CC005F01DC006F01EC0EC
:1013BE0007F017DC00C01BF001C01CF002C01DF0CE
:1013CE0003C01EF0010E656EC2EC00F01BC053F0A0
:1013DE001CC054F01DC055F01EC056F03F0E576E87
:1013EE00000E586E80EC03F0010E536E010E546E1B
:0E13FE003F0E556E000E566EBAEC05F0120052
:10140C00969296949598959A959C959E8492849490
:10141C00839E839C839A8398AFEC00F0AFEC00F032
:10142C00AFEC00F0838A83888482BAEC00F084925B
:10143C00AFEC00F08482BAEC00F08492AFEC00F0D8
:10144C008482BAEC00F08492AFEC00F08398848232
:10145C00BAEC00F08492AFEC00F08482BAEC00F0AD
:10146C008492839A838E8482BAEC00F08492AFECDF
:10147C0000F0839E83888482BAEC00F08492839877
:10148C008482BAEC00F08492AFEC00F08482BAEC67
:10149C0000F0849283888482BAEC00F08492AFECE2
:1014AC0000F083988482BAEC00F08492838E838C53
:1014BC00838A83888482BAEC00F08492AFEC00F0CB
:0414CC004D8012003D
:1014D0000900F5CFE6FF0006FBE10106F9E1120085
:1014E0000B6A0C6A0A6A0350D8B4BAEF0AF0028E8B
:1014F0008E0E035E03BE82EF0AF0D8B482EF0AF0CC
:10150000BEEF0AF0036C080E035CD8A099EF0AF056
:10151000036E013602C001F0026A080E035CD8A017
:1015200099EF0AF00136016A0350D8A4D890A3EFCE
:101530000AF00350D8B4A3EF0AF0D8900232013277
:10154000032E9DEF0AF00BBC01A0B0EF0AF0D8A06B
:10155000B0EF0AF0012AD8B4022A02BECDEF0AF099
:101560000AAED3EF0AF0021E011E012AD8B4022AE5
:10157000D3EF0AF0026A016AD3EF0AF00B800BAED8
:10158000D7EF0AF0026A0AAED7EF0AF0FF0E026E3A
:10159000016E0A360232D7EF0AF0010E0C6E88ECAB
:1015A00005F0D9EF0AF0000E0C6ED9EF0AF0FF0E2D
:0C15B0000C6E0150006E0250016E120023
:0C15BC007F0ECC6E9E929D82CA841200AD
:1015C8000450000A12E10550000A0FE10650000A13
:1015D8000CE10750000A09E1FF0E006EFF0E016ED4
:1015E8007F0E026EFF0E036EA8D0086A096A0750C4
:1015F800D8B48FEF0BF00350D8B494EF0BF002502F
:1016080006180A6E028E068E0E6A02C008F001C025
:101618000CF000C00DF004500D5E0550D8A0053C3C
:101628000C5E0650D8A0063C085E086A0C6A0D6A73
:10163800D8A026EF0BF0D8900232013200320832DF
:10164800010E0E6E0750035ED8A033EF0BF07E0E2E
:101658000E240326D8B099EF0BF039EF0BF07E0E6D
:101668000E240326D8A09EEF0BF0180E0B6E0D3635
:101678000C3608360036013602360E360450005E47
:101688000550D8A0053C015E0650D8A0063C025E75
:1016980006340E120EA054EF0BF00D805FEF0BF026
:1016A800045000260550D8B0053C01260650D8B095
:1016B800062802260D900B2E3BEF0BF085EF0BF062
:1016C800D8900036013602360E360450005E0550BA
:1016D800D8A0053C015E0650D8A0063C025E063440
:1016E8000E10010B0D26D8B00C2AD8B4082AD8A49D
:1016F80085EF0BF008320C320D32032AD8B499EF7B
:101708000BF00AAE089E0850026E0C50016E0D5088
:10171800006EA1EF0BF0010E96EC05F0A1EF0BF0B7
:10172800020E00EC01F0A1EF0BF0040E07EC01F043
:0C173800A1EF0BF0080E17EC01F01200FE
:10174400EAEC0BF0040EC16E5FDED59CD59AD596FB
:10175400D594D592D590FC0ED76E170ED66EF29412
:10176400F28AD58E94908290CD8ECD96CD82CD8402
:10177400CD8ACD88CA82CA80F28EF086F090938298
:101784009398939A939C939E8198819A819C819E2D
:1017940092849288928A938694928292F288F292A8
:0A17A4009380F088F0929384FFD741
:1017D40010EE19F0260E006E010E016EAE0EF66EBE
:0E17E400170EF76E000EF86E68EC0AF0120099
:0217AE00000039
:0417B0000000000035
:0417B4004E614E0034
:0517B80044697370009C
:0217BD00010029
:0517BF0050726F67008D
:0A17C40054696D65277320757000ED
:0217CE003000E9
:0417D000494E460038
:020000040030CA
:0D000100220F0EFF0181FF0FC00FE00F4026
:00000001FF
