:0400000025EF0AF0EE
:1000080000C016F001C015F0F0A009D01750181064
:1000180002E06EEC08F0F7EC09F0F096F0909EA282
:1000280009D09E929D92CA94F086F090F288F2923E
:10003800F088F092F2A422D0FB0ED76E1D0ED66E79
:1000480082701750181019E123C000F024C001F085
:1000580025C002F026C003F00A0E046ED70E056E06
:10006800230E066E780E076E19DA00C023F001C061
:1000780024F002C025F003C026F0F294A1A25AD0C1
:10008800FC0EB36E170EB26E000E1A1802E1030EC4
:10009800191803E1006A016A04D019C000F01AC0F7
:1000A80001F000C019F001C01AF0000E1C1802E19E
:1000B800640E1B1805E1010E276E000E286E0ED087
:1000C8001BC000F01CC001F00A0E046E000E056E85
:1000D800FDEC09F000C027F001C028F027C01BF094
:1000E80028C01CF08094809680985AEC09F000C0D3
:1000F80083FF000E1A1802E1000E1918D8B4808880
:10010800000E1A1802E1010E191802E1838E80868A
:10011800000E1A1802E1020E1918D8B48084010ED4
:100128001924006E000E1A20016E00C019F001C0DB
:100138001AF0A1929EA00ED08282010E176E000EB8
:10014800186EA192A092B1908094809680989E900B
:100158009D90CD90F2A213D082921F6A206A216AE4
:10016800226A236A246A256A266A1D6A1E6A010EA3
:10017800176E000E186EF7EC09F0F298F292F0A2E2
:1001880047D0F7EC09F0176A186A0A0E046ED70E02
:10019800056E230E066E7C0E076E1FC000F020C091
:1001A80001F021C002F022C003F0A9EC07F03CECFA
:1001B80007F00050FF08036E01C004F0FF0E04565C
:1001C80004C000F0016A00C0CFFF0A0E046ED70E0B
:1001D800056E230E066E7C0E076E1FC000F020C051
:1001E80001F021C002F022C003F0A9EC07F03CECBA
:1001F80007F00050FF08CE6E9E909D80CD80FC0ECB
:10020800B36E170EB26EA192A082B180F098F092F0
:0A02180016C000F015C001F011003F
:100222000B820BAE1BEF01F00368026801680068E5
:080232000A360232FF0E120031
:0E023A00026A016A006A086A036A000E120076
:080248000AAE029E000E120036
:100250000B840BAE33EF01F0010E036E026A016AEC
:0A026000006A0A360232FF0E120097
:10026A000CB077EF01F00CA21DEF02F00E6A000E3F
:10027A0002648EEF01F0F00E0214D8A459EF01F0D7
:10028A00023A01380F0B02260138F00B016E0038D2
:10029A000F0B01260038F00B006E08380F0B0026F2
:1002AA000838F00B086E0E84D89002BE72EF01F087
:1002BA0008360036013602360E2A02BE72EF01F007
:1002CA0008360036013602360E2A02BE72EF01F0F7
:1002DA0008360036013602360E2A0E50036413EF32
:1002EA0002F0035E0BBC08AE18EF02F0D880800E55
:1002FA0008640030000E002201220222D8A018EF62
:10030A0002F0023201320032034A1DEF02F018EF06
:10031A0002F001C002F000C001F008C000F0086A53
:10032A00000E0E860264C5EF01F0F00E0214D8A486
:10033A00ADEF01F0023A01380F0B02260138F00B3B
:10034A00016E00380F0B01260038F00B006E0E8488
:10035A00D89002BE72EF01F00036013602360E2A3C
:10036A0002BE72EF01F00036013602360E2A02BED4
:10037A0072EF01F00036013602360E2A72EF01F0F2
:10038A0001C002F000C001F0006A000E0E960E884D
:10039A000264F2EF01F0F00E0214D8A4DDEF01F0CE
:1003AA00023A01380F0B02260138F00B016E0E8457
:1003BA00D89002BE72EF01F0013602360E2A02BE52
:1003CA0072EF01F0013602360E2A02BE72EF01F018
:1003DA00013602360E2A72EF01F001C002F0016AFC
:1003EA00000E0E86026422EF02F0F00E0214D8A468
:1003FA0001EF02F0023A0E84D89002BE72EF01F0C9
:10040A0002360E2A02BE72EF01F002360E2A02BE30
:10041A0072EF01F002360E2A72EF01F0010E0C6E35
:10042A0012DF25EF02F0020E0C6E09DF25EF02F053
:10043A00040E0C6EF1DE25EF02F0080E0C6EF8DEEB
:02044A0012009E
:10044C000134083609360450085E0550D8A0053C26
:10045C00095E003601360F0E0C6E01340836093673
:10046C00045000A006D0085E0550D8A0053C095EDB
:10047C0005D008260550D8B0053C092600360136B3
:10048C000C2EEBD700B006D0045008260550D8B07F
:08049C00053C092600001200D6
:1004A400025006180E6E086A096A0B6A0350076444
:1004B40045EF03F006500A6E068E028E03500B6E53
:1004C4000750036E000E0B6495EF02F00B50075EAD
:1004D400D8B436EF03F0070E076404EF03F0075EA9
:1004E40000C008F001C000F002C001F0026A074E2B
:1004F40036EF03F00764D9EF02F0075E00C008F09E
:1005040001C000F0016A074E36EF03F00764B7EF4D
:1005140002F0075E00C008F0006A074E36EF03F0F1
:1005240007649EEF02F00AC002F005C001F004C0A7
:1005340000F0086A5FEF04F0030E0764A9EF02F00D
:10054400075E08380F0B086E074E36EF03F0D8909D
:100554000832074E36EF03F0D8900832074E36EFD4
:1005640003F0D890083236EF03F0030E0764C8EFA7
:1005740002F0075E08380F0B086E0038F00B0826EF
:1005840000380F0B006E074E36EF03F0D8900032A0
:100594000832074E36EF03F0D89000320832074E87
:1005A40036EF03F0D8900032083236EF03F0030E32
:1005B4000764F0EF02F0075E08380F0B086E00388E
:1005C400F00B082600380F0B006E0138F00B0026E4
:1005D40001380F0B016E074E36EF03F0D89001324D
:1005E40000320832074E36EF03F0D8900132003261
:1005F4000832074E36EF03F0D89001320032083249
:1006040036EF03F0030E076421EF03F0075E0838AA
:100614000F0B086E0038F00B082600380F0B006E25
:100624000138F00B002601380F0B016E0238F00B75
:10063400012602380F0B026E074E36EF03F0D890F6
:100644000232013200320832074E36EF03F0D890FE
:100654000232013200320832074E36EF03F0D890EE
:100664000232013200320832096A000E0EAE2AEF5D
:1006740004F0081E001E011E021E082A0022012288
:1006840002222AEF04F00750D8A44BEF03F05FEFE7
:1006940004F0096A02C00AF0028E068E0750035C59
:1006A400076ED8B41DEF04F0070E0764EBEF03F0F8
:1006B400075E0450096E0550046E0650056E066A06
:1006C400074E1DEF04F0070E0764C0EF03F0075E4A
:1006D4000450096E0550046E056A074E1DEF04F0C0
:1006E400070E07649EEF03F0075E0450096E046A68
:1006F400074E1DEF04F0070E076485EF03F00AC0F0
:1007040002F05FEF04F0030E076490EF03F0075E5E
:1007140009380F0B096E074E1DEF04F0D89009320B
:10072400074E1DEF04F0D8900932074E1DEF04F078
:10073400D89009321DEF04F0030E0764AFEF03F005
:10074400075E09380F0B096E0438F00B09260438CC
:100754000F0B046E074E1DEF04F0D89004320932DB
:10076400074E1DEF04F0D89004320932074E1DEFF6
:1007740004F0D890043209321DEF04F0030E07642C
:10078400D7EF03F0075E09380F0B096E0438F00B3E
:10079400092604380F0B046E0538F00B04260538BF
:1007A4000F0B056E074E1DEF04F0D890053204328E
:1007B4000932074E1DEF04F0D89005320432093295
:1007C400074E1DEF04F0D8900532043209321DEFB4
:1007D40004F0030E076408EF04F0075E09380F0BFA
:1007E400096E0438F00B092604380F0B046E053823
:1007F400F00B042605380F0B056E0638F00B0526A2
:1008040006380F0B066E074E1DEF04F0D890063223
:10081400053204320932074E1DEF04F0D890063237
:10082400053204320932074E1DEF04F0D890063227
:10083400053204320932086A000E0EAE2AEF04F0C3
:10084400091E041E051E061E092A0422052206226C
:1008540009500826045000220550012206500222A5
:100864000EBE41EF04F0D8A050EF04F00232013282
:1008740000320832033E50EF04F05AEF04F0D8B0CF
:1008840055EF04F0000E081E001E011E021E082A69
:100894000022012202220A7E55EF04F0010E0C6EA2
:1008A400E2DC61EF04F0020E0C6EDDDC61EF04F0BB
:1008B400040E0C6EB4DC61EF04F0000E0C6E12003A
:1008C4000C6A0E6A0250D8A47BEF04F001C002F057
:1008D40000C001F0006A0E860250D8A47BEF04F039
:1008E40001C002F0016A0E960E880250D8B48DEF52
:1008F40004F00E50035ED8A4D8A092EF04F0D89070
:1009040002BE97EF04F0003601360236032E82EF62
:1009140004F092EF04F0010E0C6E8DDC9AEF04F0FB
:10092400020E0C6E93DC9AEF04F0040E0C6E8ADC5B
:020934001200AF
:100936000B800BAEA7EF04F0026A0AAEFF0E026E42
:0C094600016E006E0A360232FF0E120035
:080952000B6A0B86FF0E120078
:10095A00FF0E326EFF0E336E95D030C0E1FF31C00C
:10096A00E2FF050EE66EFBD030C0E1FF31C0E2FFC8
:10097A00060EE66E326A336AF2D030C0E1FF31C049
:10098A00E2FFE66AECD030C0E1FF31C0E2FF010EBF
:10099A00E66EE5D030C0E1FF31C0E2FF060EE66E3A
:1009AA00010E326E000E336EDAD030C0E1FF31C074
:1009BA00E2FF060EE66E020E326E000E336ECFD0E6
:1009CA0030C0E1FF31C0E2FF060EE66E030E326E62
:1009DA00000E336EC4D030C0E1FF31C0E2FF020E18
:1009EA00E66EBDD030C0E1FF31C0E2FF060EE66E12
:1009FA00040E326E000E336EB2D030C0E1FF31C049
:100A0A00E2FF060EE66E050E326E000E336EA7D0BA
:100A1A0030C0E1FF31C0E2FF060EE66E060E326E0E
:100A2A00000E336E9CD030C0E1FF31C0E2FF030EEE
:100A3A00E66E95D030C0E1FF31C0E2FF060EE66EE9
:100A4A00070E326E000E336E8AD030C0E1FF31C01D
:100A5A00E2FF060EE66E080E326E000E336E7FD08F
:100A6A0030C0E1FF31C0E2FF060EE66E090E326EBB
:100A7A00000E336E74D030C0E1FF31C0E2FF040EC5
:100A8A00E66E6DD0000E2F1802E1E70E2E18D8B4CC
:100A9A0064D7000E2F1802E1D70E2E18D8B464D7E7
:100AAA00000E2F1802E1B70E2E18D8B466D7000E22
:100ABA002F1802E1770E2E18D8B465D7000E2F181A
:100ACA0002E1EB0E2E18D8B465D7000E2F1802E1FA
:100ADA00DB0E2E18D8B469D7000E2F1802E1BB0E10
:100AEA002E18D8B46DD7000E2F1802E17B0E2E18DF
:100AFA00D8B471D7000E2F1802E1ED0E2E18D8B413
:100B0A0071D7000E2F1802E1DD0E2E18D8B475D752
:100B1A00000E2F1802E1BD0E2E18D8B479D7000E98
:100B2A002F1802E17D0E2E18D8B47DD7000E2F188B
:100B3A0002E1EE0E2E18D8B47DD7000E2F1802E16E
:100B4A00DE0E2E1882E0000E2F1802E1BE0E2E18BD
:100B5A0087E0000E2F1802E17E0E2E188CE032C0BC
:080B6A0000F033C001F012009D
:100B72000450000A08E10550000A05E1FF0E006E6C
:100B82007F0E016E57D00D6A096A086A0150001083
:100B9200D8B4000C015005180A6E0ABE0D1E0B6A6D
:100BA20005AE05D0041E051E042AD8B4052A01AEDE
:100BB20005D0001E011E002AD8B4012A01500510DA
:100BC2000A6E0ABE10D041DC0BB020D00DAE000C74
:100BD200001E011E002AD8B4012A081E091E082A76
:100BE200D8B4092A000C05AE0DD001BE07D00150C1
:100BF200096E0050086E016A006AE8D7016A006A4D
:100C0200002A000C011E001E0B2ADDD7082AD8B4C8
:100C1200092A0450085CD8A4D9D70550095CD8A485
:100C2200D5D7096A086A002AD8B4012A01AECED7FC
:060C32000000FF0C12009F
:100C380000C008F00150006E016A026A036A0B6A7C
:100C48000C6A016A026A036A960E036E0A6A00AEAB
:100C580034EF06F0081E001E082AD8B4002A0A8EAF
:100C680000C001F008C000F0086A026A27DE12001E
:100C7800086A096A000E07620364C1EF06F00250B1
:100C880006180A6E075003267E0ED8A052EF06F00B
:100C9800035ED8B0C6EF06F056EF06F0035ED8A0A4
:100CA800CBEF06F0028E068E02C00EF001C00BF0EC
:100CB80000C00DF000500402F4CF0CF00150050202
:100CC800F4CF00F0F3CF08F00402F3500C26F450F0
:100CD8000822000E00220D500502F3500C26F45095
:100CE8000822000E002202500402F3500826F45095
:100CF800002202500502016A000E0122F35000266C
:100D0800F45001220D500602F3500826F450002238
:100D1800026A000E012202220B500602F35000263E
:100D2800F4500122000E02220E500602F350012652
:100D3800F450022202BEA9EF06F00836003601364A
:100D480002360306D8B4CBEF06F0BCEF06F0D88025
:100D5800800E08640030000E002201220222D8A072
:100D6800BCEF06F0023201320032034AC6EF06F049
:100D78000AAE029E000ECEEF06F0010E1DEC01F049
:100D8800CEEF06F0020E11EC01F0CEEF06F0040EE5
:060D980028EC01F012003E
:100D9E000B6A0350D8B415EF07F002500A6E028E9C
:100DAE008E0E035E03AE19EF07F0036C080E035CA4
:100DBE00D8A0F4EF06F0036E013602C001F0026A0D
:100DCE00080E035CD8A0F4EF06F0036E0136016A3C
:100DDE000350D8A4D890FEEF06F00350D8B4FEEF1F
:100DEE0006F0D89002320132032EF8EF06F00BBC5B
:100DFE0001A00BEF07F0D8A00BEF07F0012AD8B433
:100E0E00022A02BE28EF07F00AAE2DEF07F0021EEF
:100E1E00011E012AD8B4022A2DEF07F0026A016AD8
:100E2E002DEF07F00B800BAE31EF07F0026A0AAE22
:100E3E0031EF07F0FF0E026E016E0A36023231EF0D
:100E4E0007F0010E0C6E70DD33EF07F0000E0C6E26
:100E5E0033EF07F0FF0E0C6E0150006E0250016E64
:020E6E00120070
:080E7000067E52EC02F01200B4
:100E78000B6A0C6A0A6A0350D8B486EF07F0028E30
:100E88008E0E035E03BE4EEF07F0D8B44EEF07F0A8
:100E98008AEF07F0036C080E035CD8A065EF07F033
:100EA800036E013602C001F0026A080E035CD8A086
:100EB80065EF07F00136016A0350D8A4D8906FEFA8
:100EC80007F00350D8B46FEF07F0D8900232013220
:100ED800032E69EF07F00BBC01A07CEF07F0D8A048
:100EE8007CEF07F0012AD8B4022A02BE99EF07F076
:100EF8000AAE9EEF07F0021E011E012AD8B4022A8C
:100F08009EEF07F0026A016A9EEF07F00B800BAEB6
:100F1800A2EF07F0026A0AAEA2EF07F0FF0E026E18
:100F2800016E0A360232A2EF07F0010E0C6EFFDCEA
:100F3800A4EF07F0000E0C6EA4EF07F0FF0E0C6E86
:0A0F48000150006E0250016E12000D
:100F52000450000A12E10550000A0FE10650000A8F
:100F62000CE10750000A09E1FF0E006EFF0E016E50
:100F72007F0E026EFF0E036EA7D0086A096A075041
:100F8200D8B454EF08F00350D8B458EF08F0025028
:100F920006180A6E028E068E0E6A02C008F001C0A2
:100FA2000CF000C00DF004500D5E0550D8A0053CB9
:100FB2000C5E0650D8A0063C085E086A0C6A0D6AF0
:100FC200D8A0EBEF07F0D89002320132003208329B
:100FD200010E0E6E0750035ED8A0F8EF07F07E0EEA
:100FE2000E240326D8B05DEF08F0FEEF07F07E0E68
:100FF2000E240326D8A062EF08F0180E0B6E0D36F1
:101002000C3608360036013602360E360450005EC3
:101012000550D8A0053C015E0650D8A0063C025EF1
:1010220006340E120EA019EF08F00D8024EF08F01E
:10103200045000260550D8B0053C01260650D8B011
:10104200062802260D900B2E00EF08F04AEF08F05A
:10105200D8900036013602360E360450005E055036
:10106200D8A0053C015E0650D8A0063C025E0634BC
:101072000E10010B0D26D8B00C2AD8B4082AD8A419
:101082004AEF08F008320C320D32032AD8B45DEF71
:1010920008F00AAE089E0850026E0C50016E0D5008
:1010A200006E65EF08F0010E53DC65EF08F0020EEA
:1010B2001DEC01F065EF08F0040E11EC01F065EF94
:0A10C20008F0080E28EC01F01200FF
:1010CC000900F5CFE6FF0006FBE10106F9E112008D
:1010DC002D6A296A0F0E2D6E2D500F0A48E129C07A
:1010EC0001F0010E006E015004E000360090FF0F7D
:1010FC00FBD7001C026E02C000F0003600900036D8
:10110C000090003600900036009000C081FF026A0B
:10111C0080B2022A02C000F000360090000E80B0AF
:10112C00010E2D6E00502D12036A80BA032A03C0E3
:10113C0000F0000E016E0036009001360036009073
:10114C00013600502D12036A81B6032A030E026E7B
:10115C0003C000F0000E016E025005E00036009056
:10116C000136FF0FFAD700502D12292AB5D7040EDD
:10117C00006E81CF2EF0000E2F6E005004E02E3248
:10118C002E9EFF0FFBD7816A2DC000F00036009019
:10119C0000360090003600900036009000502E1063
:1011AC002E6E000E2F6E2A0E306E000E316EADECD0
:1011BC0004F000C02BF001C02CF01D4A1E2A800E3A
:1011CC001E18006E800E005C02E1030E1D5C31E205
:1011DC001FC000F020C001F021C002F022C003F0BB
:1011EC00000E046E000E056E200E066E820E076E4B
:1011FC003DDD00C01FF001C020F002C021F003C093
:10120C0022F02BC000F02CC001F010DD1FC004F048
:10121C0020C005F021C006F022C007F052EC02F00D
:10122C0000C01FF001C020F002C021F003C022F06A
:10123C003AD02BC000F02CC001F0F8DCCD0E046EBF
:10124C00CC0E056E4C0E066E7B0E076E0FDD1FC0AE
:10125C0004F020C005F021C006F022C007F052ECCB
:10126C0002F000C01FF001C020F002C021F003C04A
:10127C0022F01FC000F020C001F021C002F022C0FB
:10128C0003F06F0E046E120E056E030E066E750ED5
:10129C00076E52EC02F000C01FF001C020F002C03B
:0812AC0021F003C022F0120042
:1012B40023C004F024C005F025C006F026C007F0C2
:1012C4001FC000F020C001F021C002F022C003F0D2
:1012D400CDDD000E046E000E056E200E066E820E2D
:1012E400076EC8DC5ADD1BC004F01CC005F03FDCEF
:1012F4000A0E046E000E056E3ADC08C000F009C048
:1013040001F000C029F001C02AF032D03F0E006E77
:10131400000E016E69D0060E006E000E016E64D0E0
:101324005B0E006E000E016E5FD04F0E006E000E5D
:10133400016E5AD0660E006E000E016E55D06D0E11
:10134400006E000E016E50D07D0E006E000E016E18
:101354004BD0070E006E000E016E46D07F0E006E5D
:10136400000E016E41D06F0E006E000E016E3CD077
:10137400000E2A1802E1000E2918C8E0000E2A18EF
:1013840002E1010E2918C7E0000E2A1802E1020E3C
:101394002918C6E0000E2A1802E1030E2918C5E038
:1013A400000E2A1802E1040E2918C4E0000E2A18BF
:1013B40002E1050E2918C3E0000E2A1802E1060E08
:1013C4002918C2E0000E2A1802E1070E2918C1E00C
:1013D400000E2A1802E1080E2918C0E0000E2A188F
:0A13E40002E1090E2918BFE0120013
:0C13EE00B30ECC6E9E929D82CA84120049
:1013FA000B6A0A6A096A00500402F4CF09F0F3CFB3
:10140A0008F001500502F4CF0BF0F3CF0AF00050B8
:10141A000502F3500926F4500A22E86A0B22015009
:10142A000402F3500926F4500A22E86A0B2208C083
:10143A0000F009C001F00AC002F00BC003F012006C
:10144A007CEC0AF0060EC16ED59CD59AD596D59439
:10145A00D582D580FB0ED76E1D0ED66EF294F28A17
:10146A00D58E94908290CD8ECD96CD82CD84CD8A24
:10147A00CD88CA82CA80B18EB18CB19AB188B19234
:10148A00F28EF086F09093829398939A939C939E0F
:10149A008198819A819C819E92809282928A938677
:1014AA0094928292F288F2929380F088F0929384D6
:1014BA0095909592959495969598959A959C959EC2
:1014CA0083908392839483968398839A839C839E42
:0E14DA00929492969298809480968098FFD774
:1014F80010EE17F0100E006E010E016EE80EF66E7B
:0E150800140EF76E000EF86E66EC08F012007E
:0214E800010001
:0214EA00000000
:0214EC0064009A
:0214EE000000FC
:0414F00000000000F8
:0414F40000000000F4
:020000040030CA
:0D000100220F0EFF0181FF0FC00FE00F4026
:00000001FF
