:04000000C8EF0CF049
:1000080000C018F001C017F00CC016F00DC015F0B4
:10001800F0A00AD03350341002E0F9EC0AF089EC71
:100028000AF0F096F090D9D09EA20AD09E929D92A6
:10003800CA94F086F090F288F292F088F092CDD0CF
:10004800F2A453D0D80ED76EEF0ED66E827033500E
:10005800341049E10A0E046ED70E056E230E066EA3
:100068007F0E076E35C000F036C001F037C002F0D1
:1000780038C003F0E9EC0BF000C035F001C036F0F1
:1000880002C037F003C038F035C058F036C059F018
:1000980037C05AF038C05BF0400E5C6E000E5D6EE3
:1000A80078EC08F0010E586E010E596E400E5A6E2B
:1000B800000E5B6E39EC08F0CE50FF084E6E000E55
:1000C8004F6EFF0E4F56400E506E000E516E5BEC99
:1000D8000CF0020E586E010E596E400E5A6E000E4C
:1000E8005B6E39EC08F0F29478D09EA011D0010E26
:1000F8006A6EA3D8010E586E010E596E290E5A6EFB
:10010800000E5B6E39EC08F09E909D90CD9065D006
:10011800F2A216D0010E6A6E90D8010E586E010E2A
:10012800596E1E0E5A6E000E5B6E39EC08F0010E09
:10013800336E000E346E89EC0AF0F298F2924DD0CC
:10014800F0A24BD0010E6A6E78D8010E586E010EDF
:10015800596E190E5A6E000E5B6E39EC08F089EC78
:100168000AF0336A346A710E046E3D0E056E220E73
:10017800066E820E076E35C000F036C001F037C03B
:1001880002F038C003F022DBEDEC0BF00050FF0862
:10019800036E01C004F0FF0E045604C000F0016AAB
:1001A80000C0CFFF710E046E3D0E056E220E066E66
:1001B800820E076E35C000F036C001F037C002F07D
:1001C80038C003F003DBEDEC0BF00050FF08CE6EF7
:1001D8009E909D80CD80F098F09218C000F017C0D6
:0C01E80001F016C00CF015C00DF0110065
:1001F4000F0E0C6E470E0D6E0D2EFED70C2EFCD777
:06020400000000001200E2
:06020A00000000001200DC
:0A021000210E0D6E0D2EFED7120018
:0E021A00026A016A006A086A036A000E120096
:100228000B840BAE1FEF01F0010E036E026A016A28
:0A023800006A0A360232FF0E1200BF
:100242006ABE02D0839E01D0838E6ABC02D0839C98
:1002520001D0838C6ABA02D0839A01D0838A6AB8A9
:1002620002D0839801D083883FB002D0848401D029
:1002720084948482C9DF84926AB602D0839E01D0BC
:10028200838E6AB402D0839C01D0838C6AB202D07E
:10029200839A01D0838A6AB002D0839801D083887E
:1002A2003FB002D0848401D084948482ADDF8492F2
:0C02B2003FA002D09EDF01D0AADF1200A6
:0802BE000AAE029E000E1200C0
:1002C6000B820BAE6DEF01F00368026801680068EF
:0802D6000A360232FF0E12008D
:1002DE0066C004F067C005F004C002F005C003F06C
:1002EE00044A052A68C000F069C001F0684A692A0C
:1002FE0000C0E9FF01C0EAFF02C0E1FF03C0E2FF58
:10030E00EECFE6FF02C0E9FF03C0EAFFEE5201E0C6
:0C031E00E3D766C000F067C001F01200D9
:10032A000A6A0350D8A40A800750D8A40A820A503D
:10033A00D8B4F8EF01F0030AD8B4B1EF01F00AB06B
:10034A00ACEF01F006AEF6EF01F0F4EF01F002AE09
:10035A00F4EF01F0F6EF01F00250800B0A6E029EF4
:10036A000650800B069E0A18D8B4C2EF01F00A5054
:10037A00D8B4F4EF01F0F6EF01F00750035CD8B4FB
:10038A00CCEF01F0D8A0E8EF01F0EEEF01F0065053
:10039A00025CD8B4D6EF01F0D8A0E8EF01F0EEEF96
:1003AA0001F00550015CD8B4E0EF01F0D8A0E8EF05
:1003BA0001F0EEEF01F00450005CD8B4F8EF01F060
:1003CA00D8B0EEEF01F00A52D8B4F6EF01F0F4EF2C
:1003DA0001F00A52D8B4F4EF01F0F6EF01F0D88038
:0E03EA001200D8901200D880D88412001200A1
:1003F800086A096A000E0762036481EF02F002507E
:1004080006180A6E075003267E0ED8A012EF02F0D7
:10041800035ED8B085EF02F016EF02F0035ED8A0B5
:1004280089EF02F0028E068E02C00EF001C00BF0BA
:1004380000C00DF000500402F4CF0CF0015005028A
:10044800F4CF00F0F3CF08F00402F3500C26F45078
:100458000822000E00220D500502F3500C26F4501D
:100468000822000E002202500402F3500826F4501D
:10047800002202500502016A000E0122F3500026F4
:10048800F45001220D500602F3500826F4500022C1
:10049800026A000E012202220B500602F3500026C7
:1004A800F4500122000E02220E500602F3500126DB
:1004B800F450022202BE69EF02F008360036013617
:1004C80002360306D8B489EF02F07CEF02F0D88038
:1004D800800E08640030000E002201220222D8A0FB
:1004E8007CEF02F0023201320032034A85EF02F05B
:1004F8000AAE029E000E8BEF02F0010E8ADE8BEF31
:1005080002F0020EDCDE8BEF02F0040E89DE120030
:100518000CB0CEEF02F00CA274EF03F00E6A000EDE
:100528000264E5EF02F0F00E0214D8A4B0EF02F076
:10053800023A01380F0B02260138F00B016E003821
:100548000F0B01260038F00B006E08380F0B002641
:100558000838F00B086E0E84D89002BEC9EF02F07E
:1005680008360036013602360E2A02BEC9EF02F0FE
:1005780008360036013602360E2A02BEC9EF02F0EE
:1005880008360036013602360E2A0E5003646AEF2A
:1005980003F0035E0BBC08AE6FEF03F0D880800E4B
:1005A80008640030000E002201220222D8A06FEF5A
:1005B80003F0023201320032034A74EF03F06FEFA6
:1005C80003F001C002F000C001F008C000F0086AA2
:1005D800000E0E8602641CEF03F0F00E0214D8A47D
:1005E80004EF03F0023A01380F0B02260138F00B32
:1005F800016E00380F0B01260038F00B006E0E84D8
:10060800D89002BEC9EF02F00036013602360E2A33
:1006180002BEC9EF02F00036013602360E2A02BECB
:10062800C9EF02F00036013602360E2AC9EF02F091
:1006380001C002F000C001F0006A000E0E960E889C
:10064800026449EF03F0F00E0214D8A434EF03F06B
:10065800023A01380F0B02260138F00B016E0E84A6
:10066800D89002BEC9EF02F0013602360E2A02BE49
:10067800C9EF02F0013602360E2A02BEC9EF02F0B7
:10068800013602360E2AC9EF02F001C002F0016AF3
:10069800000E0E86026479EF03F0F00E0214D8A45F
:1006A80058EF03F0023A0E84D89002BEC9EF02F068
:1006B80002360E2A02BEC9EF02F002360E2A02BE28
:1006C800C9EF02F002360E2AC9EF02F0010E0C6ED5
:1006D800A7DD7CEF03F0020E0C6EEDDD7CEF03F07E
:1006E800040E0C6EECDD7CEF03F0080E0C6E91DD51
:0206F8001200EE
:1006FA000C6A0E6A0250D8A496EF03F001C002F009
:10070A0000C001F0006A0E860250D8A496EF03F0EA
:10071A0001C002F0016A0E960E880250D8B4A8EF02
:10072A0003F00E50035ED8A4D8A0ADEF03F0D89022
:10073A0002BEB2EF03F0003601360236032E9DEFF9
:10074A0003F0ADEF03F0010E0C6E62DDB5EF03F0BE
:10075A00020E0C6E64DDB5EF03F0040E0C6EAADD1A
:02076A0012007B
:08076C000B6A0B86FF0E120060
:0C0774003F9066C06AF063DD3F80120019
:10078000086A096A100E0C6E0134083609360450E6
:10079000085E0550D8A0053C095ED8B007D00450CB
:1007A00008260550D8B0053C0926D89000360136F9
:0607B0000C2EEAD7120036
:1007B600086A080E0C6E003408360450085ED8B07D
:0E07C60002D00826D89000360C2EF5D712006F
:1007D4000450000A12E10550000A0FE10650000A15
:1007E4000CE10750000A09E1FF0E006EFF0E016ED6
:1007F4007F0E026EFF0E036EA4D0086A096A0750CA
:10080400D8B495EF04F00350D8B499EF04F0025033
:1008140006180A6E028E068E0E6A02C008F001C027
:100824000CF000C00DF004500D5E0550D8A0053C3E
:100834000C5E0650D8A0063C085E086A0C6A0D6A75
:10084400D8A02CEF04F0D8900232013200320832E2
:10085400010E0E6E0750035ED8A039EF04F07E0E31
:100864000E240326D8B09DEF04F03FEF04F07E0E73
:100874000E240326D8A0A1EF04F0180E0B6E0D363B
:100884000C3608360036013602360E360450005E49
:100894000550D8A0053C015E0650D8A0063C025E77
:1008A40006340E120EA05AEF04F00D8065EF04F02A
:1008B400045000260550D8B0053C01260650D8B097
:1008C400062802260D900B2E41EF04F08BEF04F066
:1008D400D8900036013602360E360450005E0550BC
:1008E400D8A0053C015E0650D8A0063C025E063442
:1008F4000E10010B0D26D8B00C2AD8B4082AD8A49F
:100904008BEF04F008320C320D32032AD8B49DEF79
:1009140004F00AAE089E0850026E0C50016E0D5091
:10092400006EA3EF04F0010E1FDFA3EF04F0020E2C
:1009340072DCA3EF04F0040EC4DCA3EF04F0080E91
:0409440071DC120050
:100948005C6A050E5C5C0AE25C505A24E16E000E9B
:100958005B20E26E200EE66E5C2AF3D75C505A24C8
:10096800E16E000E5B20E26EE66A5C065C505A247B
:100978005D6E000E5B205E6E0A0E046E000E056E44
:1009880058C000F059C001F0F7DE08C000F009C0F7
:1009980001F0300E00265DC0E1FF5EC0E2FF00C03E
:1009A800E6FF0A0E046E000E056E58C000F059C02E
:1009B80001F0E2DE00C058F001C059F0000E011845
:1009C80002E1000E001801E102D05C06CFD7120048
:1009D80000C008F00150006E016A026A036A0B6ADF
:1009E8000C6A016A026A036A960E036E0A6A00AE0E
:1009F80004EF05F0081E001E082AD8B4002A0A8E43
:100A080000C001F008C000F0086A026A72DE120035
:100A1800FF0E5C6EFF0E5D6E95D05AC0E1FF5BC0A5
:100A2800E2FF050EE66EFBD05AC0E1FF5BC0E2FFB5
:100A3800060EE66E5C6A5D6AF2D05AC0E1FF5BC0E2
:100A4800E2FFE66AECD05AC0E1FF5BC0E2FF010EAC
:100A5800E66EE5D05AC0E1FF5BC0E2FF060EE66E27
:100A6800010E5C6E000E5D6EDAD05AC0E1FF5BC00D
:100A7800E2FF060EE66E020E5C6E000E5D6ECFD0D3
:100A88005AC0E1FF5BC0E2FF060EE66E030E5C6E25
:100A9800000E5D6EC4D05AC0E1FF5BC0E2FF020EDB
:100AA800E66EBDD05AC0E1FF5BC0E2FF060EE66EFF
:100AB800040E5C6E000E5D6EB2D05AC0E1FF5BC0E2
:100AC800E2FF060EE66E050E5C6E000E5D6EA7D0A8
:100AD8005AC0E1FF5BC0E2FF060EE66E060E5C6ED2
:100AE800000E5D6E9CD05AC0E1FF5BC0E2FF030EB2
:100AF800E66E95D05AC0E1FF5BC0E2FF060EE66ED7
:100B0800070E5C6E000E5D6E8AD05AC0E1FF5BC0B6
:100B1800E2FF060EE66E080E5C6E000E5D6E7FD07C
:100B28005AC0E1FF5BC0E2FF060EE66E090E5C6E7E
:100B3800000E5D6E74D05AC0E1FF5BC0E2FF040E88
:100B4800E66E6DD0000E591802E1E70E5818D8B4B9
:100B580064D7000E591802E1D70E5818D8B464D7D4
:100B6800000E591802E1B70E5818D8B466D7000E0F
:100B7800591802E1770E5818D8B465D7000E5918DD
:100B880002E1EB0E5818D8B465D7000E591802E1E7
:100B9800DB0E5818D8B469D7000E591802E1BB0EFD
:100BA8005818D8B46DD7000E591802E17B0E5818A2
:100BB800D8B471D7000E591802E1ED0E5818D8B400
:100BC80071D7000E591802E1DD0E5818D8B475D740
:100BD800000E591802E1BD0E5818D8B479D7000E86
:100BE800591802E17D0E5818D8B47DD7000E59184F
:100BF80002E1EE0E5818D8B47DD7000E591802E15C
:100C0800DE0E581882E0000E591802E1BE0E581880
:100C180087E0000E591802E17E0E58188CE05CC07F
:080C280000F05DC001F01200B4
:100C3000025006180E6E086A096A0B6A03500764B0
:100C40000BEF07F006500A6E068E028E03500B6EF5
:100C50000750036E000E0B645BEF06F00B50075E4F
:100C6000D8B4FCEF06F0070E0764CAEF06F0075E83
:100C700000C008F001C000F002C001F0026A074E97
:100C8000FCEF06F007649FEF06F0075E00C008F077
:100C900001C000F0016A074EFCEF06F007647DEF2B
:100CA00006F0075E00C008F0006A074EFCEF06F091
:100CB000076464EF06F00AC002F005C001F004C04A
:100CC00000F0086A28EF08F0030E07646FEF06F0E3
:100CD000075E08380F0B086E074EFCEF06F0D89041
:100CE0000832074EFCEF06F0D8900832074EFCEFB2
:100CF00006F0D8900832FCEF06F0030E07648EEF82
:100D000006F0075E08380F0B086E0038F00B082657
:100D100000380F0B006E074EFCEF06F0D890003243
:100D20000832074EFCEF06F0D89000320832074E2A
:100D3000FCEF06F0D89000320832FCEF06F0030E0C
:100D40000764B6EF06F0075E08380F0B086E003830
:100D5000F00B082600380F0B006E0138F00B002650
:100D600001380F0B016E074EFCEF06F0D8900132F0
:100D700000320832074EFCEF06F0D8900132003204
:100D80000832074EFCEF06F0D890013200320832EC
:100D9000FCEF06F0030E0764E7EF06F0075E083885
:100DA0000F0B086E0038F00B082600380F0B006E92
:100DB0000138F00B002601380F0B016E0238F00BE2
:100DC000012602380F0B026E074EFCEF06F0D8909A
:100DD0000232013200320832074EFCEF06F0D890A2
:100DE0000232013200320832074EFCEF06F0D89092
:100DF0000232013200320832096A000E0EAEF0EF04
:100E000007F0081E001E011E021E082A00220122F1
:100E10000222F0EF07F00750D8A411EF07F028EFF7
:100E200008F0096A02C00AF0028E068E0750035CC1
:100E3000076ED8B4E3EF07F0070E0764B1EF07F0D1
:100E4000075E0450096E0550046E0650056E066A72
:100E5000074EE3EF07F0070E076486EF07F0075E23
:100E60000450096E0550046E056A074EE3EF07F063
:100E7000070E076464EF07F0075E0450096E046A0A
:100E8000074EE3EF07F0070E07644BEF07F00AC0C9
:100E900002F028EF08F0030E076456EF07F0075E34
:100EA00009380F0B096E074EE3EF07F0D8900932AF
:100EB000074EE3EF07F0D8900932074EE3EF07F053
:100EC000D8900932E3EF07F0030E076475EF07F0DF
:100ED000075E09380F0B096E0438F00B0926043839
:100EE0000F0B046E074EE3EF07F0D890043209327F
:100EF000074EE3EF07F0D89004320932074EE3EFD4
:100F000007F0D89004320932E3EF07F0030E0764CC
:100F10009DEF07F0075E09380F0B096E0438F00BE0
:100F2000092604380F0B046E0538F00B042605382B
:100F30000F0B056E074EE3EF07F0D8900532043231
:100F40000932074EE3EF07F0D89005320432093238
:100F5000074EE3EF07F0D890053204320932E3EF91
:100F600007F0030E0764CEEF07F0075E09380F0B9A
:100F7000096E0438F00B092604380F0B046E05388F
:100F8000F00B042605380F0B056E0638F00B05260E
:100F900006380F0B066E074EE3EF07F0D8900632C7
:100FA000053204320932074EE3EF07F0D8900632DB
:100FB000053204320932074EE3EF07F0D8900632CB
:100FC000053204320932086A000E0EAEF0EF07F067
:100FD000091E041E051E061E092A042205220622D9
:100FE0000950082604500022055001220650022212
:100FF0000EBE07EF08F0D8A016EF08F0023201325B
:1010000000320832033E16EF08F022EF08F0D8B0A5
:101010001CEF08F0000E081E001E011E021E082A0A
:101020000022012202220A7E1CEF08F0010E0C6E43
:101030008CEC02F02AEF08F0020E0C6E8CEC02F041
:101040002AEF08F0040E0C6E63EC01F02AEF08F0B2
:06105000000E0C6E120000
:101056000B800BAE37EF08F0026A0AAEFF0E026E87
:0C106600016E006E0A360232FF0E12000E
:101072000FD0800E586E19D0C00E586E16D0940E36
:10108200586E13D0D40E586E10D0800E586E0DD0FC
:101092005850010AEEE05850020AEEE05850030A96
:1010A200EEE05850040AEEE0F0D75904006E5850B2
:1010B200002600C058F000C06AF021EC01F03F9019
:1010C2005C6A5C505A24E96E000E5B20EA6EEE52B6
:1010D2000CE05C505A24E96E000E5B20EA6EEECF03
:0E10E20066F0BAEC03F05C2AECD73F801200F7
:1010F000646A656A58C060F059C061F05AC062F015
:101100005BC063F06350FF0A08E16250FF0A05E12B
:101110006150FF0A02E16050FF0A0DE15CC066F019
:101120005DC067F0230E686E000E696E6FEC01F013
:10113000030E006EEDD1010E5E6E62AE0ED0800E1B
:101140006218006E00C062F05E2A5CC0E1FF5DC004
:10115000E2FF2D0EE66E5C4A5D2A000E006E6318FB
:1011600008E10050621805E10050611802E160508A
:10117000000A0CE15CC066F05DC067F0390E686E75
:10118000000E696E6FEC01F0006AC2D16350FF0A75
:1011900008E16250000A05E16150000A02E1605076
:1011A000000A0DE15CC066F05DC067F03B0E686E42
:1011B000000E696E6FEC01F05EC000F0A9D1000E68
:1011C000046E000E056E000E066E7F0E076E60C088
:1011D00000F061C001F062C002F063C003F095EC62
:1011E00001F0010ED8B0000E006E00521CE060C08D
:1011F00000F061C001F062C002F063C003F0000EB5
:10120000046E000E056E200E066E820E076EFCEC5C
:1012100001F000C060F001C061F002C062F003C0E4
:1012200063F06506CCD7000E046E000E056E200E2E
:10123000066E820E076E60C000F061C001F062C0F1
:1012400002F063C003F095EC01F0000ED8B0010E7F
:10125000006E00521CE060C000F061C001F062C08E
:1012600002F063C003F0CD0E046ECC0E056E4C0E82
:10127000066E7B0E076EFCEC01F000C060F001C052
:1012800061F002C062F003C063F0652ACCD7FF0EA4
:101290006014086EFF0E6114096E7F0E62140A6EF0
:1012A000000E63140B6E08C004F009C005F00AC0FC
:1012B00006F00BC007F004360490053606360736F4
:1012C000000E6014006E000E6114016E000E6214B8
:1012D000026EFF0E6314036E00C060F001C061F087
:1012E00002C062F003C063F004506010006E05504D
:1012F0006110016E06506210026E07506310036E9B
:1013000000C060F001C061F002C062F003C063F091
:101310007F0E635C006E00C05FF0010E636E00C064
:1013200004F060C000F061C001F062C002F063C070
:1013300003F0045007E00036009001360236033611
:10134000FF0FF8D700C060F001C061F002C062F08A
:1013500003C063F05CC0E1FF5DC0E2FF6350300F8B
:10136000E66E5C4A5D2A800E6518006E800E010AEA
:10137000005C08E3800E060A006E800E6518005CB3
:1013800001E30AD05CC0E1FF5DC0E2FF2E0EE66E15
:101390005C4A5D2A010E646E060E5F6E5F50000AA5
:1013A00054E0636A60C000F061C001F062C002F006
:1013B00063C003F000360090013602360336003673
:1013C000009001360236033660500026615001223B
:1013D000625002226350032200C060F001C061F03D
:1013E00002C062F003C063F060C000F061C001F0B1
:1013F00062C002F063C003F000360090013602368E
:10140000033600C060F001C061F002C062F003C0AA
:1014100063F05CC0E1FF5DC0E2FF6350300FE66E39
:101420005C4A5D2A6450000A0EE165066550000AB8
:101430000AE15CC0E1FF5DC0E2FF2E0EE66E5C4A91
:101440005D2A010E646E5F06A9D7FF0E5C24E96E6B
:10145000FF0E5D20EA6EEE50300A05E1010E5C5E83
:10146000000E5D5AF2D7FF0E5C24E96EFF0E5D2080
:10147000EA6EEE502E0A04E1010E5C5E000E5D5A2B
:101480006550000A3FE05CC0E1FF5DC0E2FF650E11
:10149000E66E5C4A5D2A800E6518006E800E000ABA
:1014A000005C0BE25CC0E1FF5DC0E2FF2D0EE66E6A
:1014B0005C4A5D2A65500008656E65C05FF0655046
:1014C00009080FE20A0E046E5FC000F0DBEC03F0C7
:1014D0005CC0E1FF5DC0E2FF0050300FE66E5C4A89
:1014E0005D2A0A0E046E5FC000F0DBEC03F008C05A
:1014F00000F05CC0E1FF5DC0E2FF0050300FE66E1F
:101500005C4A5D2A5CC0E1FF5DC0E2FFE66A006AFA
:021510001200C7
:0C1512007F0ECC6E9E929D82CA84120057
:10151E00969296949598959A959C959E849284947D
:10152E00839E839C839A8398FAEC00F0FAEC00F089
:10153E00FAEC00F0838A8388848205EC01F08492B1
:10154E00FAEC00F0848205EC01F08492FAEC00F0E3
:10155E00848205EC01F08492FAEC00F08398848288
:10156E0005EC01F08492FAEC00F0848205EC01F0B7
:10157E008492839A838E848205EC01F08492FAEC35
:10158E0000F0839E8388848205EC01F08492839818
:10159E00848205EC01F08492FAEC00F0848205EC72
:1015AE0001F084928388848205EC01F08492FAEC37
:1015BE0000F08398848205EC01F08492838E838CF4
:1015CE00838A8388848205EC01F08492FAEC00F021
:0415DE003F80120038
:1015E2000900F5CFE6FF0006FBE10106F9E1120072
:1015F200526A4E6A0F0E526E52500F0A48E14EC0A6
:1016020001F0010E006E015004E000360090FF0F61
:10161200FBD7001C026E02C000F0003600900036BC
:101622000090003600900036009000C081FF026AF0
:1016320080B8022A02C000F000360090000E80B48A
:10164200010E526E00505212036A80BA032A03C07E
:1016520000F0000E016E0036009001360036009058
:10166200013600505212036A81B6032A030E026E3B
:1016720003C000F0000E016E025005E0003600903B
:101682000136FF0FFAD7005052124E2AB5D7040E78
:10169200006E81CF58F0000E596E005004E05832AF
:1016A200589EFF0FFBD7816A52C000F000360090AF
:1016B200003600900036009000360090005058101E
:1016C200586E000E596E4F0E5A6E000E5B6E0CEC89
:1016D20005F000C050F001C051F0274A282A800EC0
:1016E2002818006E800E005C02E1030E275C33E2D4
:1016F20035C000F036C001F037C002F038C003F048
:10170200000E046E000E056E200E066E820E076E2F
:10171200FCEC01F000C035F001C036F002C037F039
:1017220003C038F050C000F051C001F0ECEC04F0FE
:1017320035C004F036C005F037C006F038C007F0F7
:1017420018EC06F000C035F001C036F002C037F0E8
:1017520003C038F022D050C000F051C001F0ECECD0
:1017620004F0000E046E000E056E200E066E820E50
:10177200076EEAEC03F035C004F036C005F037C05E
:1017820006F038C007F018EC06F000C035F001C0D2
:1017920036F002C037F003C038F0010E6A6E21EC59
:1017A20001F035C058F036C059F037C05AF038C091
:1017B2005BF0400E5C6E000E5D6E99DC010E586EA1
:1017C200010E596E400E5A6E000E5B6E51DC120015
:0817D200067E18EC06F012007F
:1017DA000B6A0C6A0A6A0350D8B437EF0CF0028E0F
:1017EA008E0E035E03BEFFEF0BF0D8B4FFEF0BF0D3
:1017FA003BEF0CF0036C080E035CD8A016EF0CF05C
:10180A00036E013602C001F0026A080E035CD8A01A
:10181A0016EF0CF00136016A0350D8A4D89020EFD5
:10182A000CF00350D8B420EF0CF0D89002320132F9
:10183A00032E1AEF0CF00BBC01A02DEF0CF0D8A070
:10184A002DEF0CF0012AD8B4022A02BE4AEF0CF09E
:10185A000AAE50EF0CF0021E011E012AD8B4022A69
:10186A0050EF0CF0026A016A50EF0CF00B800BAEDD
:10187A0054EF0CF0026A0AAE54EF0CF0FF0E026E3F
:10188A00016E0A36023254EF0CF0010E0C6E2BEC8C
:10189A0008F056EF0CF0000E0C6E56EF0CF0FF0E2F
:0C18AA000C6E0150006E0250016E120026
:1018B600546A556A4EC056F04FC057F0800E4F1806
:1018C600006E800E005C02E1000E4E5C0BE2010E23
:1018D600546E000E556E4E500008566E4FC057F0AF
:1018E600000E575656C058F057C059F050C05AF01F
:1018F60051C05BF0A4EC04F0060E526E000E536E5F
:10190600000E006E5350005C02E15250000819E2CE
:1019160052505024E16E53505120E26E010E525C3B
:10192600006E000E5358016E00505024E96E0150AF
:101936005120EA6EEECFE6FF010E525E000E535ABC
:10194600DFD750C0E1FF51C0E2FF200EE66E5450D3
:1019560055101AE0526A536A52505024E96E535099
:101966005120EA6EEE50200A03E1524A532AF4D778
:10197600010E525E000E535A52505024E16E5350DF
:0A1986005120E26E2D0EE66E1200F5
:1019900010EC0DF0040EC16EC2DDD59CD59AD59623
:1019A000D584D582D580D80ED76EEF0ED66EF29440
:1019B000F28AD58E94908290CD9ECD96CD82CD84A4
:1019C000CD8ACD88CA82CA80F28EF086F09093824A
:1019D0009398939A939C939E8198819A819C819EDF
:1019E00092849288928A938694928292F288F2925A
:0A19F0009380F088F0929384FFD7F3
:101A200010EE19F0260E006E010E016EFA0EF66E23
:0E1A3000190EF76E000EF86EF1EC0AF01200BF
:0519FA00446973700058
:0519FF0050726F67004B
:041A04004E614E00E1
:021A08000000DC
:0A1A0A0054696D65277320757000A4
:021A14000100CF
:041A160000000000CC
:021A1A0030009A
:041A1C00494E4600E9
:020000040030CA
:0D000100220F0EFF0181FF0FC00FE00F4026
:00000001FF
