:040000000BEF0DF005
:1000080000C01EF001C01DF002C01CF003C01BF0B0
:1000180004C01AF005C019F008C018F009C017F09C
:100028000AC016F00BC015F0E1CF23F0E2CF24F0A0
:10003800E9CF21F0EACF22F0F3CF1FF0F4CF20F080
:100048009EA003D08AEC0AF09E901FC0F3FF20C048
:10005800F4FF1EC000F01DC001F01CC002F01BC060
:1000680003F01AC004F019C005F018C008F017C052
:1000780009F016C00AF015C00BF021C0E9FF22C034
:0C008800EAFF23C0E1FF24C0E2FF1100EA
:100094000B820BAE54EF00F003680268016800683D
:0800A4000A360232FF0E1200C1
:0E00AC00026A016A006A086A036A000E120006
:1000BA000B840BAE68EF00F0010E036E026A016A50
:0A00CA00006A0A360232FF0E12002F
:0800D4000AAE029E000E1200AC
:1000DC000CB0B0EF00F00CA256EF01F00E6A000E5F
:1000EC000264C7EF00F0F00E0214D8A492EF00F0F7
:1000FC00023A01380F0B02260138F00B016E003862
:10010C000F0B01260038F00B006E08380F0B002681
:10011C000838F00B086E0E84D89002BEABEF00F0DE
:10012C0008360036013602360E2A02BEABEF00F05E
:10013C0008360036013602360E2A02BEABEF00F04E
:10014C0008360036013602360E2A0E5003644CEF88
:10015C0001F0035E0BBC08AE51EF01F0D880800EAD
:10016C0008640030000E002201220222D8A051EFB8
:10017C0001F0023201320032034A56EF01F051EF26
:10018C0001F001C002F000C001F008C000F0086AE4
:10019C00000E0E860264FEEF00F0F00E0214D8A4DE
:1001AC00E6EF00F0023A01380F0B02260138F00B93
:1001BC00016E00380F0B01260038F00B006E0E8418
:1001CC00D89002BEABEF00F00036013602360E2A94
:1001DC0002BEABEF00F00036013602360E2A02BE2C
:1001EC00ABEF00F00036013602360E2AABEF00F012
:1001FC0001C002F000C001F0006A000E0E960E88DD
:10020C0002642BEF01F0F00E0214D8A416EF01F0EB
:10021C00023A01380F0B02260138F00B016E0E84E6
:10022C00D89002BEABEF00F0013602360E2A02BEA9
:10023C00ABEF00F0013602360E2A02BEABEF00F037
:10024C00013602360E2AABEF00F001C002F0016A53
:10025C00000E0E8602645BEF01F0F00E0214D8A4BF
:10026C003AEF01F0023A0E84D89002BEABEF00F0E8
:10027C0002360E2A02BEABEF00F002360E2A02BE88
:10028C00ABEF00F002360E2AABEF00F0010E0C6E55
:10029C000EDF5EEF01F0020E0C6E16DF5EEF01F06A
:1002AC00040E0C6EF1DE5EEF01F0080E0C6EF8DE43
:0202BC0012002E
:1002BE000B800BAE6BEF01F0026A0AAEFF0E026E00
:0C02CE00016E006E0A360232FF0E1200B4
:1002DA0001016B51390806E3300E6B5D03E3010E31
:0802EA00006E01D0006A120051
:1002F20001016B51200A09E06B510D0804E3090E5C
:100302006B5D01E302D0006A02D0010E006E1200A2
:100312006BC1E9FF6CC1EAFFEE5001016D1905E105
:100322006BC100F06CC101F010D06BC100F06CC168
:1003320001F06B4B6C2B00C0E9FF01C0EAFFEECF6E
:0C03420000F00052E5E1006A016A1200C0
:08034E000B6A0B86FF0E120082
:10035600220E0C6E086A096A0A6A0B6A0C06D8B481
:100366001FD0D8900B320A320932083203320232D9
:1003760001320032D8A0F2D70C06D8B409D0045006
:1003860008260550092206500A2207500B22EAD7F2
:10039600045008260550092206500A2207500B224F
:0203A600120043
:1003A8000A6A0350D8A40A800750D8A40A820A50BF
:1003B800D8B437EF02F0030AD8B4F0EF01F00AB06E
:1003C800EBEF01F006AE35EF02F033EF02F002AECC
:1003D80033EF02F035EF02F00250800B0A6E029EF6
:1003E8000650800B069E0A18D8B401EF02F00A5096
:1003F800D8B433EF02F035EF02F00750035CD8B4FD
:100408000BEF02F0D8A027EF02F02DEF02F0065014
:10041800025CD8B415EF02F0D8A027EF02F02DEF58
:1004280002F00550015CD8B41FEF02F0D8A027EF06
:1004380002F02DEF02F00450005CD8B437EF02F060
:10044800D8B02DEF02F00A52D8B435EF02F033EFEE
:1004580002F00A52D8B433EF02F035EF02F0D88038
:0E0468001200D8901200D880D8841200120022
:10047600086A096A000E07620364C0EF02F00250C0
:1004860006180A6E075003267E0ED8A051EF02F01A
:10049600035ED8B0C4EF02F055EF02F0035ED8A0B9
:1004A600C8EF02F0028E068E02C00EF001C00BF0FD
:1004B60000C00DF000500402F4CF0CF0015005020C
:1004C600F4CF00F0F3CF08F00402F3500C26F450FA
:1004D6000822000E00220D500502F3500C26F4509F
:1004E6000822000E002202500402F3500826F4509F
:1004F600002202500502016A000E0122F350002676
:10050600F45001220D500602F3500826F450002242
:10051600026A000E012202220B500602F350002648
:10052600F4500122000E02220E500602F35001265C
:10053600F450022202BEA8EF02F008360036013659
:1005460002360306D8B4C8EF02F0BBEF02F0D8803B
:10055600800E08640030000E002201220222D8A07C
:10056600BBEF02F0023201320032034AC4EF02F05E
:100576000AAE029E000ECAEF02F0010E94DDCAEF2B
:1005860002F0020E84DDCAEF02F0040E93DD1200C3
:100596000050086E0150006E0250016E0350026E4C
:1005A600036A0B6A0C6A9E0E036E0A6A02AEE8EFD5
:1005B60002F0081E001E011E021E082AD8B4002AD8
:1005C600D8B4012AD8B4022A0A8E020E0C6E83DD34
:0205D600120011
:1005D80003500718D8A400EF03F002500618D8A457
:1005E80000EF03F001500518D8A400EF03F0005005
:0E05F8000418D8B4D8841200D894120012004F
:0E060600ACB202D00000FCD760C1ADFF120004
:100614000450000A12E10550000A0FE10650000AD6
:100624000CE10750000A09E1FF0E006EFF0E016E97
:100634007F0E026EFF0E036EA4D0086A096A07508B
:10064400D8B4B5EF03F00350D8B4B9EF03F00250B7
:1006540006180A6E028E068E0E6A02C008F001C0E9
:100664000CF000C00DF004500D5E0550D8A0053C00
:100674000C5E0650D8A0063C085E086A0C6A0D6A37
:10068400D8A04CEF03F0D890023201320032083285
:10069400010E0E6E0750035ED8A059EF03F07E0ED4
:1006A4000E240326D8B0BDEF03F05FEF03F07E0EF7
:1006B4000E240326D8A0C1EF03F0180E0B6E0D36DE
:1006C4000C3608360036013602360E360450005E0B
:1006D4000550D8A0053C015E0650D8A0063C025E39
:1006E40006340E120EA07AEF03F00D8085EF03F0AE
:1006F400045000260550D8B0053C01260650D8B059
:10070400062802260D900B2E61EF03F0ABEF03F0E9
:10071400D8900036013602360E360450005E05507D
:10072400D8A0053C015E0650D8A0063C025E063403
:100734000E10010B0D26D8B00C2AD8B4082AD8A460
:10074400ABEF03F008320C320D32032AD8B4BDEFFC
:1007540003F00AAE089E0850026E0C50016E0D5054
:10076400006EC3EF03F0010EF0DDC3EF03F0020EE1
:100774009BDCC3EF03F0040E8BDCC3EF03F0080E25
:040784009ADC1200E9
:1007880001016251631108E062C1E1FF63C1E2FF48
:1007980060C1E6FF61C1E6FF60C1E9FF61C1EAFF30
:1007A800EECF00F000C066F100C06BF19EDD005294
:1007B80003E0604B612BF0D7646B000E66BFFF0E41
:1007C800006E000E001802E12D0E661905E1010EFB
:1007D800646F604B612B0CD0000E66BFFF0E006E7D
:1007E800000E001802E12B0E661902E1604B612B26
:1007F800666B676B686B696B6A6B656B64B90BD00A
:1008080060C1E9FF61C1EAFFEE502E0A04E1648984
:10081800604B612B52D060C1E9FF61C1EAFFEECFA6
:100828006BF157DD005201E149D064836651080A33
:100838003FE064A901D06507662B67C100F068C175
:1008480001F069C102F06AC103F00A0E046E000EDD
:10085800056E066E076E7BDD00C067F101C068F1AA
:1008680002C069F103C06AF10000000060C1E9FF3D
:1008780061C1EAFF300EEE5C006E016A000E015A9B
:10088800000E01BEFF0E026E036E6751002668510E
:100898000122695102226A51032200C067F101C096
:1008A80068F102C069F103C06AF10000000003D0DA
:1008B80064B901D0652B604B612BA0D7666B60C112
:1008C800E9FF61C1EAFFEE50650A08E060C1E9FF8F
:1008D80061C1EAFFEE50450A01E065D0604B612B2B
:1008E80060C1E9FF61C1EAFFEE502D0A04E16487A7
:1008F800604B612B09D060C1E9FF61C1EAFFEE508E
:100908002B0A02E1604B612B60C1E9FF61C1EAFF7C
:10091800EE50300A03E1604B612BF6D760C1E9FF66
:1009280061C1EAFFEECF6BF1D4DC005237E060C161
:10093800E9FF61C1EAFF300EEE5C666F604B612B28
:1009480060C1E9FF61C1EAFFEECF6BF1C2DC005282
:1009580025E00A0E6603F3CF66F160C1E9FF61C1C5
:10096800EAFF300EEE5C006E00506627604B612B8C
:1009780060C1E9FF61C1EAFFEECF6BF1AADC00526A
:100988000DE00A0E6603F3CF66F160C1E9FF61C1AD
:10099800EAFF300EEE5C006E0050662764A703D0B5
:1009A80066510008666F66516527000E631902E1FB
:1009B800000E62190AE064A308D062C1E1FF63C1B6
:1009C800E2FF60C1E6FF61C1E6FF67C100F068C1F0
:1009D80001F069C102F06AC103F0D9DD00C067F116
:1009E80001C068F102C069F103C06AF1046A056ACE
:1009F800066A076A67C100F068C101F069C102F0C0
:100A08006AC103F0E5DD010ED8A4000E006E0052A5
:100A180005E0006A016A026A036AFFD0800E651960
:100A2800006E800E000A005CD8B070D065510008D6
:100A3800656F800E6519006E800E0A0A005C1CE363
:100A480067C100F068C101F069C102F06AC103F032
:100A5800FF0E046EE60E056E5B0E066E5D0E076EEB
:100A680006DD00C067F101C068F102C069F103C08A
:100A78006AF10A0E655FDDD76551000A1BE067C1A0
:100A880000F068C101F069C102F06AC103F0CD0E3F
:100A9800046ECC0E056E4C0E066E7B0E076EE7DC00
:100AA80000C067F101C068F102C069F103C06AF1D2
:100AB8006507E2D7010E046E000E056E000E066E85
:100AC800010E076E67C100F068C101F069C102F04C
:100AD8006AC103F065DC010ED8B0000E006E00524A
:100AE80014E064A109D0010E006E000E016E800EA4
:100AF800026E030E036E91D0010E006E000E016EA1
:100B0800000E026E010E036E88D070D0800E000AAF
:100B1800006E800E6519005C69E20A0E655D1CE3D3
:100B280067C100F068C101F069C102F06AC103F051
:100B3800F90E046E020E056E150E066EA00E076EF7
:100B480096DC00C067F101C068F102C069F103C01A
:100B58006AF10A0E655FE1D76551000A1BE067C1BB
:100B680000F068C101F069C102F06AC103F0000E2B
:100B7800046E000E056E200E066E820E076E77DC80
:100B880000C067F101C068F102C069F103C06AF1F1
:100B98006507E2D767C104F068C105F069C106F0CE
:100BA8006AC107F0FF0E006EFF0E016E7F0E026E27
:100BB800FF0E036ED4EC01F0010ED8B0000E006EEB
:100BC800005214E064A109D0FF0E006EFF0E016E02
:100BD800FF0E026EFF0E036E20D0FF0E006EFF0E9A
:100BE800016E7F0E026EFF0E036E17D064A10DD04A
:100BF800000E6719006E000E6819016E800E6919E3
:100C0800026E000E6A19036E08D067C100F068C151
:0C0C180001F069C102F06AC103F0120093
:100C24000101646B60C1E9FF61C1EAFFEE5216E0A5
:100C340062C16BF163C16CF160C1E9FF61C1EAFF9C
:100C4400EECF6DF189EC01F0000E011802E1000E07
:100C5400001804E1604B612B642BE4D764C100F0FD
:020C640012007C
:100C66000101646B656B60C1E9FF61C1EAFFEE5289
:100C760017E062C16BF163C16CF160C1E9FF61C14C
:100C8600EAFFEECF6DF189EC01F0000E011802E1EA
:100C9600000E001805E0604B612B644B652BE3D713
:0A0CA60064C100F065C101F0120006
:100CB000025006180E6E086A096A0B6A0350076430
:100CC0004BEF07F006500A6E068E028E03500B6E35
:100CD0000750036E000E0B649BEF06F00B50075E8F
:100CE000D8B43CEF07F0070E07640AEF07F0075E81
:100CF00000C008F001C000F002C001F0026A074E17
:100D00003CEF07F00764DFEF06F0075E00C008F075
:100D100001C000F0016A074E3CEF07F00764BDEF29
:100D200006F0075E00C008F0006A074E3CEF07F0CF
:100D30000764A4EF06F00AC002F005C001F004C089
:100D400000F0086A68EF08F0030E0764AFEF06F0E2
:100D5000075E08380F0B086E074E3CEF07F0D8907F
:100D60000832074E3CEF07F0D8900832074E3CEFB0
:100D700007F0D89008323CEF07F0030E0764CEEF7F
:100D800006F0075E08380F0B086E0038F00B0826D7
:100D900000380F0B006E074E3CEF07F0D890003282
:100DA0000832074E3CEF07F0D89000320832074E69
:100DB0003CEF07F0D890003208323CEF07F0030E0A
:100DC0000764F6EF06F0075E08380F0B086E003870
:100DD000F00B082600380F0B006E0138F00B0026D0
:100DE00001380F0B016E074E3CEF07F0D89001322F
:100DF00000320832074E3CEF07F0D8900132003243
:100E00000832074E3CEF07F0D8900132003208322A
:100E10003CEF07F0030E076427EF07F0075E083882
:100E20000F0B086E0038F00B082600380F0B006E11
:100E30000138F00B002601380F0B016E0238F00B61
:100E4000012602380F0B026E074E3CEF07F0D890D8
:100E50000232013200320832074E3CEF07F0D890E0
:100E60000232013200320832074E3CEF07F0D890D0
:100E70000232013200320832096A000E0EAE30EF43
:100E800008F0081E001E011E021E082A0022012270
:100E9000022230EF08F00750D8A451EF07F068EFB6
:100EA00008F0096A02C00AF0028E068E0750035C41
:100EB000076ED8B423EF08F0070E0764F1EF07F0D0
:100EC000075E0450096E0550046E0650056E066AF2
:100ED000074E23EF08F0070E0764C6EF07F0075E22
:100EE0000450096E0550046E056A074E23EF08F0A2
:100EF000070E0764A4EF07F0075E0450096E046A4A
:100F0000074E23EF08F0070E07648BEF07F00AC0C7
:100F100002F068EF08F0030E076496EF07F0075E33
:100F200009380F0B096E074E23EF08F0D8900932ED
:100F3000074E23EF08F0D8900932074E23EF08F050
:100F4000D890093223EF08F0030E0764B5EF07F0DD
:100F5000075E09380F0B096E0438F00B09260438B8
:100F60000F0B046E074E23EF08F0D89004320932BD
:100F7000074E23EF08F0D89004320932074E23EFD2
:100F800008F0D8900432093223EF08F0030E07640A
:100F9000DDEF07F0075E09380F0B096E0438F00B20
:100FA000092604380F0B046E0538F00B04260538AB
:100FB0000F0B056E074E23EF08F0D8900532043270
:100FC0000932074E23EF08F0D89005320432093277
:100FD000074E23EF08F0D89005320432093223EF90
:100FE00008F0030E07640EEF08F0075E09380F0BD8
:100FF000096E0438F00B092604380F0B046E05380F
:10100000F00B042605380F0B056E0638F00B05268D
:1010100006380F0B066E074E23EF08F0D890063205
:10102000053204320932074E23EF08F0D890063219
:10103000053204320932074E23EF08F0D890063209
:10104000053204320932086A000E0EAE30EF08F0A5
:10105000091E041E051E061E092A04220522062258
:101060000950082604500022055001220650022291
:101070000EBE47EF08F0D8A056EF08F0023201325A
:1010800000320832033E56EF08F062EF08F0D8B0A5
:101090005CEF08F0000E081E001E011E021E082A4A
:1010A0000022012202220A7E5CEF08F0010E0C6E83
:1010B0006EEC00F06AEF08F0020E0C6E6EEC00F0C1
:1010C0006AEF08F0040E0C6E4AEC00F06AEF08F0CC
:0610D000000E0C6E120080
:1010D6000B6A0C6A0A6A0350D8B4B5EF08F0028EA0
:1010E6008E0E035E03BE7DEF08F0D8B47DEF08F0E8
:1010F600B9EF08F0036C080E035CD8A094EF08F073
:10110600036E013602C001F0026A080E035CD8A025
:1011160094EF08F00136016A0350D8A4D8909EEFE8
:1011260008F00350D8B49EEF08F0D890023201328E
:10113600032E98EF08F00BBC01A0ABEF08F0D8A087
:10114600ABEF08F0012AD8B4022A02BEC8EF08F0B5
:101156000AAECEEF08F0021E011E012AD8B4022AFA
:10116600CEEF08F0026A016ACEEF08F00B800BAEF4
:10117600D2EF08F0026A0AAED2EF08F0FF0E026E56
:10118600016E0A360232D2EF08F0010E0C6E5FECE9
:1011960001F0D4EF08F0000E0C6ED4EF08F0FF0E4D
:0C11A6000C6E0150006E0250016E120031
:1011B2000B6A0A6A096A00500402F4CF09F0F3CFFD
:1011C20008F001500502F4CF0BF0F3CF0AF0005003
:1011D2000502F3500926F4500A22E86A0B22015054
:1011E2000402F3500926F4500A22E86A0B2208C0CE
:1011F20000F009C001F00AC002F00BC003F01200B7
:10120200000E046E000E056E340E066E860E076E1C
:1012120056C100F057C101F058C102F059C103F0A4
:101222000AEC03F0000E046E000E056E680E066EE8
:10123200890E076E3BEC02F0000E046E000E056E86
:10124200080E066E880E076E32DD44DF00C05EF1C6
:1012520001C05FF10150090802E10050600806E296
:10126200600E01015A6F090E5B6F04D05EC15AF124
:101272005FC15BF101015AC15EF15BC15FF1020E18
:101282005B5D02E1200E5A5D05E2200E5C6F020EEC
:101292005D6F04D05EC15CF15FC15DF15CC15EF166
:0E12A2005DC15FF15CC100F05DC101F01200A2
:1012B0000101596B56C1E9FF57C1EAFFEECF58F162
:1012C0005851000A0FE058C160F103EC03F001012E
:1012D000592B59515625E96E000E5721EA6EEECF73
:0612E00058F1EED71200E8
:1012E600000E0101571902E1000E561904E1AAC0C9
:1012F60056F1ABC057F156C1E9FF57C1EAFFEECF31
:1013060000F0005203E1006A016A4AD056C160F15A
:1013160057C161F158C162F159C163F1A1DC56515F
:1013260000265751012200C056F101C057F100C0F6
:10133600E9FF01C0EAFFEECF00F0005208E100012C
:10134600AA6BAB6B000E006E000E016E29D056C163
:1013560060F157C161F158C162F159C163F15FDCB7
:10136600000E016E565100265751012200C0AAF008
:1013760001C0ABF000C0E9FF01C0EAFFEE5209E090
:10138600AAC0E1FFABC0E2FFE66A0001AA4BAB2BA5
:1013960003D00001AA6BAB6B56C100F057C101F038
:0213A600120033
:1013A80056C160F157C161F10101626B636BC4EC16
:0413B80003F012002C
:1013BC00AECF01F0ABA202D0AB98AB8801C000F06D
:0213CC0012000D
:0A13CE00000E9EBA010E006E120020
:1013D8000900F5CFE6FF0006FBE10106F9E112007E
:1013E800060E0001D06F060ED16F600ED26F010E8F
:1013F800D36FBC0ECC6F130ECD6F000ECE6F000EE8
:10140800CF6FCE0EAC6F130EAD6F000EAE6F000E29
:10141800AF6FFF0EA66FFF0EA76F000EA86F000E2E
:10142800A96FAC8A900EAB6E948E949C9EAA03D042
:08143800AECF00F0FBD712005B
:101440000B6A0350D8B466EF0AF002500A6E028E9F
:101450008E0E035E03AE6AEF0AF0036C080E035CA7
:10146000D8A045EF0AF0036E013602C001F0026A0F
:10147000080E035CD8A045EF0AF0036E0136016A3E
:101480000350D8A4D8904FEF0AF00350D8B44FEFD0
:101490000AF0D89002320132032E49EF0AF00BBC59
:1014A00001A05CEF0AF0D8A05CEF0AF0012AD8B4E2
:1014B000022A02BE79EF0AF00AAE7FEF0AF0021E9E
:1014C000011E012AD8B4022A7FEF0AF0026A016ADB
:1014D0007FEF0AF00B800BAE83EF0AF0026A0AAED0
:1014E00083EF0AF0FF0E026E016E0A36023283EFBE
:1014F0000AF0010E0C6E5FEC01F085EF0AF0000EB1
:101500000C6E85EF0AF0FF0E0C6E0150006E02505B
:04151000016E120056
:10151400050E006E000E016EA5C004F0000E056EEF
:1015240046DEB80E0024E96E000E0120EA6EEECF0E
:101534006EF1EECF6FF1EECF70F1EECF71F1EFA05F
:1015440050D00F0EEA6E6EC1E9FF0001A4B10FD0B6
:1015540001017051FF08CE6E71C1CFFFFF0ECF564F
:101564003B0ECE26000ECF226F51EF1237D0010171
:10157400770E7025CE6EEC0E7121CF6E690ECE26DD
:10158400000ECF226F1D006E0050EF16050E006E88
:10159400000E016EA5C004F0000E056E08DEB80E44
:1015A4000026000E0122020E0024E16E000E01202E
:1015B400E26EA5C000F0000E016E00360090013608
:1015C400B00E0024E96E000E0120EA6EEECFE6FFB5
:1015D400EECFE6FF0001A52B030EA5170001A471B1
:1015E40008D00001770ECE6EEC0ECF6EA52B030E45
:0415F400A517120025
:1015F80001014A6B800E006E800E000A005C02E159
:10160800040E4A5D32E2050E006E000E016E4AC1FC
:1016180004F0000E056EC9DDB80E0026000E01228A
:1016280000C04BF101C04CF100C0E1FF01C0E2FF76
:10163800810EE66E010E4B25E16E000E4C21E26E26
:10164800010EE66E020E4B25E16E000E4C21E26E95
:10165800200EE66E020EE66E040E4B25E16E000EBD
:101668004C21E26EE6904A2BC5D7770ECE6EEC0E73
:10167800CF6E100ECD6E9D80F28CF28ECD80120052
:10168800670E0101566F000E576F0EDE4AC156F104
:101698004BC157F109DE8A0E566F000E576F04DEF4
:0216A80012002E
:1016AA00800E006E800E000A005C03E1040E010148
:1016BA004A5D1FE201014AC100F0000E016E0036C8
:1016CA0000900136B00E00244F6F000E0120506FBB
:1016DA004BC156F14CC157F14DC158F14EC159F1A8
:1016EA008BDD4FC1E1FF50C1E2FF00C0E6FF01C040
:0416FA00E6FF1200F5
:1016FE000101526B536B4AC156F14BC157F1520E59
:10170E00586F000E596FE8DD00C050F101C051F165
:10171E0001015051511148E0800E5319006E800E98
:10172E00005C02E10A0E525D3FE252514C25E16E21
:10173E0053514D21E26E010E5025E96E000E5121DE
:10174E00EA6EEECFE6FF52C100F053C101F0003653
:10175E000090013600360090013600504E25546F31
:10176E0001504F21556F020E5025566F000E51211C
:10177E00576F13DE54C1E1FF55C1E2FF00C0E6FF13
:10178E0001C0E6FF02C0E6FF03C0E6FF524B532B3B
:10179E00566B576BA20E586F000E596F9DDD00C031
:1017AE0050F101C051F1B4D752C100F053C101F054
:0217BE00120017
:1017C000030E026E4EC100F04FC101F0025005E061
:1017D000003600900136FF0FFAD76A0E0026000E81
:1017E0000122040E0024D96E000E0120DA6EDECF35
:1017F00000F0DECF01F0DECF02F0DECF03F04AC111
:1018000004F04BC105F04CC106F04DC107F0D4EC1B
:1018100001F0010ED8B0000E006E005220E0030E61
:10182000026E4EC100F04FC101F0025005E00036DB
:1018300000900136FF0FFAD76A0E0026000E012233
:10184000040E0024E96E000E0120EA6EEECF00F0D7
:10185000EECF01F0EECF02F0EECF03F04FD0030E4B
:10186000026E4EC100F04FC101F0025005E000369B
:1018700000900136FF0FFAD76A0E0024D96E000ED1
:101880000120DA6EDECF04F0DECF05F0DECF06F009
:10189000DECF07F04AC100F04BC101F04CC102F0AD
:1018A0004DC103F0D4EC01F0010ED8B0000E006E73
:1018B00000521CE0030E026E4EC100F04FC101F059
:1018C000025005E0003600900136FF0FFAD76A0E8D
:1018D0000024E96E000E0120EA6EEECF00F0EECF9C
:1018E00001F0EECF02F0EECF03F008D04AC100F0D5
:0E18F0004BC101F04CC102F04DC103F01200DB
:1018FE000101506B516B4E5342E04E51FF0AD8A47A
:10190E004E075EDD0050000A01E1FBD750DD00C03E
:10191E004FF1010150514A25E16E000E4B21E26E4E
:10192E0000C0E6FF502B51514C25E96E000E4D21A3
:10193E00EA6EEE504F1902E1512B09D0516B4CC19A
:10194E00E9FF4DC1EAFFEE504F19D8B4512B51515A
:10195E004C25E96E000E4D21EA6EEE50000A0EE1A6
:10196E005151505D006E016A000E015A00504A2519
:10197E00E16E01504B21E26EE66A06D0BCD74AC139
:0A198E00E1FF4BC1E2FFE66A120020
:10199800800E000A006E800E005C03E101014A51CE
:1019A800040801E233D00101050E006E000E016E3D
:1019B8004AC104F0000E056ED9EC08F0B80E0026F6
:1019C800000E012200C04DF101C04EF100C0E1FF40
:1019D80001C0E2FF4BC1E6FF010E4D25E16E000E8E
:1019E8004E21E26E4CC101F0010E006E015004E080
:1019F80000360090FF0FFBD7010100C0E6FF040E80
:0E1A08004D25E16E000E4E21E26EE6801200CA
:101A1600EBEC0FF0650E0101426F6E0E436F640E24
:101A2600446F456B466B476B060EC16E956A836ABB
:101A3600E0DD030E0B6E080E0C6E770E0D6E0D2E8E
:101A4600FED70C2EFCD70B2EFAD7080EAF6EAC8441
:101A5600C8DC030E0B6E080E0C6E770E0D6E0D2E87
:101A6600FED70C2EFCD70B2EFAD79B0E01014A6F20
:101A7600000E4B6F06DE4A6B830E4B6F4C6B89DF95
:101A8600010E01014A6F830E4B6F010E4C6F81DF11
:101A9600020E01014A6F830E4B6F020E4C6F79DF07
:101AA600030E01014A6F830E4B6F030E4C6F71DFFD
:101AB600000E01014A6F000E4B6F680E4C6F840ECC
:101AC6004D6F4E6B4F6B79DE00C04BF101C04CF190
:101AD60002C04DF103C04EF101014A6BE3DD000E79
:101AE60001014A6F000E4B6F100E4C6F850E4D6F45
:101AF600010E4E6F000E4F6F60DE00C04BF101C04D
:101B06004CF102C04DF103C04EF1010E01014A6FC6
:101B1600C9DD000E01014A6F000E4B6F480E4C6F77
:101B2600840E4D6F020E4E6F000E4F6F46DE00C0E4
:101B36004BF101C04CF102C04DF103C04EF1020E53
:101B460001014A6FAFDD000E01014A6F000E4B6FB7
:101B5600600E4C6F840E4D6F030E4E6F000E4F6F6E
:101B66002CDE00C04BF101C04CF102C04DF103C0A8
:101B76004EF1030E01014A6F95DD26DC005201E1AC
:101B8600FCD7DC0E01014A6F000E4B6F420E4C6F04
:101B9600010E4D6FFF0E4E6FAFDEDC0E4A6F000E6C
:101BA6004B6F0E0E4C6F010E4D6F180E4E6F010EE1
:101BB6004F6FA2DD00C046F101C047F10101406B45
:101BC600416B800E4119006E800E4719005C02E1E0
:101BD6004651405DD8B0B9D10E0E4025486F010E72
:101BE6004121496F5ED140C100F041C101F000368C
:101BF60000900136003600900136180E0024E96E7A
:101C0600010E0120EA6EEECF4AF1EECF4BF1EECF98
:101C16004CF1EECF4DF14E6B4F6BCFDD00C04BF16B
:101C260001C04CF102C04DF103C04EF101014A6BF7
:101C360039DD8D0E01014A6F000E4B6F22DD82D118
:101C460040C100F041C101F0003600900136003677
:101C560000900136180E0024E96E010E0120EA6E8E
:101C6600EECF4AF1EECF4BF1EECF4CF1EECF4DF188
:101C7600010E4E6F000E4F6FA0DD00C04BF101C08C
:101C86004CF102C04DF103C04EF1010E01014A6F45
:101C960009DD550E01014A6F000E4B6FF2DC52D181
:101CA60040C100F041C101F0003600900136003617
:101CB60000900136180E0024E96E010E0120EA6E2E
:101CC600EECF4AF1EECF4BF1EECF4CF1EECF4DF128
:101CD600020E4E6F000E4F6F70DD00C04BF101C05B
:101CE6004CF102C04DF103C04EF1020E01014A6FE4
:101CF600D9DC320E01014A6F000E4B6FC2DC22D1D5
:101D060040C100F041C101F00036009001360036B6
:101D160000900136180E0024E96E010E0120EA6ECD
:101D2600EECF4AF1EECF4BF1EECF4CF1EECF4DF1C7
:101D36004E6B4F6B42DD00C04BF101C04CF102C04F
:101D46004DF103C04EF101014A6BACDC40C100F01D
:101D560041C101F000360090013600360090013690
:101D6600180E0024E96E010E0120EA6EEECF4AF14C
:101D7600EECF4BF1EECF4CF1EECF4DF1010E01015E
:101D86004E6F000E4F6F19DD00C04BF101C04CF1D4
:101D960002C04DF103C04EF1010E01014A6F82DC13
:101DA60040C100F041C101F0003600900136003616
:101DB60000900136180E0024E96E010E0120EA6E2D
:101DC600EECF4AF1EECF4BF1EECF4CF1EECF4DF127
:101DD600020E01014E6F000E4F6FEFDC00C04BF19B
:101DE60001C04CF102C04DF103C04EF1020E0101DB
:101DF6004A6F58DC250E01014A6F000E4B6F41DC1D
:101E0600A1D040C100F041C101F00036009001367A
:101E1600003600900136180E0024E96E010E0120EE
:101E2600EA6EEECF00F0EECF01F0EECF02F0EECF8D
:101E360003F020EC0AF00050011009E086C0D4F04F
:101E460087C0D5F088C0D6F089C0D7F008D082C048
:101E5600D4F083C0D5F084C0D6F085C0D7F0D4C006
:101E6600D8F0D5C0D9F0D6C0DAF0D7C0DBF0030E73
:101E76004A6FD8C04BF1D9C04CF1DAC04DF1DBC086
:101E86004EF110DC410E01014A6F000E4B6F44EC1F
:101E96000BF058D0540E4A6F000E4B6F44EC0BF00B
:101EA60051D048C1E9FF49C1EAFFEE50620AD8B4F1
:101EB6009AD648C1E9FF49C1EAFFEE50420AD8B4B2
:101EC60092D648C1E9FF49C1EAFFEE506F0AD8B47D
:101ED600B7D648C1E9FF49C1EAFFEE504F0AD8B468
:101EE600AFD648C1E9FF49C1EAFFEE50630AD8B44C
:101EF600D7D648C1E9FF49C1EAFFEE50430AD8B434
:101F0600CFD648C1E9FF49C1EAFFEE50700AD8B4FE
:101F1600F7D648C1E9FF49C1EAFFEE50500AD8B4E6
:101F2600EFD648C1E9FF49C1EAFFEE50670AD8B4C7
:101F360068D748C1E9FF49C1EAFFEE50470AD8B45D
:0E1F460060D7A8D7404B412B3CD617D6FFD70B
:101FD60010EE25F0810E006E010E016E540EF66EA7
:0E1FE6001F0EF76E000EF86EECEC09F0120004
:0D1F5400777269746520746F20616C6C00F9
:0F1F6100777269746520746F20656C626F77000A
:101F7000777269746520746F20677269707065721A
:011F80000060
:021F81003B0023
:011F8300005D
:101F8400777269746520746F2073686F756C64650B
:021F94007200D9
:031F96000D0A0031
:101F99000000000000003486000034840000078639
:101FA900000034840000348600006084000020852D
:031FB9000D0A000E
:0E1FBC00777269746520746F2062617365002E
:071FCA0053746172743A00C8
:021FD1003B00D3
:011FD300000D
:011FD400000C
:020000040030CA
:0D000100220F0EFF0181FF0FC00FE00F4026
:00000001FF
