:0400000027EF0FF0E7
:1000080000C01EF001C01DF002C01CF003C01BF0B0
:1000180004C01AF005C019F008C018F009C017F09C
:100028000AC016F00BC015F0E1CF23F0E2CF24F0A0
:10003800E9CF21F0EACF22F0F3CF1FF0F4CF20F080
:100048009EA003D052EC0DF09E901FC0F3FF20C07D
:10005800F4FF1EC000F01DC001F01CC002F01BC060
:1000680003F01AC004F019C005F018C008F017C052
:1000780009F016C00AF015C00BF021C0E9FF22C034
:0C008800EAFF23C0E1FF24C0E2FF1100EA
:080094000AAE029E000E1200EC
:10009C000B840BAE59EF00F0010E036E026A016A7D
:0A00AC00006A0A360232FF0E12004D
:0E00B600026A016A006A086A036A000E1200FC
:1000C4000B820BAE6CEF00F00368026801680068F5
:0800D4000A360232FF0E120091
:1000DC000CB0B0EF00F00CA256EF01F00E6A000E5F
:1000EC000264C7EF00F0F00E0214D8A492EF00F0F7
:1000FC00023A01380F0B02260138F00B016E003862
:10010C000F0B01260038F00B006E08380F0B002681
:10011C000838F00B086E0E84D89002BEABEF00F0DE
:10012C0008360036013602360E2A02BEABEF00F05E
:10013C0008360036013602360E2A02BEABEF00F04E
:10014C0008360036013602360E2A0E5003644CEF88
:10015C0001F0035E0BBC08AE51EF01F0D880800EAD
:10016C0008640030000E002201220222D8A051EFB8
:10017C0001F0023201320032034A56EF01F051EF26
:10018C0001F001C002F000C001F008C000F0086AE4
:10019C00000E0E860264FEEF00F0F00E0214D8A4DE
:1001AC00E6EF00F0023A01380F0B02260138F00B93
:1001BC00016E00380F0B01260038F00B006E0E8418
:1001CC00D89002BEABEF00F00036013602360E2A94
:1001DC0002BEABEF00F00036013602360E2A02BE2C
:1001EC00ABEF00F00036013602360E2AABEF00F012
:1001FC0001C002F000C001F0006A000E0E960E88DD
:10020C0002642BEF01F0F00E0214D8A416EF01F0EB
:10021C00023A01380F0B02260138F00B016E0E84E6
:10022C00D89002BEABEF00F0013602360E2A02BEA9
:10023C00ABEF00F0013602360E2A02BEABEF00F037
:10024C00013602360E2AABEF00F001C002F0016A53
:10025C00000E0E8602645BEF01F0F00E0214D8A4BF
:10026C003AEF01F0023A0E84D89002BEABEF00F0E8
:10027C0002360E2A02BEABEF00F002360E2A02BE88
:10028C00ABEF00F002360E2AABEF00F0010E0C6E55
:10029C00FFDE5EEF01F0020E0C6EF6DE5EEF01F09B
:1002AC00040E0C6E09DF5EEF01F0080E0C6EFDDE25
:0202BC0012002E
:1002BE000B800BAE6BEF01F0026A0AAEFF0E026E00
:0C02CE00016E006E0A360232FF0E1200B4
:0802DA000B6A0B86FF0E1200F7
:1002E200CBC1E9FFCCC1EAFFEE500101CD1905E116
:1002F200CBC100F0CCC101F010D0CBC100F0CCC119
:1003020001F0CB4BCC2B00C0E9FF01C0EAFFEECFDE
:0C03120000F00052E5E1006A016A1200F0
:10031E00086A096A000E0762036414EF02F00250C5
:10032E0006180A6E075003267E0ED8A0A5EF01F020
:10033E00035ED8B018EF02F0A9EF01F0035ED8A06B
:10034E001CEF02F0028E068E02C00EF001C00BF002
:10035E0000C00DF000500402F4CF0CF00150050265
:10036E00F4CF00F0F3CF08F00402F3500C26F45053
:10037E000822000E00220D500502F3500C26F450F8
:10038E000822000E002202500402F3500826F450F8
:10039E00002202500502016A000E0122F3500026CF
:1003AE00F45001220D500602F3500826F45000229C
:1003BE00026A000E012202220B500602F3500026A2
:1003CE00F4500122000E02220E500602F3500126B6
:1003DE00F450022202BEFCEF01F008360036013660
:1003EE0002360306D8B41CEF02F00FEF02F0D880ED
:1003FE00800E08640030000E002201220222D8A0D6
:10040E000FEF02F0023201320032034A18EF02F00F
:10041E000AAE029E000E1EEF02F0010E45DE1EEF2A
:10042E0002F0020E48DE1EEF02F0040E30DE120065
:10043E0003500718D8A433EF02F002500618D8A4C0
:10044E0033EF02F001500518D8A433EF02F000503C
:0E045E000418D8B4D8841200D89412001200EA
:10046C000050086E0150006E0250016E0350026E77
:10047C00036A0B6A0C6A9E0E036E0A6A02AE53EF95
:10048C0002F0081E001E011E021E082AD8B4002A03
:10049C00D8B4012AD8B4022A0A8E020E0C6E18DEC9
:0204AC0012003C
:1004AE00220E0C6E086A096A0A6A0B6A0C06D8B428
:1004BE001FD0D8900B320A32093208320332023280
:1004CE0001320032D8A0F2D70C06D8B409D00450AD
:1004DE0008260550092206500A2207500B22EAD799
:1004EE00045008260550092206500A2207500B22F6
:0204FE001200EA
:100500000101CB51200A09E0CB510D0804E3090E8B
:10051000CB5D01E302D0006A02D0010E006E120032
:100520000101CB51390806E3300ECB5D03E3010E28
:08053000006E01D0006A120008
:10053800025006180E6E086A096A0B6A03500764AF
:100548008FEF03F006500A6E068E028E03500B6E74
:100558000750036E000E0B64DFEF02F00B50075ECE
:10056800D8B480EF03F0070E07644EEF03F0075E80
:1005780000C008F001C000F002C001F0026A074E96
:1005880080EF03F0076423EF03F0075E00C008F074
:1005980001C000F0016A074E80EF03F0076401EF25
:1005A80003F0075E00C008F0006A074E80EF03F012
:1005B8000764E8EF02F00AC002F005C001F004C0C9
:1005C80000F0086AACEF04F0030E0764F3EF02F0E2
:1005D800075E08380F0B086E074E80EF03F0D890BF
:1005E8000832074E80EF03F0D8900832074E80EFAC
:1005F80003F0D890083280EF03F0030E076412EF7F
:1006080003F0075E08380F0B086E0038F00B082659
:1006180000380F0B006E074E80EF03F0D8900032C1
:100628000832074E80EF03F0D89000320832074EA8
:1006380080EF03F0D8900032083280EF03F0030E09
:1006480007643AEF03F0075E08380F0B086E0038AE
:10065800F00B082600380F0B006E0138F00B00264F
:1006680001380F0B016E074E80EF03F0D89001326E
:1006780000320832074E80EF03F0D8900132003282
:100688000832074E80EF03F0D8900132003208326A
:1006980080EF03F0030E07646BEF03F0075E083882
:1006A8000F0B086E0038F00B082600380F0B006E91
:1006B8000138F00B002601380F0B016E0238F00BE1
:1006C800012602380F0B026E074E80EF03F0D89018
:1006D8000232013200320832074E80EF03F0D89020
:1006E8000232013200320832074E80EF03F0D89010
:1006F8000232013200320832096A000E0EAE74EF7F
:1007080004F0081E001E011E021E082A00220122F3
:10071800022274EF04F00750D8A495EF03F0ACEF71
:1007280004F0096A02C00AF0028E068E0750035CC4
:10073800076ED8B467EF04F0070E076435EF04F0CE
:10074800075E0450096E0550046E0650056E066A71
:10075800074E67EF04F0070E07640AEF04F0075E20
:100768000450096E0550046E056A074E67EF04F0E1
:10077800070E0764E8EF03F0075E0450096E046A89
:10078800074E67EF04F0070E0764CFEF03F00AC0C7
:1007980002F0ACEF04F0030E0764DAEF03F0075E33
:1007A80009380F0B096E074E67EF04F0D89009322D
:1007B800074E67EF04F0D8900932074E67EF04F050
:1007C800D890093267EF04F0030E0764F9EF03F0DD
:1007D800075E09380F0B096E0438F00B0926043838
:1007E8000F0B046E074E67EF04F0D89004320932FD
:1007F800074E67EF04F0D89004320932074E67EFCE
:1008080004F0D8900432093267EF04F0030E07644D
:1008180021EF04F0075E09380F0B096E0438F00B5E
:10082800092604380F0B046E0538F00B042605382A
:100838000F0B056E074E67EF04F0D89005320432AF
:100848000932074E67EF04F0D890053204320932B6
:10085800074E67EF04F0D89005320432093267EF8B
:1008680004F0030E076452EF04F0075E09380F0B1B
:10087800096E0438F00B092604380F0B046E05388E
:10088800F00B042605380F0B056E0638F00B05260D
:1008980006380F0B066E074E67EF04F0D890063245
:1008A800053204320932074E67EF04F0D890063259
:1008B800053204320932074E67EF04F0D890063249
:1008C800053204320932086A000E0EAE74EF04F0E5
:1008D800091E041E051E061E092A042205220622D8
:1008E8000950082604500022055001220650022211
:1008F8000EBE8BEF04F0D8A09AEF04F0023201325A
:1009080000320832033E9AEF04F0A6EF04F0D8B0A4
:10091800A0EF04F0000E081E001E011E021E082A89
:100928000022012202220A7EA0EF04F0010E0C6EC2
:100938006EEC00F0AEEF04F0020E0C6E6EEC00F000
:10094800AEEF04F0040E0C6E62EC00F0AEEF04F0B3
:06095800000E0C6E1200FF
:10095E000B6A0C6A0A6A0350D8B4F9EF04F0028EDF
:10096E008E0E035E03BEC1EF04F0D8B4C1EF04F0E7
:10097E00FDEF04F0036C080E035CD8A0D8EF04F072
:10098E00036E013602C001F0026A080E035CD8A0A5
:10099E00D8EF04F00136016A0350D8A4D890E2EFE4
:1009AE0004F00350D8B4E2EF04F0D89002320132D2
:1009BE00032EDCEF04F00BBC01A0EFEF04F0D8A087
:1009CE00EFEF04F0012AD8B4022A02BE0CEF05F0B4
:1009DE000AAE11EF05F0021E011E012AD8B4022A3A
:1009EE0011EF05F0026A016A11EF05F00B800BAEF4
:1009FE0015EF05F0026A0AAE15EF05F0FF0E026E56
:100A0E00016E0A36023215EF05F0010E0C6E50DC47
:100A1E0017EF05F0000E0C6E17EF05F0FF0E0C6EC3
:0A0A2E000150006E0250016E12002C
:100A38000A6A0350D8A40A800750D8A40A820A5028
:100A4800D8B47FEF05F0030AD8B438EF05F00AB040
:100A580033EF05F006AE7DEF05F07BEF05F002AE53
:100A68007BEF05F07DEF05F00250800B0A6E029EC9
:100A78000650800B069E0A18D8B449EF05F00A50B4
:100A8800D8B47BEF05F07DEF05F00750035CD8B4D0
:100A980053EF05F0D8A06FEF05F075EF05F006509D
:100AA800025CD8B45DEF05F0D8A06FEF05F075EFE4
:100AB80005F00550015CD8B467EF05F0D8A06FEFDA
:100AC80005F075EF05F00450005CD8B47FEF05F031
:100AD800D8B075EF05F00A52D8B47DEF05F07BEF7A
:100AE80005F00A52D8B47BEF05F07DEF05F0D88009
:0E0AF8001200D8901200D880D884120012008C
:100B06000450000A12E10550000A0FE10650000ADF
:100B16000CE10750000A09E1FF0E006EFF0E016EA0
:100B26007F0E026EFF0E036EA8D0086A096A075090
:100B3600D8B42EEF06F00350D8B433EF06F00250C7
:100B460006180A6E028E068E0E6A02C008F001C0F2
:100B56000CF000C00DF004500D5E0550D8A0053C09
:100B66000C5E0650D8A0063C085E086A0C6A0D6A40
:100B7600D8A0C5EF05F0D890023201320032083213
:100B8600010E0E6E0750035ED8A0D2EF05F07E0E62
:100B96000E240326D8B038EF06F0D8EF05F07E0E07
:100BA6000E240326D8A03DEF06F0180E0B6E0D3668
:100BB6000C3608360036013602360E360450005E14
:100BC6000550D8A0053C015E0650D8A0063C025E42
:100BD60006340E120EA0F3EF05F00D80FEEF05F0C1
:100BE600045000260550D8B0053C01260650D8B062
:100BF600062802260D900B2EDAEF05F024EF06F0FC
:100C0600D8900036013602360E360450005E055086
:100C1600D8A0053C015E0650D8A0063C025E06340C
:100C26000E10010B0D26D8B00C2AD8B4082AD8A469
:100C360024EF06F008320C320D32032AD8B438EF0E
:100C460006F00AAE089E0850026E0C50016E0D505A
:100C5600006E40EF06F0010E6DEC01F040EF06F07D
:100C6600020E5BEC00F040EF06F0040E62EC00F0C2
:0C0C760040EF06F0080E4EEC00F01200FB
:100C82000C6A0E6A0250D8A45AEF06F001C002F0B4
:100C920000C001F0006A0E860250D8A45AEF06F096
:100CA20001C002F0016A0E960E880250D8B46CEFB1
:100CB20006F00E50035ED8A4D8A072EF06F0D890CA
:100CC20002BE78EF06F0003601360236032E61EFDF
:100CD20006F072EF06F0010E0C6E5BEC00F07CEF9A
:100CE20006F0020E0C6E4EEC00F07CEF06F0040EE5
:080CF2000C6E4AEC00F0120048
:100CFA000101C251C31108E0C2C1E1FFC3C1E2FF51
:100D0A00C0C1E6FFC1C1E6FFC0C1E9FFC1C1EAFF38
:100D1A00EECF00F000C0C6F100C0CBF180EC02F0CB
:100D2A00005203E0C04BC12BEFD7C46B000EC6BF05
:100D3A00FF0E006E000E001802E12D0EC61905E125
:100D4A00010EC46FC04BC12B0CD0000EC6BFFF0EE4
:100D5A00006E000E001802E12B0EC61902E1C04B0C
:100D6A00C12BC66BC76BC86BC96BCA6BC56BC4B9E1
:100D7A000BD0C0C1E9FFC1C1EAFFEE502E0A04E15F
:100D8A00C489C04BC12B54D0C0C1E9FFC1C1EAFF1D
:100D9A00EECFCBF190EC02F0005201E14AD0C483CD
:100DAA00C651080A40E0C4A901D0C507C62BC7C16D
:100DBA0000F0C8C101F0C9C102F0CAC103F00A0EAD
:100DCA00046E000E056E066E076E57EC02F000C048
:100DDA00C7F101C0C8F102C0C9F103C0CAF10000DD
:100DEA000000C0C1E9FFC1C1EAFF300EEE5C006E2F
:100DFA00016A000E015A000E01BEFF0E026E036E5A
:100E0A00C7510026C8510122C9510222CA510322E0
:100E1A0000C0C7F101C0C8F102C0C9F103C0CAF1DC
:100E2A000000000003D0C4B901D0C52BC04BC12BB0
:100E3A009ED7C66BC0C1E9FFC1C1EAFFEE50650A81
:100E4A0008E0C0C1E9FFC1C1EAFFEE50450A01E06E
:100E5A0068D0C04BC12BC0C1E9FFC1C1EAFFEE5047
:100E6A002D0A04E1C487C04BC12B09D0C0C1E9FFD8
:100E7A00C1C1EAFFEE502B0A02E1C04BC12BC0C12F
:100E8A00E9FFC1C1EAFFEE50300A03E1C04BC12BB2
:100E9A00F6D7C0C1E9FFC1C1EAFFEECFCBF190ECB2
:100EAA0002F0005239E0C0C1E9FFC1C1EAFF300EC9
:100EBA00EE5CC66FC04BC12BC0C1E9FFC1C1EAFFDE
:100ECA00EECFCBF190EC02F0005226E00A0EC603F8
:100EDA00F3CFC6F1C0C1E9FFC1C1EAFF300EEE5C33
:100EEA00006E0050C627C04BC12BC0C1E9FFC1C16B
:100EFA00EAFFEECFCBF190EC02F000520DE00A0EC1
:100F0A00C603F3CFC6F1C0C1E9FFC1C1EAFF300E83
:100F1A00EE5C006E0050C627C4A703D0C651000875
:100F2A00C66FC651C527000EC31902E1000EC219C9
:100F3A000AE0C4A308D0C2C1E1FFC3C1E2FFC0C135
:100F4A00E6FFC1C1E6FFC7C100F0C8C101F0C9C1CF
:100F5A0002F0CAC103F036EC02F000C0C7F101C0CA
:100F6A00C8F102C0C9F103C0CAF1046A056A066A77
:100F7A00076AC7C100F0C8C101F0C9C102F0CAC1FD
:100F8A0003F01FEC02F0010ED8A4000E006E00520E
:100F9A0005E0006A016A026A036A02D1800EC51975
:100FAA00006E800E000A005CD8B072D0C5510008ED
:100FBA00C56F800EC519006E800E0A0A005C1DE31B
:100FCA00C7C100F0C8C101F0C9C102F0CAC103F02B
:100FDA00FF0E046EE60E056E5B0E066E5D0E076E64
:100FEA008FEC01F000C0C7F101C0C8F102C0C9F11D
:100FFA0003C0CAF10A0EC55FDCD7C551000A1CE05E
:10100A00C7C100F0C8C101F0C9C102F0CAC103F0EA
:10101A00CD0E046ECC0E056E4C0E066E7B0E076E60
:10102A008FEC01F000C0C7F101C0C8F102C0C9F1DC
:10103A0003C0CAF1C507E1D7010E046E000E056EA2
:10104A00000E066E010E076EC7C100F0C8C101F09E
:10105A00C9C102F0CAC103F0EADC010ED8B0000E21
:10106A00006E005214E0C4A109D0010E006E000EF9
:10107A00016E800E026E030E036E92D0010E006E98
:10108A00000E016E000E026E010E036E89D071D041
:10109A00800E000A006E800EC519005C6AE20A0E14
:1010AA00C55D1DE3C7C100F0C8C101F0C9C102F0A6
:1010BA00CAC103F0F90E046E020E056E150E066E15
:1010CA00A00E076E8FEC01F000C0C7F101C0C8F195
:1010DA0002C0C9F103C0CAF10A0EC55FE0D7C55103
:1010EA00000A1CE0C7C100F0C8C101F0C9C102F082
:1010FA00CAC103F0000E046E000E056E200E066EC5
:10110A00820E076E8FEC01F000C0C7F101C0C8F172
:10111A0002C0C9F103C0CAF1C507E1D7C7C104F0CB
:10112A00C8C105F0C9C106F0CAC107F0FF0E006EBA
:10113A00FF0E016E7F0E026EFF0E036E78DC010E4B
:10114A00D8B0000E006E005214E0C4A109D0FF0E00
:10115A00006EFF0E016EFF0E026EFF0E036E20D0B0
:10116A00FF0E006EFF0E016E7F0E026EFF0E036E03
:10117A0017D0C4A10DD0000EC719006E000EC819F1
:10118A00016E800EC919026E000ECA19036E08D0CC
:10119A00C7C100F0C8C101F0C9C102F0CAC103F059
:0211AA00120031
:1011AC000101C46BC0C1E9FFC1C1EAFFEE5216E0F8
:1011BC00C2C1CBF1C3C1CCF1C0C1E9FFC1C1EAFFCF
:1011CC00EECFCDF171EC01F0000E011802E1000E32
:1011DC00001804E1C04BC12BC42BE4D7C4C100F0F0
:0211EC001200EF
:1011EE00000E046E000E056E340E066E860E076E31
:1011FE00C0C100F0C1C101F0C2C102F0C3C103F011
:10120E007BDC000E046E000E056E680E066E890EF7
:10121E00076E8FEC01F0000E046E000E056E080EC8
:10122E00066E880E076E9CEC02F0AFEC04F000C068
:10123E00C8F101C0C9F10150090802E1005060086F
:10124E0006E2600E0101C46F090EC56F04D0C8C15D
:10125E00C4F1C9C1C5F10101C4C1C8F1C5C1C9F10B
:10126E00020EC55D02E1200EC45D05E2200EC66FC2
:10127E00020EC76F04D0C8C1C6F1C9C1C7F1C6C13D
:10128E00C8F1C7C1C9F1C6C100F0C7C101F0120053
:10129E000101C46BC56BC0C1E9FFC1C1EAFFEE52CB
:1012AE0017E0C2C1CBF1C3C1CCF1C0C1E9FFC1C1CE
:1012BE00EAFFEECFCDF171EC01F0000E011802E164
:1012CE00000E001805E0C04BC12BC44BC52BE3D755
:0A12DE00C4C100F0C5C101F0120008
:0E12E800ACB202D00000FCD7C0C1ADFF1200B6
:1012F600AECF01F0ABA202D0AB98AB8801C000F034
:021306001200D3
:10130800000E0101BA1902E1000EB91904E10DC17C
:10131800B9F10EC1BAF1B9C1E9FFBAC1EAFFEECF1E
:1013280000F0005203E1006A016A47D0B9C1C0F178
:10133800BAC1C1F1BBC1C2F1BCC1C3F1ACDFB95183
:101348000026BA51012200C0B9F101C0BAF100C0AB
:10135800E9FF01C0EAFFEECF00F0005207E10D6B94
:101368000E6B000E006E000E016E27D0B9C1C0F1E1
:10137800BAC1C1F1BBC1C2F1BCC1C3F113DF000ED8
:10138800016EB9510026BA51012200C00DF101C009
:101398000EF100C0E9FF01C0EAFFEE5208E00DC1FE
:1013A800E1FF0EC1E2FFE66A0D4B0E2B02D00D6B7A
:0C13B8000E6BB9C100F0BAC101F01200C8
:0A13C400000E9EBA010E006E12002A
:1013CE000B6A0A6A096A00500402F4CF09F0F3CFDF
:1013DE0008F001500502F4CF0BF0F3CF0AF00050E5
:1013EE000502F3500926F4500A22E86A0B22015036
:1013FE000402F3500926F4500A22E86A0B2208C0B0
:10140E0000F009C001F00AC002F00BC003F0120098
:10141E000101BC6BB9C1E9FFBAC1EAFFEECFBBF166
:10142E00BB51000A0EE0BBC1C0F157DF0101BC2B5E
:10143E00BC51B925E96E000EBA21EA6EEECFBBF1B2
:04144E00EFD71200C2
:10145200B9C1C0F1BAC1C1F10101C26BC36B4CDCAD
:02146200120076
:10146400030E026EBDC100F0BEC101F0025005E0E2
:10147400003600900136FF0FFAD7B40E0026000E96
:101484000122040E0024D96E000E0120DA6EDECF94
:1014940000F0DECF01F0DECF02F0DECF03F0B9C101
:1014A40004F0BAC105F0BBC106F0BCC107F01CECE6
:1014B40005F0010ED8B0000E006E005220E0030EBD
:1014C400026EBDC100F0BEC101F0025005E000365D
:1014D40000900136FF0FFAD7B40E0026000E012249
:1014E400040E0024E96E000E0120EA6EEECF00F037
:1014F400EECF01F0EECF02F0EECF03F04FD0030EAB
:10150400026EBDC100F0BEC101F0025005E000361C
:1015140000900136FF0FFAD7B40E0024D96E000EE6
:101524000120DA6EDECF04F0DECF05F0DECF06F068
:10153400DECF07F0B9C100F0BAC101F0BBC102F0BF
:10154400BCC103F01CEC05F0010ED8B0000E006E17
:1015540000521CE0030E026EBDC100F0BEC101F0DA
:10156400025005E0003600900136FF0FFAD7B40EA2
:101574000024E96E000E0120EA6EEECF00F0EECFFB
:1015840001F0EECF02F0EECF03F008D0B9C100F0C5
:0E159400BAC101F0BBC102F0BCC103F01200ED
:1015A200800E006E800E000A005C03E1040E010151
:1015B200B95D1FE20101B9C100F0000E016E0036F3
:1015C200009001362B0E0024BE6F010E0120BF6F6A
:1015D200BAC1C0F1BBC1C1F1BCC1C2F1BDC1C3F14D
:1015E20005DEBEC1E1FFBFC1E2FF00C0E6FF01C0F0
:0415F200E6FF1200FE
:1015F60000C008F00150006E016A026A036A0B6AB5
:101606000C6A016A026A036A960E036E0A6A00AEE3
:1016160013EF0BF0081E001E082AD8B4002A0A8E03
:1016260000C001F008C000F0086A026A41EC06F04A
:021636001200A0
:08163800067E9CEC02F012009A
:10164000800E000A006E800E005C03E10101AD51C6
:10165000040801E232D00101050E006E000E016E99
:10166000ADC104F0000E056EB2DE0F0E0026010EB5
:10167000012200C0B0F101C0B1F100C0E1FF01C022
:10168000E2FFAEC1E6FF010EB025E16E000EB12112
:10169000E26EAFC101F0010E006E015004E00036B1
:1016A0000090FF0FFBD7010100C0E6FF040EB0253C
:0C16B000E16E000EB121E26EE680120037
:1016BC000C0E006E000E016EADC104F0AEC105F053
:1016CC0080DE780E00240101B16F000E0120B26F94
:1016DC00B1C1E9FFB2C1EAFFEECF00F0EECF01F0ED
:1016EC00EECF02F0EECF03F09CC004F09DC005F0ED
:1016FC009EC006F09FC007F099DF000E046E000E2E
:10170C00056E200E066E820E076E83EC05F000C08F
:10171C00A0F001C0A1F002C0A2F003C0A3F0040E1F
:10172C000101B125E96E000EB221EA6EEECF00F098
:10173C00EECF01F0EECF02F0EECF03F0A4C004F038
:10174C00A5C005F0A6C006F0A7C007F06FDF000E1D
:10175C00046E000E056E200E066E820E076E83EC74
:10176C0005F000C0A8F001C0A9F002C0AAF003C0A7
:10177C00ABF0080E0101B125E96E000EB221EA6E44
:10178C00EECF00F0EECF01F0EECF02F0EECF03F093
:10179C00ACC004F0ADC005F0AEC006F0AFC007F0B1
:1017AC0045DF000E046E000E056E200E066E820ED6
:1017BC00076E83EC05F000C0B0F001C0B1F002C0C0
:1017CC00B2F003C0B3F0010E0101AF6F000EB06FA9
:1017DC00800E006E800EB019005C02E1AF510A0859
:1017EC00D8A0A5D0AFC100F0B0C101F0FEDEA0C002
:1017FC0004F0A1C005F0A2C006F0A3C007F08FEC66
:10180C0001F09CC004F09DC005F09EC006F09FC086
:10181C0007F09CEC02F000C0B9F101C0BAF102C0B3
:10182C00BBF103C0BCF1BD6BBE6B16DE00C0BAF1E0
:10183C0001C0BBF102C0BCF103C0BDF10101B96B29
:10184C00AADEAFC100F0B0C101F0CFDEA8C004F039
:10185C00A9C005F0AAC006F0ABC007F08FEC01F0F0
:10186C00A4C004F0A5C005F0A6C006F0A7C007F000
:10187C009CEC02F000C0B9F101C0BAF102C0BBF19E
:10188C0003C0BCF1010E0101BD6F000EBE6FE4DDA3
:10189C0000C0BAF101C0BBF102C0BCF103C0BDF184
:1018AC00010E0101B96F77DEAFC100F0B0C101F0DC
:1018BC009CDEB0C004F0B1C005F0B2C006F0B3C0FD
:1018CC0007F08FEC01F0ACC004F0ADC005F0AEC079
:1018DC0006F0AFC007F09CEC02F000C0B9F101C0FB
:1018EC00BAF102C0BBF103C0BCF1020E0101BD6F25
:1018FC00000EBE6FB1DD00C0BAF101C0BBF102C079
:10190C00BCF103C0BDF1020E0101B96F44DE030E40
:10191C000B6E080E0C6E770E0D6E0D2EFED70C2E68
:10192C00FCD70B2EFAD70101AF4BB02B51D7000EC1
:10193C00006E000E016E200E026E820E036EA0C0B1
:10194C0004F0A1C005F0A2C006F0A3C007F08FEC14
:10195C0001F09CC004F09DC005F09EC006F09FC035
:10196C0007F09CEC02F000C09CF001C09DF002C09E
:10197C009EF003C09FF0000E006E000E016E200E54
:10198C00026E820E036EA8C004F0A9C005F0AAC0B6
:10199C0006F0ABC007F08FEC01F0A4C004F0A5C0BA
:1019AC0005F0A6C006F0A7C007F09CEC02F000C042
:1019BC00A4F001C0A5F002C0A6F003C0A7F0000E71
:1019CC00006E000E016E200E026E820E036EB0C011
:1019DC0004F0B1C005F0B2C006F0B3C007F08FEC54
:1019EC0001F0ACC004F0ADC005F0AEC006F0AFC065
:1019FC0007F09CEC02F000C0ACF001C0ADF002C0EE
:081A0C00AEF003C0AFF01200C0
:101A14000101AD6B800E006E800E000A005C02E1D5
:101A2400040EAD5D32E2050E006E000E016EADC116
:101A340004F0000E056EC9DC0F0E0026010E012213
:101A440000C0AEF101C0AFF100C0E1FF01C0E2FF90
:101A5400810EE66E010EAE25E16E000EAF21E26E40
:101A6400010EE66E020EAE25E16E000EAF21E26EAF
:101A7400200EE66E020EE66E040EAE25E16E000E3A
:101A8400AF21E26EE690AD2BC5D7770ECE6EEC0E8D
:101A9400CF6E100ECD6E9D80F28CF28ECD80120032
:101AA400050E006E000E016EFBC004F0000E056E04
:101AB4008CDC0F0E0024E96E010E0120EA6EEECFDD
:101AC400CEF1EECFCFF1EECFD0F1EECFD1F1EFA04A
:101AD40050D00F0EEA6ECEC1E9FF0001FCB10FD069
:101AE4000101D051FF08CE6ED1C1CFFFFF0ECF56FA
:101AF4003B0ECE26000ECF22CF51EF1237D001017C
:101B0400770ED025CE6EEC0ED121CF6E690ECE2687
:101B1400000ECF22CF1D006E0050EF16050E006E92
:101B2400000E016EFBC004F0000E056E4EDC0F0EBD
:101B34000026010E0122020E0024E16E000E012097
:101B4400E26EFBC000F0000E016E0036009001361C
:101B54002B0E0024E96E010E0120EA6EEECFE6FFA3
:101B6400EECFE6FF0001FB2B030EFB170001FC7117
:101B740008D00001770ECE6EEC0ECF6EFB2B030E59
:041B8400FB17120039
:101B88000900F5CFE6FF0006FBE10106F9E11200C6
:101B98000101B36BB46BB15343E0B151FF0AD8A450
:101BA800B1070CDC0050000A01E1FBD77BEC09F01F
:101BB80000C0B2F10101B351AD25E16E000EAE21B6
:101BC800E26E00C0E6FFB32BB451AF25E96E000EFC
:101BD800B021EA6EEE50B21902E1B42B09D0B46B11
:101BE800AFC1E9FFB0C1EAFFEE50B219D8B4B42BC7
:101BF800B451AF25E96E000EB021EA6EEE50000A2E
:101C08000EE1B451B35D006E016A000E015A005036
:101C1800AD25E16E0150AE21E26EE66A06D0BBD773
:0C1C2800ADC1E1FFAEC1E2FFE66A1200B0
:101C34000101B56BB66BADC1B9F1AEC1BAF1640EB9
:101C4400BB6F000EBC6F84EC09F000C0B3F101C09F
:101C5400B4F1B351B4114AE0800EB619006E800E8F
:101C6400005C02E10A0EB55D41E2B551AF25E16EBB
:101C7400B651B021E26E010EB325E96E000EB42117
:101C8400EA6EEECFE6FFB5C100F0B6C101F0003652
:101C9400009001360036009001360050B125B76F30
:101CA4000150B221B86F020EB325B96F000EB421F2
:101CB400BA6F29EC0AF0B7C1E1FFB8C1E2FF00C076
:101CC400E6FF01C0E6FF02C0E6FF03C0E6FFB54B36
:101CD400B62BB96BBA6BFD0EBB6F000EBC6F84ECF8
:101CE40009F000C0B3F101C0B4F1B3D7B5C100F03D
:061CF400B6C101F0120070
:101CFA000B6A0350D8B4C3EF0EF002500A6E028E7C
:101D0A008E0E035E03AEC7EF0EF0036C080E035C83
:101D1A00D8A0A2EF0EF0036E013602C001F0026AEB
:101D2A00080E035CD8A0A2EF0EF0036E0136016A1A
:101D3A000350D8A4D890ACEF0EF00350D8B4ACEF4F
:101D4A000EF0D89002320132032EA6EF0EF00BBC31
:101D5A0001A0B9EF0EF0D8A0B9EF0EF0012AD8B45D
:101D6A00022A02BED6EF0EF00AAEDCEF0EF0021E19
:101D7A00011E012AD8B4022ADCEF0EF0026A016AB7
:101D8A00DCEF0EF00B800BAEE0EF0EF0026A0AAE4B
:101D9A00E0EF0EF0FF0E026E016E0A360232E0EF3D
:101DAA000EF0010E0C6E5FEC01F0E2EF0EF0000E89
:101DBA000C6EE2EF0EF0FF0E0C6E0150006E025038
:041DCA00016E120094
:101DCE00E80E0101276F120E286FC00E296F010E4B
:101DDE002A6FF60E236F120E246F000E256F000E63
:101DEE00266FC40E096F130E0A6F000E0B6F000ED6
:101DFE000C6FFF0E056FFF0E066F000E076F000EC5
:101E0E00086FAC8A900EAB6E948E949C9EAA03D0F3
:081E1E00AECF00F0FBD712006B
:101E2600020E0101B96F010EBA6F0FEC0AF0ADC1D7
:101E3600B9F1AEC1BAF10FEC0AF0FF0EB96F000EA0
:081E4600BA6F0FEC0AF0120064
:101E4E0020EC12F0650E0101A56F6E0EA66F640EEA
:101E5E00A76FA86BA96BAA6B060EC16E956A836AF3
:101E6E00D2DD030E0B6E080E0C6E770E0D6E0D2E60
:101E7E00FED70C2EFCD70B2EFAD7AD6B830EAE6FA2
:101E8E00AF6B20EC0BF0010E0101AD6F830EAE6F48
:101E9E00010EAF6F20EC0BF0020E0101AD6F830E41
:101EAE00AE6F020EAF6F20EC0BF0030E0101AD6FA3
:101EBE00830EAE6F030EAF6F20EC0BF078C0B9F14E
:101ECE0079C0BAF17AC0BBF17BC0BCF10101BD6B28
:101EDE00BE6B32EC0AF000C0BAF101C0BBF102C019
:101EEE00BCF103C0BDF10101B96BD1EC0AF07CC0AD
:101EFE00B9F17DC0BAF17EC0BBF17FC0BCF1010E5D
:101F0E000101BD6F000EBE6F32EC0AF000C0BAF1D7
:101F1E0001C0BBF102C0BCF103C0BDF1010E010155
:101F2E00B96FD1EC0AF080C0B9F181C0BAF182C0AC
:101F3E00BBF183C0BCF1020E0101BD6F000EBE6F7E
:101F4E0032EC0AF000C0BAF101C0BBF102C0BCF124
:101F5E0003C0BDF1020E0101B96FD1EC0AF0080EFB
:101F6E00AF6EAC842DDF030E0B6E080E0C6E770E6B
:101F7E000D6E0D2EFED70C2EFCD70B2EFAD7F40EAF
:101F8E00AD6F000EAE6F48DFE2EC09F0005201E1DA
:101F9E00FBD73F0EAD6F010EAE6FA50EAF6F010EEC
:101FAE00B06FFF0EB16FF1DD3F0EAD6F010EAE6F74
:101FBE00710EAF6F010EB06F7B0EB16F010EB26F6F
:101FCE0032DE00C0A9F101C0AAF1A36BA46B800E92
:101FDE00A419006E800EAA19005C02E1A951A35D3E
:101FEE00D8B0B5D1710EA325AB6F010EA421AC6F85
:101FFE005AD1A3C100F0A4C101F000360090013601
:10200E000036009001367B0E0024E96E010E012091
:10201E00EA6EEECFB9F1EECFBAF1EECFBBF1EECF65
:10202E00BCF1BD6BBE6B32EC0AF000C0BAF101C060
:10203E00BBF102C0BCF103C0BDF10101B96BD1EC23
:10204E000AF0E60E0101AD6F000EAE6FE5DE7CD13B
:10205E00A3C100F0A4C101F0003600900136003695
:10206E00009001367B0E0024E96E010E0120EA6E0F
:10207E00EECFB9F1EECFBAF1EECFBBF1EECFBCF1B0
:10208E00010EBD6F000EBE6F32EC0AF000C0BAF149
:10209E0001C0BBF102C0BCF103C0BDF1010E0101D4
:1020AE00B96FD1EC0AF0D40E0101AD6F000EAE6F18
:1020BE00B3DE4AD1A3C100F0A4C101F000360090F6
:1020CE0001360036009001367B0E0024E96E010EBB
:1020DE000120EA6EEECFB9F1EECFBAF1EECFBBF141
:1020EE00EECFBCF1020EBD6F000EBE6F32EC0AF0E9
:1020FE0000C0BAF101C0BBF102C0BCF103C0BDF11A
:10210E00020E0101B96FD1EC0AF0550E0101AD6F4F
:10211E00000EAE6F81DE18D1A3C100F0A4C101F094
:10212E000036009001360036009001367B0E0024FA
:10213E00E96E010E0120EA6EEECF00F0EECF01F057
:10214E00EECF02F0EECF03F0D1DD800E0118026E5D
:10215E00800E025C02E1000E005C40E3A3C100F0C1
:10216E00A4C101F000360090013600360090013611
:10217E007B0E0024E96E010E0120EA6EEECF00F018
:10218E00EECF01F0EECF02F0EECF03F0AFDD800E1A
:10219E000118026E800E025C02E1030E005C1EE26C
:1021AE00A3C100F0A4C101F0003600900136003644
:1021BE00009001367B0E0024E96E010E0120EA6EBE
:1021CE00EECF00F0EECF01F0EECF02F0EECF03F047
:1021DE008DDD00C033F101C034F102D0336B346BAE
:1021EE0033C135F134C136F13C0EAD6F000EAE6F1A
:1021FE0013DE35C1ADF136C1AEF15EEC0BF0250E3E
:10220E00AD6F000EAE6F08DE9FD0A3C100F0A4C16B
:10221E0001F00036009001360036009001367B0E3C
:10222E000024E96E010E0120EA6EEECF00F0EECF33
:10223E0001F0EECF02F0EECF03F058DD00500110AA
:10224E0009E0D0C037F1D1C038F1D2C039F1D3C0D6
:10225E003AF108D0CCC037F1CDC038F1CEC039F14B
:10226E00CFC03AF137C13BF138C13CF139C13DF134
:10227E003AC13EF1030EB96F3BC1BAF13CC1BBF19D
:10228E003DC1BCF13EC1BDF1D1EC0AF0670E0101BA
:10229E00AD6F000EAE6FC0DD57D0660EAD6F000E87
:1022AE00AE6FBADD51D0ABC1E9FFACC1EAFFEE5063
:1022BE00620AD8B49ED6ABC1E9FFACC1EAFFEE50BC
:1022CE00420AD8B496D6ABC1E9FFACC1EAFFEE50D4
:1022DE006F0AD8B4BDD6ABC1E9FFACC1EAFFEE5070
:1022EE004F0AD8B4B5D6ABC1E9FFACC1EAFFEE5088
:1022FE00630AD8B4DFD6ABC1E9FFACC1EAFFEE503A
:10230E00430AD8B4D7D6ABC1E9FFACC1EAFFEE5051
:10231E00700AD8B401D7ABC1E9FFACC1EAFFEE50E9
:10232E00500AD8B4F9D6ABC1E9FFACC1EAFFEE5002
:10233E00670AD8B46AD7ABC1E9FFACC1EAFFEE5069
:10234E00470AD8B462D7A9D7A34BA42B40D61CD624
:02235E00FFD7A7
:1024400010EE25F0E00E006E010E016E600EF66ECD
:0E245000230EF76E000EF86EC4EC0DF01200B5
:10236000656E64206D6F76696E6720746F20706F84
:07237000736974696F6E00D0
:10237700626567696E206D6F76696E6720746F207E
:09238700706F736974696F6E00D8
:0F239000777269746520746F20656C626F7700D7
:02239F003B0001
:0123A100003B
:1023A200777269746520746F2067726970706572E4
:0123B200002A
:1023B30000003485000034850000618500000000C2
:1023C3000000348400003484000034860000078653
:0423D300000034864C
:1023D7000000348500000000000034850000000084
:0823E700000061850000000008
:1023EF0000000000000034860000348400000786DF
:1023FF0000003484000034860000608400002085D3
:10240F00777269746520746F2073686F756C64657B
:02241F00720049
:0E242100777269746520746F206261736500C4
:07242F0053746172743A005E
:0124360000A5
:0124370000A4
:022438003B0067
:03243A000D0A0088
:03243D000D0A0085
:020000040030CA
:0D000100220F0EFF0181FF0FC00FE00F4026
:00000001FF
