:040000002AEF09F0EA
:1000080000C01EF001C01DF002C01CF003C01BF0B0
:1000180004C01AF005C019F008C018F009C017F09C
:100028000AC016F00BC015F0E1CF23F0E2CF24F0A0
:10003800E9CF21F0EACF22F0F3CF1FF0F4CF20F080
:100048009EA003D095EC07F09E901FC0F3FF20C040
:10005800F4FF1EC000F01DC001F01CC002F01BC060
:1000680003F01AC004F019C005F018C008F017C052
:1000780009F016C00AF015C00BF021C0E9FF22C034
:0C008800EAFF23C0E1FF24C0E2FF1100EA
:100094000B820BAE54EF00F003680268016800683D
:0800A4000A360232FF0E1200C1
:0800AC000AAE029E000E1200D4
:1000B4000B840BAE65EF00F0010E036E026A016A59
:0A00C400006A0A360232FF0E120035
:0E00CE00026A016A006A086A036A000E1200E4
:1000DC0098C1E9FF99C1EAFFEE5001019A1905E1B7
:1000EC0098C100F099C101F010D098C100F099C1ED
:1000FC0001F0984B992B00C0E9FF01C0EAFFEECF4D
:0C010C0000F00052E5E1006A016A1200F8
:080118000B6A0B86FF0E1200BA
:100120000CB0D2EF00F00CA278EF01F00E6A000ED6
:100130000264E9EF00F0F00E0214D8A4B4EF00F06E
:10014000023A01380F0B02260138F00B016E00381D
:100150000F0B01260038F00B006E08380F0B00263D
:100160000838F00B086E0E84D89002BECDEF00F078
:1001700008360036013602360E2A02BECDEF00F0F8
:1001800008360036013602360E2A02BECDEF00F0E8
:1001900008360036013602360E2A0E5003646EEF22
:1001A00001F0035E0BBC08AE73EF01F0D880800E47
:1001B00008640030000E002201220222D8A073EF52
:1001C00001F0023201320032034A78EF01F073EF9E
:1001D00001F001C002F000C001F008C000F0086AA0
:1001E000000E0E86026420EF01F0F00E0214D8A477
:1001F00008EF01F0023A01380F0B02260138F00B2C
:10020000016E00380F0B01260038F00B006E0E84D3
:10021000D89002BECDEF00F00036013602360E2A2D
:1002200002BECDEF00F00036013602360E2A02BEC5
:10023000CDEF00F00036013602360E2ACDEF00F089
:1002400001C002F000C001F0006A000E0E960E8898
:1002500002644DEF01F0F00E0214D8A438EF01F063
:10026000023A01380F0B02260138F00B016E0E84A2
:10027000D89002BECDEF00F0013602360E2A02BE43
:10028000CDEF00F0013602360E2A02BECDEF00F0AF
:10029000013602360E2ACDEF00F001C002F0016AED
:1002A000000E0E8602647DEF01F0F00E0214D8A459
:1002B0005CEF01F0023A0E84D89002BECDEF00F060
:1002C00002360E2A02BECDEF00F002360E2A02BE22
:1002D000CDEF00F002360E2ACDEF00F0010E0C6ECD
:1002E000E9DE80EF01F0020E0C6EE0DE80EF01F03F
:1002F000040E0C6ECFDE80EF01F0080E0C6EE7DE10
:020300001200E9
:100302000B800BAE8DEF01F0026A0AAEFF0E026E99
:0C031200016E006E0A360232FF0E12006F
:10031E000101966B92C1E9FF93C1EAFFEE5215E01F
:10032E0094C198F195C199F192C1E9FF93C1EAFF89
:10033E00EECF9AF1CCDE000E011802E1000E00188D
:10034E0004E1924B932B962BE5D796C100F0120049
:10035E000101966B976B92C1E9FF93C1EAFFEE52D2
:10036E0016E094C198F195C199F192C1E9FF93C13C
:10037E00EAFFEECF9AF1ABDE000E011802E1000E9D
:10038E00001805E0924B932B964B972BE4D796C112
:08039E0000F097C101F012000C
:1003A60001019251390806E3300E925D03E3010E16
:0803B600006E01D0006A120084
:1003BE00025006180E6E086A096A0B6A035007642B
:1003CE00D2EF02F006500A6E068E028E03500B6EAE
:1003DE000750036E000E0B6422EF02F00B50075E07
:1003EE00D8B4C3EF02F0070E076491EF02F0075E78
:1003FE0000C008F001C000F002C001F0026A074E12
:10040E00C3EF02F0076466EF02F0075E00C008F06B
:10041E0001C000F0016A074EC3EF02F0076444EF1B
:10042E0002F0075E00C008F0006A074EC3EF02F04C
:10043E0007642BEF02F00AC002F005C001F004C001
:10044E0000F0086AECEF03F0030E076436EF02F0DB
:10045E00075E08380F0B086E074EC3EF02F0D890F8
:10046E000832074EC3EF02F0D8900832074EC3EFA2
:10047E0002F0D8900832C3EF02F0030E076455EF76
:10048E0002F0075E08380F0B086E0038F00B0826D6
:10049E0000380F0B006E074EC3EF02F0D8900032FB
:1004AE000832074EC3EF02F0D89000320832074EE2
:1004BE00C3EF02F0D89000320832C3EF02F0030E01
:1004CE0007647DEF02F0075E08380F0B086E0038E8
:1004DE00F00B082600380F0B006E0138F00B0026CB
:1004EE0001380F0B016E074EC3EF02F0D8900132A8
:1004FE0000320832074EC3EF02F0D89001320032BC
:10050E000832074EC3EF02F0D890013200320832A3
:10051E00C3EF02F0030E0764AEEF02F0075E083879
:10052E000F0B086E0038F00B082600380F0B006E0C
:10053E000138F00B002601380F0B016E0238F00B5C
:10054E00012602380F0B026E074EC3EF02F0D89051
:10055E000232013200320832074EC3EF02F0D89059
:10056E000232013200320832074EC3EF02F0D89049
:10057E000232013200320832096A000E0EAEB7EFB7
:10058E0003F0081E001E011E021E082A0022012270
:10059E000222B7EF03F00750D8A4D8EF02F0ECEF29
:1005AE0003F0096A02C00AF0028E068E0750035C41
:1005BE00076ED8B4AAEF03F0070E076478EF03F0C6
:1005CE00075E0450096E0550046E0650056E066AED
:1005DE00074EAAEF03F0070E07644DEF03F0075E18
:1005EE000450096E0550046E056A074EAAEF03F01B
:1005FE00070E07642BEF03F0075E0450096E046AC2
:10060E00074EAAEF03F0070E076412EF03F00AC0BD
:10061E0002F0ECEF03F0030E07641DEF03F0075E2C
:10062E0009380F0B096E074EAAEF03F0D890093266
:10063E00074EAAEF03F0D8900932074EAAEF03F047
:10064E00D8900932AAEF03F0030E07643CEF03F0D3
:10065E00075E09380F0B096E0438F00B09260438B3
:10066E000F0B046E074EAAEF03F0D8900432093236
:10067E00074EAAEF03F0D89004320932074EAAEFC4
:10068E0003F0D89004320932AAEF03F0030E076488
:10069E0064EF03F0075E09380F0B096E0438F00B98
:1006AE00092604380F0B046E0538F00B04260538A6
:1006BE000F0B056E074EAAEF03F0D89005320432E9
:1006CE000932074EAAEF03F0D890053204320932F0
:1006DE00074EAAEF03F0D890053204320932AAEF82
:1006EE0003F0030E076495EF03F0075E09380F0B56
:1006FE00096E0438F00B092604380F0B046E05380A
:10070E00F00B042605380F0B056E0638F00B052688
:10071E0006380F0B066E074EAAEF03F0D89006327E
:10072E00053204320932074EAAEF03F0D890063292
:10073E00053204320932074EAAEF03F0D890063282
:10074E00053204320932086A000E0EAEB7EF03F01E
:10075E00091E041E051E061E092A04220522062253
:10076E00095008260450002205500122065002228C
:10077E000EBECEEF03F0D8A0DDEF03F00232013251
:10078E0000320832033EDDEF03F0E7EF03F0D8B09E
:10079E00E2EF03F0000E081E001E011E021E082AC4
:1007AE000022012202220A7EE2EF03F0010E0C6EFD
:1007BE00B0DCEEEF03F0020E0C6EABDCEEEF03F0EE
:1007CE00040E0C6E60DCEEEF03F0000E0C6E1200E9
:1007DE00086A096A000E0762036474EF04F002509F
:1007EE0006180A6E075003267E0ED8A005EF04F0F9
:1007FE00035ED8B079EF04F009EF04F0035ED8A0E1
:10080E007EEF04F0028E068E02C00EF001C00BF0D9
:10081E0000C00DF000500402F4CF0CF001500502A0
:10082E00F4CF00F0F3CF08F00402F3500C26F4508E
:10083E000822000E00220D500502F3500C26F45033
:10084E000822000E002202500402F3500826F45033
:10085E00002202500502016A000E0122F35000260A
:10086E00F45001220D500602F3500826F4500022D7
:10087E00026A000E012202220B500602F3500026DD
:10088E00F4500122000E02220E500602F3500126F1
:10089E00F450022202BE5CEF04F008360036013638
:1008AE0002360306D8B47EEF04F06FEF04F0D88062
:1008BE00800E08640030000E002201220222D8A011
:1008CE006FEF04F0023201320032034A79EF04F086
:1008DE000AAE029E000E81EF04F0010E67EC00F0EE
:1008EE0081EF04F0020E4AEC00F081EF04F0040EEA
:0608FE005AEC00F01200AC
:100904000B6A0C6A0A6A0350D8B4CCEF04F0028E66
:100914008E0E035E03BE94EF04F0D8B494EF04F09B
:10092400D0EF04F0036C080E035CD8A0ABEF04F026
:10093400036E013602C001F0026A080E035CD8A0FF
:10094400ABEF04F00136016A0350D8A4D890B5EF98
:1009540004F00350D8B4B5EF04F0D8900232013259
:10096400032EAFEF04F00BBC01A0C2EF04F0D8A03B
:10097400C2EF04F0012AD8B4022A02BEDFEF04F069
:100984000AAEE4EF04F0021E011E012AD8B4022AC2
:10099400E4EF04F0026A016AE4EF04F00B800BAEAA
:1009A400E8EF04F0026A0AAEE8EF04F0FF0E026E0C
:1009B400016E0A360232E8EF04F0010E0C6E9FDC81
:1009C400EAEF04F0000E0C6EEAEF04F0FF0E0C6E7A
:0A09D4000150006E0250016E120087
:1009DE000450000A12E10550000A0FE10650000A09
:1009EE000CE10750000A09E1FF0E006EFF0E016ECA
:1009FE007F0E026EFF0E036EA8D0086A096A0750BA
:100A0E00D8B49AEF05F00350D8B49FEF05F002501A
:100A1E0006180A6E028E068E0E6A02C008F001C01B
:100A2E000CF000C00DF004500D5E0550D8A0053C32
:100A3E000C5E0650D8A0063C085E086A0C6A0D6A69
:100A4E00D8A031EF05F0D8900232013200320832D0
:100A5E00010E0E6E0750035ED8A03EEF05F07E0E1F
:100A6E000E240326D8B0A4EF05F044EF05F07E0E59
:100A7E000E240326D8A0A9EF05F0180E0B6E0D3626
:100A8E000C3608360036013602360E360450005E3D
:100A9E000550D8A0053C015E0650D8A0063C025E6B
:100AAE0006340E120EA05FEF05F00D806AEF05F012
:100ABE00045000260550D8B0053C01260650D8B08B
:100ACE00062802260D900B2E46EF05F090EF05F04E
:100ADE00D8900036013602360E360450005E0550B0
:100AEE00D8A0053C015E0650D8A0063C025E063436
:100AFE000E10010B0D26D8B00C2AD8B4082AD8A493
:100B0E0090EF05F008320C320D32032AD8B4A4EF60
:100B1E0005F00AAE089E0850026E0C50016E0D5084
:100B2E00006EACEF05F0010E8CEC00F0ACEF05F0B2
:100B3E00020E67EC00F0ACEF05F0040E4AEC00F08C
:0C0B4E00ACEF05F0080E5AEC00F01200AD
:100B5A000B6A0A6A096A00500402F4CF09F0F3CF5B
:100B6A0008F001500502F4CF0BF0F3CF0AF0005061
:100B7A000502F3500926F4500A22E86A0B220150B2
:100B8A000402F3500926F4500A22E86A0B2208C02C
:100B9A0000F009C001F00AC002F00BC003F0120015
:0A0BAA00000E9EBA010E006E12004C
:0E0BB400ACB202D00000FCD78AC1ADFF120027
:100BC200000E01018B1902E1000E8A1904E197C09F
:100BD2008AF198C08BF18AC1E9FF8BC1EAFFEECF9F
:100BE20000F0005203E1006A016A4CD08AC192F11E
:100BF2008BC193F18CC194F18DC195F1AFEC01F0F1
:100C02008A5100268B51012200C08AF101C08BF16A
:100C120000C0E9FF01C0EAFFEECF00F0005208E198
:100C22000001976B986B000E006E000E016E2AD0C9
:100C32008AC192F18BC193F18CC194F18DC195F16E
:100C42008FEC01F0000E016E8A5100268B510122B9
:100C520000C097F001C098F000C0E9FF01C0EAFFB0
:100C6200EE5209E097C0E1FF98C0E2FFE66A000198
:100C7200974B982B03D00001976B986B8AC100F0B9
:060C82008BC101F012001D
:100C8800000E046E000E056E340E066E860E076E9C
:100C98008AC100F08BC101F08CC102F08DC103F054
:100CA8009ADE000E046E000E056E680E066E890E42
:100CB800076E91DD000E046E000E056E080E066EBE
:100CC800880E076EDFEC01F019DE00C08EF101C05E
:100CD8008FF10150090802E10050600805E2600E3A
:100CE800016E090E026E04D08EC101F08FC102F0B0
:100CF80001C08EF102C08FF1020E025C02E1200EEB
:100D0800015C05E2200E006E020E016E04D08EC159
:100D180000F08FC101F000C08EF101C08FF1120008
:100D28008AC1E9FF8BC1EAFFEECF8CF1000E010109
:100D38008D6F000E8D6F000E8D1902E1200E8C193B
:100D480007E0000E8D1902E1090E8C1901E003D0AD
:100D58008A4B8B2BE5D78E6B8F6B906B916B000E4C
:100D68008D1902E12D0E8C1905E1904B912B8A4BC0
:100D78008B2B08D0000E8D1902E12B0E8C1902E185
:100D88008A4B8B2B8AC1E9FF8BC1EAFFEECF8CF12E
:100D9800000E8D6F000E8D6F8CC192F1D3EC01F0B7
:100DA800005218E08EC100F08FC101F00A0E046EE7
:100DB800000E056ECEDE300E8C5D026E000E8D5973
:100DC800036E025000248E6F035001208F6F8A4BF0
:100DD8008B2BD8D79051911108E08E510008006EE6
:100DE8008FC101F0000E015604D08EC100F08FC1F2
:040DF80001F01200F4
:100DFC00AECF01F0ABA202D0AB98AB8801C000F033
:020E0C001200D2
:100E0E0001017F6B7CC1E9FF7DC1EAFFEECF7EF170
:100E1E007E51000A0EE07EC18AF1C5DE01017F2BF4
:100E2E007F517C25E96E000E7D21EA6EEECF7EF1BC
:040E3E00EFD71200D8
:100E4200B40E00019D6F0B0E9E6F8A0E9F6F010EF6
:100E5200A06FFC0EA56F0D0EA66F000EA76F000E01
:100E6200A86FAA0EA16F0B0EA26F000EA36F000E49
:100E7200A46FFF0E996FFF0E9A6F000E9B6F000E0C
:100E82009C6FAC8A900EAB6E948E949C9EAA03D0FB
:080E9200AECF00F0FBD7120007
:100E9A0001017C6B800E006E800E000A005C02E18C
:100EAA00040E7C5D32E2050E006E000E016E7CC1FE
:100EBA0004F0000E056E4CDE7B0E0026000E0122A9
:100ECA0000C07DF101C07EF100C0E1FF01C0E2FF78
:100EDA00810EE66E010E7D25E16E000E7E21E26E28
:100EEA00010EE66E020E7D25E16E000E7E21E26E97
:100EFA00200EE66E020EE66E040E7D25E16E000EF1
:100F0A007E21E26EE6907C2BC5D7770ECE6EEC0E74
:100F1A00CF6E100ECD6E9D80F28CF28ECD801200B7
:100F2A00050E006E000E016E7AC004F0000E056E0A
:100F3A000FDE7B0E0024E96E000E0120EA6EEECF72
:100F4A009BF1EECF9CF1EECF9DF1EECF9EF1EFA09B
:100F5A004DD00F0EEA6E9BC1E9FF79B00FD00101A7
:100F6A009D51FF08CE6E9EC1CFFFFF0ECF563B0E9E
:100F7A00CE26000ECF229C51EF1236D00101770EF9
:100F8A009D25CE6EEC0E9E21CF6E690ECE26000EEA
:100F9A00CF229C1D006E0050EF16050E006E000E4B
:100FAA00016E7AC004F0000E056ED2DD7B0E0026BB
:100FBA00000E0122020E0024E16E000E0120E26EF4
:100FCA007AC000F0000E016E0036009001368F0ED6
:100FDA000024E96E000E0120EA6EEECFE6FFEECFA6
:100FEA00E6FF7A2A030E7A16797007D0770ECE6E4C
:0C0FFA00EC0ECF6E7A2A030E7A1612005D
:101006000900F5CFE6FF0006FBE10106F9E1120053
:101016000101866B876B7CC18AF17DC18BF1620E03
:101026008C6F000E8D6FCADD00C084F101C085F1A2
:1010360001018451851142E0800E8719006E800EF1
:101046008319005C02E18251865D38E286517E2575
:10105600E16E87517F21E26E010E8425E96E000E56
:101066008521EA6EEECFE6FF86C100F087C101F06A
:1010760000360090013600508025886F015081218E
:10108600896F020E84258A6F000E85218B6F49DEDB
:1010960088C1E1FF89C1E2FF00C0E6FF01C0E6FFAB
:1010A600864B872B8A6B8B6B600E8C6F000E8D6F59
:1010B60085DD00C084F101C085F1BAD786C100F094
:0610C60087C101F01200D9
:1010CC00800E006E800E000A005C03E1040E01012C
:1010DC007C5D1FE201017CC100F0000E016E003648
:1010EC00009001368F0E0024816F000E0120826F5C
:1010FC007DC18AF17EC18BF17FC18CF180C18DF1F4
:10110C00BDDD81C1E1FF82C1E2FF00C0E6FF01C08D
:04111C00E6FF1200D8
:101120000101826B836B805342E08051FF0AD8A497
:1011300080073BDD0050000A01E1FBD75FDE00C005
:1011400081F1010182517C25E16E000E7D21E26E6C
:1011500000C0E6FF822B83517E25E96E000E7F21C1
:10116000EA6EEE50811902E1832B09D0836B7EC1B8
:10117000E9FF7FC1EAFFEE508119D8B4832B835178
:101180007E25E96E000E7F21EA6EEE50000A0EE128
:101190008351825D006E016A000E015A00507C2569
:1011A000E16E01507D21E26EE66A06D0BCD77CC1BB
:0A11B000E1FF7DC1E2FFE66A1200D4
:1011BA0000C008F00B6A0C6A9E0E036E0A6A026A85
:0E11CA00016A006A020E0C6E90EC00F012003A
:1011D800800E000A006E800E005C03E101017C5164
:1011E800040801E232D00101050E006E000E016E06
:1011F8007CC104F0000E056EACDC7B0E0026000EF0
:10120800012200C07FF101C080F100C0E1FF01C0F0
:10121800E2FF7DC1E6FF010E7F25E16E000E802111
:10122800E26E7EC101F0010E006E015004E000364E
:101238000090FF0FFBD7010100C0E6FF040E7F25D9
:0C124800E16E000E8021E26EE6801200D4
:10125400E5EC0AF0650E0101756F6E0E766F640E93
:10126400776F786BFF0E796F060EC16E956A836A8D
:1012740012DE080EAF6EAC84E2DD030E0B6E080EB8
:101284000C6E770E0D6E0D2EFED70C2EFCD70B2E8A
:10129400FAD7710E01017C6F000E7D6FB6DD7C6B99
:1012A400830E7D6F7E6B96DF010E01017C6F830ED2
:1012B4007D6F010E7E6F8EDF020E01017C6F830E47
:1012C4007D6F020E7E6F86DF030E01017C6F830E3D
:1012D4007D6F030E7E6F7EDF66DC0052D8B446D18C
:1012E400500E0101736F000E746F4B0E7C6F010E74
:1012F4007D6F750E7E6F010E7F6F79C180F10EDFF9
:101304004B0E7C6F010E7D6FA90E7E6F000E7F6FFA
:10131400F90E806F000E816F73C182F174C183F185
:1013240078DE00C073F101C074F10101496B4A6BAE
:10133400800E4A19006E800E7419005C02E173512C
:10134400495DD8B013D1A90E49257A6F000E4A2100
:101354007B6FBBD07C6BF90E4925E96E000E4A21E8
:10136400EA6EEECF00F027DF00C07DF101C07EF110
:1013740002C07FF103C080F1A7DE640E01017C6F1F
:10138400000E7D6F42DDEFD0010E7C6FF90E492512
:10139400E96E000E4A21EA6EEECF00F00CDF00C0C9
:1013A4007DF101C07EF102C07FF103C080F18CDECB
:1013B4004F0E01017C6F000E7D6F27DDD4D0020E2D
:1013C4007C6FF90E4925E96E000E4A21EA6EEECFD4
:1013D40000F0F1DE00C07DF101C07EF102C07FF1BA
:1013E40003C080F171DE310E01017C6F000E7D6F50
:1013F4000CDDB9D07C6BF90E4925E96E000E4A214B
:10140400EA6EEECF00F0D7DE00C07DF101C07EF1C0
:1014140002C07FF103C080F157DE010E01017C6F31
:10142400F90E4925E96E000E4A21EA6EEECF00F06E
:10143400C2DE00C07DF101C07EF102C07FF103C0B5
:1014440080F142DE020E01017C6FF90E4925E96E3E
:10145400000E4A21EA6EEECF00F0ADDE00C07DF151
:1014640001C07EF102C07FF103C080F12DDE250EA4
:1014740001017C6F000E7D6FC8DC75D0F90E492523
:10148400E96E000E4A21EA6EEE520CE0030E7C6F08
:10149400000E7D6F000E7E6F200E7F6F850E806FB5
:1014A40013DE0CD0030E01017C6F000E7D6F000E65
:1014B4007E6F600E7F6F840E806F06DE3F0E01012B
:1014C4007C6F000E7D6FA1DC4ED07AC1E9FF7BC139
:1014D400EAFFEE50620AD8B43DD77AC1E9FF7BC176
:1014E400EAFFEE50420AD8B435D77AC1E9FF7BC18E
:1014F400EAFFEE506F0AD8B447D77AC1E9FF7BC13F
:10150400EAFFEE504F0AD8B43FD77AC1E9FF7BC156
:10151400EAFFEE50630AD8B452D77AC1E9FF7BC11F
:10152400EAFFEE50430AD8B44AD77AC1E9FF7BC137
:10153400EAFFEE50700AD8B45DD77AC1E9FF7BC1E7
:10154400EAFFEE50500AD8B455D77AC1E9FF7BC1FF
:10155400EAFFEE50670A92E07AC1E9FF7BC1EAFF35
:10156400EE50470A8BE0494B4A2BE2D6B5D6FFD75B
:1015CA0010EE25F0560E006E010E016E740EF66EC8
:0E15DA00150EF76E000EF86E03EC08F012000E
:0C157400777269746520616C6C0D0A00D0
:0E158000777269746520656C626F770D0A00E2
:10158E00777269746520677269707065720D0A00F2
:10159E0077726974652073686F756C6465720D0A75
:0115AE00003C
:0215AF003B00FF
:0215B1003B00FD
:0D15B300777269746520626173650D0A002E
:0815C00053746172740D0A00FE
:0115C8000022
:0115C9000021
:020000040030CA
:0D000100220F0EFF0181FF0FC00FE00F4026
:00000001FF
