:04000000B1EF02F06A
:020006001200E6
:1000080000C016F001C015F0F2A007D0D8D91B52D5
:10001800010ED8A4000E1B6EF29016C000F015C099
:0400280001F01100D2
:10002C000134083609360450085E0550D8A0053C4A
:10003C00095E003601360F0E0C6E01340836093697
:10004C00045000A006D0085E0550D8A0053C095EFF
:10005C0005D008260550D8B0053C092600360136D7
:10006C000C2EEBD700B006D0045008260550D8B0A3
:08007C00053C092600001200FA
:100084000B6A0A6A096A00500402F4CF09F0F3CF3C
:1000940008F001500502F4CF0BF0F3CF0AF0005042
:1000A4000502F3500926F4500A22E86A0B22015093
:1000B4000402F3500926F4500A22E86A0B2208C00D
:1000C40000F009C001F00AC002F00BC003F01200F6
:0200D400120018
:1000D6000450000A08E10550000A05E1FF0E006E13
:1000E6007F0E016E57D00D6A096A086A015000102A
:1000F600D8B4000C015005180A6E0ABE0D1E0B6A14
:1001060005AE05D0041E051E042AD8B4052A01AE84
:1001160005D0001E011E002AD8B4012A0150051080
:100126000A6E0ABE10D07FDF0BB020D00DAE000CD9
:10013600001E011E002AD8B4012A081E091E082A1C
:10014600D8B4092A000C05AE0DD001BE07D0015067
:10015600096E0050086E016A006AE8D7016A006AF3
:10016600002A000C011E001E0B2ADDD7082AD8B46F
:10017600092A0450085CD8A4D9D70550095CD8A42C
:10018600D5D7096A086A002AD8B4012A01AECED7A3
:060196000000FF0C120046
:10019C00FF0E286EFF0E296E95D026C0E1FF27C0FA
:1001AC00E2FF050EE66EFBD026C0E1FF27C0E2FFA2
:1001BC00060EE66E286A296AF2D026C0E1FF27C037
:1001CC00E2FFE66AECD026C0E1FF27C0E2FF010E99
:1001DC00E66EE5D026C0E1FF27C0E2FF060EE66E14
:1001EC00010E286E000E296EDAD026C0E1FF27C062
:1001FC00E2FF060EE66E020E286E000E296ECFD0C0
:10020C0026C0E1FF27C0E2FF060EE66E030E286E45
:10021C00000E296EC4D026C0E1FF27C0E2FF020EFB
:10022C00E66EBDD026C0E1FF27C0E2FF060EE66EEB
:10023C00040E286E000E296EB2D026C0E1FF27C036
:10024C00E2FF060EE66E050E286E000E296EA7D094
:10025C0026C0E1FF27C0E2FF060EE66E060E286EF2
:10026C00000E296E9CD026C0E1FF27C0E2FF030ED2
:10027C00E66E95D026C0E1FF27C0E2FF060EE66EC3
:10028C00070E286E000E296E8AD026C0E1FF27C00B
:10029C00E2FF060EE66E080E286E000E296E7FD069
:1002AC0026C0E1FF27C0E2FF060EE66E090E286E9F
:1002BC00000E296E74D026C0E1FF27C0E2FF040EA9
:1002CC00E66E6DD0000E251802E1E70E2418D8B4A6
:1002DC0064D7000E251802E1D70E2418D8B464D7C1
:1002EC00000E251802E1B70E2418D8B466D7000EFC
:1002FC00251802E1770E2418D8B465D7000E2518FE
:10030C0002E1EB0E2418D8B465D7000E251802E1D3
:10031C00DB0E2418D8B469D7000E251802E1BB0EE9
:10032C002418D8B46DD7000E251802E17B0E2418C2
:10033C00D8B471D7000E251802E1ED0E2418D8B4EC
:10034C0071D7000E251802E1DD0E2418D8B475D72C
:10035C00000E251802E1BD0E2418D8B479D7000E72
:10036C00251802E17D0E2418D8B47DD7000E25186F
:10037C0002E1EE0E2418D8B47DD7000E251802E148
:10038C00DE0E241882E0000E251802E1BE0E2418A1
:10039C0087E0000E251802E17E0E24188CE028C0A0
:0803AC0000F029C001F012006D
:1003B4000900F5CFE6FF0006FBE10106F9E11200B2
:0203C400120025
:1003C600206A0F0E1F6E040E205C23E21F500F0AD8
:1003D60020E181808182818481862050000AD8B400
:1003E60081902050010AD8B481922050020AD8B4D4
:1003F60081942050030AD8B4819681CF1FF01F3212
:100406001F9E1F321F9E1F321F9E1F321F9E202AB5
:10041600DAD781CF24F0000E256E210E266E000E4F
:10042600276EB9DE00C022F001C023F081908192D0
:10043600819481961B50010AD8A48FD0E1DD21500A
:10044600060A1CE11C50070A19E117C000F018C083
:1004560001F00A0E046E000E056E11DE00C017F0E4
:1004660001C018F0225000262350012200C017F0C8
:1004760001C018F000C01DF001C01EF02150060A90
:1004860008E02150050A05E02150000A02E021C0DB
:100496001CF02150060A1CE11C50070A19E019C07D
:1004A60000F01AC001F00A0E046E000E056EE7DDBC
:1004B60000C019F001C01AF0225000262350012274
:1004C60000C019F001C01AF000C01DF001C01EF0F6
:1004D6002150000A32E11C50010A06E11950172486
:1004E6001D6E1A5018201E6E1C50020A06E1195085
:1004F600175C1D6E1A5018581E6E1C50030A0DE12B
:1005060017C000F018C001F019C004F01AC005F0B9
:10051600B6DD00C01DF001C01EF01C50040A0DE13E
:1005260019C004F01AC005F017C000F018C001F099
:10053600CFDD00C01DF001C01EF02150050A08E104
:10054600176A186A196A1A6A070E1C6E1D6A1E6AED
:0C0556001DC024F01EC025F0BADD12000C
:10056200176A186A196A1A6A010E1B6E070E1C6E48
:10057200060EC16E26DFF28E9388938A938C938E39
:100582009390939293949396819081928194819681
:06059200F286F290FFD793
:020000040030CA
:0D000100220F0EFF0181FF0FC00FE00F4026
:00000001FF
