:0400000054EF07F0C2
:1000080000C016F001C015F0F2A46DD0F29AFF0EF0
:10001800D76EF50ED66EFF0E1E1802E1FF0E1D18E4
:1000280005E1030E006E000E016E04D01DC000F045
:100038001EC001F000C01DF001C01EF02150030ACF
:1000480002E1E80E201805E1010E286E000E296E67
:100058000DD020C000F021C001F00A0E046E000E81
:10006800056E1DDB00C028F001C029F028C020F073
:1000780029C021F0806AAADB00C083FF020E1D247C
:10008800006E00C001F0010E006E015004E0003661
:100098000090FF0FFBD700C080FF010E1D5C006EB3
:1000A800000E1E58016E00C01DF001C01EF0F29433
:1000B800F28A23C000F024C001F025C002F026C057
:1000C80003F0000E046EF50E056E7F0E066E8E0EA2
:1000D800076E41EC05F000C023F001C024F002C017
:1000E80025F003C026F0F2A025D023C004F024C0D8
:1000F80005F025C006F026C007F00A0E006ED70EE0
:10010800016E230E026E790E036EF1DA010ED8B07D
:10011800000E006E005207E08282DEDB236A246A4A
:10012800256A266A01D082922752010ED8A4000EB1
:0E013800276EF29016C000F015C001F0110005
:080146000AAE029E000E120039
:10014E000B820BAEB1EF00F0036802680168006825
:08015E000A360232FF0E120006
:100166000134083609360450085E0550D8A0053C0F
:10017600095E003601360F0E0C6E0134083609365C
:10018600045000A006D0085E0550D8A0053C095EC4
:1001960005D008260550D8B0053C0926003601369C
:1001A6000C2EEBD700B006D0045008260550D8B068
:0801B600053C092600001200BF
:1001BE000B840BAEEAEF00F0010E036E026A016AC9
:0A01CE00006A0A360232FF0E12002A
:0E01D800026A016A006A086A036A000E1200D9
:1001E6000450000A08E10550000A05E1FF0E006E02
:1001F6007F0E016E57D00D6A096A086A0150001019
:10020600D8B4000C015005180A6E0ABE0D1E0B6A02
:1002160005AE05D0041E051E042AD8B4052A01AE73
:1002260005D0001E011E002AD8B4012A015005106F
:100236000A6E0ABE10D094DF0BB020D00DAE000CB3
:10024600001E011E002AD8B4012A081E091E082A0B
:10025600D8B4092A000C05AE0DD001BE07D0015056
:10026600096E0050086E016A006AE8D7016A006AE2
:10027600002A000C011E001E0B2ADDD7082AD8B45E
:10028600092A0450085CD8A4D9D70550095CD8A41B
:10029600D5D7096A086A002AD8B4012A01AECED792
:0602A6000000FF0C120035
:1002AC00FF0E326EFF0E336E95D030C0E1FF31C0C1
:1002BC00E2FF050EE66EFBD030C0E1FF31C0E2FF7D
:1002CC00060EE66E326A336AF2D030C0E1FF31C0FE
:1002DC00E2FFE66AECD030C0E1FF31C0E2FF010E74
:1002EC00E66EE5D030C0E1FF31C0E2FF060EE66EEF
:1002FC00070E326E000E336EDAD030C0E1FF31C023
:10030C00E2FF060EE66E080E326E000E336ECFD094
:10031C0030C0E1FF31C0E2FF060EE66E090E326E10
:10032C00000E336EC4D030C0E1FF31C0E2FF020ECC
:10033C00E66EBDD030C0E1FF31C0E2FF060EE66EC6
:10034C00040E326E000E336EB2D030C0E1FF31C0FD
:10035C00E2FF060EE66E050E326E000E336EA7D06F
:10036C0030C0E1FF31C0E2FF060EE66E060E326EC3
:10037C00000E336E9CD030C0E1FF31C0E2FF030EA3
:10038C00E66E95D030C0E1FF31C0E2FF060EE66E9E
:10039C00010E326E000E336E8AD030C0E1FF31C0D8
:1003AC00E2FF060EE66E020E326E000E336E7FD04A
:1003BC0030C0E1FF31C0E2FF060EE66E030E326E76
:1003CC00000E336E74D030C0E1FF31C0E2FF040E7A
:1003DC00E66E6DD0000E2F1802E1E70E2E18D8B481
:1003EC0064D7000E2F1802E1D70E2E18D8B464D79C
:1003FC00000E2F1802E1B70E2E18D8B466D7000ED7
:10040C002F1802E1770E2E18D8B465D7000E2F18CE
:10041C0002E1EB0E2E18D8B465D7000E2F1802E1AE
:10042C00DB0E2E18D8B469D7000E2F1802E1BB0EC4
:10043C002E18D8B46DD7000E2F1802E17B0E2E1893
:10044C00D8B471D7000E2F1802E1ED0E2E18D8B4C7
:10045C0071D7000E2F1802E1DD0E2E18D8B475D707
:10046C00000E2F1802E1BD0E2E18D8B479D7000E4D
:10047C002F1802E17D0E2E18D8B47DD7000E2F1840
:10048C0002E1EE0E2E18D8B47DD7000E2F1802E123
:10049C00DE0E2E1882E0000E2F1802E1BE0E2E1872
:1004AC0087E0000E2F1802E17E0E2E188CE032C071
:0804BC0000F033C001F0120052
:1004C4000CB0A4EF02F00CA24AEF03F00E6A000E87
:1004D4000264BBEF02F0F00E0214D8A486EF02F01F
:1004E400023A01380F0B02260138F00B016E003876
:1004F4000F0B01260038F00B006E08380F0B002696
:100504000838F00B086E0E84D89002BE9FEF02F0FC
:1005140008360036013602360E2A02BE9FEF02F07C
:1005240008360036013602360E2A02BE9FEF02F06C
:1005340008360036013602360E2A0E50036440EFA8
:1005440003F0035E0BBC08AE45EF03F0D880800EC9
:1005540008640030000E002201220222D8A045EFD8
:1005640003F0023201320032034A4AEF03F045EF4E
:1005740003F001C002F000C001F008C000F0086AF6
:10058400000E0E860264F2EF02F0F00E0214D8A4FC
:10059400DAEF02F0023A01380F0B02260138F00BB1
:1005A400016E00380F0B01260038F00B006E0E842C
:1005B400D89002BE9FEF02F00036013602360E2AB2
:1005C40002BE9FEF02F00036013602360E2A02BE4A
:1005D4009FEF02F00036013602360E2A9FEF02F03A
:1005E40001C002F000C001F0006A000E0E960E88F1
:1005F40002641FEF03F0F00E0214D8A40AEF03F014
:10060400023A01380F0B02260138F00B016E0E84FA
:10061400D89002BE9FEF02F0013602360E2A02BEC7
:100624009FEF02F0013602360E2A02BE9FEF02F05F
:10063400013602360E2A9FEF02F001C002F0016A71
:10064400000E0E8602644FEF03F0F00E0214D8A4DD
:100654002EEF03F0023A0E84D89002BE9FEF02F010
:1006640002360E2A02BE9FEF02F002360E2A02BEA6
:100674009FEF02F002360E2A9FEF02F0010E0C6E7D
:100684009CDD52EF03F0020E0C6E5BDD52EF03F0C3
:10069400040E0C6E5ADD52EF03F0080E0C6E9ADD58
:0206A400120042
:1006A6000B6A0A6A096A00500402F4CF09F0F3CF14
:1006B60008F001500502F4CF0BF0F3CF0AF000501A
:1006C6000502F3500926F4500A22E86A0B2201506B
:1006D6000402F3500926F4500A22E86A0B2208C0E5
:1006E60000F009C001F00AC002F00BC003F01200CE
:1006F6000A6A0350D8A40A800750D8A40A820A506E
:10070600D8B4DEEF03F0030AD8B497EF03F00AB0CB
:1007160092EF03F006AEDCEF03F0DAEF03F002AE81
:10072600DAEF03F0DCEF03F00250800B0A6E029E54
:100736000650800B069E0A18D8B4A8EF03F00A509C
:10074600D8B4DAEF03F0DCEF03F00750035CD8B45B
:10075600B2EF03F0D8A0CEEF03F0D4EF03F00650CB
:10076600025CD8B4BCEF03F0D8A0CEEF03F0D4EF10
:1007760003F00550015CD8B4C6EF03F0D8A0CEEF65
:1007860003F0D4EF03F00450005CD8B4DEEF03F0BE
:10079600D8B0D4EF03F00A52D8B4DCEF03F0DAEFA6
:1007A60003F00A52D8B4DAEF03F0DCEF03F0D88096
:0E07B6001200D8901200D880D88412001200D1
:1007C4000900F5CFE6FF0006FBE10106F9E112009E
:1007D40020C004F021C005F019C000F01AC001F0D7
:1007E40000DD0A0E046E000E056EFBDC08C000F08E
:1007F40009C001F000C02AF001C02BF032D03F0E36
:10080400006E000E016E69D0060E006E000E016EC1
:1008140064D05B0E006E000E016E5FD04F0E006E52
:10082400000E016E5AD0660E006E000E016E55D099
:100834006D0E006E000E016E50D07D0E006E000E27
:10084400016E4BD0070E006E000E016E46D07F0E77
:10085400006E000E016E41D06F0E006E000E016E30
:100864003CD0000E2B1802E1000E2A18C8E0000E3E
:100874002B1802E1010E2A18C7E0000E2B1802E122
:10088400020E2A18C6E0000E2B1802E1030E2A18E5
:10089400C5E0000E2B1802E1040E2A18C4E0000E75
:1008A4002B1802E1050E2A18C3E0000E2B1802E1F2
:1008B400060E2A18C2E0000E2B1802E1070E2A18B1
:1008C400C1E0000E2B1802E1080E2A18C0E0000E49
:0C08D4002B1802E1090E2A18BFE01200E8
:1008E0002A6A0F0E226E040E2A5C23E222500F0A9F
:1008F00020E181808182818481862A50000AD8B4D7
:1009000081902A50010AD8B481922A50020AD8B4A0
:1009100081942A50030AD8B4819681CF22F02232E2
:10092000229E2232229E2232229E2232229E2A2A77
:10093000DAD781CF2EF0000E2F6E2B0E306E000E08
:10094000316EB4DC00C02CF001C02DF0819081929A
:10095000819481962750010AD8A492D02B50060A80
:100960001CE11F50070A19E117C000F018C001F080
:100970000A0E046E000E056E96DE00C017F001C070
:1009800018F02C5000262D50012200C017F001C095
:1009900018F000C019F001C01AF02B50060A08E048
:1009A0002B50050A05E02B50000A02E02BC01FF077
:1009B0002B50060A1CE11F50070A19E01BC000F06B
:1009C0001CC001F00A0E046E000E056E6CDE00C045
:1009D0001BF001C01CF02C5000262D50012200C03D
:1009E0001BF001C01CF000C019F001C01AF02B5020
:1009F000000A3BE11F50010A06E11B501724196E43
:100A00001C5018201A6E1F50020A06E11B50175C7A
:100A1000196E1C5018581A6E1F50030A0DE117C0AA
:100A200000F018C001F01BC004F01CC005F03BDE54
:100A300000C019F001C01AF01F50040A0EE11BC0DB
:100A400004F01CC005F017C000F018C001F0F3EC72
:100A500000F000C019F001C01AF019C017F01AC058
:100A600018F01B6A1C6A070E1F6E2B50050A08E15E
:100A7000176A186A1B6A1C6A070E1F6E196A1A6ABF
:020A8000120062
:100A8200025006180E6E086A096A0B6A0350076460
:100A920034EF06F006500A6E068E028E03500B6E7D
:100AA2000750036E000E0B6484EF05F00B50075ED7
:100AB200D8B425EF06F0070E0764F3EF05F0075EE2
:100AC20000C008F001C000F002C001F0026A074E47
:100AD20025EF06F00764C8EF05F0075E00C008F0D6
:100AE20001C000F0016A074E25EF06F00764A6EF89
:100AF20005F0075E00C008F0006A074E25EF06F019
:100B020007648DEF05F00AC002F005C001F004C0D1
:100B120000F0086A51EF07F0030E076498EF05F042
:100B2200075E08380F0B086E074E25EF06F0D890C7
:100B32000832074E25EF06F0D8900832074E25EF0F
:100B420006F0D890083225EF06F0030E0764B7EFDF
:100B520005F0075E08380F0B086E0038F00B082608
:100B620000380F0B006E074E25EF06F0D8900032CA
:100B72000832074E25EF06F0D89000320832074EB1
:100B820025EF06F0D8900032083225EF06F0030E6A
:100B92000764DFEF05F0075E08380F0B086E0038B8
:100BA200F00B082600380F0B006E0138F00B002600
:100BB20001380F0B016E074E25EF06F0D890013277
:100BC20000320832074E25EF06F0D890013200328B
:100BD2000832074E25EF06F0D89001320032083273
:100BE20025EF06F0030E076410EF06F0075E0838E3
:100BF2000F0B086E0038F00B082600380F0B006E42
:100C02000138F00B002601380F0B016E0238F00B91
:100C1200012602380F0B026E074E25EF06F0D89020
:100C22000232013200320832074E25EF06F0D89028
:100C32000232013200320832074E25EF06F0D89018
:100C42000232013200320832096A000E0EAE19EF8A
:100C520007F0081E001E011E021E082A00220122A1
:100C6200022219EF07F00750D8A43AEF06F051EF2D
:100C720007F0096A02C00AF0028E068E0750035C72
:100C8200076ED8B40CEF07F0070E0764DAEF06F030
:100C9200075E0450096E0550046E0650056E066A22
:100CA200074E0CEF07F0070E0764AFEF06F0075E82
:100CB2000450096E0550046E056A074E0CEF07F0EA
:100CC200070E07648DEF06F0075E0450096E046A92
:100CD200074E0CEF07F0070E076474EF06F00AC028
:100CE20002F051EF07F0030E07647FEF06F0075E94
:100CF20009380F0B096E074E0CEF07F0D890093236
:100D0200074E0CEF07F0D8900932074E0CEF07F0B0
:100D1200D89009320CEF07F0030E07649EEF06F03D
:100D2200075E09380F0B096E0438F00B09260438E8
:100D32000F0B046E074E0CEF07F0D8900432093205
:100D4200074E0CEF07F0D89004320932074E0CEF31
:100D520007F0D890043209320CEF07F0030E076453
:100D6200C6EF06F0075E09380F0B096E0438F00B68
:100D7200092604380F0B046E0538F00B04260538DB
:100D82000F0B056E074E0CEF07F0D89005320432B8
:100D92000932074E0CEF07F0D890053204320932BF
:100DA200074E0CEF07F0D8900532043209320CEFEF
:100DB20007F0030E0764F7EF06F0075E09380F0B22
:100DC200096E0438F00B092604380F0B046E05383F
:100DD200F00B042605380F0B056E0638F00B0526BE
:100DE20006380F0B066E074E0CEF07F0D89006324E
:100DF200053204320932074E0CEF07F0D890063262
:100E0200053204320932074E0CEF07F0D890063251
:100E1200053204320932086A000E0EAE19EF07F0ED
:100E2200091E041E051E061E092A04220522062288
:100E320009500826045000220550012206500222C1
:100E42000EBE30EF07F0D8A03FEF07F002320132BA
:100E520000320832033E3FEF07F04BEF07F0D8B005
:100E620045EF07F0000E081E001E011E021E082A92
:100E72000022012202220A7E45EF07F0010E0C6ECB
:100E820062EC02F053EF07F0020E0C6E62EC02F01D
:100E920053EF07F0040E0C6EA7EC00F053EF07F0CF
:060EA200000E0C6E1200B0
:100EA8009AEC07F0D59CD59AD596D584D582D5806D
:100EB800FF0ED76EF50ED66EF284F294F28AF29C8B
:100EC800F28ED58E060EC16EF28E9388938A938C1D
:100ED800938E939093929394939681908192819418
:100EE800819695909592959495969598959A959CB6
:100EF800959E83908392839483968398839A839C08
:100F0800839E9492929492969298929A80948096C4
:0A0F18008098809AF286F290FFD7CD
:100F340010EE17F0110E006E010E016E220EF66E09
:0E0F44000F0EF76E000EF86EE2EC03F01200D6
:020F22000000CD
:020F24000000CB
:020F26000000C9
:020F28000300C4
:010F2A0007BF
:020F2B00E803D9
:010F2D0000C3
:040F2E0000000000BF
:010F320001BD
:020000040030CA
:0D000100220F0EFF0181FF0FC00FE00F4026
:00000001FF
