:0400000052EF07F0C4
:1000080000C016F001C015F0F2A46DD0F29AFF0EF0
:10001800D76EF50ED66EFF0E231802E1FF0E2218DA
:1000280005E1030E006E000E016E04D022C000F040
:1000380023C001F000C022F001C023F02650030ABB
:1000480002E1E80E251805E1010E286E000E296E62
:100058000DD025C000F026C001F00A0E046E000E77
:10006800056E1BDB00C028F001C029F028C025F070
:1000780029C026F0806AA8DB00C083FF020E222474
:10008800006E00C001F0010E006E015004E0003661
:100098000090FF0FFBD700C080FF010E225C006EAE
:1000A800000E2358016E00C022F001C023F0F29424
:1000B800F28A19C000F01AC001F01BC002F01CC07F
:1000C80003F0000E046EF50E056E7F0E066E8E0EA2
:1000D800076E3FEC05F000C019F001C01AF002C02D
:1000E8001BF003C01CF0F2A023D019C004F01AC002
:1000F80005F01BC006F01CC007F00A0E006ED70EF4
:10010800016E230E026E790E036EEFDA010ED8B07F
:10011800000E006E005206E0DDDB196A1A6A1B6ADF
:100128001C6A00D02752010ED8A4000E276EF29048
:0A01380016C000F015C001F0110020
:080142000AAE029E000E12003D
:10014A000B820BAEAFEF00F003680268016800682B
:08015A000A360232FF0E12000A
:100162000134083609360450085E0550D8A0053C13
:10017200095E003601360F0E0C6E01340836093660
:10018200045000A006D0085E0550D8A0053C095EC8
:1001920005D008260550D8B0053C092600360136A0
:1001A2000C2EEBD700B006D0045008260550D8B06C
:0801B200053C092600001200C3
:1001BA000B840BAEE8EF00F0010E036E026A016ACF
:0A01CA00006A0A360232FF0E12002E
:0E01D400026A016A006A086A036A000E1200DD
:1001E2000450000A08E10550000A05E1FF0E006E06
:1001F2007F0E016E57D00D6A096A086A015000101D
:10020200D8B4000C015005180A6E0ABE0D1E0B6A06
:1002120005AE05D0041E051E042AD8B4052A01AE77
:1002220005D0001E011E002AD8B4012A0150051073
:100232000A6E0ABE10D094DF0BB020D00DAE000CB7
:10024200001E011E002AD8B4012A081E091E082A0F
:10025200D8B4092A000C05AE0DD001BE07D001505A
:10026200096E0050086E016A006AE8D7016A006AE6
:10027200002A000C011E001E0B2ADDD7082AD8B462
:10028200092A0450085CD8A4D9D70550095CD8A41F
:10029200D5D7096A086A002AD8B4012A01AECED796
:0602A2000000FF0C120039
:1002A800FF0E326EFF0E336E95D030C0E1FF31C0C5
:1002B800E2FF050EE66EFBD030C0E1FF31C0E2FF81
:1002C800060EE66E326A336AF2D030C0E1FF31C002
:1002D800E2FFE66AECD030C0E1FF31C0E2FF010E78
:1002E800E66EE5D030C0E1FF31C0E2FF060EE66EF3
:1002F800070E326E000E336EDAD030C0E1FF31C027
:10030800E2FF060EE66E080E326E000E336ECFD098
:1003180030C0E1FF31C0E2FF060EE66E090E326E14
:10032800000E336EC4D030C0E1FF31C0E2FF020ED0
:10033800E66EBDD030C0E1FF31C0E2FF060EE66ECA
:10034800040E326E000E336EB2D030C0E1FF31C001
:10035800E2FF060EE66E050E326E000E336EA7D073
:1003680030C0E1FF31C0E2FF060EE66E060E326EC7
:10037800000E336E9CD030C0E1FF31C0E2FF030EA7
:10038800E66E95D030C0E1FF31C0E2FF060EE66EA2
:10039800010E326E000E336E8AD030C0E1FF31C0DC
:1003A800E2FF060EE66E020E326E000E336E7FD04E
:1003B80030C0E1FF31C0E2FF060EE66E030E326E7A
:1003C800000E336E74D030C0E1FF31C0E2FF040E7E
:1003D800E66E6DD0000E2F1802E1E70E2E18D8B485
:1003E80064D7000E2F1802E1D70E2E18D8B464D7A0
:1003F800000E2F1802E1B70E2E18D8B466D7000EDB
:100408002F1802E1770E2E18D8B465D7000E2F18D2
:1004180002E1EB0E2E18D8B465D7000E2F1802E1B2
:10042800DB0E2E18D8B469D7000E2F1802E1BB0EC8
:100438002E18D8B46DD7000E2F1802E17B0E2E1897
:10044800D8B471D7000E2F1802E1ED0E2E18D8B4CB
:1004580071D7000E2F1802E1DD0E2E18D8B475D70B
:10046800000E2F1802E1BD0E2E18D8B479D7000E51
:100478002F1802E17D0E2E18D8B47DD7000E2F1844
:1004880002E1EE0E2E18D8B47DD7000E2F1802E127
:10049800DE0E2E1882E0000E2F1802E1BE0E2E1876
:1004A80087E0000E2F1802E17E0E2E188CE032C075
:0804B80000F033C001F0120056
:1004C0000CB0A2EF02F00CA248EF03F00E6A000E8F
:1004D0000264B9EF02F0F00E0214D8A484EF02F027
:1004E000023A01380F0B02260138F00B016E00387A
:1004F0000F0B01260038F00B006E08380F0B00269A
:100500000838F00B086E0E84D89002BE9DEF02F002
:1005100008360036013602360E2A02BE9DEF02F082
:1005200008360036013602360E2A02BE9DEF02F072
:1005300008360036013602360E2A0E5003643EEFAE
:1005400003F0035E0BBC08AE43EF03F0D880800ECF
:1005500008640030000E002201220222D8A043EFDE
:1005600003F0023201320032034A48EF03F043EF56
:1005700003F001C002F000C001F008C000F0086AFA
:10058000000E0E860264F0EF02F0F00E0214D8A402
:10059000D8EF02F0023A01380F0B02260138F00BB7
:1005A000016E00380F0B01260038F00B006E0E8430
:1005B000D89002BE9DEF02F00036013602360E2AB8
:1005C00002BE9DEF02F00036013602360E2A02BE50
:1005D0009DEF02F00036013602360E2A9DEF02F042
:1005E00001C002F000C001F0006A000E0E960E88F5
:1005F00002641DEF03F0F00E0214D8A408EF03F01C
:10060000023A01380F0B02260138F00B016E0E84FE
:10061000D89002BE9DEF02F0013602360E2A02BECD
:100620009DEF02F0013602360E2A02BE9DEF02F067
:10063000013602360E2A9DEF02F001C002F0016A77
:10064000000E0E8602644DEF03F0F00E0214D8A4E3
:100650002CEF03F0023A0E84D89002BE9DEF02F018
:1006600002360E2A02BE9DEF02F002360E2A02BEAC
:100670009DEF02F002360E2A9DEF02F0010E0C6E85
:100680009CDD50EF03F0020E0C6E5BDD50EF03F0CB
:10069000040E0C6E5ADD50EF03F0080E0C6E9ADD5E
:0206A000120046
:1006A2000B6A0A6A096A00500402F4CF09F0F3CF18
:1006B20008F001500502F4CF0BF0F3CF0AF000501E
:1006C2000502F3500926F4500A22E86A0B2201506F
:1006D2000402F3500926F4500A22E86A0B2208C0E9
:1006E20000F009C001F00AC002F00BC003F01200D2
:1006F2000A6A0350D8A40A800750D8A40A820A5072
:10070200D8B4DCEF03F0030AD8B495EF03F00AB0D3
:1007120090EF03F006AEDAEF03F0D8EF03F002AE8B
:10072200D8EF03F0DAEF03F00250800B0A6E029E5C
:100732000650800B069E0A18D8B4A6EF03F00A50A2
:10074200D8B4D8EF03F0DAEF03F00750035CD8B463
:10075200B0EF03F0D8A0CCEF03F0D2EF03F00650D5
:10076200025CD8B4BAEF03F0D8A0CCEF03F0D2EF1A
:1007720003F00550015CD8B4C4EF03F0D8A0CCEF6D
:1007820003F0D2EF03F00450005CD8B4DCEF03F0C6
:10079200D8B0D2EF03F00A52D8B4DAEF03F0D8EFB0
:1007A20003F00A52D8B4D8EF03F0DAEF03F0D8809E
:0E07B2001200D8901200D880D88412001200D5
:1007C0000900F5CFE6FF0006FBE10106F9E11200A2
:1007D00025C004F026C005F01DC000F01EC001F0C9
:1007E00000DD0A0E046E000E056EFBDC08C000F092
:1007F00009C001F000C02AF001C02BF032D03F0E3A
:10080000006E000E016E69D0060E006E000E016EC5
:1008100064D05B0E006E000E016E5FD04F0E006E56
:10082000000E016E5AD0660E006E000E016E55D09D
:100830006D0E006E000E016E50D07D0E006E000E2B
:10084000016E4BD0070E006E000E016E46D07F0E7B
:10085000006E000E016E41D06F0E006E000E016E34
:100860003CD0000E2B1802E1000E2A18C8E0000E42
:100870002B1802E1010E2A18C7E0000E2B1802E126
:10088000020E2A18C6E0000E2B1802E1030E2A18E9
:10089000C5E0000E2B1802E1040E2A18C4E0000E79
:1008A0002B1802E1050E2A18C3E0000E2B1802E1F6
:1008B000060E2A18C2E0000E2B1802E1070E2A18B5
:1008C000C1E0000E2B1802E1080E2A18C0E0000E4D
:0C08D0002B1802E1090E2A18BFE01200EC
:1008DC002A6A0F0E246E040E2A5C23E224500F0A9F
:1008EC0020E181808182818481862A50000AD8B4DB
:1008FC0081902A50010AD8B481922A50020AD8B4A5
:10090C0081942A50030AD8B4819681CF24F02432E2
:10091C00249E2432249E2432249E2432249E2A2A6D
:10092C00DAD781CF2EF0000E2F6E2B0E306E000E0C
:10093C00316EB4DC00C02CF001C02DF0819081929E
:10094C00819481962750010AD8A492D02B50060A84
:10095C001CE12150070A19E117C000F018C001F082
:10096C000A0E046E000E056E96DE00C017F001C074
:10097C0018F02C5000262D50012200C017F001C099
:10098C0018F000C01DF001C01EF02B50060A08E044
:10099C002B50050A05E02B50000A02E02BC021F079
:1009AC002B50060A1CE12150070A19E01FC000F069
:1009BC0020C001F00A0E046E000E056E6CDE00C045
:1009CC001FF001C020F02C5000262D50012200C039
:1009DC001FF001C020F000C01DF001C01EF02B5014
:1009EC00000A3BE12150010A06E11F5017241D6E3D
:1009FC00205018201E6E2150020A06E11F50175C71
:100A0C001D6E205018581E6E2150030A0DE117C0A0
:100A1C0000F018C001F01FC004F020C005F03BDE50
:100A2C0000C01DF001C01EF02150040A0EE11FC0D1
:100A3C0004F020C005F017C000F018C001F0F1EC74
:100A4C0000F000C01DF001C01EF01DC017F01EC04C
:100A5C0018F01F6A206A070E216E2B50050A08E158
:100A6C00176A186A1F6A206A070E216E1D6A1E6AB1
:020A7C00120066
:100A7E00025006180E6E086A096A0B6A0350076464
:100A8E0032EF06F006500A6E068E028E03500B6E83
:100A9E000750036E000E0B6482EF05F00B50075EDD
:100AAE00D8B423EF06F0070E0764F1EF05F0075EEA
:100ABE0000C008F001C000F002C001F0026A074E4B
:100ACE0023EF06F00764C6EF05F0075E00C008F0DE
:100ADE0001C000F0016A074E23EF06F00764A4EF91
:100AEE0005F0075E00C008F0006A074E23EF06F01F
:100AFE0007648BEF05F00AC002F005C001F004C0D8
:100B0E0000F0086A4FEF07F0030E076496EF05F04A
:100B1E00075E08380F0B086E074E23EF06F0D890CD
:100B2E000832074E23EF06F0D8900832074E23EF17
:100B3E0006F0D890083223EF06F0030E0764B5EFE7
:100B4E0005F0075E08380F0B086E0038F00B08260C
:100B5E0000380F0B006E074E23EF06F0D8900032D0
:100B6E000832074E23EF06F0D89000320832074EB7
:100B7E0023EF06F0D8900032083223EF06F0030E72
:100B8E000764DDEF05F0075E08380F0B086E0038BE
:100B9E00F00B082600380F0B006E0138F00B002604
:100BAE0001380F0B016E074E23EF06F0D89001327D
:100BBE0000320832074E23EF06F0D8900132003291
:100BCE000832074E23EF06F0D89001320032083279
:100BDE0023EF06F0030E07640EEF06F0075E0838EB
:100BEE000F0B086E0038F00B082600380F0B006E46
:100BFE000138F00B002601380F0B016E0238F00B96
:100C0E00012602380F0B026E074E23EF06F0D89026
:100C1E000232013200320832074E23EF06F0D8902E
:100C2E000232013200320832074E23EF06F0D8901E
:100C3E000232013200320832096A000E0EAE17EF90
:100C4E0007F0081E001E011E021E082A00220122A5
:100C5E00022217EF07F00750D8A438EF06F04FEF37
:100C6E0007F0096A02C00AF0028E068E0750035C76
:100C7E00076ED8B40AEF07F0070E0764D8EF06F038
:100C8E00075E0450096E0550046E0650056E066A26
:100C9E00074E0AEF07F0070E0764ADEF06F0075E8A
:100CAE000450096E0550046E056A074E0AEF07F0F0
:100CBE00070E07648BEF06F0075E0450096E046A98
:100CCE00074E0AEF07F0070E076472EF06F00AC030
:100CDE0002F04FEF07F0030E07647DEF06F0075E9C
:100CEE0009380F0B096E074E0AEF07F0D89009323C
:100CFE00074E0AEF07F0D8900932074E0AEF07F0B9
:100D0E00D89009320AEF07F0030E07649CEF06F045
:100D1E00075E09380F0B096E0438F00B09260438EC
:100D2E000F0B046E074E0AEF07F0D890043209320B
:100D3E00074E0AEF07F0D89004320932074E0AEF39
:100D4E0007F0D890043209320AEF07F0030E076459
:100D5E00C4EF06F0075E09380F0B096E0438F00B6E
:100D6E00092604380F0B046E0538F00B04260538DF
:100D7E000F0B056E074E0AEF07F0D89005320432BE
:100D8E000932074E0AEF07F0D890053204320932C5
:100D9E00074E0AEF07F0D8900532043209320AEFF7
:100DAE0007F0030E0764F5EF06F0075E09380F0B28
:100DBE00096E0438F00B092604380F0B046E053843
:100DCE00F00B042605380F0B056E0638F00B0526C2
:100DDE0006380F0B066E074E0AEF07F0D890063254
:100DEE00053204320932074E0AEF07F0D890063268
:100DFE00053204320932074E0AEF07F0D890063258
:100E0E00053204320932086A000E0EAE17EF07F0F3
:100E1E00091E041E051E061E092A0422052206228C
:100E2E0009500826045000220550012206500222C5
:100E3E000EBE2EEF07F0D8A03DEF07F002320132C2
:100E4E0000320832033E3DEF07F049EF07F0D8B00D
:100E5E0043EF07F0000E081E001E011E021E082A98
:100E6E000022012202220A7E43EF07F0010E0C6ED1
:100E7E0060EC02F051EF07F0020E0C6E60EC02F027
:100E8E0051EF07F0040E0C6EA5EC00F051EF07F0D9
:060E9E00000E0C6E1200B4
:100EA40097EC07F0D59CD59AD596D584D582D58074
:100EB400FF0ED76EF50ED66EF284F294F28AF29C8F
:100EC400F28ED58E060EC16EF28E9388938A938C21
:100ED400938E93909392939493968190819281941C
:100EE400819695909592959495969598959A959CBA
:100EF400959E83908392839483968398839A839C0C
:100F0400839E929492969298929A809480968098D6
:080F1400809AF286F290FFD7EB
:100F2E0010EE17F0110E006E010E016E1C0EF66E15
:0E0F3E000F0EF76E000EF86EE0EC03F01200DE
:020F1C000000D3
:040F1E0000000000CF
:020F22000000CD
:020F24000000CB
:010F260007C3
:020F27000300C5
:010F290000C7
:020F2A00E803DA
:010F2C0001C3
:020000040030CA
:0D000100220F0EFF0181FF0FC00FE00F4026
:00000001FF
