:0400000085EF04F094
:1000080000C018F001C017F00CC016F00DC015F0B4
:10001800F5CF1CF0F8CF19F0F7CF1AF0F6CF1BF098
:10002800F0A004D0DEDA2A6A2B6AF0901CC0F5FF33
:1000380019C0F8FF1AC0F7FF1BC0F6FF18C000F080
:0E00480017C001F016C00CF015C00DF011002D
:100056000F0E0C6E470E0D6E0D2EFED70C2EFCD716
:0600660000000000120082
:06006C000000000012007C
:0A007200210E0D6E0D2EFED71200B8
:10007C00086A096A100E0C6E0134083609360450F1
:10008C00085E0550D8A0053C095ED8B007D00450D6
:10009C0008260550D8B0053C0926D8900036013604
:0600AC000C2EEAD7120041
:1000B2000001A0BF02D0839E01D0838EA0BD02D0DA
:1000C200839C01D0838CA0BB02D0839A01D0838A07
:1000D200A0B902D0839801D0838882B102D08484EF
:1000E20001D084948482C1DF8492A0B702D0839E1F
:1000F20001D0838EA0B502D0839C01D0838CA0B3A3
:1001020002D0839A01D0838AA0B102D0839801D011
:10011200838882B102D0848401D084948482A5DF52
:0E012200849282A102D096DF01D0A2DF1200EB
:1001300000019D6B050E9D5D0AE29D519B25E16EC0
:10014000000E9C21E26E200EE66E9D2BF3D79D5192
:100150009B25E16E000E9C21E26EE66A9D079D5193
:100160009B259E6F000E9C219F6F0A0E046E000E51
:10017000056E99C000F09AC001F080DF08C000F061
:1001800009C001F0300E00269EC0E1FF9FC0E2FFD3
:1001900000C0E6FF0A0E046E000E056E99C000F066
:1001A0009AC001F06BDF00C099F001C09AF0000E18
:1001B000011802E1000E001801E102D09D07CFD71F
:0201C00012002B
:0E01C2000001829199C0A0F073DF82811200CB
:1001D00010D0800E00018F6F1AD0C00E8F6F17D015
:1001E000940E8F6F14D0D40E8F6F11D0800E8F6F3E
:1001F0000ED000018F51010AECE08F51020AEDE0B0
:100200008F51030AEDE08F51040AEDE0EFD790051E
:10021000006E8F51002600C08FF000C0A0F049DFB3
:100220008291936B93519125E96E000E9221EA6EB3
:10023000EE520BE093519125E96E000E9221EA6E89
:0E024000EECF99F0BEDF932BEDD78281120036
:10024E00FF0E0001936FFF0E946F95D091C0E1FFEA
:10025E0092C0E2FF050EE66EFBD091C0E1FF92C0A8
:10026E00E2FF060EE66E936B946BF2D091C0E1FF47
:10027E0092C0E2FFE66AECD091C0E1FF92C0E2FFCD
:10028E00010EE66EE5D091C0E1FF92C0E2FF060ED0
:10029E00E66E070E936F000E946FDAD091C0E1FFF9
:1002AE0092C0E2FF060EE66E080E936F000E946F7C
:1002BE00CFD091C0E1FF92C0E2FF060EE66E090EAE
:1002CE00936F000E946FC4D091C0E1FF92C0E2FF15
:1002DE00020EE66EBDD091C0E1FF92C0E2FF060EA7
:1002EE00E66E040E936F000E946FB2D091C0E1FFD4
:1002FE0092C0E2FF060EE66E050E936F000E946F2F
:10030E00A7D091C0E1FF92C0E2FF060EE66E060E88
:10031E00936F000E946F9CD091C0E1FF92C0E2FFEC
:10032E00030EE66E95D091C0E1FF92C0E2FF060E7D
:10033E00E66E010E936F000E946F8AD091C0E1FFAE
:10034E0092C0E2FF060EE66E020E936F000E946FE1
:10035E007FD091C0E1FF92C0E2FF060EE66E030E63
:10036E00936F000E946F74D091C0E1FF92C0E2FFC4
:10037E00040EE66E6DD0000E901902E1E70E8F1995
:10038E00D8B464D7000E901902E1D70E8F19D8B4E5
:10039E0064D7000E901902E1B70E8F19D8B466D744
:1003AE00000E901902E1770E8F19D8B465D7000EA2
:1003BE00901902E1EB0E8F19D8B465D7000E901983
:1003CE0002E1DB0E8F19D8B469D7000E901902E145
:1003DE00BB0E8F19D8B46DD7000E901902E17B0EAB
:1003EE008F19D8B471D7000E901902E1ED0E8F1946
:1003FE00D8B471D7000E901902E1DD0E8F19D8B462
:10040E0075D7000E901902E1BD0E8F19D8B479D7A9
:10041E00000E901902E17D0E8F19D8B47DD7000E13
:10042E00901902E1EE0E8F19D8B47DD7000E9019F7
:10043E0002E1DE0E8F1982E0000E901902E1BE0E6F
:10044E008F1987E0000E901902E17E0E8F198CE055
:0A045E0093C000F094C001F01200FA
:100468000001956B966B8FC097F090C098F0800E46
:100478009019006E800E005C02E1000E8F5D0BE2A9
:10048800010E956F000E966F8F510008976F90C000
:1004980098F0000E985797C099F098C09AF091C0BC
:1004A8009BF092C09CF040DE060E936F000E946F96
:1004B800000E006E9451005C02E19351000819E2AD
:1004C80093519125E16E94519221E26E010E935D54
:1004D800006E000E9459016E00509125E96E01508E
:1004E8009221EA6EEECFE6FF010E935F000E945B59
:1004F800DFD791C0E1FF92C0E2FF200EE66E955172
:1005080096111AE0936B946B93519125E96E94516F
:100518009221EA6EEE50200A03E1934B942BF4D714
:10052800010E935F000E945B93519125E16E9451F7
:0A0538009221E26E2D0EE66E120015
:100542000900F5CFE6FF0006FBE10106F9E1120022
:10055200969296949598959A959C959E8492849459
:10056200839E839C839A839875DD74DD73DD838A11
:10057200838884827ADD84926DDD848276DD849242
:1005820069DD848272DD849265DD839884826DDD0B
:10059200849260DD848269DD8492839A838E848270
:1005A20064DD849257DD839E838884825EDD84923B
:1005B200839884825ADD84924DDD848256DD849252
:1005C2008388848252DD849245DD839884824DDD66
:1005D2008492838E838C838A8388848246DD84928C
:0805E20039DD000182811200E5
:1005EA0000018D6B8E6B856B040E855D47E281B2CF
:1005FA0045D08188818A818C818E8551000AD8B440
:10060A0081988551010AD8B4819A8551020AD8B4D1
:10061A00819C8551030AD8B4819E026A80B6022A57
:10062A0002C001F001360190006A80B4002A01502C
:10063A000010046E036A80BA032A03C000F0000E99
:10064A00016E0036009001360036009001360050E7
:10065A000412036A81B6032A030E026E03C000F075
:10066A00000E016E025005E0003600900136FF0FC1
:10067A00FAD7005004102D6E852BB6D7040E006EE3
:10068A0081CF8DF0000E8E6F005004E08D338D9F68
:10069A00FF0FFBD7000E8E6F040E026E2DC000F006
:1006AA00000E016E025005E0003600900136FF0F81
:1006BA00FAD700508D118F6F8E510110906F860EF0
:1006CA00916F000E926FBEDD00C087F001C088F006
:1006DA008198819A819C819E2E50010AD8A40FD1BB
:1006EA008651060A50E1000E881902E1000E8719A8
:1006FA0002E1300E896F000E881902E1010E871996
:10070A0002E1310E896F000E881902E1020E871983
:10071A0002E1320E896F000E881902E1030E871971
:10072A0002E1330E896F000E881902E1040E87195F
:10073A0002E1340E896F000E881902E1050E87194D
:10074A0002E1350E896F000E881902E1060E87193B
:10075A0002E1360E896F000E881902E1070E871929
:10076A0002E1370E896F000E881902E1080E871917
:10077A0002E1380E896F000E881902E1090E871905
:10078A0002E1390E896F8651010A02E12B0E896F47
:10079A008651020A02E12D0E896F8651030A02E18F
:1007AA002A0E896F8651040A02E12F0E896F8A6B1D
:1007BA002DC08FF0000E906F320E916F000E926F67
:1007CA004EDE010EA06F70DC010E8F6F010E906F6E
:1007DA002F0E916F000E926FF6DC1E0E026E000E47
:1007EA00036E1D500226D8B0032ADC0E1D24F66EB5
:1007FA00090EF76E000EF722000EF86E000EF822B0
:10080A000900F5CF00F000508919000ED8A4010E96
:10081A00016E0150000A03E1010E006E01D0006A68
:10082A0002C0E1FF03C0E2FF00C0E6FF240E026E31
:10083A00000E036E1D500226D8B0032AD50E1D24C1
:10084A00F66E090EF76E000EF722000EF86E000E15
:10085A00F8220900F5CF00F000508919000ED8A43B
:10086A00010E016E0150000A03E1010E006E01D073
:10087A00006A02C0E1FF03C0E2FF00C0E6FF1D50AC
:10088A00060A2DE18B6B8C6B836B846B800E84194B
:10089A00006E800E005C02E11D50835D17E21E0EA1
:1008AA008325D96E000E8421DA6EDECF00F0005067
:1008BA008B27240E8325D96E000E8421DA6EDECFB3
:1008CA0000F000508C27834B842BE0D78B51060A0B
:1008DA0002E1010E2C6E8C51060AD8B42C6A1D5006
:1008EA00060A02E1026A09D01DC001F01D50010F7B
:1008FA00006E00C01DF001C002F002C01DF012001F
:10090A00F2EC04F0040EC16E1FDED59CD59AD59682
:10091A00D584D582D580FF0ED76E370ED66EF19468
:10092A00F294F28AF28ED58EF08CF086F090938251
:10093A009488948A948C948E928092829398939AB3
:10094A00939C939E8198819A819C819E928492869F
:10095A00928A938694909492949494968290829296
:06096A0082948296FFD783
:1009E40010EE1DF0650E006E010E016E700EF66EB7
:0E09F400090EF76E000EF86EA1EC02F0120074
:010970000086
:0609710000000000000080
:060977000000000000007A
:02097D00000078
:01097F000077
:010980000076
:010981000174
:030982006F69009A
:100985000000000000000000000000000000000062
:100995000000000000000000000000000000000052
:1009A5000000000000000000000000000000000042
:1009B5000000000000000000000000000000000032
:1009C5000000000000000000000000000000000022
:0709D5002B313833302B00F9
:0709DC002A323032352A00F7
:020000040030CA
:0D000100220F0EFF0181FF0FC00FE00F4026
:00000001FF
