:040000009CEF0DF074
:1000080000C018F001C017F00CC016F00DC015F0B4
:10001800F5CF1CF0F8CF19F0F7CF1AF0F6CF1BF098
:10002800F2A45AD0F29AFF0ED76EF50ED66EEFC034
:1000380004F0F0C005F0F1C006F0F2C007F00A0EB7
:10004800006ED70E016E230E026E790E036EB0ECB1
:1000580006F0010ED8B0000E006E005207E0C7ECA3
:1000680007F00001EF6BF06BF16BF26BF294F28A20
:10007800EAC000F0EBC001F0ECC002F0EDC003F004
:10008800000E046EF50E056E7F0E066E8E0E076E60
:1000980089EC0BF000C0EAF001C0EBF002C0ECF014
:1000A80003C0EDF0EFC000F0F0C001F0F1C002F0C5
:1000B800F2C003F0000E046EF50E056E7F0E066E9C
:1000C8008E0E076E89EC0BF000C0EFF001C0F0F067
:1000D80002C0F1F003C0F2F0F2A025D0EAC004F0AB
:1000E800EBC005F0ECC006F0EDC007F00A0E006E9C
:1000F800D70E016E230E026E790E036EB0EC06F079
:10010800010ED8B0000E006E005206E024EC0AF092
:10011800EA6BEB6BEC6BED6B0001D453010ED8A4CA
:10012800000ED46FF2901CC0F5FF19C0F8FF1AC07A
:10013800F7FF1BC0F6FF18C000F017C001F016C08B
:080148000CF015C00DF01100D0
:100150000F0E0C6E470E0D6E0D2EFED70C2EFCD71B
:0601600000000000120087
:0601660000000000120081
:0A016C00210E0D6E0D2EFED71200BD
:100176000101D5BF02D0839E01D0838ED5BD02D0AA
:10018600839C01D0838CD5BB02D0839A01D0838A0D
:10019600D5B902D0839801D083880001F8B102D086
:1001A600848401D084948482DBDF84920101D5B7F4
:1001B60002D0839E01D0838ED5B502D0839C01D018
:1001C600838CD5B302D0839A01D0838AD5B102D06D
:1001D600839801D083880001F8B102D0848401D0CD
:1001E60084948482BDDF8492F8A102D0AEDF01D070
:0401F600BADF12005A
:0E01FA00026A016A006A086A036A000E1200B7
:10020800086A096A100E0C6E013408360936045063
:10021800085E0550D8A0053C095ED8B007D0045048
:1002280008260550D8B0053C0926D8900036013676
:060238000C2EEAD71200B3
:10023E000B840BAE2AEF01F0010E036E026A016A07
:0A024E00006A0A360232FF0E1200A9
:080258000AAE029E000E120026
:100260000B820BAE3AEF01F0036802680168006888
:080270000A360232FF0E1200F3
:100278000101D26B050ED25D0AE2D251D025E16EA2
:10028800000ED121E26E200EE66ED22BF3D7D251AA
:10029800D025E16E000ED121E26EE66AD207D25176
:1002A800D025D36F000ED121D46F0A0E046E000E34
:1002B800056ECEC100F0CFC101F0A2DF08C000F08A
:1002C80009C001F0300E0026D3C1E1FFD4C1E2FF1E
:1002D80000C0E6FF0A0E046E000E056ECEC100F0E7
:1002E800CFC101F08DDF00C0CEF101C0CFF1000E0B
:1002F800011802E1000E001801E102D0D207CFD7A1
:020308001200E1
:08030A000B6A0B86FF0E1200C6
:100312000C6A0E6A0250D8A4A2EF01F001C002F0EA
:1003220000C001F0006A0E860250D8A4A2EF01F0CC
:1003320001C002F0016A0E960E880250D8B4B4EFE2
:1003420001F00E50035ED8A4D8A0B9EF01F0D89006
:1003520002BEBEEF01F0003601360236032EA9EFCF
:1003620001F0B9EF01F0010E0C6E46DFC1EF01F0B2
:10037200020E0C6E63DFC1EF01F0040E0C6E6BDF38
:02038200120067
:0C0384000E0E0D6E0D2EFED700001200B4
:100390000B800BAED4EF01F0026A0AAEFF0E026EC4
:0C03A000016E006E0A360232FF0E1200E1
:0E03AC000001F891CEC1D5F1E0DEF88112001B
:1003BA0010D0800E0101C46F1AD0C00EC46F17D0BE
:1003CA00940EC46F14D0D40EC46F11D0800EC46FB3
:1003DA000ED00101C451010AECE0C451020AEDE059
:1003EA00C451030AEDE0C451040AEDE0EFD7C50594
:1003FA00006EC451002600C0C4F100C0D5F1B6DEBB
:10040A00F8910101C86BC851C625E96E000EC721D3
:10041A00EA6EEE520CE0C851C625E96E000EC721FD
:10042A00EA6EEECFCEF1BDDF0101C82BECD7000199
:04043A00F881120033
:10043E00C4C104F0C5C105F004C0E9FF05C0EAFF60
:10044E00EE5203E0044A052AF7D704C002F005C0B5
:10045E0003F0044A052AC6C100F0C7C101F001012C
:10046E00C64BC72B00C0E9FF01C0EAFF02C0E1FF87
:10047E0003C0E2FFEECFE6FF02C0E9FF03C0EAFFD2
:10048E00EE5201E0E2D7C4C100F0C5C101F0120086
:10049E00C4C104F0C5C105F004C002F005C003F0EC
:1004AE00044A052AC6C100F0C7C101F00101C64BBE
:1004BE00C72B00C0E9FF01C0EAFF02C0E1FF03C085
:1004CE00E2FFEECFE6FF02C0E9FF03C0EAFFEE5205
:0E04DE0001E0E2D7C4C100F0C5C101F0120078
:1004EC000450000A12E10550000A0FE10650000A00
:1004FC000CE10750000A09E1FF0E006EFF0E016EC1
:10050C007F0E026EFF0E036EA4D0086A096A0750B4
:10051C00D8B421EF03F00350D8B425EF03F0025008
:10052C0006180A6E028E068E0E6A02C008F001C012
:10053C000CF000C00DF004500D5E0550D8A0053C29
:10054C000C5E0650D8A0063C085E086A0C6A0D6A60
:10055C00D8A0B8EF02F0D890023201320032083243
:10056C00010E0E6E0750035ED8A0C5EF02F07E0E92
:10057C000E240326D8B029EF03F0CBEF02F07E0E49
:10058C000E240326D8A02DEF03F0180E0B6E0D369B
:10059C000C3608360036013602360E360450005E34
:1005AC000550D8A0053C015E0650D8A0063C025E62
:1005BC0006340E120EA0E6EF02F00D80F1EF02F001
:1005CC00045000260550D8B0053C01260650D8B082
:1005DC00062802260D900B2ECDEF02F017EF03F03C
:1005EC00D8900036013602360E360450005E0550A7
:1005FC00D8A0053C015E0650D8A0063C025E06342D
:10060C000E10010B0D26D8B00C2AD8B4082AD8A489
:10061C0017EF03F008320C320D32032AD8B429EF4D
:10062C0003F00AAE089E0850026E0C50016E0D507D
:10063C00006E2FEF03F0010E62DE2FEF03F0020EBF
:10064C00D6DD2FEF03F0040E05DE2FEF03F0080EBE
:04065C00F0DD1200BB
:100660000B6A0350D8B476EF03F002500A6E028E84
:100670008E0E035E03AE7AEF03F0036C080E035C8C
:10068000D8A055EF03F0036E013602C001F0026AF4
:10069000080E035CD8A055EF03F0036E0136016A23
:1006A0000350D8A4D8905FEF03F00350D8B45FEFA5
:1006B00003F0D89002320132032E59EF03F00BBC45
:1006C00001A06CEF03F0D8A06CEF03F0012AD8B4BE
:1006D000022A02BE89EF03F00AAE8EEF03F0021E7B
:1006E000011E012AD8B4022A8EEF03F0026A016AC1
:1006F0008EEF03F00B800BAE92EF03F0026A0AAEAE
:1007000092EF03F0FF0E026E016E0A36023292EF94
:1007100003F0010E0C6E3CDE94EF03F0000E0C6E45
:1007200094EF03F0FF0E0C6E0150006E0250016E4C
:020730001200B5
:10073200FF0E0101C86FFF0EC96F95D0C6C1E1FF60
:10074200C7C1E2FF050EE66EFBD0C6C1E1FFC7C11D
:10075200E2FF060EE66EC86BC96BF2D0C6C1E1FFBE
:10076200C7C1E2FFE66AECD0C6C1E1FFC7C1E2FF42
:10077200010EE66EE5D0C6C1E1FFC7C1E2FF060E7B
:10078200E66E070EC86F000EC96FDAD0C6C1E1FF70
:10079200C7C1E2FF060EE66E080EC86F000EC96FF3
:1007A200CFD0C6C1E1FFC7C1E2FF060EE66E090E59
:1007B200C86F000EC96FC4D0C6C1E1FFC7C1E2FF56
:1007C200020EE66EBDD0C6C1E1FFC7C1E2FF060E52
:1007D200E66E040EC86F000EC96FB2D0C6C1E1FF4B
:1007E200C7C1E2FF060EE66E050EC86F000EC96FA6
:1007F200A7D0C6C1E1FFC7C1E2FF060EE66E060E34
:10080200C86F000EC96F9CD0C6C1E1FFC7C1E2FF2D
:10081200030EE66E95D0C6C1E1FFC7C1E2FF060E28
:10082200E66E010EC86F000EC96F8AD0C6C1E1FF25
:10083200C7C1E2FF060EE66E020EC86F000EC96F58
:100842007FD0C6C1E1FFC7C1E2FF060EE66E030E0E
:10085200C86F000EC96F74D0C6C1E1FFC7C1E2FF05
:10086200040EE66E6DD0000EC51902E1E70EC41942
:10087200D8B464D7000EC51902E1D70EC419D8B492
:1008820064D7000EC51902E1B70EC419D8B466D7F1
:10089200000EC51902E1770EC419D8B465D7000E4F
:1008A200C51902E1EB0EC419D8B465D7000EC519FB
:1008B20002E1DB0EC419D8B469D7000EC51902E1F2
:1008C200BB0EC419D8B46DD7000EC51902E17B0E58
:1008D200C419D8B471D7000EC51902E1ED0EC419BE
:1008E200D8B471D7000EC51902E1DD0EC419D8B40F
:1008F20075D7000EC51902E1BD0EC419D8B479D757
:10090200000EC51902E17D0EC419D8B47DD7000EC0
:10091200C51902E1EE0EC419D8B47DD7000EC5196F
:1009220002E1DE0EC41982E0000EC51902E1BE0E1C
:10093200C41987E0000EC51902E17E0EC4198CE0CD
:0A094200C8C100F0C9C101F01200A5
:10094C000050086E0150006E016A026A036A0B6A5D
:10095C000C6A960E036E0A6A00C001F008C000F023
:08096C00086A026AD0DC1200E7
:100974000CB0FCEF04F00CA2A4EF05F00E6A000E1C
:10098400026413EF05F0F00E0214D8A4DEEF04F0B5
:10099400023A01380F0B02260138F00B016E0038C1
:1009A4000F0B01260038F00B006E08380F0B0026E1
:1009B4000838F00B086E0E84D89002BEF7EF04F0EE
:1009C40008360036013602360E2A02BEF7EF04F06E
:1009D40008360036013602360E2A02BEF7EF04F05E
:1009E40008360036013602360E2A0E50036498EF9C
:1009F40005F0035E0BBC08AE9EEF05F0D880800EB8
:100A040008640030000E002201220222D8A09EEFCA
:100A140005F0023201320032034AA4EF05F09EEFE2
:100A240005F001C002F000C001F008C000F0086A3F
:100A3400000E0E8602644AEF05F0F00E0214D8A4EC
:100A440032EF05F0023A01380F0B02260138F00BA1
:100A5400016E00380F0B01260038F00B006E0E8477
:100A6400D89002BEF7EF04F00036013602360E2AA3
:100A740002BEF7EF04F00036013602360E2A02BE3B
:100A8400F7EF04F00036013602360E2AF7EF04F0D1
:100A940001C002F000C001F0006A000E0E960E883C
:100AA400026477EF05F0F00E0214D8A462EF05F0AB
:100AB400023A01380F0B02260138F00B016E0E8446
:100AC400D89002BEF7EF04F0013602360E2A02BEB9
:100AD400F7EF04F0013602360E2A02BEF7EF04F0F7
:100AE400013602360E2AF7EF04F001C002F0016A63
:100AF400000E0E860264AAEF05F0F00E0214D8A4CC
:100B040086EF05F0023A0E84D89002BEF7EF04F0A7
:100B140002360E2A02BEF7EF04F002360E2A02BE97
:100B2400F7EF04F002360E2AF7EF04F0010E0C6E14
:100B34001FEC01F0AEEF05F0020E0C6E2CEC01F090
:100B4400AEEF05F0040E0C6E30EC01F0AEEF05F0E4
:0A0B5400080E0C6EFDEC00F012001C
:100B5E00086A096A000E0762036434EF06F0025059
:100B6E0006180A6E075003267E0ED8A0C5EF05F0B4
:100B7E00035ED8B039EF06F0C9EF05F0035ED8A0DA
:100B8E003EEF06F0028E068E02C00EF001C00BF094
:100B9E0000C00DF000500402F4CF0CF0015005021D
:100BAE00F4CF00F0F3CF08F00402F3500C26F4500B
:100BBE000822000E00220D500502F3500C26F450B0
:100BCE000822000E002202500402F3500826F450B0
:100BDE00002202500502016A000E0122F350002687
:100BEE00F45001220D500602F3500826F450002254
:100BFE00026A000E012202220B500602F35000265A
:100C0E00F4500122000E02220E500602F35001266D
:100C1E00F450022202BE1CEF06F0083600360136F2
:100C2E0002360306D8B43EEF06F02FEF06F0D8805A
:100C3E00800E08640030000E002201220222D8A08D
:100C4E002FEF06F0023201320032034A39EF06F07E
:100C5E000AAE029E000E41EF06F0010EFDEC00F012
:100C6E0041EF06F0020E30EC01F041EF06F0040EFB
:060C7E001FEC01F0120062
:100C84000101CA6BCB6BC4C1CCF1C5C1CDF1800EDF
:100C9400C519006E800E005C02E1000EC45D0BE21B
:100CA400010ECA6F000ECB6FC4510008CC6FC5C1D2
:100CB400CDF1000ECD57CCC1CEF1CDC1CFF1C6C11F
:100CC400D0F1C7C1D1F13CEC01F0060EC86F000EA3
:100CD400C96F000E006EC951005C02E1C8510008E2
:100CE40019E2C851C625E16EC951C721E26E010E51
:100CF400C85D006E000EC959016E0050C625E96E2C
:100D04000150C721EA6EEECFE6FF010EC85F000E68
:100D1400C95BDFD7C6C1E1FFC7C1E2FF200EE66EA3
:100D2400CA51CB111AE0C86BC96BC851C625E96E0C
:100D3400C951C721EA6EEE50200A03E1C84BC92B02
:100D4400F4D7010EC85F000EC95BC851C625E16E19
:0C0D5400C951C721E26E2D0EE66E1200A0
:100D60000A6A0350D8A40A800750D8A40A820A50FD
:100D7000D8B413EF07F0030AD8B4CCEF06F00AB0EA
:100D8000C7EF06F006AE11EF07F00FEF07F002AE67
:100D90000FEF07F011EF07F00250800B0A6E029E72
:100DA0000650800B069E0A18D8B4DDEF06F00A50F4
:100DB000D8B40FEF07F011EF07F00750035CD8B479
:100DC000E7EF06F0D8A003EF07F009EF07F00650B1
:100DD000025CD8B4F1EF06F0D8A003EF07F009EFFA
:100DE00007F00550015CD8B4FBEF06F0D8A003EF84
:100DF00007F009EF07F00450005CD8B413EF07F0D8
:100E0000D8B009EF07F00A52D8B411EF07F00FEF8E
:100E100007F00A52D8B40FEF07F011EF07F0D880AF
:0E0E20001200D8901200D880D8841200120060
:100E2E00C26AC00EC212C18CC18EC4C100F000369F
:100E3E00009000360090003600900050C212C28022
:100E4E00C2EC01F0C284C2A401D0FDD7C4CF01F020
:0E0E5E00006AC3500012000E0112C290120072
:100E6C00C4C1E9FFC5C1EAFFEE5211E0C4C1E9FFFC
:100E7C00C5C1EAFFC6C1D9FFC7C1DAFFEE50DE1803
:100E8C0006E10101C44BC52BC64BC72BE9D7C4C126
:100E9C00E9FFC5C1EAFFC6C1D9FFC7C1DAFFDE5001
:0C0EAC00EE5C006E016A000E015A12009C
:100EB800969296949598959A959C959E84928494EA
:100EC800839E839C839A8398A8EC00F0A8EC00F09A
:100ED800A8EC00F0838A83888482B3EC00F08492C3
:100EE800A8EC00F08482B3EC00F08492A8EC00F047
:100EF8008482B3EC00F08492A8EC00F0839884829A
:100F0800B3EC00F08492A8EC00F08482B3EC00F01B
:100F18008492839A838E8482B3EC00F08492A8EC46
:100F280000F0839E83888482B3EC00F084928398D7
:100F38008482B3EC00F08492A8EC00F08482B3ECD5
:100F480000F0849283888482B3EC00F08492A8EC49
:100F580000F083988482B3EC00F08492838E838CB3
:100F6800838A83888482B3EC00F08492A8EC00F032
:060F78000001F8811200E7
:100F7E000900F5CFE6FF0006FBE10106F9E11200DC
:100F8E000101C46B4DDFDBDC000E046EC00E056E7E
:100F9E007F0E066E880E076E76EC02F0000E046E63
:100FAE00000E056E200E066E810E076ED1DD00C09E
:100FBE00E2F001C0E3F002C0E4F003C0E5F0010E80
:100FCE000101C46F2DDFBBDC000E046EC00E056E7A
:100FDE007F0E066E880E076E76EC02F0000E046E23
:100FEE00000E056E200E066E810E076EB1DD00C07E
:100FFE00E6F001C0E7F002C0E8F003C0E9F000013E
:10100E00EE53D8B4A4D10101C26BC36B82B802D027
:10101E00829001D0828082BA02D0829201D08282E6
:10102E0082BC02D0829401D0828482BE02D082968B
:10103E0001D082860101006A82B8002A0050C227C0
:10104E00000EC323006A82BA002A0050C227000E87
:10105E00C323006A82BC002A0050C227000EC3239D
:10106E00006A82BE002A0050C227000EC323000E63
:10107E00046E000E056E000E066E810E076EE2C047
:10108E0000F0E3C001F0E4C002F0E5C003F061DE61
:10109E00000ED8B0010E006E005204E0010E0001E9
:1010AE00F96F02D00001F96BF9510101C227000E50
:1010BE000001F9BFFF0E0101C323E6C004F0E7C033
:1010CE0005F0E8C006F0E9C007F0000E006E000E55
:1010DE00016E400E026E800E036E3BDE010ED8B026
:1010EE00000E006E005204E0010E0001FA6F02D0F5
:1010FE000001FA6BFA510101C225016E000E0001CA
:10110E00FABFFF0E0101C321026E01C0C2F102C07F
:10111E00C3F1800E0218006E800E005C02E1020E1A
:10112E00015C04E3010E0001FB6F02D00001FB6BBA
:10113E00FB534FE0C2C1C4F1C3C1C5F1FC0E0101A6
:10114E00C66F000EC76F97DD000EC46F010EC56F20
:10115E00710EC66F000EC76F1FEC02F0000EC46F4B
:10116E00010EC56FFC0EC66F000EC76F1FEC02F0AE
:10117E00000EC46F010EC56F850EC66F000EC76FD1
:10118E001FEC02F0210EC46F000EC56F000EC66F6D
:10119E00010EC76F64DE005001101AE0010E01014E
:1011AE00D56FBBEC00F0210E0101C46F000EC56FB0
:1011BE00000EC66F010EC76F4FEC02F0010EC46F2A
:1011CE00010EC56F000EC66F010EC76FDDEC01F08C
:1011DE00BDD082A80BD03C0E0101C46F010EC56FAD
:1011EE001D0EC66F000EC76F4FEC02F082AA0BD019
:1011FE0001013C0EC46F010EC56F1F0EC66F000EAF
:10120E00C76F4FEC02F082AC0BD001013C0EC46FE5
:10121E00010EC56F980EC66F000EC76F4FEC02F031
:10122E0082AE0BD001013C0EC46F010EC56FCF0E06
:10123E00C66F000EC76F4FEC02F0000E046E000E6C
:10124E00056E000E066E810E076EE2C000F0E3C062
:10125E0001F0E4C002F0E5C003F07BDD000ED8B073
:10126E00010E006E00520BE001013C0EC46F010E28
:10127E00C56FD10EC66F000EC76F4FEC02F0E6C001
:10128E0004F0E7C005F0E8C006F0E9C007F0000E74
:10129E00006E000E016E400E026E800E036E59DD62
:1012AE00010ED8B0000E006E00520BE001013C0E94
:1012BE00C46F010EC56FCD0EC66F000EC76F4FEC1B
:1012CE0002F00101400EC46F010EC56F9A0EC66F7B
:1012DE00000EC76F1FEC02F0400EC46F010EC56FFB
:1012EE003C0EC66F010EC76F1FEC02F0400EC46FAE
:1012FE00010EC56FC00EC66F000EC76F1FEC02F059
:10130E00210EC46F000EC56F400EC66F010EC76F63
:10131E00A6DD005001101AE0010E0101D56FBBECE5
:10132E0000F0210E0101C46F000EC56F400EC66F96
:10133E00010EC76F4FEC02F0010EC46F010EC56FA8
:10134E00400EC66F010EC76FDDEC01F075D0E2C026
:10135E0000F0E3C001F0E4C002F0E5C003F030ECB1
:10136E0003F000C0C4F101C0C5F1B80E0101C66F93
:10137E00010EC76F80DCE6C000F0E7C001F0E8C0E8
:10138E0002F0E9C003F030EC03F000C0C4F101C07C
:10139E00C5F1BD0EC66F010EC76F6DDC7C0EC46F3E
:1013AE00010EC56FB80EC66F010EC76F1FEC02F0AF
:1013BE007C0EC46F010EC56FF30EC66F000EC76FA5
:1013CE001FEC02F07C0EC46F010EC56FBD0EC66F12
:1013DE00010EC76F1FEC02F07C0EC46F010EC56FBD
:1013EE00F60EC66F000EC76F1FEC02F0210EC46F13
:1013FE00000EC56F7C0EC66F010EC76F30DD00503C
:10140E0001101AE0010E0101D56FBBEC00F0210EA8
:10141E000101C46F000EC56F7C0EC66F010EC76F43
:10142E004FEC02F0010EC46F010EC56F7C0EC66F3D
:0A143E00010EC76FDDEC01F0120093
:101448000001FE6B0F0ED36F040EFE5D25E2D35133
:101458000F0A22E18180818281848186FE51000AFF
:10146800D8B48190FE51010AD8B48192FE51020A83
:10147800D8B48194FE51030AD8B4819681CF00F084
:101488000032009E0032009E0032009E0032009E14
:1014980000C0D3F0FE2BD8D781CFC4F1000E0101D4
:1014A800C56FFF0EC66F000EC76F99EC03F000C042
:1014B80001F101C002F1819081928194819600012D
:1014C800D451010AD8A420D1FF51060AD8A464D067
:1014D800000E0101021902E1000E011903E1970E45
:1014E8000001DB6F000E0101021902E1010E011972
:1014F80003E1990E0001DB6F000E0101021902E100
:10150800020E011903E1930E0001DB6F000E0101C9
:10151800021902E1030E011903E1950E0001DB6FC8
:10152800000E0101021902E1040E011903E19F0EE8
:101538000001DB6F000E0101021902E1050E01191D
:1015480003E1A10E0001DB6F000E0101021902E1A7
:10155800060E011903E19B0E0001DB6F000E01016D
:10156800021902E1070E011903E19D0E0001DB6F6C
:10157800000E0101021902E1080E011903E1910EA2
:101588000001DB6F000E0101021902E1090E0119C9
:1015980003E1890E0001DB6F0001FF51010A02E13E
:1015A800060EDB6FFF51020A02E18B0EDB6FFF5163
:1015B800030A02E18F0EDB6FFF51040A02E18D0E70
:1015C800DB6FD50E026E000E036EDB510226D8B01B
:1015D800032A7B0EDB25F66E1C0EF76E000EF72233
:1015E800000EF86E000EF8220900F5CF00F000504A
:1015F80001010319000ED8A4010E016E0150000A62
:1016080004E1010E0001F96F02D00001F96B02C07C
:10161800E1FF03C0E2FFF9C0E6FFDC0E026E000E38
:10162800036EDB510226D8B0032A820EDB25F66E44
:101638001C0EF76E000EF722000EF86E000EF82250
:101648000900F5CF00F0005001010319000ED8A4DD
:10165800010E016E0150000A04E1010E0001FA6F4B
:1016680002D00001FA6B02C0E1FF03C0E2FFFAC03A
:10167800E6FFDB51060A37E10101006B056B00014B
:10168800FB6BFC6B800EFC19006E800E005C02E1A7
:10169800DB51FB5D1BE2D50EFB25D96E000EFC214C
:1016A800DA6EDECF00F0005001010027DC0E0001E9
:1016B800FB25D96E000EFC21DA6EDECF00F000505B
:1016C800010105270001FB4BFC2BDCD70101005170
:1016D800060A03E1010E0001EE6F01010551060A39
:1016E80002E10001EE6B0001DB51060A02E1FD6B2D
:1016F80009D0DBC001F0DB51010F006E00C0DBF048
:0A17080001C0FDF0FDC0DBF012008F
:10171200025006180E6E086A096A0B6A03500764C3
:101722007CEF0CF006500A6E068E028E03500B6E92
:101732000750036E000E0B64CCEF0BF00B50075EEC
:10174200D8B46DEF0CF0070E07643BEF0CF0075EA8
:1017520000C008F001C000F002C001F0026A074EAA
:101762006DEF0CF0076410EF0CF0075E00C008F09C
:1017720001C000F0016A074E6DEF0CF00764EEEF56
:101782000BF0075E00C008F0006A074E6DEF0CF028
:101792000764D5EF0BF00AC002F005C001F004C0E7
:1017A20000F0086A99EF0DF0030E0764E0EF0BF00A
:1017B200075E08380F0B086E074E6DEF0CF0D890DD
:1017C2000832074E6DEF0CF0D8900832074E6DEFDD
:1017D2000CF0D89008326DEF0CF0030E0764FFEFA7
:1017E2000BF0075E08380F0B086E0038F00B082666
:1017F20000380F0B006E074E6DEF0CF0D8900032E0
:101802000832074E6DEF0CF0D89000320832074EC6
:101812006DEF0CF0D890003208326DEF0CF0030E31
:10182200076427EF0CF0075E08380F0B086E0038CC
:10183200F00B082600380F0B006E0138F00B002663
:1018420001380F0B016E074E6DEF0CF0D89001328C
:1018520000320832074E6DEF0CF0D89001320032A0
:101862000832074E6DEF0CF0D89001320032083288
:101872006DEF0CF0030E076458EF0CF0075E0838AA
:101882000F0B086E0038F00B082600380F0B006EA5
:101892000138F00B002601380F0B016E0238F00BF5
:1018A200012602380F0B026E074E6DEF0CF0D89036
:1018B2000232013200320832074E6DEF0CF0D8903E
:1018C2000232013200320832074E6DEF0CF0D8902E
:1018D2000232013200320832096A000E0EAE61EFA6
:1018E2000DF0081E001E011E021E082A00220122FF
:1018F200022261EF0DF00750D8A482EF0CF099EFAD
:101902000DF0096A02C00AF0028E068E0750035CCF
:10191200076ED8B454EF0DF0070E076422EF0DF0F6
:10192200075E0450096E0550046E0650056E066A85
:10193200074E54EF0DF0070E0764F7EF0CF0075E49
:101942000450096E0550046E056A074E54EF0DF0FF
:10195200070E0764D5EF0CF0075E0450096E046AA7
:10196200074E54EF0DF0070E0764BCEF0CF00AC0EF
:1019720002F099EF0DF0030E0764C7EF0CF0075E5B
:1019820009380F0B096E074E54EF0DF0D89009324B
:10199200074E54EF0DF0D8900932074E54EF0DF078
:1019A200D890093254EF0DF0030E0764E6EF0CF005
:1019B200075E09380F0B096E0438F00B092604384C
:1019C2000F0B046E074E54EF0DF0D890043209321B
:1019D200074E54EF0DF0D89004320932074E54EFFF
:1019E2000DF0D8900432093254EF0DF0030E076463
:1019F2000EEF0DF0075E09380F0B096E0438F00B7D
:101A0200092604380F0B046E0538F00B042605383E
:101A12000F0B056E074E54EF0DF0D89005320432CD
:101A22000932074E54EF0DF0D890053204320932D4
:101A3200074E54EF0DF0D89005320432093254EFBC
:101A42000DF0030E07643FEF0DF0075E09380F0B30
:101A5200096E0438F00B092604380F0B046E0538A2
:101A6200F00B042605380F0B056E0638F00B052621
:101A720006380F0B066E074E54EF0DF0D890063263
:101A8200053204320932074E54EF0DF0D890063277
:101A9200053204320932074E54EF0DF0D890063267
:101AA200053204320932086A000E0EAE61EF0DF003
:101AB200091E041E051E061E092A042205220622EC
:101AC2000950082604500022055001220650022225
:101AD2000EBE78EF0DF0D8A087EF0DF00232013282
:101AE20000320832033E87EF0DF093EF0DF0D8B0CD
:101AF2008DEF0DF0000E081E001E011E021E082AA8
:101B02000022012202220A7E8DEF0DF0010E0C6EE0
:101B1200BAEC04F09BEF0DF0020E0C6EBAEC04F07E
:101B22009BEF0DF0040E0C6E30EC01F09BEF0DF00C
:061B3200000E0C6E120013
:101B380052EC0EF05CEC07F0D59CD59AD596D5847E
:101B4800D582D580FF0ED76EF50ED66EF284F2944C
:101B5800F28AF29CF28ED58E040EC16E9488948A15
:101B6800948C948E92809282F28EF286F290938870
:101B7800938A938C938E9390939293949396819057
:101B88008192819481969490949294949496829060
:081B9800829282948296FFD72D
:101CA40010EE1DF0DB0E006E010E016EA00EF66E3E
:0E1CB4001B0EF76E000EF86EBFEC07F012006C
:020006002B00CD
:021BA000310012
:021BA20032000F
:101BA4000000000000000000000000000000000031
:101BB4000000000000000000000000000000000021
:101BC4000000000000000000000000000000000011
:101BD4000000000000000000000000000000000001
:101BE40000000000000000000000000000000000F1
:101BF400416C6572746120646520696E74727573DA
:041C04006F2E20001F
:101C08002073656E736F72657320617469766164A1
:031C18006F7300E7
:021C1B00330094
:101C1D00416C6572746120646520706F73736976B1
:101C2D00656C20696E747275736F206F75207365A6
:061C3D006E736F722000BF
:0D1C430020636F6D206465666569746F0035
:021C500036005C
:021C520034005C
:021C5400350059
:011C5600008D
:011C5700018B
:061C580000000000000086
:011C5E000085
:061C5F000000000000007F
:041C6500000000007B
:041C69000000000077
:041C6D000000000073
:011C71000072
:041C7200000000006E
:031C7600562000F5
:021C7900560013
:071C7B002A323032352A0045
:071C82002B313833302B0039
:021C8900390020
:021C8B002D002A
:021C8D002F0026
:021C8F002A0029
:021C9100380019
:021C930032001D
:021C950033001A
:021C970030001B
:021C9900310018
:021C9B00360011
:021C9D0037000E
:021C9F0034000F
:021CA10035000C
:020000040030CA
:0D000100220F0EFF0181FF0FC00FE00F4026
:00000001FF
