:04000000DBEF0BF037
:1000080000C018F001C017F00CC016F00DC015F0B4
:10001800F5CF1CF0F8CF19F0F7CF1AF0F6CF1BF098
:10002800F0A00BD04CEC0AF0150EB36E9F0EB26E1A
:10003800A192A082B180F096F090A1A205D0A192E1
:10004800A092B190F086F090F2A407D0FC0ED76E83
:10005800170ED66EE2EC07F0F2941CC0F5FF19C03B
:10006800F8FF1AC0F7FF1BC0F6FF18C000F017C052
:0C00780001F016C00CF015C00DF01100D6
:0600840000000000120064
:10008A000F0E0C6E470E0D6E0D2EFED70C2EFCD7E2
:06009A000000000012004E
:0A00A000210E0D6E0D2EFED712008A
:1000AA000B840BAE60EF00F0010E036E026A016A68
:0A00BA00006A0A360232FF0E12003F
:1000C400086A096A100E0C6E0134083609360450A9
:1000D400085E0550D8A0053C095ED8B007D004508E
:1000E40008260550D8B0053C0926D89000360136BC
:0600F4000C2EEAD71200F9
:1000FA000B820BAE87EF00F00368026801680068A4
:08010A000A360232FF0E12005A
:100112000001C9BF02D0839E01D0838EC9BD02D027
:10012200839C01D0838CC9BB02D0839A01D0838A7D
:10013200C9B902D0839801D083888DB102D084845A
:1001420001D0849484829DDF8492C9B702D0839EB9
:1001520001D0838EC9B502D0839C01D0838CC9B3F0
:1001620002D0839A01D0838AC9B102D0839801D088
:1001720083888DB102D0848401D08494848281DF0B
:0E01820084928DA102D080DF01D089DF1200AF
:0E019000026A016A006A086A036A000E120021
:08019E000AAE029E000E1200E1
:1001A6000A6A0350D8A40A800750D8A40A820A50C3
:1001B600D8B436EF01F0030AD8B4EFEF00F00AB076
:1001C600EAEF00F006AE34EF01F032EF01F002AED6
:1001D60032EF01F034EF01F00250800B0A6E029EFE
:1001E6000650800B069E0A18D8B400EF01F00A509C
:1001F600D8B432EF01F034EF01F00750035CD8B405
:100206000AEF01F0D8A026EF01F02CEF01F006501E
:10021600025CD8B414EF01F0D8A026EF01F02CEF61
:1002260001F00550015CD8B41EEF01F0D8A026EF0E
:1002360001F02CEF01F00450005CD8B436EF01F069
:10024600D8B02CEF01F00A52D8B434EF01F032EFF7
:1002560001F00A52D8B432EF01F034EF01F0D88041
:0E0266001200D8901200D880D8841200120026
:100274000C6A0E6A0250D8A453EF01F001C002F0D8
:1002840000C001F0006A0E860250D8A453EF01F0BA
:1002940001C002F0016A0E960E880250D8B465EFD0
:1002A40001F00E50035ED8A4D8A06AEF01F0D890F4
:1002B40002BE6FEF01F0003601360236032E5AEF0C
:1002C40001F06AEF01F0010E0C6E60DF72EF01F0D5
:1002D400020E0C6EE8DE72EF01F0040E0C6E5DDFB0
:0202E400120006
:1002E6000001C66B050EC65D0AE2C651C425E16E65
:1002F600000EC521E26E200EE66EC62BF3D7C65160
:10030600C425E16E000EC521E26EE66AC607C65137
:10031600C425C76F000EC521C86F0A0E046E000EF5
:10032600056EC2C000F0C3C001F0C9DE08C000F00F
:1003360009C001F0300E0026C7C0E1FFC8C0E2FFC9
:1003460000C0E6FF0A0E046E000E056EC2C000F085
:10035600C3C001F0B4DE00C0C2F001C0C3F0000E9D
:10036600011802E1000E001801E102D0C607CFD73E
:02037600120073
:10037800086A096A000E0762036441EF02F002503E
:1003880006180A6E075003267E0ED8A0D2EF01F099
:10039800035ED8B045EF02F0D6EF01F0035ED8A0B7
:1003A80049EF02F0028E068E02C00EF001C00BF07B
:1003B80000C00DF000500402F4CF0CF0015005020B
:1003C800F4CF00F0F3CF08F00402F3500C26F450F9
:1003D8000822000E00220D500502F3500C26F4509E
:1003E8000822000E002202500402F3500826F4509E
:1003F800002202500502016A000E0122F350002675
:10040800F45001220D500602F3500826F450002241
:10041800026A000E012202220B500602F350002647
:10042800F4500122000E02220E500602F35001265B
:10043800F450022202BE29EF02F0083600360136D7
:1004480002360306D8B449EF02F03CEF02F0D88038
:10045800800E08640030000E002201220222D8A07B
:100468003CEF02F0023201320032034A45EF02F05B
:100478000AAE029E000E4BEF02F0010E85DE4BEF36
:1004880002F0020E36DE4BEF02F0040E0ADE120016
:10049800086A080E0C6E003408360450085ED8B09E
:0E04A80002D00826D89000360C2EF5D7120090
:1004B600C2C004F0C3C005F004C002F005C003F0DA
:1004C600044A052AC4C000F0C5C001F00001C44BAF
:1004D600C52B00C0E9FF01C0EAFF02C0E1FF03C06F
:1004E600E2FFEECFE6FF02C0E9FF03C0EAFFEE52ED
:0E04F60001E0E2D7C2C000F0C3C001F0120066
:0E05040000018D91C2C0C9F002DE8D8112008F
:0C0512000E0E0D6E0D2EFED70000120024
:08051E000B6A0B86FF0E1200B0
:10052600B4C004F0B5C005F004C0E9FF05C0EAFF99
:10053600EE5203E0044A052AF7D704C002F005C0CC
:1005460003F0044A052AB6C000F0B7C001F0000166
:10055600B64BB72B00C0E9FF01C0EAFF02C0E1FFBE
:1005660003C0E2FFEECFE6FF02C0E9FF03C0EAFFE9
:10057600EE5201E0E2D7B4C000F0B5C001F01200BF
:10058600C26AC00EC212C18CC18EB4C000F0003661
:10059600009000360090003600900050C212C280D3
:1005A600B5DFC284C2A401D0FDD7C4CF01F0006A72
:0C05B600C3500012000E0112C29012008F
:1005C2000900F5CFE6FF0006FBE10106F9E11200A2
:1005D2000050086E0150006E016A026A036A0B6ADB
:1005E2000C6A960E036E0A6A00C001F008C000F0A1
:0805F200086A026A3EDE1200F5
:1005FA00FF0E0001B86FFF0EB96F95D0B6C0E1FFCC
:10060A00B7C0E2FF050EE66EFBD0B6C0E1FFB7C089
:10061A00E2FF060EE66EB86BB96BF2D0B6C0E1FF28
:10062A00B7C0E2FFE66AECD0B6C0E1FFB7C0E2FFAE
:10063A00010EE66EE5D0B6C0E1FFB7C0E2FF060ED6
:10064A00E66E010EB86F000EB96FDAD0B6C0E1FFE0
:10065A00B7C0E2FF060EE66E020EB86F000EB96F63
:10066A00CFD0B6C0E1FFB7C0E2FF060EE66E030EBA
:10067A00B86F000EB96FC4D0B6C0E1FFB7C0E2FFD1
:10068A00020EE66EBDD0B6C0E1FFB7C0E2FF060EAD
:10069A00E66E040EB86F000EB96FB2D0B6C0E1FFB5
:1006AA00B7C0E2FF060EE66E050EB86F000EB96F10
:1006BA00A7D0B6C0E1FFB7C0E2FF060EE66E060E8F
:1006CA00B86F000EB96F9CD0B6C0E1FFB7C0E2FFA9
:1006DA00030EE66E95D0B6C0E1FFB7C0E2FF060E84
:1006EA00E66E070EB86F000EB96F8AD0B6C0E1FF8A
:1006FA00B7C0E2FF060EE66E080EB86F000EB96FBD
:10070A007FD0B6C0E1FFB7C0E2FF060EE66E090E63
:10071A00B86F000EB96F74D0B6C0E1FFB7C0E2FF80
:10072A00040EE66E6DD0000EB51902E1E70EB4199B
:10073A00D8B464D7000EB51902E1D70EB419D8B4EB
:10074A0064D7000EB51902E1B70EB419D8B466D74A
:10075A00000EB51902E1770EB419D8B465D7000EA8
:10076A00B51902E1EB0EB419D8B465D7000EB51964
:10077A0002E1DB0EB419D8B469D7000EB51902E14B
:10078A00BB0EB419D8B46DD7000EB51902E17B0EB1
:10079A00B419D8B471D7000EB51902E1ED0EB41927
:1007AA00D8B471D7000EB51902E1DD0EB419D8B468
:1007BA0075D7000EB51902E1BD0EB419D8B479D7B0
:1007CA00000EB51902E17D0EB419D8B47DD7000E1A
:1007DA00B51902E1EE0EB419D8B47DD7000EB519D9
:1007EA0002E1DE0EB41982E0000EB51902E1BE0E76
:1007FA00B41987E0000EB51902E17E0EB4198CE037
:0A080A00B8C000F0B9C001F0120000
:1008140010D0800E0001B46F1AD0C00EB46F17D080
:10082400940EB46F14D0D40EB46F11D0800EB46F84
:100834000ED00001B451010AECE0B451020AEDE01B
:10084400B451030AEDE0B451040AEDE0EFD7B50565
:10085400006EB451002600C0B4F000C0C9F057DCEB
:100864008D91B86BB851B625E96E000EB721EA6ECA
:10087400EE520BE0B851B625E96E000EB721EA6ED0
:0E088400EECFC2F03DDEB82BEDD78D81120015
:100892000001C06BC16BB4C0BCF0B5C0BDF0B6C046
:1008A200BEF0B7C0BFF0BF51FF0A08E1BE51FF0A58
:1008B20005E1BD51FF0A02E1BC51FF0A0CE1B8C0DB
:1008C200C2F0B9C0C3F04F0EC46F000EC56FF2DDA7
:1008D200030E006EE6D1010EBA6FBEAF0ED0800ECF
:1008E200BE19006E00C0BEF0BA2BB8C0E1FFB9C09D
:1008F200E2FF2D0EE66EB84BB92B000E006EBF194B
:1009020008E10050BE1905E10050BD1902E1BC51D9
:10091200000A0BE1B8C0C2F0B9C0C3F0530EC46FF5
:10092200000EC56FC7DD006ABCD1BF51FF0A08E1E6
:10093200BE51000A05E1BD51000A02E1BC51000AA4
:100942000CE1B8C0C2F0B9C0C3F0890EC46F000E8A
:10095200C56FB0DDBAC000F0A4D1000E046E000E67
:10096200056E000E066E7F0E076EBCC000F0BDC0A5
:1009720001F0BEC002F0BFC003F014DC010ED8B01B
:10098200000E006E00521BE0BCC000F0BDC001F0C2
:10099200BEC002F0BFC003F0000E046E000E056E72
:1009A200200E066E820E076EE6DC00C0BCF001C0AF
:1009B200BDF002C0BEF003C0BFF0C107CED7000E2B
:1009C200046E000E056E200E066E820E076EBCC00F
:1009D20000F0BDC001F0BEC002F0BFC003F0D3EC16
:1009E20000F0000ED8B0010E006E00521BE0BCC039
:1009F20000F0BDC001F0BEC002F0BFC003F0CD0EDA
:100A0200046ECC0E056E4C0E066E7B0E076EB3DCCA
:100A120000C0BCF001C0BDF002C0BEF003C0BFF018
:100A2200C12BCDD7FF0EBC15086EFF0EBD15096E8A
:100A32007F0EBE150A6E000EBF150B6E08C004F0C5
:100A420009C005F00AC006F00BC007F00436049096
:100A5200053606360736000EBC15006E000EBD15B3
:100A6200016E000EBE15026EFF0EBF15036E00C0B2
:100A7200BCF001C0BDF002C0BEF003C0BFF0045024
:100A8200BC11006E0550BD11016E0650BE11026E02
:100A92000750BF11036E00C0BCF001C0BDF002C020
:100AA200BEF003C0BFF07F0EBF5D006E00C0BBF0A2
:100AB200010EBF6F00C004F0BCC000F0BDC001F069
:100AC200BEC002F0BFC003F0045007E00036009041
:100AD200013602360336FF0FF8D700C0BCF001C062
:100AE200BDF002C0BEF003C0BFF0B8C0E1FFB9C0A4
:100AF200E2FFBF51300FE66EB84BB92B800EC11921
:100B0200006E800E010A005C08E3800E060A006E89
:100B1200800EC119005C01E30AD0B8C0E1FFB9C080
:100B2200E2FF2E0EE66EB84BB92B010EC06F060E19
:100B3200BB6FBB51000A54E0BF6BBCC000F0BDC02C
:100B420001F0BEC002F0BFC003F0003600900136D3
:100B52000236033600360090013602360336BC51A7
:100B62000026BD510122BE510222BF51032200C004
:100B7200BCF001C0BDF002C0BEF003C0BFF0BCC0FB
:100B820000F0BDC001F0BEC002F0BFC003F00036ED
:100B9200009001360236033600C0BCF001C0BDF041
:100BA20002C0BEF003C0BFF0B8C0E1FFB9C0E2FFAF
:100BB200BF51300FE66EB84BB92BC051000A0EE19F
:100BC200C107C151000A0AE1B8C0E1FFB9C0E2FFA2
:100BD2002E0EE66EB84BB92B010EC06FBB07A9D71C
:100BE200FF0EB825E96EFF0EB921EA6EEE50300A0B
:100BF20005E1010EB85F000EB95BF2D7FF0EB82512
:100C0200E96EFF0EB921EA6EEE502E0A04E1010EE2
:100C1200B85F000EB95BC151000A3DE0B8C0E1FF08
:100C2200B9C0E2FF650EE66EB84BB92B800EC11952
:100C3200006E800E000A005C0BE2B8C0E1FFB9C092
:100C4200E2FF2D0EE66EB84BB92BC1510008C16F01
:100C5200C1C0BBF0C15109080EE20A0E046EBBC04E
:100C620000F019DCB8C0E1FFB9C0E2FF0050300F5C
:100C7200E66EB84BB92B0A0E046EBBC000F00BDC5B
:100C820008C000F0B8C0E1FFB9C0E2FF0050300F69
:100C9200E66EB84BB92BB8C0E1FFB9C0E2FFE66A15
:040CA200006A1200D2
:100CA6000450000A12E10550000A0FE10650000A3E
:100CB6000CE10750000A09E1FF0E006EFF0E016EFF
:100CC6007F0E026EFF0E036EA8D0086A096A0750EF
:100CD600D8B4FEEF06F00350D8B403EF07F0025085
:100CE60006180A6E028E068E0E6A02C008F001C051
:100CF6000CF000C00DF004500D5E0550D8A0053C68
:100D06000C5E0650D8A0063C085E086A0C6A0D6A9E
:100D1600D8A095EF06F0D8900232013200320832A0
:100D2600010E0E6E0750035ED8A0A2EF06F07E0EEF
:100D36000E240326D8B008EF07F0A8EF06F07E0EC3
:100D46000E240326D8A00DEF07F0180E0B6E0D36F5
:100D56000C3608360036013602360E360450005E72
:100D66000550D8A0053C015E0650D8A0063C025EA0
:100D760006340E120EA0C3EF06F00D80CEEF06F07D
:100D8600045000260550D8B0053C01260650D8B0C0
:100D9600062802260D900B2EAAEF06F0F4EF06F0B9
:100DA600D8900036013602360E360450005E0550E5
:100DB600D8A0053C015E0650D8A0063C025E06346B
:100DC6000E10010B0D26D8B00C2AD8B4082AD8A4C8
:100DD600F4EF06F008320C320D32032AD8B408EFCD
:100DE60007F00AAE089E0850026E0C50016E0D50B8
:100DF600006E10EF07F0010E8FEC02F010EF07F017
:100E0600020EC8EC00F010EF07F0040E7DEC00F0C7
:0C0E160010EF07F0080E55EC00F0120081
:100E22000001BA6BBB6BB4C0BCF0B5C0BDF0800EA4
:100E3200B519006E800E005C02E1000EB45D0BE29B
:100E4200010EBA6F000EBB6FB4510008BC6FB5C083
:100E5200BDF0000EBD57BCC0C2F0BDC0C3F0B6C0ED
:100E6200C4F0B7C0C5F073EC01F0060EB86F000E07
:100E7200B96F000E006EB951005C02E1B851000872
:100E820019E2B851B625E16EB951B721E26E010EF1
:100E9200B85D006E000EB959016E0050B625E96EBC
:100EA2000150B721EA6EEECFE6FF010EB85F000EE9
:100EB200B95BDFD7B6C0E1FFB7C0E2FF200EE66E36
:100EC200BA51BB111AE0B86BB96BB851B625E96ECD
:100ED200B951B721EA6EEE50200A03E1B84BB92BA3
:100EE200F4D7010EB85F000EB95BB851B625E16EBA
:0C0EF200B951B721E26E2D0EE66E120021
:100EFE00969296949598959A959C959E84928494A4
:100F0E00839E839C839A839845EC00F045EC00F019
:100F1E0045EC00F0838A8388848242EC00F0849250
:100F2E0045EC00F0848242EC00F0849245EC00F037
:100F3E00848242EC00F0849245EC00F08398848227
:100F4E0042EC00F0849245EC00F0848242EC00F01A
:100F5E008492839A838E848242EC00F0849245ECD4
:100F6E0000F0839E8388848242EC00F08492839802
:100F7E00848242EC00F0849245EC00F0848242ECD4
:100F8E0000F084928388848242EC00F0849245ECD7
:100F9E0000F08398848242EC00F08492838E838CDE
:100FAE00838A8388848242EC00F0849245EC00F0C0
:060FBE0000018D8112000C
:100FC4000001B46BC3EC02F0E9EC02F0000E046E15
:100FD400C00E056E7F0E066E880E076E62DE000E72
:100FE400046E000E056E200E066E810E076EBCECBC
:100FF40001F000C071F001C072F002C073F003C0D0
:1010040074F0010E0001B46FC3EC02F0E9EC02F0DD
:10101400000E046EC00E056E7F0E066E880E076EFF
:1010240040DE000E046E000E056E200E066E810E6C
:10103400076EBCEC01F000C06DF001C06EF002C0A0
:101044006FF003C070F06552D8B4AAD10101796B76
:101054007A6B82B802D0829001D0828082BA02D0A8
:10106400829201D0828282BC02D0829401D0828496
:1010740082BE02D0829601D082860101006A82B8C3
:10108400002A00507927000E7A23006A82BA002AC7
:1010940000507927000E7A23006A82BC002A00508F
:1010A4007927000E7A23006A82BE002A005079272D
:1010B400000E7A23000E046E000E056E000E066EFE
:1010C400810E076E71C000F072C001F073C002F0AF
:1010D40074C003F0D3EC00F0000ED8B0010E006E23
:1010E400005203E0010E006E01D0006A005079271F
:1010F400000E00BEFF0E7A236DC004F06EC005F032
:101104006FC006F070C007F0000E006E000E016E96
:10111400400E026E800E036ED3EC00F0010ED8B0C8
:10112400000E006E005203E0010E006E01D0006A52
:1011340000507925016E000E00BEFF0E7A21026E6A
:1011440001C079F102C07AF1800E0218006E800E9F
:10115400005C02E1020E015C47E3240EF66E180EF9
:10116400F76E000EF86E010EE16E010EE26E3C0E9B
:10117400006E010E016EE1EC02F079C1B4F07AC1A7
:10118400B5F08E0E0001B66F000EB76F48DE010E8B
:10119400C96F89EC00F0010EB46F010EB56F660ED5
:1011A400B66F000EB76F93EC02F0010EB46F010E30
:1011B400B56F8E0EB66F000EB76F93EC02F0010E92
:1011C400B46F010EB56F010EB66F010EB76F0AEC66
:1011D40004F0020EB46F010EB56F7B0EB66F000EF5
:1011E400B76F0AEC04F0DBD0000E01017A1902E1BA
:1011F400010E7919D8A4BDD0600EF66E180EF76EE4
:10120400000EF86E3D0EE16E010EE26E3C0E006EB5
:10121400010E016EE1EC02F082A80CD0920E0001E6
:10122400C26F000EC36F870EC46F000EC56F5BECF8
:1012340002F071D082AA0CD00001920EC26F000E8F
:10124400C36F790EC46F000EC56F5BEC02F063D000
:1012540082AC0CD00001920EC26F000EC36F750EEB
:10126400C46F000EC56F5BEC02F055D082AE0CD09B
:101274000001920EC26F000EC36F770EC46F000E92
:10128400C56F5BEC02F047D0000E046E000E056ED5
:10129400000E066E810E076E71C000F072C001F080
:1012A40073C002F074C003F0D3EC00F0000ED8B0A9
:1012B400010E006E00520CE00001920EC26F000E8F
:1012C400C36F630EC46F000EC56F5BEC02F023D0D6
:1012D4006DC004F06EC005F06FC006F070C007F07A
:1012E400000E006E000E016E400E026E800E036E44
:1012F400D3EC00F0010ED8B0000E006E00520BE0EB
:101304000001920EC26F000EC36F400EC46F000E38
:10131400C56F5BEC02F00001010EC96F89EC00F0AF
:101324003D0EB46F010EB56F420EB66F000EB76F6F
:1013340093EC02F03D0EB46F010EB56F920EB66FD2
:10134400000EB76F93EC02F0010EB46F010EB56F8F
:101354003D0EB66F010EB76F0AEC04F0020EB46FC7
:10136400010EB56F340EB66F000EB76F0AEC04F0C1
:1013740016D0000E01017A1902E1000E79190FE16D
:10138400010E0001C96F89EC00F0010EB46F010E6B
:10139400B56F1D0EB66F000EB76F0AEC04F079D06E
:1013A400000E046E000E056E000E066E7F0E076EB4
:1013B40071C000F072C001F073C002F074C003F099
:1013C400D3EC00F0010ED8B0000E006E005204E021
:1013D400716A726A736A746A000E046E000E056E96
:1013E400000E066E7F0E076E6DC000F06EC001F039
:1013F4006FC002F070C003F0D3EC00F0010ED8B05F
:10140400000E006E005204E06D6A6E6A6F6A706AC4
:10141400000171C0B4F072C0B5F073C0B6F074C00E
:10142400B7F0960EB86F000EB96F49EC04F06DC0BA
:10143400B4F06EC0B5F06FC0B6F070C0B7F0A50ED2
:10144400B86F000EB96F49EC04F0996BA86B010EEC
:10145400C96F89EC00F0010EB46F010EB56F960EE2
:10146400B66F000EB76F0AEC04F0010EB46F0A0EEB
:10147400B56F200EB66F000EB76F0AEC04F0020EC3
:10148400B46F010EB56FA50EB66F000EB76F0AEC00
:0414940004F012004E
:101498000001986B906B0F0E986F98510F0A48E1F6
:1014A80090C001F0010E006E015004E0003600907B
:1014B800FF0FFBD7001C026E02C000F00036009040
:1014C80000360090003600900036009000C081FF82
:1014D800026A80B8022A02C000F000360090000EAE
:1014E80080B4010E986F00509813036A80BA032ADB
:1014F80003C000F0000E016E003600900136003681
:101508000090013600509813036A81B6032A030E2F
:10151800026E03C000F0000E016E025005E00036B6
:1015280000900136FF0FFAD700509813902BB5D7CB
:10153800040E006E81CFB4F0000EB56F005004E0C9
:10154800B433B49FFF0FFBD7816A98C000F0003610
:101558000090003600900036009000360090005051
:10156800B411B46F000EB56F910EB66F000EB76F61
:10157800FDEC02F000C092F001C093F09151060A10
:1015880050E1000E931902E1000E921902E1300EAB
:10159800946F000E931902E1010E921902E1310EC7
:1015A800946F000E931902E1020E921902E1320EB5
:1015B800946F000E931902E1030E921902E1330EA3
:1015C800946F000E931902E1040E921902E1340E91
:1015D800946F000E931902E1050E921902E1350E7F
:1015E800946F000E931902E1060E921902E1360E6D
:1015F800946F000E931902E1070E921902E1370E5B
:10160800946F000E931902E1080E921902E1380E48
:10161800946F000E931902E1090E921902E1390E36
:10162800946F9151010A02E12B0E946F9151020AB5
:1016380002E12D0E946F9151030A02E12A0E946F74
:101648009151040A02E12F0E946F956B200E5B24D2
:10165800E16E000E5C20E26E94C0E6FF010E5B2492
:10166800006E000E5C20016E940E0024E16E000EE8
:101678000120E26EE66A5D0E5B24026E000E5C20BD
:10168800036E0E0E5B24F66E190E5C20F76E000ECC
:10169800F86E000E5CBEFF0EF8220900F5CF00F0D0
:1016A80000509419000ED8A4010E016E0150000AD2
:1016B80003E1010E006E01D0006A02C0E1FF03C021
:1016C800E2FF00C0E6FF550E5B24026E000E5C20B0
:1016D800036E150E5B24F66E190E5C20F76E000E75
:1016E800F86E000E5CBEFF0EF8220900F5CF00F080
:1016F80000509419000ED8A4010E016E0150000A82
:1017080003E1010E006E01D0006A02C0E1FF03C0D0
:10171800E2FF00C0E6FF000E5C1802E1050E5B1850
:101728002EE1966B976B8E6B8F6B800E5C18006E3C
:10173800800E8F19005C02E18E515B5C17E35D0E31
:101748008E25D96E000E8F21DA6EDECF00F00050A4
:101758009627550E8E25D96E000E8F21DA6EDECFB4
:1017680000F0005097278E4B8F2BDFD79651060A33
:1017780002E1010E656E9751060AD8B4656A000E3B
:101788005C1802E1050E5B1803E1026A036A0AD0DD
:10179800010E5B24006E000E5C20016E00C002F09A
:0E17A80001C003F002C05BF003C05CF0120051
:1017B6008EEC0CF0040EC16E7FEC07F0D59CD59A2A
:1017C600D596D584D582D580FC0ED76E170ED66EEB
:1017D600F294F28AD58EB18EB18CB19AB188B1925B
:1017E600F28EF086F09093829488948A948C948EEC
:1017F600928092829398939A939C939E8198819AD1
:10180600819C819E92849288928A938694909492E7
:0E181600949494968290829282948296FFD748
:10191C0010EE1DF0700E006E010E016E9E0EF66E36
:0E192C00180EF76E000EF86EE1EC02F01200DD
:1018240000000000000000000000000000000000B4
:1018340000000000000000000000000000000000A4
:101844000000000000000000000000000000000094
:0C18540000000000000000000000000088
:101860000000000000000000000000000000000078
:101870000000000000000000000000000000000068
:101880000000000000000000000000000000000058
:0C1890000000000000000000000000004C
:02189C0000004A
:03189E004F4B00AD
:1018A1000000000000000000000000000000000037
:0418B1000000000033
:0C18B50020632F206465666569746F0075
:0218C1003600EF
:0D18C300496E74722E2F73656E732E200017
:0418D0004E614E0017
:0218D4003000E2
:0618D6000000000000000C
:0218DC0000000A
:0618DE0000000000000004
:0218E4003500CD
:0118E6000001
:0718E700496E74722E20000F
:0418EE0000000000F6
:0418F20000000000F2
:0218F6003300BD
:0218F8003400BA
:0218FA003200BA
:0C18FC002073656E732E20617469760005
:021908003100AC
:04190A00494E4600FC
:07190E002A323032352A00B5
:071915002B313833302B00A9
:020000040030CA
:0D000100220F0EFF0181FF0FC00FE00F4026
:00000001FF
