:0400000093EF04F086
:1000080000C018F001C017F00CC016F00DC015F0B4
:10001800F5CF1CF0F8CF19F0F7CF1AF0F6CF1BF098
:10002800F0A009D060DA7F0ECC6EF292F282CA8418
:10003800F096F0902BD0F2A206D0F292F292D594DC
:10004800F086F09023D0F2A421D00001010E926F27
:100058005CD825C081F0000E826F2C0E836F000ED5
:10006800846FB1DB010E816F010E826F2C0E836FDE
:10007800000E846F54EC04F02550010F006E00C090
:1000880025F0B10ED76EDF0ED66EF2941CC0F5FFC8
:1000980019C0F8FF1AC0F7FF1BC0F6FF18C000F020
:0E00A80017C001F016C00CF015C00DF01100CD
:1000B6000F0E0C6E470E0D6E0D2EFED70C2EFCD7B6
:0600C60000000000120022
:0600CC000000000012001C
:0A00D200210E0D6E0D2EFED7120058
:1000DC00086A096A100E0C6E013408360936045091
:1000EC00085E0550D8A0053C095ED8B007D0045076
:1000FC0008260550D8B0053C0926D89000360136A4
:06010C000C2EEAD71200E0
:10011200000192BF02D0839E01D0838E92BD02D095
:10012200839C01D0838C92BB02D0839A01D0838AB4
:1001320092B902D0839801D083887CB002D08484A3
:1001420001D084948482C1DF849292B702D0839ECC
:1001520001D0838E92B502D0839C01D0838C92B35E
:1001620002D0839A01D0838A92B102D0839801D0BF
:1001720083887CB002D0848401D084948482A5DFF9
:0E01820084927CA002D096DF01D0A2DF120092
:1001900000018F6B050E8F5D0AE28F518D25E16E98
:1001A000000E8E21E26E200EE66E8F2BF3D78F515C
:1001B0008D25E16E000E8E21E26EE66A8F078F516B
:1001C0008D25906F000E8E21916F0A0E046E000E29
:1001D000056E8BC000F08CC001F080DF08C000F01D
:1001E00009C001F0300E002690C0E1FF91C0E2FF8F
:1001F00000C0E6FF0A0E046E000E056E8BC000F014
:100200008CC001F06BDF00C08BF001C08CF0000EE1
:10021000011802E1000E001801E102D08F07CFD7CC
:020220001200CA
:10022200FF0E00018F6FFF0E906F95D08DC0E1FF22
:100232008EC0E2FF050EE66EFBD08DC0E1FF8EC0E0
:10024200E2FF060EE66E8F6B906BF2D08DC0E1FF7F
:100252008EC0E2FFE66AECD08DC0E1FF8EC0E2FF05
:10026200010EE66EE5D08DC0E1FF8EC0E2FF060E04
:10027200E66E010E8F6F000E906FDAD08DC0E1FF37
:100282008EC0E2FF060EE66E020E8F6F000E906FBA
:10029200CFD08DC0E1FF8EC0E2FF060EE66E030EE8
:1002A2008F6F000E906FC4D08DC0E1FF8EC0E2FF51
:1002B200020EE66EBDD08DC0E1FF8EC0E2FF060EDB
:1002C200E66E040E8F6F000E906FB2D08DC0E1FF0C
:1002D2008EC0E2FF060EE66E050E8F6F000E906F67
:1002E200A7D08DC0E1FF8EC0E2FF060EE66E060EBD
:1002F2008F6F000E906F9CD08DC0E1FF8EC0E2FF29
:10030200030EE66E95D08DC0E1FF8EC0E2FF060EB1
:10031200E66E070E8F6F000E906F8AD08DC0E1FFE0
:100322008EC0E2FF060EE66E080E8F6F000E906F13
:100332007FD08DC0E1FF8EC0E2FF060EE66E090E91
:100342008F6F000E906F74D08DC0E1FF8EC0E2FF00
:10035200040EE66E6DD0000E8C1902E1E70E8B19C9
:10036200D8B464D7000E8C1902E1D70E8B19D8B419
:1003720064D7000E8C1902E1B70E8B19D8B466D778
:10038200000E8C1902E1770E8B19D8B465D7000ED6
:100392008C1902E1EB0E8B19D8B465D7000E8C19BB
:1003A20002E1DB0E8B19D8B469D7000E8C1902E179
:1003B200BB0E8B19D8B46DD7000E8C1902E17B0EDF
:1003C2008B19D8B471D7000E8C1902E1ED0E8B197E
:1003D200D8B471D7000E8C1902E1DD0E8B19D8B496
:1003E20075D7000E8C1902E1BD0E8B19D8B479D7DE
:1003F200000E8C1902E17D0E8B19D8B47DD7000E48
:100402008C1902E1EE0E8B19D8B47DD7000E8C192F
:1004120002E1DE0E8B1982E0000E8C1902E1BE0EA3
:100422008B1987E0000E8C1902E17E0E8B198CE08D
:0A0432008FC000F090C001F012002E
:0C043C007C908BC092F067DE7C80120088
:10044800969296949598959A959C959E8492849464
:10045800839E839C839A83982ADE29DE28DE838AFA
:10046800838884822FDE849222DE84822BDE84922B
:100478001EDE848227DE84921ADE8398848222DE3E
:10048800849215DE84821EDE8492839A838E84820F
:1004980019DE84920CDE839E8388848213DE849224
:1004A800839884820FDE849202DE84820BDE84923B
:1004B8008388848207DE8492FADD8398848202DE50
:1004C8008492838E838C838A83888482FBDD8492E2
:0604D800EEDD7C80120045
:1004DE000900F5CFE6FF0006FBE10106F9E1120087
:1004EE0000018A6B806B0F0E8A6F8A510F0A48E1EA
:1004FE0080C001F0010E006E015004E00036009045
:10050E00FF0FFBD7001C026E02C000F000360090F9
:10051E0000360090003600900036009000C081FF3B
:10052E00026A80B8022A02C000F000360090000E67
:10053E0080B4010E8A6F00508A13036A80BA032AB0
:10054E0003C000F0000E016E00360090013600363A
:10055E000090013600508A13036A81B6032A030EF7
:10056E00026E03C000F0000E016E025005E0003670
:10057E0000900136FF0FFAD700508A13802BB5D7A3
:10058E00040E006E81CF8BF0000E8C6F005004E0D5
:10059E008B338B9FFF0FFBD7816A8AC000F000362A
:1005AE00009000360090003600900036009000500B
:1005BE008B118B6F000E8C6F830E8D6F000E8E6FF6
:1005CE0029DE00C084F001C085F08351060A50E197
:1005DE00000E851902E1000E841902E1300E866FBD
:1005EE00000E851902E1010E841902E1310E866FAB
:1005FE00000E851902E1020E841902E1320E866F99
:10060E00000E851902E1030E841902E1330E866F86
:10061E00000E851902E1040E841902E1340E866F74
:10062E00000E851902E1050E841902E1350E866F62
:10063E00000E851902E1060E841902E1360E866F50
:10064E00000E851902E1070E841902E1370E866F3E
:10065E00000E851902E1080E841902E1380E866F2C
:10066E00000E851902E1090E841902E1390E866F1A
:10067E008351010A02E12B0E866F8351020A02E1B9
:10068E002D0E866F8351030A02E12A0E866F835167
:10069E00040A02E12F0E866F876B260E026E000E85
:1006AE00036E1E500226D8B0032AF20E1E24F66EDA
:1006BE00090EF76E000EF722000EF86E000EF822ED
:1006CE000900F5CF00F000508619000ED8A4010ED7
:1006DE00016E0150000A03E1010E7D6E01D07D6AAC
:1006EE0002C0E1FF03C0E2FF7DC0E6FF1F0E026EF7
:1006FE00000E036E1E500226D8B0032AEB0E1E24E7
:10070E00F66E090EF76E000EF722000EF86E000E52
:10071E00F8220900F5CF00F000508619000ED8A47B
:10072E00010E016E0150000A03E1010E7E6E01D032
:10073E007E6A02C0E1FF03C0E2FF7EC0E6FF1E50EC
:10074E00060A2DE1886B896B816B826B800E821994
:10075E00006E800E005C02E11E50815D17E2260ED7
:10076E008125D96E000E8221DA6EDECF00F00050A8
:10077E0088271F0E8125D96E000E8221DA6EDECFFC
:10078E0000F000508927814B822BE0D78851060A52
:10079E0002E1010E1D6E8951060AD8B41D6A1E5063
:1007AE00060A02E17F6A09D01EC001F01E50010F39
:1007BE00006E00C01EF001C07FF07FC01EF0120060
:1007CE000001856B866B81C087F082C088F0800E39
:1007DE008219006E800E005C02E1000E815D0BE25C
:1007EE00010E856F000E866F81510008876F82C0E3
:1007FE0088F0000E885787C08BF088C08CF083C0BD
:10080E008DF084C08EF0BDDC060E7D6E000E7E6E09
:10081E00000E006E7E50005C02E17D50000819E271
:10082E007D508325E16E7E508421E26E010E7D5C4B
:10083E00006E000E7E58016E00508325E96E015049
:10084E008421EA6EEECFE6FF010E7D5E000E7E5A2B
:10085E00DFD783C0E1FF84C0E2FF200EE66E855134
:10086E0086111AE07D6A7E6A7D508325E96E7E5080
:10087E008421EA6EEE50200A03E17D4A7E2AF4D7E7
:10088E00010E7D5E000E7E5A7D508325E16E7E50F8
:0A089E008421E26E2D0EE66E1200BA
:1008A80010D0800E0001816F1AD0C00E816F17D052
:1008B800940E816F14D0D40E816F11D0800E816F89
:1008C8000ED000018151010AECE08151020AEDE0ED
:1008D8008151030AEDE08151040AEDE0EFD782056A
:1008E800006E8151002600C081F000C092F00DDC3E
:1008F8007C907D6A7D508325E96E000E8421EA6E26
:10090800EE520BE07D508325E96E000E8421EA6EDD
:0E091800EECF8BF08FDD7D2AEDD77C801200B4
:10092600FDEC04F0040EC16E8CDDD59CD59AD596EF
:10093600D584D582D580B10ED76EDF0ED66EF294F1
:10094600F28AD58ECA82CA80F28EF086F0909382A1
:100956009488948A948C948E928092829398939A97
:10096600939C939E8198819A819C819E9284928881
:10097600928A93869490949294949496829082927A
:0609860082948296FFD767
:1009FA0010EE1DF05F0E006E010E016E8C0EF66E8B
:0E0A0A00090EF76E000EF86E6FEC02F012008F
:01098C00006A
:01098D000069
:06098E0000000000000063
:010994000062
:060995000000000000005C
:10099B00000000000000000000000000000000004C
:1009AB00000000000000000000000000000000003C
:1009BB00000000000000000000000000000000002C
:1009CB00000000000000000000000000000000001C
:1009DB00000000000000000000000000000000000C
:0709EB002B313833302B00E3
:0709F2002A323032352A00E1
:020000040030CA
:0D000100220F0EFF0181FF0FC00FE00F4026
:00000001FF
