:04000000C6EF0BF04C
:1000080000C018F001C017F00CC016F00DC015F0B4
:10001800F5CF1CF0F8CF19F0F7CF1AF0F6CF1BF098
:10002800F0A00AD03BEC0AF07F0ECC6E9E929D8227
:10003800CA84F096F09011D09EA206D09E929D920E
:10004800CA94F086F09009D0F2A407D0E7EC07F044
:10005800D80ED76EEF0ED66EF2941CC0F5FF19C0FD
:10006800F8FF1AC0F7FF1BC0F6FF18C000F017C052
:0C00780001F016C00CF015C00DF01100D6
:0600840000000000120064
:10008A000F0E0C6E470E0D6E0D2EFED70C2EFCD7E2
:06009A000000000012004E
:0A00A000210E0D6E0D2EFED712008A
:1000AA000B840BAE60EF00F0010E036E026A016A68
:0A00BA00006A0A360232FF0E12003F
:1000C400010132BF02D0839E01D0838E32BD02D0A3
:1000D400839C01D0838C32BB02D0839A01D0838A63
:1000E40032B902D0839801D083887AB002D0848454
:1000F40001D084948482C4DF849232B702D0839E78
:1001040001D0838E32B502D0839C01D0838C32B36C
:1001140002D0839A01D0838A32B102D0839801D06D
:1001240083887AB002D0848401D084948482A8DF46
:0E01340084927AA002D0A7DF01D0B0DF1200C3
:080142000AAE029E000E12003D
:0E014A00026A016A006A086A036A000E120067
:10015800086A096A100E0C6E013408360936045014
:10016800085E0550D8A0053C095ED8B007D00450F9
:1001780008260550D8B0053C0926D8900036013627
:060188000C2EEAD7120064
:10018E000B820BAED1EF00F00368026801680068C5
:08019E000A360232FF0E1200C6
:0C01A6000E0E0D6E0D2EFED70000120094
:1001B2002BC104F02CC105F004C002F005C003F00D
:1001C200044A052A2DC100F02EC101F001012D4B78
:1001D2002E2B00C0E9FF01C0EAFF02C0E1FF03C00D
:1001E200E2FFEECFE6FF02C0E9FF03C0EAFFEE52F4
:0E01F20001E0E2D72BC100F02CC101F0120099
:100200000C6A0E6A0250D8A419EF01F001C002F086
:1002100000C001F0006A0E860250D8A419EF01F068
:1002200001C002F0016A0E960E880250D8B42BEF7E
:1002300001F00E50035ED8A4D8A030EF01F0D890A2
:1002400002BE35EF01F0003601360236032E20EFF4
:1002500001F030EF01F0010E0C6E77DF38EF01F0A6
:10026000020E0C6E22DF38EF01F0040E0C6E69DF17
:0202700012007A
:0C0272007A902BC132F125DF7A80120057
:08027E000B6A0B86FF0E120053
:1002860001012F6B050E2F5D0AE22F512D25E16E20
:10029600000E2E21E26E200EE66E2F2BF3D72F5185
:1002A6002D25E16E000E2E21E26EE66A2F072F51F4
:1002B6002D25306F000E2E21316F0A0E046E000EB2
:1002C600056E2BC100F02CC101F043DF08C000F021
:1002D60009C001F0300E002630C1E1FF31C1E2FF56
:1002E60000C0E6FF0A0E046E000E056E2BC100F07C
:1002F6002CC101F02EDF00C02BF101C02CF1000E45
:10030600011802E1000E001801E102D02F07CFD735
:020316001200D3
:10031800086A080E0C6E003408360450085ED8B01F
:0E03280002D00826D89000360C2EF5D7120011
:100336000A6A0350D8A40A800750D8A40A820A5031
:10034600D8B4FEEF01F0030AD8B4B7EF01F00AB053
:10035600B2EF01F006AEFCEF01F0FAEF01F002AEEB
:10036600FAEF01F0FCEF01F00250800B0A6E029EDC
:100376000650800B069E0A18D8B4C8EF01F00A5042
:10038600D8B4FAEF01F0FCEF01F00750035CD8B4E3
:10039600D2EF01F0D8A0EEEF01F0F4EF01F0065035
:1003A600025CD8B4DCEF01F0D8A0EEEF01F0F4EF78
:1003B60001F00550015CD8B4E6EF01F0D8A0EEEFED
:1003C60001F0F4EF01F00450005CD8B4FEEF01F048
:1003D600D8B0F4EF01F00A52D8B4FCEF01F0FAEF0E
:1003E60001F00A52D8B4FAEF01F0FCEF01F0D88020
:0E03F6001200D8901200D880D8841200120095
:10040400086A096A000E0762036487EF02F002506B
:1004140006180A6E075003267E0ED8A018EF02F0C5
:10042400035ED8B08BEF02F01CEF02F0035ED8A09D
:100434008FEF02F0028E068E02C00EF001C00BF0A8
:1004440000C00DF000500402F4CF0CF0015005027E
:10045400F4CF00F0F3CF08F00402F3500C26F4506C
:100464000822000E00220D500502F3500C26F45011
:100474000822000E002202500402F3500826F45011
:10048400002202500502016A000E0122F3500026E8
:10049400F45001220D500602F3500826F4500022B5
:1004A400026A000E012202220B500602F3500026BB
:1004B400F4500122000E02220E500602F3500126CF
:1004C400F450022202BE6FEF02F008360036013605
:1004D40002360306D8B48FEF02F082EF02F0D88020
:1004E400800E08640030000E002201220222D8A0EF
:1004F40082EF02F0023201320032034A8BEF02F043
:100504000AAE029E000E91EF02F0010E1CDE91EF86
:1005140002F0020E3ADE91EF02F0040EC4DD120086
:100524001DC104F01EC105F004C0E9FF05C0EAFFC7
:10053400EE5203E0044A052AF7D704C002F005C0CE
:1005440003F0044A052A1FC100F020C101F0010193
:100554001F4B202B00C0E9FF01C0EAFF02C0E1FFEE
:1005640003C0E2FFEECFE6FF02C0E9FF03C0EAFFEB
:10057400EE5201E0E2D71DC100F01EC101F01200ED
:10058400FF0E0101216FFF0E226F95D01FC1E1FF05
:1005940020C1E2FF050EE66EFBD01FC1E1FF20C1C2
:1005A400E2FF060EE66E216B226BF2D01FC1E1FF63
:1005B40020C1E2FFE66AECD01FC1E1FF20C1E2FFE7
:1005C400010EE66EE5D01FC1E1FF20C1E2FF060E79
:1005D400E66E010E216F000E226FDAD01FC1E1FF1B
:1005E40020C1E2FF060EE66E020E216F000E226F9E
:1005F400CFD01FC1E1FF20C1E2FF060EE66E030E5D
:10060400216F000E226FC4D01FC1E1FF20C1E2FFA1
:10061400020EE66EBDD01FC1E1FF20C1E2FF060E4F
:10062400E66E040E216F000E226FB2D01FC1E1FFEF
:1006340020C1E2FF060EE66E050E216F000E226F4A
:10064400A7D01FC1E1FF20C1E2FF060EE66E060E31
:10065400216F000E226F9CD01FC1E1FF20C1E2FF79
:10066400030EE66E95D01FC1E1FF20C1E2FF060E26
:10067400E66E070E216F000E226F8AD01FC1E1FFC4
:1006840020C1E2FF060EE66E080E216F000E226FF7
:100694007FD01FC1E1FF20C1E2FF060EE66E090E06
:1006A400216F000E226F74D01FC1E1FF20C1E2FF51
:1006B400040EE66E6DD0000E1E1902E1E70E1D1940
:1006C400D8B464D7000E1E1902E1D70E1D19D8B490
:1006D40064D7000E1E1902E1B70E1D19D8B466D7EF
:1006E400000E1E1902E1770E1D19D8B465D7000E4D
:1006F4001E1902E1EB0E1D19D8B465D7000E1E19A0
:1007040002E1DB0E1D19D8B469D7000E1E1902E1EF
:10071400BB0E1D19D8B46DD7000E1E1902E17B0E55
:100724001D19D8B471D7000E1E1902E1ED0E1D1962
:10073400D8B471D7000E1E1902E1DD0E1D19D8B40C
:1007440075D7000E1E1902E1BD0E1D19D8B479D754
:10075400000E1E1902E17D0E1D19D8B47DD7000EBE
:100764001E1902E1EE0E1D19D8B47DD7000E1E1914
:1007740002E1DE0E1D1982E0000E1E1902E1BE0E1A
:100784001D1987E0000E1E1902E17E0E1D198CE072
:0A07940021C100F022C101F01200A3
:10079E000900F5CFE6FF0006FBE10106F9E11200C4
:1007AE000450000A12E10550000A0FE10650000A3B
:1007BE000CE10750000A09E1FF0E006EFF0E016EFC
:1007CE007F0E026EFF0E036EA5D0086A096A0750EF
:1007DE00D8B482EF04F00350D8B486EF04F0025080
:1007EE0006180A6E028E068E0E6A02C008F001C04E
:1007FE000CF000C00DF004500D5E0550D8A0053C65
:10080E000C5E0650D8A0063C085E086A0C6A0D6A9B
:10081E00D8A019EF04F0D89002320132003208321B
:10082E00010E0E6E0750035ED8A026EF04F07E0E6A
:10083E000E240326D8B08AEF04F02CEF04F07E0EBF
:10084E000E240326D8A08EEF04F0180E0B6E0D3674
:10085E000C3608360036013602360E360450005E6F
:10086E000550D8A0053C015E0650D8A0063C025E9D
:10087E0006340E120EA047EF04F00D8052EF04F076
:10088E00045000260550D8B0053C01260650D8B0BD
:10089E00062802260D900B2E2EEF04F078EF04F0B2
:1008AE00D8900036013602360E360450005E0550E2
:1008BE00D8A0053C015E0650D8A0063C025E063468
:1008CE000E10010B0D26D8B00C2AD8B4082AD8A4C5
:1008DE0078EF04F008320C320D32032AD8B48AEFC6
:1008EE0004F00AAE089E0850026E0C50016E0D50B8
:1008FE00006E91EF04F0010EBBDC91EF04F0020EDE
:10090E001DDC91EF04F0040E3BDC91EF04F0080EB9
:06091E0055EC00F0120090
:1009240010D0800E01011D6F1AD0C00E1D6F17D09C
:10093400940E1D6F14D0D40E1D6F11D0800E1D6F38
:100944000ED001011D51010AECE01D51020AEDE037
:100954001D51030AEDE01D51040AEDE0EFD71E0519
:10096400006E1D51002600C01DF100C032F162EC82
:1009740000F07A90216B21511F25E96E000E202191
:10098400EA6EEE520BE021511F25E96E000E202184
:10099400EA6EEECF2BF16BDC212BEDD77A801200BF
:1009A4000101236B246B1DC125F11EC126F1800EAC
:1009B4001E19006E800E005C02E1000E1D5D0BE24C
:1009C400010E236F000E246F1D510008256F1EC1F8
:1009D40026F1000E265725C12BF126C12CF11FC18B
:1009E4002DF120C12EF14DDC060E216F000E226F79
:1009F400000E006E2251005C02E12151000819E250
:100A040021511F25E16E22512021E26E010E215D4C
:100A1400006E000E2259016E00501F25E96E015030
:100A24002021EA6EEECFE6FF010E215F000E225B6D
:100A3400DFD71FC1E1FF20C1E2FF200EE66E235184
:100A440024111AE0216B226B21511F25E96E2251DA
:100A54002021EA6EEE50200A03E1214B222BF4D729
:100A6400010E215F000E225B21511F25E16E2251F0
:0A0A74002021E26E2D0EE66E120046
:100A7E00C26AC00EC212C18CC18E1DC100F00036FA
:100A8E00009000360090003600900050C212C280D6
:100A9E00D3EC00F0C284C2A401D0FDD7C4CF01F0C4
:0E0AAE00006AC3500012000E0112C290120026
:100ABC000050086E0150006E016A026A036A0B6AEC
:100ACC000C6A960E036E0A6A00C001F008C000F0B2
:0A0ADC00086A026A00EC01F0120043
:100AE6000101296B2A6B1DC125F11EC126F11FC10B
:100AF60027F120C128F12851FF0A08E12751FF0AF2
:100B060005E12651FF0A02E12551FF0A0DE121C147
:100B16002BF122C12CF13C0E2D6F000E2E6FD9EC5D
:100B260000F0030E006EEDD1010E236F27AF0ED03D
:100B3600800E2719006E00C027F1232B21C1E1FF8B
:100B460022C1E2FF2D0EE66E214B222B000E006E17
:100B5600281908E10050271905E10050261902E17D
:100B66002551000A0CE121C12BF122C12CF1400EC6
:100B76002D6F000E2E6FD9EC00F0006AC2D12851FD
:100B8600FF0A08E12751000A05E12651000A02E1A1
:100B96002551000A0DE121C12BF122C12CF1760E5F
:100BA6002D6F000E2E6FD9EC00F023C100F0A9D1F5
:100BB600000E046E000E056E000E066E7F0E076EAA
:100BC60025C100F026C101F027C102F028C103F0BB
:100BD6009BEC01F0010ED8B0000E006E00521CE036
:100BE60025C100F026C101F027C102F028C103F09B
:100BF600000E046E000E056E200E066E820E076E47
:100C060002EC02F000C025F101C026F102C027F176
:100C160003C028F12A07CCD7000E046E000E056E1D
:100C2600200E066E820E076E25C100F026C101F069
:100C360027C102F028C103F09BEC01F0000ED8B0EA
:100C4600010E006E00521CE025C100F026C101F025
:100C560027C102F028C103F0CD0E046ECC0E056E3E
:100C66004C0E066E7B0E076E02EC02F000C025F1FC
:100C760001C026F102C027F103C028F12A2BCCD7E8
:100C8600FF0E2515086EFF0E2615096E7F0E271519
:100C96000A6E000E28150B6E08C004F009C005F098
:100CA6000AC006F00BC007F0043604900536063677
:100CB6000736000E2515006E000E2615016E000E75
:100CC6002715026EFF0E2815036E00C025F101C020
:100CD60026F102C027F103C028F104502511006E49
:100CE60005502611016E06502711026E0750281175
:100CF600036E00C025F101C026F102C027F103C032
:100D060028F17F0E285D006E00C024F1010E286FC9
:100D160000C004F025C100F026C101F027C102F091
:100D260028C103F0045007E0003600900136023671
:100D36000336FF0FF8D700C025F101C026F102C027
:100D460027F103C028F121C1E1FF22C1E2FF2851AA
:100D5600300FE66E214B222B800E2A19006E800E74
:100D6600010A005C08E3800E060A006E800E2A194E
:100D7600005C01E30AD021C1E1FF22C1E2FF2E0E91
:100D8600E66E214B222B010E296F060E246F24518D
:100D9600000A54E0286B25C100F026C101F027C1E6
:100DA60002F028C103F00036009001360236033601
:100DB60000360090013602360336255100262651AC
:100DC6000122275102222851032200C025F101C029
:100DD60026F102C027F103C028F125C100F026C183
:100DE60001F027C102F028C103F000360090013659
:100DF6000236033600C025F101C026F102C027F1F4
:100E060003C028F121C1E1FF22C1E2FF2851300FC2
:100E1600E66E214B222B2951000A0EE12A072A51A0
:100E2600000A0AE121C1E1FF22C1E2FF2E0EE66EB1
:100E3600214B222B010E296F2407A9D7FF0E21254E
:100E4600E96EFF0E2221EA6EEE50300A05E1010E30
:100E5600215F000E225BF2D7FF0E2125E96EFF0E01
:100E66002221EA6EEE502E0A04E1010E215F000EE9
:100E7600225B2A51000A3FE021C1E1FF22C1E2FFC5
:100E8600650EE66E214B222B800E2A19006E800E0F
:100E9600000A005C0BE221C1E1FF22C1E2FF2D0E38
:100EA600E66E214B222B2A5100082A6F2AC124F113
:100EB6002A5109080FE20A0E046E24C100F08CECD8
:100EC60001F021C1E1FF22C1E2FF0050300FE66EC2
:100ED600214B222B0A0E046E24C100F08CEC01F08B
:100EE60008C000F021C1E1FF22C1E2FF0050300F2F
:100EF600E66E214B222B21C1E1FF22C1E2FFE66A09
:040F0600006A12006B
:100F0A00969296949598959A959C959E8492849497
:100F1A00839E839C839A839845EC00F045EC00F00D
:100F2A0045EC00F0838A8388848242EC00F0849244
:100F3A0045EC00F0848242EC00F0849245EC00F02B
:100F4A00848242EC00F0849245EC00F0839884821B
:100F5A0042EC00F0849245EC00F0848242EC00F00E
:100F6A008492839A838E848242EC00F0849245ECC8
:100F7A0000F0839E8388848242EC00F084928398F6
:100F8A00848242EC00F0849245EC00F0848242ECC8
:100F9A0000F084928388848242EC00F0849245ECCB
:100FAA0000F08398848242EC00F08492838E838CD2
:100FBA00838A8388848242EC00F0849245EC00F0B4
:040FCA007A80120017
:100FCE0001011D6B55DD73DD000E046EC00E056E46
:100FDE007F0E066E880E076ED7EC03F0000E046EC1
:100FEE00000E056E200E066E810E076E02EC02F0EC
:100FFE0000C05EF001C05FF002C060F003C061F09F
:10100E00010E01011D6F34DD52DD000E046EC00EA7
:10101E00056E7F0E066E880E076ED7EC03F0000E7F
:10102E00046E000E056E200E066E810E076E02EC2B
:10103E0002F000C05AF001C05BF002C05CF003C0C9
:10104E005DF05252D8B48CD10001F96BFA6B82B8B4
:10105E0002D0829001D0828082BA02D0829201D0D8
:10106E00828282BC02D0829401D0828482BE02D05F
:10107E00829601D082860001006A82B8002A005052
:10108E00F927000EFA23006A82BA002A0050F927C7
:10109E00000EFA23006A82BC002A0050F927000EC7
:1010AE00FA23006A82BE002A0050F927000EFA23A6
:1010BE00000E046E000E056E000E066E810E076E9B
:1010CE005EC000F05FC001F060C002F061C003F0CE
:1010DE009BEC01F0000ED8B0010E006E005203E042
:1010EE00010E006E01D0006A0050F927000E00BEFE
:1010FE00FF0EFA235AC004F05BC005F05CC006F088
:10110E005DC007F0000E006E000E016E400E026E06
:10111E00800E036E9BEC01F0010ED8B0000E006E37
:10112E00005203E0010E006E01D0006A0050F92556
:10113E00016E000E00BEFF0EFA21026E01C0F9F024
:10114E0002C0FAF0800E0218006E800E005C02E102
:10115E00020E015C03E3010E006E01D0006A005224
:10116E0047E0F40EF66E170EF76E000EF86E810E57
:10117E00E16E000EE26E3C0E006E010E016ECFECC3
:10118E0003F0F9C01DF1FAC01EF17B0E01011F6FB5
:10119E00000E206F00DC010E326F62EC00F0810E4B
:1011AE001D6F000E1E6F530E1F6F000E206F92EC00
:1011BE0002F0810E1D6F000E1E6F7B0E1F6F000E54
:1011CE00206F92EC02F0010E1D6F010E1E6F810E4C
:1011DE001F6F000E206F92EC04F0020E1D6F010EB9
:1011EE001E6F680E1F6F000E206F92EC04F0B7D0CA
:1011FE00300EF66E180EF76E000EF86EBD0EE16E26
:10120E00000EE26E3C0E006E010E016ECFEC03F08E
:10121E0082A80BD00101FB0E2B6F000E2C6F740EEB
:10122E002D6F000E2E6FD9EC00F082AA0BD00101AB
:10123E00FB0E2B6F000E2C6F660E2D6F000E2E6F99
:10124E00D9EC00F082AC0BD00101FB0E2B6F000E1F
:10125E002C6F620E2D6F000E2E6FD9EC00F082AE49
:10126E000BD00101FB0E2B6F000E2C6F640E2D6F39
:10127E00000E2E6FD9EC00F0000E046E000E056EFF
:10128E00000E066E810E076E5EC000F05FC001F0AC
:10129E0060C002F061C003F09BEC01F0000ED8B00C
:1012AE00010E006E00520BE00101FB0E2B6F000EC3
:1012BE002C6F500E2D6F000E2E6FD9EC00F05AC011
:1012CE0004F05BC005F05CC006F05DC007F0000ED8
:1012DE00006E000E016E400E026E800E036E9BECD1
:1012EE0001F0010ED8B0000E006E00520BE00101AD
:1012FE00FB0E2B6F000E2C6F2D0E2D6F000E2E6F12
:10130E00D9EC00F00101010E326F62EC00F0BD0E5F
:10131E001D6F000E1E6F2F0E1F6F000E206F92ECB2
:10132E0002F0BD0E1D6F000E1E6FFB0E1F6F000E26
:10133E00206F92EC02F0010E1D6F010E1E6FBD0E9E
:10134E001F6F000E206F92EC04F0020E1D6F010E47
:10135E001E6F210E1F6F000E206F92EC04F083D0D3
:10136E00000E046E000E056E000E066E7F0E076EEA
:10137E005EC000F05FC001F060C002F061C003F01B
:10138E009BEC01F0010ED8B0000E006E005204E08E
:10139E005E6A5F6A606A616A000E046E000E056E18
:1013AE00000E066E7F0E076E5AC000F05BC001F095
:1013BE005CC002F05DC003F09BEC01F0010ED8B0F2
:1013CE00000E006E005204E05A6A5B6A5C6A5D6A47
:1013DE0001015EC01DF15FC01EF160C01FF161C052
:1013EE0020F1FF0E216F000E226F73EC05F05AC034
:1013FE001DF15BC01EF15CC01FF15DC020F10E0E31
:10140E00216F010E226F73EC05F0026B116B010E52
:10141E00326F62EC00F0010E1D6F010E1E6FFF0E9B
:10142E001F6F000E206F92EC04F0010E1D6F040E64
:10143E001E6F1D0E1F6F000E206F92EC04F0020E39
:10144E001D6F010E1E6F0E0E1F6F010E206F92ECA0
:10145E0004F0020E1D6F040E1E6F1F0E1F6F000E86
:08146E00206F92EC04F0120063
:101476000001856B7D6A0F0E856F85510F0A48E165
:101486007DC001F0010E006E015004E000360090B0
:10149600FF0FFBD7001C026E02C000F00036009062
:1014A60000360090003600900036009000C081FFA4
:1014B600026A80B8022A02C000F000360090000ED0
:1014C60080B4010E856F00508513036A80BA032A23
:1014D60003C000F0000E016E0036009001360036A3
:1014E6000090013600508513036A81B6032A030E65
:1014F600026E03C000F0000E016E025005E00036D9
:1015060000900136FF0FFAD7005085137D2AB5D714
:10151600040E006E81CF1DF1000E01011E6F0050FA
:1015260004E01D331D9FFF0FFBD7816A85C000F0C5
:10153600003600900036009000360090003600908D
:1015460000501D111D6F000E1E6F7E0E1F6F000EC8
:10155600206FC2EC02F000C081F001C082F07E5024
:10156600060A51E1000E0001821902E1000E8119FE
:1015760002E1300E7F6E000E821902E1010E811922
:1015860002E1310E7F6E000E821902E1020E811910
:1015960002E1320E7F6E000E821902E1030E8119FE
:1015A60002E1330E7F6E000E821902E1040E8119EC
:1015B60002E1340E7F6E000E821902E1050E8119DA
:1015C60002E1350E7F6E000E821902E1060E8119C8
:1015D60002E1360E7F6E000E821902E1070E8119B6
:1015E60002E1370E7F6E000E821902E1080E8119A4
:1015F60002E1380E7F6E000E821902E1090E811992
:1016060002E1390E7F6E7E50010A02E12B0E7F6EDB
:101616007E50020A02E12D0E7F6E7E50030A02E121
:101626002A0E7F6E7E50040A02E12F0E7F6E0001A5
:10163600806B010E01011D6F0F0E1E6F7F0E1F6F57
:10164600000E206F92EC04F0480E4E24026E000E3F
:101656004F20036ECB0E4E24F66E180E4F20F76EFB
:10166600000EF86E000E4FBEFF0EF8220900F5CFF1
:1016760000F000507F18000ED8A4010E016E015034
:10168600000A03E1010E006E01D0006A02C0E1FF0C
:1016960003C0E2FF00C0E6FF420E4E24026E000EBB
:1016A6004F20036ED20E4E24F66E180E4F20F76EA4
:1016B600000EF86E000E4FBEFF0EF8220900F5CFA1
:1016C60000F000507F18000ED8A4010E016E0150E4
:1016D600000A03E1010E006E01D0006A02C0E1FFBC
:1016E60003C0E2FF00C0E6FF000E4F1802E1050E40
:1016F6004E1831E10001836B846B7B6A7C6A800E35
:101706004F18006E800E7C18005C02E17B504E5C28
:1017160018E30001480E7B24D96E000E7C20DA6E99
:10172600DECF00F000508327420E7B24D96E000ED8
:101736007C20DA6EDECF00F0005084277B4A7C2ABC
:10174600DED700018351060A02E1010E526E845172
:10175600060AD8B4526A000E4F1802E1050E4E185A
:1017660003E1026A036A0AD0010E4E24006E000EDF
:101776004F20016E00C002F001C003F002C04EF01F
:0617860003C04FF0120049
:10178C006DEC0CF0040EC16E85EC07F0D59CD59A6F
:10179C00D596D584D582D580D80ED76EEF0ED66E61
:1017AC00F294F28AD58ECA82CA80F28EF086F090BC
:1017BC0093829488948A948C948E9280928293983B
:1017CC00939A939C939E8198819A819C819E9284FA
:1017DC009288928A93869490949294949496829000
:0817EC00829282948296FFD7DD
:1018DA0010EE1DF05D0E006E010E016E6E0EF66EBC
:0E18EA00180EF76E000EF86ECFEC03F0120031
:1017F40000000000000000000000000000000000E5
:1018040000000000000000000000000000000000D4
:1018140000000000000000000000000000000000C4
:0C182400000000000000000000000000B8
:1018300000000000000000000000000000000000A8
:101840000000000000000000000000000000000098
:101850000000000000000000000000000000000088
:0C1860000000000000000000000000007C
:02186C0000007A
:02186E00560022
:02187000560020
:0C18720020632F206465666569746F00B8
:02187E00360032
:0D188000496E74722E2F73656E732E20005A
:04188D004E614E005A
:02189100300025
:061893000000000000004F
:0618990000000000000049
:02189F00000047
:0218A100350010
:0118A3000044
:0718A400496E74722E200052
:0418AB000000000039
:0418AF000000000035
:0218B300330000
:0218B5003400FD
:0218B7003200FD
:0C18B9002073656E732E20617469760048
:0218C5003100F0
:0418C700494E460040
:0718CB002A323032352A00F9
:0718D2002B313833302B00ED
:020000040030CA
:0D000100220F0EFF0181FF0FC00FE00F4026
:00000001FF
